:1000000010250020D9BD0000D1BE0000D1BE0000E7
:1000100000000000000000000000000000000000E0
:10002000000000000000000000000000D1BE000041
:100030000000000000000000D1BE0000D1BE0000A2
:10004000D1BE0000D1BE0000D1BE00006907000093
:10005000F97E0000D1BE0000D1BE0000D1BE00007C
:10006000D1BE0000818A0000998A0000B18A000098
:10007000C98A0000E18A0000F98A000021BD000061
:1000800035BD000049BD0000F10700000508000073
:10009000190800000000000000000000D1BE0000B0
:1000A000D1BE0000D1BE0000D1BE0000D1BE000014
:1000B0000000000010B5064C2378002B07D1054B3B
:1000C000002B02D0044800E000BF0123237010BDC4
:1000D000800000200000000000020100084B10B565
:1000E000002B03D00749084800E000BF0748036819
:1000F000002B00D110BD064B002BFBD09847F9E731
:100100000000000084000020000201000002010045
:100110000000000080B582B000AF78607B680022EC
:100120001A70C046BD4602B080BD000080B582B0E6
:1001300000AF02003960FB1D1A70FB1D1B78012BFC
:100140000AD0022B0FD0002B14D10E4B0D4A91690F
:100150003A680A439A610FE00A4B0A4AD1693A6841
:100160000A43DA6108E0074B064A116A3A680A4313
:100170001A6201E0172300E000231800BD4602B018
:1001800080BDC0460004004080B582B000AF0200D0
:10019000FB1D1A70064BFA1D127811001F220A402F
:1001A000012191400A001A60C046BD4602B080BDE0
:1001B00000E100E080B582B000AF0200FB1D1A70C4
:1001C000074AFB1D1B7819001F230B400121994092
:1001D0000B0019008023D150C046BD4602B080BD3F
:1001E00000E100E080B584B000AF78607B681B68F8
:1001F000FB60FB689B7ADBB25BB2002B01DA012368
:1002000000E000231800BD4604B080BD80B584B076
:1002100000AF78607B681B68FB6003200A4B98473F
:10022000C0467B681800094B9847031EF9D1FB684C
:100230001B889BB2022213439AB2FB681A80C04605
:10024000BD4604B080BDC04689010000E501000044
:1002500080B584B000AF78607B681B68FB600320CA
:100260000D4B9847C0467B6818000C4B9847031EFF
:10027000F9D1FB68C1229A71FB68C1221A72FB682E
:100280001B889BB2022293439AB2FB681A80C04635
:10029000BD4604B080BDC046B5010000E5010000C8
:1002A00080B584B000AF78607B681B68FB607B68BA
:1002B00018000D4B98477B6800221A827B68002249
:1002C0005A82C0467B681800084B9847031EF9D134
:1002D000FB681B889BB2012213439AB2FB681A8009
:1002E000C046BD4604B080BD51020000E5010000DB
:1002F00080B584B000AF786039603B68DB881A0055
:100300007B68DB88D31A9B06FB603B685B799B05A7
:100310001A00FB681343FB603B681B795B041A00FF
:10032000FB681343FB603B689B781B031A00FB6868
:100330001343FB607B681B7901225340DBB2002B27
:1003400008D03B68DB78002B04D0FB688022520287
:100350001343FB603B685B789B011A00FB68134307
:10036000FB603B681B781A00FB681343FB60FB686B
:100370001800BD4604B080BD80B584B000AFF86001
:10038000B9607A60BB689B0E9AB2FB68DB88D318B1
:100390009AB27B68DA80BB689B0DDBB20F221340F8
:1003A000DAB27B685A71BB685B0CDBB21F22134068
:1003B000DAB27B681A71FB681B79002B08D0BB6826
:1003C0001B0BDBB21F221340DAB27B689A7010E07D
:1003D000BB681B0BDBB20F221340DAB27B689A704A
:1003E000BA6880235B0213405A1E9341DAB27B68DD
:1003F000DA70BB689B09DBB23F221340DAB27B683C
:100400005A70BB68DBB23F221340DAB27B681A70C5
:10041000C046BD4604B080BD80B584B000AF7860F2
:1004200039607B681B68BB603B681A880E23FB1829
:1004300008210A431A803B681B7901225340DBB232
:10044000002B07D00E23FB180E22BA181288402169
:100450000A431A803B689B78002B07D00E23FB18B9
:100460000E22BA18128880210A431A80BB680E2215
:10047000BA1812881A803B68DB78002B08D0BB685A
:100480005B889BB28022D20113439AB2BB685A8028
:100490000D23FB1800221A7017E00D23FB181A78A1
:1004A00013009B009B185B0008333A68D1180D239A
:1004B000FB181A787B681800084B98470D23FB1827
:1004C0001A780D23FB1801321A700D23FB181B78C4
:1004D000002BE2D0C046BD4604B080BD45060000FA
:1004E00080B586B000AFF860B9607A60FB68BA6822
:1004F0001A6020210020184B98471423FB1818007D
:10050000164B98471423FB1802221A701423FB1869
:1005100019000420124B98470420124B9847FB689F
:100520001800114B98477B681A79FB681A717B6831
:10053000DA78FB685A717B68DA88FB68DA800B4BE3
:10054000FA681A607A68FB6811001800084B98472F
:10055000C046BD4606B080BD2D010000150100005B
:10056000BDAD000001AE0000A1020000200300208C
:100570001904000080B584B000AF786039607B68F2
:100580001B68FB603A687B6811001800084B9847AD
:100590000300BB60C0467B681800064B9847031EEB
:1005A000F9D1FB68BA681A61C046BD4604B080BD87
:1005B000F1020000E501000080B584B000AF786072
:1005C00039607B681B68FB607B685B790122534064
:1005D000DBB2002B0AD0FB68164A5A80C0467B6803
:1005E0001800154B9847031EF9D116E0FB685B888D
:1005F0009BB21A008023DB0113400ED1FB685B889D
:100600009BB20E4A13439AB2FB685A80C0467B687D
:100610001800094B9847031EF9D1FB681B69BB60A2
:100620003A68B9687B681800054B9847C046BD46D4
:1006300004B080BD0080FFFFE501000000C0FFFFA7
:100640007903000080B586B000AFF860B960FB1D8B
:100650001A70FB681B687B61FB1D1B78012B01D99D
:10066000172321E0BA68FB6811001800104B984767
:1006700003003B61C046FB6818000E4B9847031E01
:10068000F9D1FB1D1A787B690332D2003969D15048
:10069000FB1D1B78BA68117A7A690333DB00D31823
:1006A00004330A1C1A7000231800BD4606B080BD32
:1006B000F1020000E501000080B586B000AF78606F
:1006C000284B7A689200D3587B617B691B683B6139
:1006D0000E23FB187A69528A1A807B691B8A9AB2A8
:1006E0000E23FB180E21791809880A401A803B69ED
:1006F0001B7ADAB20C23FB181A803B69DB79DBB278
:100700009AB20C23FB180C21791809880A401A8028
:100710000C23FB181B88802213400CD00E23FB18DF
:100720001B880222134002D07B69DB6898473B6933
:1007300080221A7211E00C23FB181B88012213403F
:100740000BD00E23FB181B880122134002D07B69BB
:100750009B6898473B6901221A72C046BD4606B0A5
:1007600080BDC0462003002080B500AF0020024BB2
:100770009847C046BD4680BDB906000080B584B02C
:1007800000AFF860B960FB1D1A70FB1D1A78FB689A
:1007900002329200B968D150FB1D1B78022B07D1A1
:1007A000FB681B7E10221343DAB2FB681A7619E04D
:1007B000FB1D1B78032B07D1FB681B7E20221343F4
:1007C000DAB2FB681A760DE0FB681B7E5AB2FB1D9D
:1007D0001B78012199400B005BB213435BB2DAB284
:1007E000FB681A7600231800BD4604B080BD0000E7
:1007F00080B500AF0020024B9847C046BD4680BD83
:100800002D08000080B500AF0120024B9847C0467C
:10081000BD4680BD2D08000080B500AF0220024B10
:100820009847C046BD4680BD2D08000080B584B005
:1008300000AF0200FB1D1A70FB1D1A78284B9200B6
:10084000D358FB60FB681B689B7BDBB2FA68127EA7
:100850001340DAB2FB68597E0B23FB180A401A706A
:100860000B23FB181B780122134008D0FB689B6800
:10087000FA6810009847FB681B6801229A730B23E3
:10088000FB181B780222134008D0FB68DB68FA686B
:1008900010009847FB681B6802229A730B23FB1811
:1008A0001B781022134008D0FB681B69FA681000FF
:1008B0009847FB681B6810229A730B23FB181B7860
:1008C0002022134008D0FB685B69FA681000984743
:1008D000FB681B6820229A73C046BD4604B080BDE9
:1008E0002403002080B582B000AF78607B680022CE
:1008F0001A70C046BD4602B080BD000080B582B00F
:1009000000AF02003960FB1D1A70FB1D1B78012B24
:100910000AD0022B0FD0002B14D10E4B0D4A916937
:100920003A680A439A610FE00A4B0A4AD1693A6869
:100930000A43DA6108E0074B064A116A3A680A433B
:100940001A6201E0172300E000231800BD4602B040
:1009500080BDC0460004004080B582B000AF786022
:100960007B6880221A707B6800225A707B680122A3
:100970009A707B680022DA70C046BD4602B080BD26
:1009800080B584B000AF78607B681B68FB60FB6853
:10099000DB7BDBB21A00802313405A1E9341DBB28B
:1009A0001800BD4604B080BD90B587B000AF786038
:1009B0000823FB180D4A13CA13C300237B610DE003
:1009C0000823FB187A699200D2587B689A4202D1B8
:1009D0007B69DBB206E07B6901337B617B69022BBB
:1009E000EED900231800BD4607B090BDCCED000045
:1009F00090B58DB000AFF860B9607A602E23FB1817
:100A000000221A802D23FB1800221A702C23FB18B9
:100A100000221A702923FC18BB681800BF4B9847A6
:100A2000030023702423FA18BD4B10001900032380
:100A30001A00BC4B98471C23FA18BB4B1000190036
:100A400006231A00B74B98472B23FB1800221A7075
:100A50000EE02B23FB181A78FB680232920000216B
:100A6000D1502B23FB181A782B23FB1801321A7054
:100A70002B23FB181B78032BEBD9FB6800221A767B
:100A8000FB6800225A762923FB181A78A74B92009C
:100A9000F968D150FB68BA681A607B689B78082BAC
:100AA00008D12923FB181B7803330122134001D0FE
:100AB0001723C4E17B689A78FB681A71BB681B88AE
:100AC0009BB21A000123134001D00523B7E1BB6894
:100AD000DB7BDBB21A001023134001D01C23AEE1F4
:100AE000BB681B889BB21A000223134001D01C2351
:100AF000A5E17B681B7C002B17D01823FB1818007E
:100B00008B4B98477B689B69DAB21823FB181A70E5
:100B10001823FB1801225A707B685B69DBB218222C
:100B2000BA1811001800834B98477B681B7F002B75
:100B300017D01823FB1818007D4B98477B685B6A19
:100B4000DAB21823FB181A701823FB1801225A7006
:100B50007B681B6ADBB21822BA1811001800754BAB
:100B600098472923FB181A781C23FB185200D35AE4
:100B700019000220704B98477B689B78082B0BD19B
:100B80002923FB181B785A1C1C23FB185200D35A2C
:100B900019000220684B98471423FB181800674B74
:100BA00098477B681A781423FB181A702923FB18BE
:100BB0001B782422BA18D35C1422BA18110018002A
:100BC0005F4B98472923FB181B782422BA18D35C63
:100BD00018005C4B98477B689A787B689B79134335
:100BE000DBB29AB27B681B89134399B27B689A88FF
:100BF0002E23FB180A431A807B685B78002B08D0F1
:100C00002E23FB182E22BA181288802109010A43CC
:100C10001A80C046FB6818004B4B9847031EF9D159
:100C2000BB682E22BA1812881A807B685B7B002B67
:100C300003D02D23FB1804221A707B689B7B002BAA
:100C400007D02D23FB182D22BA18127801210A4350
:100C50001A70C046FB6818003B4B9847031EF9D139
:100C6000BB68FF221A712D23FB181B78002B0BD0B9
:100C7000C046FB681800344B9847031EF9D1BB6887
:100C80002D22BA1812785A712C23FB187A68927A9E
:100C90001A702A23FB1800221A701CE02A23FB1862
:100CA0001B787A68D318DB7A002B0DD02A23FB1827
:100CB0001B7810229A401300D9B22C23FB182C2247
:100CC000BA1812780A431A702A23FB181A782A23B2
:100CD000FB1801321A702A23FB181B78012BDDD96F
:100CE000C046FB681800184B9847031EF9D1BB6833
:100CF0002C22BA1812789A71C046FB681800124B61
:100D00009847031EF9D1FB681B79042B1ED0082BD2
:100D100000D170E0002B4BD090E0C046A909000044
:100D2000D8ED000099D80000DCED0000240300207D
:100D300059090000A9B00000FD080000E508000006
:100D4000BDAD000001AE000081090000C046FB6897
:100D500018003D4B9847031EF9D17B6828229A5C06
:100D6000BB681A74C046FB681800374B9847031ECF
:100D7000F9D17B6829229A5CBB681A75C046FB686A
:100D80001800314B9847031EF9D17B682A229A5CE0
:100D9000BB681A76C046FB6818002B4B9847031EA9
:100DA000F9D17B682B229A5CBB685A76002346E017
:100DB000C046FB681800244B9847031EF9D17B6896
:100DC0001A8DBB681A82C046FB6818001E4B9847F4
:100DD000031EF9D17B685A8DBB681A83C046FB6835
:100DE0001800194B9847031EF9D17B689A8DBB6890
:100DF0005A83002323E0C046FB681800124B984733
:100E0000031EF9D17B689A6ABB681A61C046FB6809
:100E100018000D4B9847031EF9D17B68DA6ABB684E
:100E20009A61C046FB681800074B9847031EF9D12A
:100E30007B681A6BBB68DA61002300E01723180097
:100E4000BD460DB090BDC0468109000080B584B09C
:100E500000AF786039607B681B68FB60C0467B68C8
:100E60001800114B9847031EF9D17B681B79042B9E
:100E700004D0082B0ED0002B06D010E03B68DAB26D
:100E8000FB681A7400230BE03B689AB2FB681A8275
:100E9000002305E0FB683A681A61002300E017238D
:100EA0001800BD4604B080BD8109000080B584B043
:100EB00000AF0200FB1D1A700F23FB18FA1D1278F9
:100EC000D2091A700E23FB18FA1D127852091A70F3
:100ED0000D4BBB600F23FB181B78002B0FD10F238A
:100EE000FB181B789B0010229446BC446344083BCB
:100EF0001A680E23FB181B78DB01D31800E00023CF
:100F00001800BD4604B080BD0044004180B582B0E9
:100F100000AF0200FB1D1A70FB1D1B781800034B6D
:100F2000984703001800BD4602B080BDAD0E00001A
:100F300080B584B000AF0200FB1D1A70FB1D1B784A
:100F40001800094B98470300FB60FB1D1B781F220C
:100F5000134001229A401300BB60FB68BA68DA6153
:100F6000C046BD4604B080BD0D0F000080B500AF87
:100F7000044B01221A710B20034B9847C046BD4613
:100F800080BDC046D4020020310F000080B500AF04
:100F9000064B002207211800054B98470021072027
:100FA000044B9847C046BD4680BDC0466D0F00004B
:100FB000057E0000697E000080B584B000AF3B1D57
:100FC00018000E4B98473B1D37221A603B1D00222C
:100FD0005A603B1D01221A723B1D0222DA723B1D30
:100FE00001229A723B1D19000720054B9847054BBB
:100FF0009847C046BD4604B080BDC046058200008B
:10100000398200008D0F000080B584B000AF02006F
:10101000FB1D1A700F23FB18FA1D1278D2091A70E3
:101020000E23FB18FA1D127852091A700D4BBB6083
:101030000F23FB181B78002B0FD10F23FB181B78F5
:101040009B0010229446BC446344083B1A680E235C
:10105000FB181B78DB01D31800E000231800BD4605
:1010600004B080BD0044004180B582B000AF0200F2
:10107000FB1D1A70FB1D1B781800034B98470300DB
:101080001800BD4602B080BD0910000080B584B0D4
:1010900000AF0200FB1D1A70BB1D0A1C1A70FB1D5D
:1010A0001B7818000D4B98470300FB60FB1D1B7855
:1010B0001F22134001229A401300BB60BB1D1B7806
:1010C000002B03D0FB68BA689A6102E0FB68BA683B
:1010D0005A61C046BD4604B080BDC04669100000DC
:1010E00080B582B000AF3B1D1800084B98473A1DF1
:1010F000074B11001800074B9847054B1800064B8B
:101100009847C046BD4602B080BDC046D1C1000070
:1011100030030020F5C10000E1C2000090B587B0A7
:1011200002AF02003960FB1D1A70FB1D1B782C2BCF
:1011300002D0322B24D040E03B68FB60FB681B7878
:10114000012B06D11F4B18001F4B98471F4B984788
:1011500032E0FB681B78002B2ED11D4B18001A4B78
:1011600098471C4A1C48FF230093130002220A21BF
:101170001A4CA0471A4B012118001A4B98471BE044
:101180003B68BB60BB681B781900BB6801331B78E8
:101190001A00BB6802331B781C00BB6803331B7842
:1011A000114800932300114CA047114A0C4B110029
:1011B0001800104B984700E0C046C046BD4605B039
:1011C00090BDC046F8ED00004DDB0000714A000004
:1011D0000CEE000020EE000034EE0000B5450000EB
:1011E000E0000020A9D0000040EE000031DA00004D
:1011F000E4ED00009DC8000080B582B000AF3A6009
:10120000FB1D021C1A70BB1D0A1C1A703A68BB1D1C
:101210001978FB1D1B785BB21800034B9847C0463A
:10122000BD4602B080BDC046E9D3000080B582B0A3
:1012300000AF786039603A687B6811001800034B92
:101240009847C046BD4602B080BDC04649C80000B0
:1012500090B58DB006AFF860B9607A60BB68012BBD
:101260002DD002DC002B06D0A3E0052B00D189E0B5
:10127000062B47D09DE07B681B68002B12DBF868CB
:101280000023059300230493002303930023029378
:1012900000230193494B0093002300220121484C75
:1012A000A04786E0474A484B11001800474B984733
:1012B000444AFB6811001800454B984779E07B6869
:1012C0001B78002B15D14349FB6800221800424BC4
:1012D0009847424B01221A7001212320404B984726
:1012E000002102203E4B98473E4B18003E4B98474A
:1012F0005FE07B681B781A003C4B11001800334BF1
:10130000984756E07B681B68002B51D07B689B6830
:10131000002B4DD07B681B68354917221800354BD0
:101320009847031E44D117237B610AE07B681A6843
:101330007B69D3181B7818002F4B98477B690133C2
:101340007B617B685A687B699A42EFDC2B4B180003
:101350001E4B984700233B610AE07B689A683B6913
:10136000D3181B781800244B98473B6901333B6125
:101370007B68DA683B699A42EFDC214B18001A4B14
:10138000984715E0154B00221A7000212320144BBA
:10139000984701210220124B98471A4B1800124B14
:1013A0009847084AFB6811001800094B984700E06D
:1013B000C046C046BD4607B090BDC0469C00002058
:1013C000B1C90000E4ED00005CEE000031DA00007D
:1013D0009DC8000094EE000009CE0000DC00002053
:1013E0008D100000B0EE00004DDB0000E0EE0000CC
:1013F00014EF000067DD000065DA00002CEF00004C
:1014000034EF000038EF000080B588B000AF3B003B
:1014100018001B4B98473B001A4A1A803B001A4A97
:101420005A603B00194ADA603B0080221A613A0098
:10143000174B11001800174B98470300FB61FB691D
:10144000002B06DAFA69144B11001800134B984769
:10145000FEE7134A0E4B11001800124B9847030089
:10146000FB61FB69002B06DAFA690F4B11001800CB
:101470000A4B9847FEE7C046BD4608B080BDC0464F
:1014800089C700005B0700003003002054010020E2
:10149000E0000020ADC700004CEF000031DA000092
:1014A0005112000039C8000080EF0000B0B58AB0CA
:1014B00002AF6B461D0096B002AB0033FB612D4BB3
:1014C00098472D4B98472D4B98472D4B402118009E
:1014D0002C4B98472C4B54221A702B4B57225A7086
:1014E000294A2A4B11001800264B9847F869264BC9
:1014F000274A2849284CA047FA69284B11001800B0
:10150000204B98473B00182200211800244B984795
:101510003B00244A1A601B23FC183B001800224B96
:101520009847030023701B23FB181B785BB2002B2A
:1015300009D01B23FB1800229A561C4B11001800DF
:10154000104B9847FEE71A4B98471A4A1A4B11005E
:1015500018001A4B98471A4A1A48FF2300931300A1
:1015600002220A21184CA047AD46C046BD4608B02D
:10157000B0BDC046E1100000091400008929000038
:10158000B4EF000031DA00009C000020E0EF000022
:1015900014EF0000ECEF0000F1DC0000F4EF0000BD
:1015A000CFD800001D1100000D44000004F0000021
:1015B000297100002D120000F9110000797100005E
:1015C00020EE000034EE0000B545000080B500AF0D
:1015D000034B1800034B9847C046BD4680BDC0462C
:1015E0003003002011C4000090B587B002AFF8604E
:1015F000B960FB1D1A700A4B1B78DBB2002B0BD0B5
:10160000FB1D1C78BA68F968064800230193022381
:1016100000932300044CA047C046BD4605B090BDD2
:10162000DC000020E000002061CC000080B500AFAD
:101630002E4BDB78DBB2002B09D02C4B02229A70A8
:101640002A4B02225A70294B0022DA704CE0274BB9
:101650001B78DBB2002B46D0254B9B68952B03D81B
:10166000224B01225A713FE0214B9B68214A934251
:1016700014D81E4B01229A701C4B00225A701C4B2E
:101680009B899BB201339AB2194B9A81184B9A6885
:10169000194B11001800194B984725E0144B9B6813
:1016A000174A934214D8114B00229A700F4B012213
:1016B0005A700F4BDB899BB201339AB20C4BDA8123
:1016C0000B4B9A680F4B110018000C4B98470BE01E
:1016D000064B01229A70054B01225A700A4B1800E2
:1016E0000A4B984700E0C046BD4680BDD4020020AA
:1016F000DC020020102700002CF0000031DA00008E
:101700002F75000040F0000050F000004DDB00009D
:1017100080B584B000AF786008001100FB1C021C8B
:101720001A70BB1C0A1C1A700F23FB1800221A70B7
:101730000F23FB18FA1C12781A700EE00F23FB1807
:101740001B787A68D3181B78782B0ED00F23FB18E0
:101750001A780F23FB1801321A700F23FA18BB1CDA
:1017600012781B789A42E9D900E0C0460E23FB1894
:1017700000221A7038E0BB1C1B787A68D2180C2340
:10178000FB1812781A700D23FB18BA1C1278013A54
:101790001A7013E00D23FB181B7801337A68D318F5
:1017A0000D22BA18127879688A1812781A700D23E7
:1017B000FB181A780D23FB18013A1A700D23FA183A
:1017C000FB1C12781B789A42E4D2FB1C1B787A68C7
:1017D000D3180C22BA1812781A700E23FB181A7834
:1017E0000E23FB1801321A700E23FB181A78BB1C4B
:1017F00019780F23FB181B78CB1A9A42BBDDC04621
:10180000BD4604B080BD000090B593B000AF2C235E
:10181000FB18D24A116819609188998092799A715F
:101820003B00CF4A13CA13C313CA13C313CA13C34B
:1018300003CA03C34523FB1807221A704423FB186D
:101840000A221A704323FB180E221A704223FB1837
:101850001C221A704123FB181D221A704023FB180A
:101860001E221A703F23FB1826221A70BD4B1B8ABA
:101870009BB201339AB2BB4B1A823423FB18180077
:10188000B94B98474423FB181B783A00D018B54B46
:101890001B8A9BB21A00B54B1900B54B98474323DE
:1018A000FB181B783A00D0183423FB181B781A0059
:1018B000AE4B1900AE4B98474323FB181B780233FD
:1018C0003A00D0183423FB185B781A00A74B190094
:1018D000A74B98474323FB181B7804333A00D018D2
:1018E0003423FB189B781A00A04B1900A04B984793
:1018F0004323FB181B7806333A00D0183423FB1817
:101900001B791A00994B1900994B98474323FB18F0
:101910001B7808333A00D0183423FB185B791A007F
:10192000924B1900924B98474323FB181B780A33BC
:101930003A00D0183423FB18DB881A008B4B1900AF
:101940008B4B98474223FB181B783A00D018894BE1
:101950005B78DBB21A00854B1900854B9847412311
:10196000FB181B783A00D018824B9B78DBB21A0028
:101970007E4B19007E4B98477E4B5B78DBB2022B87
:1019800025D17C4B9B78DBB2022B20D14023FB1866
:101990001B783A00D018734BDB899BB21A00734B4B
:1019A0001900734B98473F23FB181B783A00D01857
:1019B0006C4B9B899BB21A006C4B19006C4B98477F
:1019C000684B0022DA81674B00229A812CE0402389
:1019D000FB181B783A00D418624B9868664BFA22C1
:1019E0009100984703001A00604B19002000604BDB
:1019F00098475C4B9B68614A93420BD83F23FB1886
:101A00001B783A00D018574B9A68584B1900584B1E
:101A1000984709E03F23FB181B783A00D318534935
:101A200000221800524B98474723FB1800221A70D7
:101A300013E04723FB181B783A00D35C002B05D139
:101A40004723FB181B783A007821D1544723FB1811
:101A50001A784723FB1801321A704723FB181B78AA
:101A60002B2BE6D94423FB181B780333DAB244232B
:101A7000FB1819783B001800414B98474323FB188B
:101A80001B780133DAB24323FB1819783B001800A6
:101A90003B4B98474323FB181B780233D9B24323AF
:101AA000FB181B780333DAB23B001800344B98471D
:101AB0004323FB181B780433D9B24323FB181B784C
:101AC0000533DAB23B0018002D4B98474323FB182F
:101AD0001B780633D9B24323FB181B780733DAB2DD
:101AE0003B001800264B98474323FB181B7808330C
:101AF000D9B24323FB181B780933DAB23B00180034
:101B00001F4B98474323FB181B780A33D9B2432352
:101B1000FB181B780D33DAB23B001800184B9847BE
:101B20004023FB181B780733DAB24023FB181978DF
:101B30003B001800124B98473F23FB181B780433D7
:101B4000DAB23F23FB1819783B0018000C4B98477A
:101B50004623FB1800221A7028E0C04668F00000F7
:101B600070F00000DC0200201D1E00005CF0000090
:101B7000F1DC0000D4020020FDD400009E860100AC
:101B8000111700004623FB181B783A00D35C782B12
:101B900005D14623FB181B783A003021D154462347
:101BA000FB181A784623FB1801321A704623FB18DB
:101BB0001B782B2BE6D93B002B22002199543A00AD
:101BC0000A4B110018000A4B98473B001800094BBC
:101BD00098470300DAB239002C23FB181800064B93
:101BE0009847C046BD4613B090BDC04660F00000A7
:101BF00031DA000059DD0000E915000080B582B03F
:101C000000AFFB1D00221A70104B9847104B5B78F9
:101C1000DBB2002B04D10E4B9B78DBB2002B02D041
:101C2000FB1D01221A70FB1D1B78002B0AD0094BEB
:101C30009847074B00225A70054B00229A70064BBA
:101C400000229A60C046BD4602B080BD2D1600003D
:101C5000D402002009180000DC02002080B582B008
:101C600000AF78607B6800221A707B6800225A708F
:101C70007B6800229A707B680022DA707B68012200
:101C80001A717B6801225A717B68FA22D200DA80CD
:101C9000C046BD4602B080BD80B586B000AF78605A
:101CA0000C23FB181800234B98477B68A0221201D5
:101CB0001A807B6800229A707B680022DA707B6849
:101CC00000221A717B68FA22D200DA801723FB18EF
:101CD00000221A7025E01723FB181A78796808206B
:101CE00013009B009B185B00CB181A180C23FB18E1
:101CF0001000190008231A000F4B98471723FB18F0
:101D00001A78796813009B009B185B00CB1810337E
:101D100006221A701723FB181A781723FB180132B2
:101D20001A701723FB181B78002BD4D0C046BD4671
:101D300006B080BD5D1C000099D8000080B586B05B
:101D400000AF3B1D1800184B9847184B184ADA8013
:101D5000164B07225A71154B02221A71134B0F2290
:101D60009A70124B19225A70104B00221A703B1DA8
:101D700001221A713B1D0D4A083311000822180078
:101D80000C4B98473B1D06221A743A1D0A490B4B0F
:101D900018000B4B9847094B18000A4B9847C04650
:101DA000BD4606B080BDC046991C000088030020D7
:101DB000E207000099D8000000140040DC01002078
:101DC000E10400000D02000080B500AF0E4B0F4A89
:101DD000DA800D4B0C225A710B4B1E221A710A4BE2
:101DE00016229A70084B37225A70074B3B221A7002
:101DF000074B9847044A074B11001800064B9847B9
:101E0000C046BD4680BDC046D4010020DC070000AE
:101E10003D1D0000DC0100207505000080B582B08A
:101E200000AF7860084A094B11001800084B98472A
:101E30007A68054B1000190008231A00054B9847D3
:101E40007868BD4602B080BDD4010020DC010020CE
:101E5000B905000099D8000080B584B000AF020039
:101E6000FB1D1A700F23FB18FA1D1278D2091A7085
:101E70000E23FB18FA1D127852091A700D4BBB6025
:101E80000F23FB181B78002B0FD10F23FB181B7897
:101E90009B0010229446BC446344083B1A680E23FE
:101EA000FB181B78DB01D31800E000231800BD46A7
:101EB00004B080BD0044004180B582B000AF020094
:101EC000FB1D1A70FB1D1B781800034B984703007D
:101ED0001800BD4602B080BD591E000080B582B01A
:101EE00000AF78607B6800221A707B6801225A700C
:101EF0007B6800229A70C046BD4602B080BD0000DB
:101F000080B584B000AF0200FB1D1A70FB1D1B786A
:101F100018000B4B98470300FB60FB1D1B781F222A
:101F2000134001229A401300BB60FB681B6ABA6829
:101F300013405A1E9341DBB21800BD4604B080BD69
:101F4000B91E000080B584B000AF0200FB1D1A70FE
:101F5000BB1D0A1C1A70FB1D1B7818000D4B9847FF
:101F60000300FB60FB1D1B781F22134001229A40D7
:101F70001300BB60BB1D1B78002B03D0FB68BA6845
:101F80009A6102E0FB68BA685A61C046BD4604B077
:101F900080BDC046B91E000080B584B000AF02000D
:101FA000FB1D1A70FB1D1B781800094B9847030096
:101FB000FB60FB1D1B781F22134001229A40130077
:101FC000BB60FB68BA68DA61C046BD4604B080BD3C
:101FD000B91E000080B582B000AF0200FB1D1A7070
:101FE000064BFA1D127811001F220A400121914070
:101FF0000A001A60C046BD4602B080BD00E100E0A4
:1020000080B584B000AF78607B681B68FB60FB68BC
:10201000DB7BDBB21A00802313405A1E9341DBB2F4
:102020001800BD4604B080BD80B582B000AF7860B6
:102030007B6800221A707B6800229A707B680022FD
:102040009A807B6800229A717B6800221A817B68E3
:1020500000225A707B6800229A727B680022DA7232
:102060007B6800221A737B6800229A737B680022C7
:102070005A737B6800221A747B6800225A617B685D
:1020800000229A617B6800221A777B6800221A621C
:102090007B6800225A627B6800221A857B680022D6
:1020A0005A857B6800229A85C046BD4602B080BD35
:1020B00080B584B000AF78607B681B68FB60C04669
:1020C0007B681800074B9847031EF9D1FB681B88F3
:1020D0009BB2022213439AB2FB681A80C046BD46E7
:1020E00004B080BD0120000080B582B000AF7860F0
:1020F000044A7B68D3181B785BB21800BD4602B057
:1021000080BDC0460000002080B582B000AF78607E
:102110000A00FB1C1A707B681B681800224B98474A
:1021200003001800214B984703001800204B9847E4
:10213000FB1C1B78022B0BD17B685B7E10221343A8
:10214000DAB27B685A767B681B6810225A7326E0E5
:10215000FB1C1B78032B0BD17B685B7E2022134377
:10216000DAB27B685A767B681B6820225A7316E0C5
:102170007B685B7E5AB2FB1C1B78012199400B00E7
:102180005BB213435BB2DAB27B685A767B681B683A
:10219000FA1C1278012191400A00D2B25A73C0464B
:1021A000BD4602B080BDC046A9090000E92000007C
:1021B000D51F000090B585B000AF78600F23FC18E4
:1021C00037203C4B9847030023703B4B5B685A1CFD
:1021D000394B5A60384B5A68F423FF339A4205D979
:1021E000354B00225A60344B01225A700F23FB18E2
:1021F0001B7801225340DBB2002B31D02F4B012240
:102200001A702E4B5B685A1C2C4B5A602B4B5B6828
:10221000013302D1294B00225A60284B5B68284ABF
:1022200093423DD1274B02221A70244B5A68234B0C
:102230009A60224B00225A600C23FB181800224B94
:1022400098470C23FB1801221A700C23FB18190065
:1022500004201E4B9847012104201D4B98471FE086
:10226000164B1B78DBB2002B17D0144B00221A70D0
:10227000144B1B78DBB2022B03D1124B00221A70D5
:1022800002E0104B01221A700E4B1B78DBB2002BC0
:1022900003D00A4B5A68094B9A60084B00225A60D7
:1022A0000C4A7B68110018000B4B9847C046BD468E
:1022B00005B090BD011F0000F0020020DC020020EC
:1022C00030750000D4020020DD1E00005D83000098
:1022D000451F00007F4400004D0E000080B58EB009
:1022E00000AF3B1D18000B4B98473B1D00229A7016
:1022F0003B1D094A1A853A1D0849094B1800094B2C
:102300009847074B1800084B9847C046BD460EB08B
:1023100080BDC046292000007F440000002C004200
:10232000F0010020F1090000B120000080B500AFED
:102330000649074B00221800064B9847044B002122
:102340001800054B9847C046BD4680BDB52100002A
:10235000F00100207D0700000921000080B582B057
:1023600000AF7860074B0122DA700B20064B9847CC
:10237000064A7B6811001800054B9847C046BD46C9
:1023800002B080BDD4020020991F00007FF300003E
:102390004D0E000080B58EB000AF3B1D1800104BF5
:1023A00098473B1D00229A703B1D0E4A1A853B1D23
:1023B00001221A703B1DE022D2009A803B1D0122AF
:1023C0005A703A1D0849094B1800094B9847074BAA
:1023D0001800084B9847C046BD460EB080BDC046A9
:1023E000292000007FF3FFFF003000420C02002094
:1023F000F1090000B120000080B500AF0649074B8D
:1024000000221800064B9847044B00211800054B8A
:102410009847C046BD4680BD5D2300000C020020E9
:102420007D0700000921000080B500AF054B9847EB
:10243000054B9847054B9847054B9847C046BD4606
:1024400080BDC046DD2200002D2300009523000042
:10245000F923000080B582B000AF0200FB1D1A70A6
:10246000064BFA1D127811001F220A4001219140EB
:102470000A001A60C046BD4602B080BD00E100E01F
:1024800080B584B000AF78607B681B68FB60FB6838
:10249000DB695A1E9341DBB21800BD4604B080BD13
:1024A00080B582B000AF7860C0467B681800044BEE
:1024B0009847031EF9D1C046BD4602B080BDC04654
:1024C0008124000080B582B000AF78607B688022F4
:1024D000D2051A607B6800225A607B68FF221A814D
:1024E0007B6800229A727B680022DA727B689622EF
:1024F00092011A627B682422012199547B6825226B
:10250000012199547B682622002199547B68272257
:10251000002199547B6800229A627B6888225203CA
:10252000DA607B682C22002199547B682D220021DF
:1025300099547B6800221A637B6800225A637B6887
:1025400000229A637B680022DA637B6800225A616A
:102550007B6800221A827B680022DA767B68002280
:102560001A767B6800221A777B6800225A767B688D
:1025700013229A767B6800225A77C046BD4602B085
:1025800080BD000080B584B000AF78607B681B68B8
:10259000FB607B681B681800094B98470300180014
:1025A000084B98477B681800074B9847FB681B68E7
:1025B00002221A43FB681A60C046BD4604B080BDC3
:1025C000358A000055240000A124000080B584B0A5
:1025D00000AFF860B9607A607A68B968FB68180083
:1025E000054B9847031E01D1012300E0002318008A
:1025F000BD4604B080BDC046FD99000080B582B0E4
:1026000000AF78600A00FB1C1A70C046FB1C1B78E8
:102610009AB27B6811001800044B9847031EF5D14D
:1026200000231800BD4602B080BDC046719C00006A
:1026300080B584B000AF786039600E23FB180022AB
:102640001A80C0460E23FA187B6811001800074B49
:102650009847031EF6D10E23FB181B88DAB23B689D
:102660001A70C046BD4604B080BDC046D59C00006F
:1026700080B584B000AFF860B9607A60104BFA683A
:102680001A60104B104A1A60104B114A1A607A688F
:10269000B968FB6818000F4B98470F4B1B689B6885
:1026A000002118000D4B98470B4B1B685B680021FD
:1026B00018000A4B9847C046BD4604B080BDC046CE
:1026C0000805002004050020FD250000000500206D
:1026D00031260000CD2500001C00002085DB000015
:1026E00080B590B000AF3B001800134B98473B00FB
:1026F000C4229203DA603B00012252421A633B007B
:10270000012252425A633B000C4A9A633B000C4A36
:10271000DA633B00E12252021A623A0009490A4B8D
:1027200018000A4B9847084B1800094B9847C046B9
:10273000BD4610B080BDC046C524000003002A007D
:1027400003002B0000180042280200207126000020
:102750008525000080B582B000AF78607B68002BD3
:102760000CD0084B7A685A60064B00229A60C0462B
:10277000044B1A6880235B021340F9D0C046BD4663
:1027800002B080BD10E000E080B500AF00200F4B2C
:10279000984702000E4B1A600D4B18680D4BFA2239
:1027A0009100984703001A00094B1A60084B1868FB
:1027B000084BFA229100984703001A00064B1A6052
:1027C000064B05221A60C046BD4680BDE5AC000040
:1027D00004000020FDD400000800002010E000E00C
:1027E00080B582B000AF786004E0074B1B6818002A
:1027F000064B98477B685A1E7A60002BF5D1C0467D
:10280000BD4602B080BDC046040000205527000030
:1028100080B584B000AF0200FB1D1A700F23FB18B7
:10282000FA1D1278D2091A700E23FB18FA1D1278BD
:1028300052091A700D4BBB600F23FB181B78002B3D
:102840000FD10F23FB181B789B0010229446BC4429
:102850006344083B1A680E23FB181B78DB01D3186E
:1028600000E000231800BD4604B080BD00440041D4
:1028700080B582B000AF0200FB1D1A70FB1D1B78F3
:102880001800034B984703001800BD4602B080BDF6
:102890001128000080B582B000AF78607B6800220C
:1028A0001A707B6801225A707B6800229A70C046B9
:1028B000BD4602B080BD000080B584B000AF02000C
:1028C000FB1D1A70BB1D0A1C1A70FB1D1B7818001B
:1028D0000D4B98470300FB60FB1D1B781F22134024
:1028E00001229A401300BB60BB1D1B78002B03D054
:1028F000FB68BA689A6102E0FB68BA685A61C04630
:10290000BD4604B080BDC0467128000080B500AF50
:10291000044B01221A70BFF35F8F62B6C046BD46FA
:1029200080BDC0461400002080B500AF044B1B687A
:10293000002B02D0024B1B689847C046BD4680BDA5
:102940005C02002080B582B000AF3B1D18000C4B2C
:1029500098473B1D01221A703B1D19001B20094B93
:1029600098473B1D19001C20064B98473B1D19003A
:102970002820044B9847C046BD4602B080BDC046E3
:10298000952800005D83000080B500AF0C4B00224D
:102990001A600C4B98470C4B1B680122134004D063
:1029A000094B1B680222134001D1084B9847084B82
:1029B0009847084B984700231800BD4680BDC04685
:1029C0005C0200204529000010E000E0892700009B
:1029D000D92900000D29000080B500AF00211C207E
:1029E0000C4B984700211B200A4B984764200A4B48
:1029F000984701211C20074B98470A20064B98470F
:102A000001211B20034B98470A20034B9847C046DF
:102A1000BD4680BDB92800001D2A000080B582B0E7
:102A200000AF786002E00120054B98477B685A1E92
:102A30007A60002BF7D1C046BD4602B080BDC046CB
:102A4000E127000080B586B000AF7860154B7A684A
:102A50001A600C23FB181800134B98470C23FB1823
:102A600029221A600C23FB1800225A600C23FB1841
:102A700001221A720C23FB180222DA720C23FB18B3
:102A800019000920094B9847094B00220921180019
:102A9000084B984700210920074B9847C046BD4680
:102AA00006B080BD5C020020058200003982000073
:102AB00029290000057E0000697E000080B582B0F3
:102AC00000AF0200FB1D1A70FB1D1B78002B04D009
:102AD00000210920054B984703E000210920044B01
:102AE0009847C046BD4602B080BDC046697E000022
:102AF000B17E000080B584B000AF0200FB1D1A70EB
:102B00000F23FB18FA1D1278D2091A700E23FB1836
:102B1000FA1D127852091A700D4BBB600F23FB1877
:102B20001B78002B0FD10F23FB181B789B00102262
:102B30009446BC446344083B1A680E23FB181B7878
:102B4000DB01D31800E000231800BD4604B080BDAF
:102B50000044004180B582B000AF0200FB1D1A7036
:102B6000FB1D1B781800034B984703001800BD4657
:102B700002B080BDF52A000080B582B000AF786059
:102B80007B6800221A707B6801225A707B680022E1
:102B90009A70C046BD4602B080BD000080B584B0CA
:102BA00000AF0200FB1D1A70BB1D0A1C1A70FB1D32
:102BB0001B7818000D4B98470300FB60FB1D1B782A
:102BC0001F22134001229A401300BB60BB1D1B78DB
:102BD000002B03D0FB68BA689A6102E0FB68BA6810
:102BE0005A61C046BD4604B080BDC046552B0000AA
:102BF00080B582B000AF0200FB1D1A70064BFA1DB3
:102C0000127811001F220A40012191400A001A6027
:102C1000C046BD4602B080BD00E100E080B582B094
:102C200000AF0200FB1D1A70074AFB1D1B7819003C
:102C30001F230B40012199400B0019008023D15024
:102C4000C046BD4602B080BD00E100E080B584B062
:102C500000AF78607B681B68FB60FB68DB695A1E0D
:102C60009341DBB21800BD4604B080BD80B582B090
:102C700000AF78607B6801221A707B6800225A607E
:102C80007B6800229A607B68C0229203DA607B68CE
:102C900000221A747B6800225A747B6801229A749D
:102CA0007B680122DA747B6800221A757B68242213
:102CB000002199547B6818330C22002118000A4B1C
:102CC00098477B68094A9A617B6800229A627B6810
:102CD0000022DA627B6800221A637B6800225A6352
:102CE000C046BD4602B080BDCFD80000A08601001E
:102CF00080B582B000AF78607B680A221A707B686A
:102D000000225A707B6800229A70C046BD4602B00D
:102D100080BD000080B584B000AF786039603B684A
:102D20001A787B681A703B685A787B685A703B68DF
:102D30009A787B689A700C23FB1818000B4B984705
:102D40000C23FB1801221A707B681B780C22BA181E
:102D500011001800064B98477B681B78012118006A
:102D6000044B9847C046BD4604B080BD792B000097
:102D70005D8300009D2B000080B584B000AF7860BB
:102D80007B681B68FB607B681B6818000B4B9847CF
:102D9000030018000A4B9847C0467B681800094B8F
:102DA0009847031EF9D1FB681B6802221A43FB688F
:102DB0001A60C046BD4604B080BDC046358A0000DA
:102DC000F12B00004D2C000080B584B000AF78607E
:102DD0007B681B68FB607B681B6818000E4B98477C
:102DE000030018000D4B9847C0467B6818000C4B39
:102DF0009847031EF9D1FB688F221A75FB688F2252
:102E00001A76FB681B68022293431A00FB681A605B
:102E1000C046BD4604B080BD358A00001D2C0000B0
:102E20004D2C000080B584B000AF78607B681B68D3
:102E3000FB60FB681B7EDBB21A00022313405A1EA4
:102E40009341DBB21800BD4604B080BD80B584B0AC
:102E500000AF78607B681B68FB60FB681B7EDBB2A1
:102E60001A00012313405A1E9341DBB21800BD46DD
:102E700004B080BD80B584B000AF78607B681B680B
:102E8000FB60FB681B7EDBB21A00042313405A1E52
:102E90009341DBB21800BD4604B080BD80B584B05C
:102EA00000AF78600A00BB1C1A807B681B68FB605F
:102EB0007B6818000A4B984703001A00012353400F
:102EC000DBB2002B01D0052306E0BB1C1B88DB0511
:102ED000DA0DFB689A6200231800BD4604B080BD7D
:102EE0004D2E000080B584B000AF786039607B68FB
:102EF0001B68BB607B6818001B4B984703001A00D7
:102F000001235340DBB2002B01D0102327E00F2315
:102F1000FB1800221A70BB685B8B9BB21A0004235B
:102F2000134006D00F23FB181E221A70BB68042220
:102F30005A837B689B79012B08D1BB689B6A9BB243
:102F4000DB05DB0D9AB23B681A8005E0BB689B6A23
:102F5000DBB29AB23B681A800F23FB181B7818006B
:102F6000BD4604B080BDC046752E000080B586B059
:102F700000AFF860B960BB1D1A801323FB18002254
:102F80001A701723FB1800221A701623FB18002250
:102F90001A701423FB1800221A801023FB18002239
:102FA0001A80FB68002B07D11323FB18FB60172343
:102FB000FB1801221A700DE0BB68002B07D1132308
:102FC000FB18BB601623FB1801221A7002E00623CF
:102FD0005B426AE03749384B01221800374B98476B
:102FE0004CE0FB681A781423FB181A80C046324B59
:102FF0001800334B984703001A0001235340DBB2FB
:10300000002BF4D1C0461423FB181A882A4B110058
:1030100018002C4B9847031EF5D1C046264B1800CC
:10302000294B984703001A0001235340DBB2002BC1
:10303000F4D1C0461023FA181F4B11001800234B7F
:103040009847031EF6D11023FB181B88DAB2BB6821
:103050001A70BB1D1A88BB1D013A1A801623FB1873
:103060001B78002B02D1BB680133BB601723FB1810
:103070001B78002B02D1FB680133FB60BB1D1B8852
:10308000002BAED1C0460C4B1800114B98470300E3
:103090001A0001235340DBB2002BF4D10549064B43
:1030A00000221800054B984700231800BD4606B0C3
:1030B00080BDC04694030020980300206591000065
:1030C0004D2E00009D2E0000752E0000E52E000004
:1030D000252E000080B592B000AF78604723FB1822
:1030E00000221A700823FB181800264B9847082363
:1030F000FB180E221A700823FA18234B110018002F
:10310000224B98470C23FB181800214B98470C239F
:10311000FB18C0229203DA600C23FB181D4A9A6246
:103120000C23FB181C4ADA620C23FB1801225242C2
:103130001A630C23FB18194A5A630C23FB1800224C
:103140001A750C23FB18164A9A610C23FA181549B4
:10315000154B1800154B9847031E02D006235B42FF
:103160000CE0114B1800124B9847124B9847012066
:10317000114B98474723FB181B785BB21800BD46DC
:1031800012B080BDF12C000094030020152D00002A
:103190006D2C000002000C0002000D0002000F0068
:1031A000001BB7000010004298030020D58F0000DC
:1031B000792D0000D92900001D2A000090B585B0A6
:1031C00000AF02003960FB1D1A700F23FB180022AC
:1031D0001A70FB1D1B78032B0FD13B68BB60BB68CB
:1031E0001868BB685968BB681B890F22BC181A0095
:1031F0000F4B98470300237012E00F23FB18FF22A8
:103200001A7086235A000B490B4B18000B4B98473A
:103210000B4B18000B4B98470D200B4B9847C046A3
:103220000F23FB181B785BB21800BD4605B090BD9C
:103230006D2F0000C4F000009CF0000031DA0000A7
:10324000B0F000004DDB000065DA000080B582B010
:1032500000AFFB1D00221A703B1D1800094B984758
:103260003B1D00221A703B1D00225A70064B1800AD
:10327000064B9847FB1D1B785BB21800BD4602B099
:1032800080BDC046792B000098030020C92D0000A6
:1032900080B584B000AFF860B9607A607B68002BBD
:1032A00010D0BB681A78FB681A70FB680133FB60AA
:1032B000BB680133BB607B68013B7B607B68002B94
:1032C000EFD100E0C046BD4604B080BD80B584B0FB
:1032D00000AFF8607A600B23FB180A1C1A707B6839
:1032E000002B0ED0FB680B22BA1812781A70FB68FC
:1032F0000133FB607B68013B7B607B68002BF1D175
:1033000000E0C046BD4604B080BD80B584B000AFCB
:1033100078600E23FB1800221A8009E00E23FB18A8
:103320001A880E23FB1801321A807B6801337B60F8
:103330007B681B78002BF1D10E23FB181B8818002B
:10334000BD4604B080BD000080B500AF044B1B78C3
:10335000DBB20133DAB2024B1A70C046BD4680BD03
:103360006302002090B583B000AFFB1D00221A70ED
:103370000120134B9847FC1D3B00124A1900100016
:10338000114B984703002370FB1D1B785BB2002B89
:103390000DD13B68022213433B603B68FC1D094A88
:1033A00019001000094B98470300237000E0C04645
:1033B000FB1D1B785BB21800BD4603B090BDC04634
:1033C000BD2A000070100000495200006D5200003C
:1033D00080B582B000AF3A60FB1D021C1A703B1D25
:1033E0000A1C1A80C046BD4602B080BD90B583B0AD
:1033F00000AFFB1D00221A701C4B1B78DBB2002BA8
:1034000021D11B4B1B78DBB2032B04D0184B1B784C
:10341000DBB2042B17D1FC1D164B98470300237019
:10342000FB1D1B785BB2002B15D1FC1D124A134B00
:1034300011001800124B984703002370FB1D1B78E6
:103440005BB2002B09D1094B1B78DBB20133DAB236
:10345000064B1A7002E0C04600E0C046FB1D1B7818
:103460005BB21800BD4603B090BDC04661020020AB
:1034700060020020F14A000078560000741000003D
:103480006D52000090B583B000AFFB1D00221A7092
:10349000294B1B78DBB2002B06D0274B1B78DBB205
:1034A000013BDAB2244B1A70234B1B78DBB2002BA2
:1034B0003AD1224B1B78DBB2032B04D01F4B1B7875
:1034C000DBB2042B30D100233B60FC1D1C4A1D4B9A
:1034D000110018001C4B984703002370FB1D1B783C
:1034E0005BB2002B1DD1FC1D3B0019000120174BC6
:1034F000984703002370FB1D1B785BB2002B12D191
:103500003B68022213400FD03B68022293433B608A
:103510003B68FC1D190001200B4B984703002370EA
:1035200002E0C04600E0C046FB1D1B785BB21800FD
:10353000BD4603B090BDC04661020020600200207D
:1035400021430000741000006D5200004952000039
:1035500080B582B000AF78600E4B00221A600E4B2F
:1035600000221A600D4B00221A700D4B00221A70B7
:103570000C4B00221A700C4B18000C4B98470C4B4C
:10358000190003200B4B984700231800BD4602B0DA
:1035900080BDC04664020020680200206102002055
:1035A000600200206302002049330000452A000029
:1035B000D1330000913F000090B589B000AF040006
:1035C00008003A601900FB1D221C1A70BB1D021C6A
:1035D0001A703B1D0A1C1A801F23FB18FF221A7049
:1035E000BB1D1B787F221340DAB21823FB185A70D8
:1035F0001823FB18FA1D12781A701823FB180822DA
:103600005A803B6B002B11D01823FB185B889AB2B1
:103610003823F9183423FB1809881B88CB189BB270
:10362000D3189AB21823FB185A800AE01823FB1803
:103630005B889AB23B1D1B88D3189AB21823FB18DB
:103640005A801F23FC189B4B9847030023701F23AD
:10365000FB181B785BB2002B00D003E100233B6119
:103660000E23FB1800221A8000237B61FB1D1A78B1
:103670007B6913437B61BB1D1B781A027B69134373
:103680007B611823FB185B889BB21A047B69134388
:103690007B617B691F22BC18874A19001000874B89
:1036A0009847030023701F23FB181B785BB2002B85
:1036B00000D0EEE000237B617B69022213437B6133
:1036C0007B691F22BC187E4A190010007B4B98476B
:1036D000030023701F23FB181B785BB2002B00D064
:1036E000D9E000233B610E23FB1800221A8031E051
:1036F0001F23FC181423FB18714A19001000714B8A
:103700009847030023701F23FB181B785BB2002B24
:1037100028D17B690222134013D11F23FC181023E8
:10372000FB18694A19001000664B98470300237084
:103730001F23FB181B785BB2002B15D000233B61C5
:1037400012E00E23FB181B889BB201339AB20E23A2
:10375000FB181A800E23FB181B889BB25B4A93420E
:10376000C6D902E0C04600E0C0463B69002B00D14C
:1037700073E03B69BB601823FB185B889AB218237F
:10378000FB185A80BB681F22BC181822B9180822DF
:1037900018004F4B9847030023701F23FB181B781A
:1037A0005BB2002B00D078E0BB680833BB603B689D
:1037B000002B15D0B8683B1D1A881F23FC183B68E6
:1037C0001900434B9847030023701F23FB181B78F5
:1037D0005BB2002B63D13B1D1A88BB68D318BB605A
:1037E0003B6B002B21D03823FB181A883B1D1B880C
:1037F000D31A1A00BB68D318BB60B8683423FB180F
:103800001A881F23FC183B6B1900314B98470300A3
:1038100023701F23FB181B785BB2002B41D134238C
:10382000FB181A88BB68D318BB603B699B007B619F
:103830007B69022213437B617B691F22BC18254AE6
:10384000190010001D4B9847030023701F23FB181D
:103850001B785BB2002B15D024E01F23FB18FD2240
:103860001A701FE0A023FF331A001B491B4B1800DE
:103870001B4B98471B4B18001B4B98470D201B4BAD
:1038800098470FE01F23FC18194B9847030023703B
:1038900008E0C04606E0C04604E0C04602E0C0467C
:1038A00000E0C0461F23FB181B785BB21800BD4622
:1038B00009B090BDED3300008C1000006D52000087
:1038C000781000004952000000041500E7030000D2
:1038D000B55300006C10000034F30000D4F0000079
:1038E00031DA0000E8F000004DDB000065DA00008E
:1038F0008534000090B587B002AF0F23FB18FA2281
:103900001A700F23FC18DA4B9847030023700F231B
:10391000FB181B785BB2002B00D092E10F23FC1840
:103920000823FB18D34A19001000D34B9847030013
:1039300023700F23FB181B785BB2002B00D072E1C1
:10394000BB680122134000D15CE10020CB4B9847BB
:10395000BB6801229343BB60BB680F22BC18C54AF9
:1039600019001000C64B9847030023700F23FB1863
:103970001B785BB2002B00D0BCE1C24B00221A7056
:10398000BB689B089AB20C23FB181205120D1A8013
:103990000C23FB181B88002B00D121E100233B6086
:1039A0000F23FC183B00B84A19001000B24B98478F
:1039B000030023700F23FB181B785BB2002B11D080
:1039C000E7235A00B149B24B1800B24B9847B24BAB
:1039D0001800B24B98470D20B14B98470120A74BD8
:1039E000984788E13B680F22BC18391D0422180053
:1039F000AC4B9847030023703B1D5B889AB23B1D7C
:103A00005A800F23FB181B785BB2002B11D0EB23DD
:103A10005A009E499E4B18009E4B9847A24B180097
:103A20009E4B98470D209E4B98470120934B9847FB
:103A300061E13B1D5B889BB20C22BA1812889A4246
:103A40002ED00C23FB181B883A1D528892B29B1A69
:103A5000042B25DDE023FF331A008C498C4B180022
:103A60008C4B98470C23FB1819883B1D5B889BB235
:103A70001A003B1D1B78DBB21C003B1D5B78DBB2E0
:103A80008A4800932300834CA0470D20844B98471D
:103A900001207A4B98470F23FB18FA221A702AE16B
:103AA0003B1D1B78DBB2012B12D1814B1B68002B15
:103AB00000D17CE07E4B1B683A1D5278D0B23A1D93
:103AC000528892B2083A91B23A68083298476EE04A
:103AD0003B1D1B78DBB2022B11D1764B1B68002BF0
:103AE00065D0744B1B683A1D5278D0B23A1D52888B
:103AF00092B2083A91B23A680832984757E03B1DB3
:103B00001B78DBB2042B11D16B4B1B68002B4ED002
:103B1000694B1B683A1D5278D0B23A1D528892B256
:103B2000083A91B23A680832984740E03B1D1B784A
:103B3000DBB2062B11D1614B1B68002B37D05F4BDA
:103B40001B683A1D5278D0B23A1D528892B2083A98
:103B500091B23A680832984729E03B1D1B78DBB2E6
:103B6000072B11D1564B1B68002B20D0544B1B68E0
:103B70003A1D5278D0B23A1D528892B2083A91B2A8
:103B80003A680832984712E04E4A4049404B1800C4
:103B9000404B98474C4B1800404B98470D20404BEA
:103BA00098470F23FB18FA221A70C046A3E0354B42
:103BB0001B78DBB2002B53D1444A3449344B1800F4
:103BC000344B9847424B1800344B98470D20344BE8
:103BD00098470F23FC183F4B9847030023703FE0A2
:103BE0000F23FB18FE221A703B4A2849284B180065
:103BF000284B9847394B1800284B98470D20284BE5
:103C0000984778E086239A002049214B1800214BE1
:103C10009847BA68324B110018001E4B98470D2088
:103C20001F4B98471CE02F4A1849194B1800194B95
:103C300098472D4B1800194B98470D20184B984763
:103C400059E089239A001149114B1800114B9847EC
:103C5000264B1800114B98470D20114B98474AE00E
:103C60000F23FC18224B98470300237043E0C04603
:103C7000ED3300007010000049520000BD2A000022
:103C80006D520000620200208410000040F300002A
:103C9000D4F0000031DA000004F100004DDB000038
:103CA00065DA0000BD52000028F1000040F100007C
:103CB00064020020680200206C02002078020020CC
:103CC000700200200202000080F1000009020000E2
:103CD00098F100006533000011020000BCF1000003
:103CE000D0F100001E020000ECF1000010F2000014
:103CF00085340000C0460F23FB181B785BB2180008
:103D0000BD4605B090BDC04690B583B000AFFB1D69
:103D100000221A7023E0184B1B78DBB2013BDAB2A9
:103D2000154B1A70FC1D154B984703002370FB1DA3
:103D30001B785BB2002B00D111E0114A1149124BE4
:103D40001800124B9847FB1D00229A56104B110089
:103D500018000E4B98470D200E4B9847E2E7064B94
:103D60001B78DBB2002BD6D1FB1D1B785BB2180091
:103D7000BD4603B090BDC04663020020F538000088
:103D80004302000048F30000D4F0000031DA0000E4
:103D900030F2000065DA000090B589B000AFF8603D
:103DA000B9601900BB1D1A807B1D0A1C1A701F23E5
:103DB000FB1800221A70FB68002B06D0BB68002B92
:103DC00003D0BB1D1B88002B1FD17B1D1B78002B34
:103DD00009D05F4B01221A701F23FC185D4B9847D6
:103DE00003002370ACE01F23FB18F4221A705A4A18
:103DF0005A495B4B18005B4B98475B4B18005B4B79
:103E000098470D205A4B98479AE01F23FC1814231B
:103E1000FB18584A19001000574B984703002370AD
:103E20001F23FB181B785BB2002B00D083E07B695B
:103E30009B089AB21C23FB181205120D1A801F232F
:103E4000FC181823FB184D4A190010004A4B9847DC
:103E5000030023701F23FB181B785BB2002B00D0DC
:103E60006BE0BA1D1C23FB1812881B889A4216D9D6
:103E70001F23FB18F4221A70414A3849384B1800A6
:103E8000384B9847BB1D19881C23FB181A883D4BDB
:103E90001800344B98470D20354B984750E0BB69CC
:103EA000FA689A420AD3BB1D1A88FB68D2181C23F1
:103EB000FB181988BB69CB189A4212D91F23FB182B
:103EC000F4221A70A0239A002449254B1800254B90
:103ED00098472D4B1800254B98470D20244B9847A9
:103EE0002EE0BB1D1A881F23FC18B968FB68180058
:103EF000264B9847030023701F23FB181B785BB2E7
:103F0000002B1CD11C23FB181A88BB69D218BB1DBF
:103F10001988FB68CB189A4203D07B1D1B78002BB5
:103F20000ED00B4B01221A701F23FC18094B984727
:103F30000300237004E0C04602E0C04600E0C04633
:103F40001F23FB181B785BB21800BD4609B090BD5B
:103F500062020020653300006902000058F300008F
:103F6000D4F0000031DA000060F200004DDB000008
:103F700065DA000070100000495200008410000053
:103F80007A02000080F20000C4F20000BD5200007E
:103F900080B584B000AF02003960FB1D1A700F239A
:103FA000FB1800221A70FB1D1B78072B1CD89A00E7
:103FB0001C4BD3181B689F461B4B3A681A6028E0BD
:103FC0001A4B3A681A6024E0194B3A681A6020E0EC
:103FD000184B3A681A601CE0174B3A681A6018E0F0
:103FE000164B3A681A6014E0154A1649164B180029
:103FF000164B9847FB1D1A78154B11001800134BF0
:1040000098470D20134B98470F23FB18F4221A7082
:10401000C0460F23FB181B785BB21800BD4604B0E6
:1040200080BDC04614F30000680200206402002036
:104030006C02002074020020780200207002002030
:10404000B902000064F30000D4F0000031DA00008F
:1040500008F3000065DA000090B5ADB002AF3A6039
:10406000FB1D021C1A703B1D0A1C1A80FB1D1B78CD
:104070002C2B16D19C23F918386800230422CA4C33
:10408000A047031E00D0B2E1C84B1B68002B00D133
:10409000ADE1C64B1B689C22BA1811002C20984732
:1040A000A5E1FB1D1B781B2B16D19423F91838684A
:1040B00000230822BC4CA047031E00D097E1BB4B55
:1040C0001B68002B00D192E1B84B1B689422BA18F0
:1040D00011001B2098478AE1FB1D1B78062B16D187
:1040E0000C23F918386801233022AF4CA047031E77
:1040F00000D07CE1AD4B1B68002B00D177E1AB4BCE
:104100001B680C22BA181100062098476FE1FB1DAE
:104110001B780E2B00D16AE1FB1D1B78322B16D1C8
:104120008423F9183868002310229F4CA047031EEF
:1041300000D05CE19D4B1B68002B00D157E19B4BED
:104140001B688422BA181100322098474FE1FB1DEA
:104150001B782F2B1DD10C23FB1864220021180083
:10416000934B98470C23F9183868002364228E4C2F
:10417000A047031E00D03AE18C4B1B68002B00D1F6
:1041800035E18A4B1B680C22BA1811002F20984782
:104190002DE1FB1D1B78342B36D18023F9183868AC
:1041A00000230422804CA047031E00D01FE1814B56
:1041B0001800814B98478023FB181B681B0EDBB24D
:1041C00019008023FB181B681B0CDBB21A0080232C
:1041D000FB181B681B0ADBB21C008023FB181B6842
:1041E000DBB2764800932300734CA0470D20744B3C
:1041F00098476E4B1B68002B00D1F8E06B4B1B6897
:10420000002134209847F2E0FB1D1B78112B1ED1B2
:104210006C4B00221A707C23F918386800230422A2
:10422000614CA047031E00D0E1E07C23FB181A7804
:10423000654B1A705D4B1B68002B00D1D7E05B4BC0
:104240001B687C22BA18110011209847CFE0FB1D93
:104250001B78132B16D10C23F918386800232C2255
:10426000514CA047031E00D0C1E0504B1B68002BEF
:1042700000D1BCE04D4B1B680C22BA181100132072
:104280009847B4E0FB1D1B78042B16D1A023F91826
:10429000386800230422444CA047031E00D0A6E047
:1042A000424B1B68002B00D1A1E0404B1B68A022B1
:1042B000BA1811000420984799E0FB1D1B78652B64
:1042C00016D1A023F918386800230422364CA047E1
:1042D000031E00D08BE0354B1B68002B00D186E01D
:1042E000324B1B68A022BA181100652098477EE067
:1042F000FB1D1B78092B16D10C23F91838680123F4
:104300006422294CA047031E00D070E0274B1B6895
:10431000002B00D16BE0254B1B680C22BA18110052
:104320000920984763E0FB1D1B782A2B14D17823C2
:10433000F9183868012304221B4CA047031E56D1EC
:104340001A4B1B68002B52D0184B1B687822BA18E6
:1043500011002A2098474AE0FB1D1B78202B35D1FD
:104360007023F9183868002308220F4CA047031E59
:104370003DD13B68083318007023FB18196870237F
:10438000FB189A880123084CA047031E2FD1074B26
:104390001B68002B2BD0054B1B687022BA1811002C
:1043A0002020984723E0C046993D0000800200206D
:1043B000CD32000074F3000031DA000080F3000019
:1043C00065DA00007D0200207C02002095235A005F
:1043D00009490A4B18000A4B9847FB1D1A78094BEC
:1043E00011001800064B98470D20074B9847C04610
:1043F000BD462BB090BDC04698F60000A0F300006B
:1044000031DA0000B4F3000065DA000090B58DB039
:1044100000AF78602F23FB1800221A700B23FB18C3
:1044200001221A707B68002B04D12F23FB18F42281
:104430001A7085E07B681A68454B1A60454B00226C
:104440001A702F23FC180B23FB181800424B9847B7
:10445000030023702F23FB181B785BB2002B6CD159
:104460002F23FC1800203D4B9847030023702F2377
:10447000FB181B785BB2002B5AD1394B1900012075
:10448000384B98472F23FC180C23FB181800364B89
:10449000984703002370354B1800354B98470C2381
:1044A000FB181B7919000C23FB185B791A000C23ED
:1044B000FB189B792F482E4CA0470D202E4B984778
:1044C0002A4B18002A4B98470C23FB18DB7919005C
:1044D0000C23FB181B7A1A000C23FB185B7A274865
:1044E000234CA0470D20244B9847204B1800204B0D
:1044F000984723480023032213211D4CA0470D2079
:104500001D4B98472F23FB181B785BB20D3316D138
:10451000D623FF331A001B491B4B1800144B984736
:104520001A4B18001A4B98470D20134B984706E07A
:10453000C0460020174B984702E0C04600E0C04646
:104540002F23FB181B785BB21800BD460DB090BD41
:10455000800200207D020020F95500005135000046
:1045600059400000913F00008154000074F30000A6
:1045700031DA0000DCF4000065DA0000F8F4000035
:1045800014F50000A4F60000A0F3000030F50000D0
:104590004DDB00008957000080B582B000AF786025
:1045A000034B984703001800BD4602B080BDC046CB
:1045B000093D000090B587B002AFF8600800110017
:1045C0007B600B23FB18021C1A700A23FB180A1CC1
:1045D0001A707C680A23FB181A780B23FB181978C9
:1045E000F868002301932023FB181B880093230005
:1045F000034CA04703001800BD4605B090BDC0465F
:1046000005460000B0B5AAB004AFF860080011007C
:104610007B600B23FB18021C1A700A23FB180A1C70
:104620001A709723FB1800221A700A23FB181B78B4
:10463000012B00D183E07B68002B11D1D84AD949E6
:10464000D94B1800D94B9847D94B1800D94B9847EC
:104650000D20D94B98479723FB18F4221A70EFE1ED
:104660000A23FB181B78022B69D17B681800D34BF7
:1046700098470300402B62D19623FB1800221A7042
:104680007B689022BA18136054E09623FB181B78BD
:104690009022BA181268D3181B782F2B31D9962381
:1046A000FB181B789022BA181268D3181B78392B84
:1046B00009D99623FB181B789022BA181268D318D0
:1046C0001B78402B1DD99623FB181B789022BA1813
:1046D0001268D3181B78462B09D99623FB181B7830
:1046E0009022BA181268D3181B78602B09D9962328
:1046F000FB181B789022BA181268D3181B78662B07
:1047000011D9AF4AA749A84B1800A84B9847AD4B01
:104710001800A84B98470D20A74B98479723FB18E4
:10472000F4221A708CE19623FB181A789623FB1852
:1047300001321A709623FB181B783F2BA5D90B2347
:10474000FB181B78002B04D00B23FB181B78202BA5
:1047500011D99D4A9349944B1800944B98479B4B11
:104760001800944B98470D20934B98479723FB18BC
:10477000F4221A7064E1A823FB181B880D2B16D9AC
:10478000A823FB181B88FF2B11D0914A8549864B23
:104790001800864B98478F4B1800864B98470D2082
:1047A000854B98479723FB18F4221A7048E10B2396
:1047B000FB181A78F9681423FB1846331800864B47
:1047C00098470B23FB181B781422BA184621D318DC
:1047D0005B1800221A701423FB18A822BA1844216F
:1047E00012885A52AC23FB181B785A1E9341DBB235
:1047F00019001423FB18672299541423FB188C22E8
:10480000BA1813608C23FB181B680A22BA184121BE
:1048100012785A540A23FB181B78032B00D07BE034
:104820007B688822BA1813608C23FB181B688422CB
:10483000BA1813608823FB181B681B78013BDAB297
:104840008423FB181B681A708423FB181B681B78D1
:10485000032B17D9614A5349534B1800534B9847C0
:104860008423FB181B681B781A005D4B110018008D
:104870004E4B98470D20504B98479723FB18F42236
:104880001A70DDE08823FB181B685B78013BDAB205
:104890008423FB181B685A708423FB181B685B7801
:1048A0000A2B1ED08423FB181B685B781A2B18D0A8
:1048B00090239A003B493C4B18003C4B984784237B
:1048C000FB181B685B781A00464B11001800374B29
:1048D00098470D20384B98479723FB18F4221A70FD
:1048E000AEE08423FB181B68981C8823FB181B6808
:1048F000991C8823FB181B685B781A00364B984775
:104900008823FB181B685B781A008423FB181B683C
:104910009B1800229A7082E00A23FB181B78022B56
:1049200030D18223FC187B681800244B9847030081
:1049300023808223FB181B88002B04D08223FB18C2
:104940001B88402B11D9284A1649174B1800174BC2
:104950009847264B1800174B98470D20164B984741
:104960009723FB18F4221A706AE08C23FB1818684E
:104970008223FB181B8801331A007B681900164B31
:1049800098474CE00A23FB181B78042B30D18C236A
:10499000FB181B6879683E2218000F4B98473EE0D1
:1049A00003020000B4F60000A0F3000031DA0000BA
:1049B0004CF500004DDB000065DA00000B33000011
:1049C0000F02000060F50000190200006CF5000005
:1049D0002202000080F50000913200003902000040
:1049E0008CF50000A8F500004F020000C4F500009F
:1049F0000A23FB181B78012B11D0154A1549164BB9
:104A00001800164B9847164B1800164B98470D2068
:104A1000154B98479723FB18F4221A7010E0972340
:104A2000FC181423FA180023029300230193002397
:104A300000936C23282101200C4DA847030023700C
:104A40009723FB181B785BB21800BD4626B0B0BD9B
:104A50005F020000B4F60000A0F3000031DA0000AD
:104A6000E0F500004DDB000065DA0000B93500001C
:104A700080B500AF00231800BD4680BD90B587B05B
:104A800000AF78601723FB1800221A707B683B6127
:104A90003A69A5235B0111001800134B98473B6945
:104AA000002B18D00023FB601723FC180C23FA18E6
:104AB000A5235B01110018000C4B984703002370DD
:104AC0001723FB181B785BB2002BE1D1FA683B6916
:104AD0009A4202D0DCE7C04600E0C046002318003E
:104AE000BD4607B090BDC0466D520000495200005F
:104AF00090B585B000AF0F23FB1800221A70002379
:104B0000BB600120644B98470F23FC183B1D190024
:104B10000120624B9847030023700F23FB181B787A
:104B20005BB2002B0DD05E495E4B722218005E4BCB
:104B300098475E4B18005E4B98470D205D4B984799
:104B4000A1E07B6802221343190001205A4B9847C9
:104B50000120514B9847594B1B680F22BC183A0053
:104B6000110018004D4B9847030023700F23FB18CA
:104B70001B785BB2002B08D10F23FB181B785BB2AC
:104B8000002B62D13B68002B5FD14C4B0E221A6088
:104B90000120414B9847494B1B680F22BC183A0033
:104BA000110018003D4B9847030023700F23FB189A
:104BB0001B785BB2002B08D10F23FB181B785BB26C
:104BC000002B42D13B68002B3FD13C4B13221A6093
:104BD0000120314B9847394B1B680F22BC183A0013
:104BE000110018002D4B9847030023700F23FB186A
:104BF0001B785BB2002B28D029492A4B962218003B
:104C0000294B98472E4B1800294B98470D20294BCC
:104C1000984738E00220204B9847284B1B683A0001
:104C2000110018001D4B98473B68042213400CD11B
:104C30001B491C4BAA2218001B4B9847214B1800FC
:104C40001B4B98470D201B4B98473B680422134091
:104C500009D1BB680133BB60BA681B4B032110004C
:104C600098470B1ED6D03B680422134006D17B68C0
:104C700002221343190001200F4B98473B6804227E
:104C8000134000D15DE70F23FB181B785BB21800BF
:104C9000BD4605B090BDC0461D2A00004952000027
:104CA000F0F70000C8F6000031DA0000DCF6000082
:104CB0004DDB000065DA00006D520000100000209E
:104CC000FCF600001CF7000009D6000090B583B088
:104CD00000AFFC1D3B00294A19001000284B9847E3
:104CE00003002370FB1D1B785BB2002B02D0062350
:104CF0005B423FE03B688022520013433B603B68CD
:104D0000FC1D1E4A190010001E4B9847030023701B
:104D1000FB1D1B785BB2002B02D006235B4229E00F
:104D2000FC1D3A00D0235B0111001800144B98477A
:104D300003002370FB1D1B785BB2002B02D00623FF
:104D40005B4217E03B688022520213433B603A68A3
:104D5000FC1DD0235B01110018000A4B984703008B
:104D60002370FB1D1B785BB2002B02D006235B4235
:104D700000E000231800BD4603B090BD08140000F9
:104D8000495200006D52000080B582B000AF324B36
:104D90001B68002B59D1304A80235B011100180099
:104DA0002E4B9847031E04D02B4B00221A60002381
:104DB0004DE03B1D2A4A19001000284B9847031E5E
:104DC00004D0254B00221A60002340E0224B1B68D0
:104DD000244A934206D17B68012B29D01E4B224ADC
:104DE0001A6025E01C4B1B68204A93420DD17B685A
:104DF000032B1DD07B68042B03D1174B1C4A1A6070
:104E000016E0154B1B4A1A6012E0134B1B681A4A36
:104E100093420DD1104AEC239B03110018000F4B55
:104E20009847031E04D00C4B00221A6000230EE0AA
:104E3000094B1B68114A1A40074B1A60064B1B6846
:104E4000A022D2021A43044B1A60034B1B681800BD
:104E5000BD4602B080BDC046840200204952000019
:104E6000F4130000A0021000A1021000B002100014
:104E7000B1021000B2021000F0001000FFFFF0FFBE
:104E800080B586B000AF0200FB1D1A700B23FB1823
:104E900000221A7000237B6100233B610023FB602A
:104EA00000237B613B4B18003B4B984703007B6121
:104EB0007B69002B03DB0120384B9847F2E7C046A3
:104EC000374B1800344B984703007B617B69012204
:104ED00013407B617B69002B12D100237B610BE0C7
:104EE00001202E4B98472F4B18002B4B984703005F
:104EF0007B613B6901333B617B692B4A9342EFD174
:104F0000FB1D1B78022B0DD1284A294B11001800DC
:104F1000284B984780235B03274A19001000254B34
:104F2000984715E0FB1D1B78032B0BD11F4A204B24
:104F3000110018001F4B98471F4B002118001D4BF4
:104F4000984705E0FB1D1B78042B01D18023FB60F3
:104F50001A4B984703001B051A0DE8239B009A4241
:104F600006D1FB68022213431800154B984703E053
:104F7000FB681800124B9847124A0A4B11001800A0
:104F80000C4B98470B23FB181B785BB21800BD46EF
:104F900006B080BD14100000295200001D2A000038
:104FA000BC0702000C000C009ED0AD107DD51C3C4F
:104FB000AC0702006D5200008C100000894D00000B
:104FC0007D4A0000612F52EF80B588B000AF02002B
:104FD000FB1D1A701F23FB1800221A700023BB61EF
:104FE00000237B6101235B423B611D4BFB601D4B3A
:104FF000BB60FB1D1B78022B03D0FB1D1B78032B12
:1050000019D1194BFB60194BBB6014E00220184BFF
:105010009847FB681800174B98470300BB617B69F2
:1050200001337B617A693B699A4204D31F23FB18E1
:10503000FB221A700CE0BA68BB699A42E6D1BB68E1
:10504000084A934204D1064B002118000A4B9847A6
:105050001F23FB181B785BB21800BD4608B080BD4B
:105060008C10000036265302AC070200C3C15DD786
:105070001D2A0000295200006D52000090B583B037
:1050800000AF00233B60BB1D0A221A70FC1D3A00D2
:10509000A0235B01110018003F4B984703002370C9
:1050A000FB1D1B785BB2002B0CD03C4A3C493D4BAE
:1050B00018003D4B98473D4B18003D4B98470D203D
:1050C0003C4B98473B683C4A13403B603A68FC1DA8
:1050D000A0235B0111001800384B98470300237090
:1050E000FB1D1B785BB2002B10D0354A2C492D4B91
:1050F00018002D4B9847334B18002D4B98470D2027
:105100002C4B9847FB1D1B785BB241E0FC1D3A001D
:10511000A0235B01110018001F4B98470300237068
:10512000FB1D1B785BB2002B11D08F239A001C490A
:105130001C4B18001C4B9847234B18001C4B9847DE
:105140000D201C4B9847FB1D1B785BB220E03A6892
:105150008023DB00134017D03B68174A13403B60A5
:105160003A68FC1DA0235B0111001800134B9847FF
:1051700003002370BB1D1A78BB1D013A1A70BB1DBA
:105180001B78002BC2D100E0C046FB1D1B785BB230
:105190001800BD4603B090BD495200002F02000028
:1051A00000F80000C8F6000031DA000068F70000DF
:1051B0004DDB000065DA0000FFFBFFFF6D520000D1
:1051C0003502000080F7000098F7000090B585B028
:1051D00000AF78600F23FB1800221A700F23FC1811
:1051E0007B681800054B9847030023700F23FB18BA
:1051F0001B785BB21800BD4605B090BDD5300000ED
:1052000090B583B000AFFB1D00221A70FC1D054B4A
:10521000984703002370FB1D1B785BB21800BD4646
:1052200003B090BD4D32000080B582B000AF786011
:105230007B681800034B984703001800BD4602B076
:1052400080BDC046D168000080B582B000AF7860F4
:1052500039603A687B6811001800034B98470300D7
:105260001800BD4602B080BDF568000080B582B070
:1052700000AF786039603A687B6811001800034B12
:10528000984703001800BD4602B080BD4569000084
:1052900080B584B000AFF860B960BB1D1A80BB1D3B
:1052A0001A88B968FB681800034B98470300180078
:1052B000BD4604B080BDC0469569000080B586B08B
:1052C00000AFF860B9607A602D4B1A881023FB1884
:1052D000083A1A8000237B611323FB1800221A70FE
:1052E0001023FB181A887B689A4213D3BA687B692B
:1052F000D1187B689AB2FB681800224B98470300CC
:10530000DAB21323FB181B78D318DAB21323FB1875
:105310001A702DE0BA687B69D1181023FB181A881F
:10532000FB681800174B98470300DAB21323FB18E9
:105330001B78D318DAB21323FB181A701323FB1847
:105340001B785BB2002B12D11023FB181B887A68E4
:10535000D31A7B601023FB181B887A69D3187B61F2
:105360001023FB181B88FA68D318FB60B8E7C04607
:105370001323FB181B785BB21800BD4606B080BD36
:105380000C0000209152000080B584B000AFF8609E
:10539000B960BB1D1A80BB1D1A88B968FB6818006C
:1053A000034B984703001800BD4604B080BDC046BB
:1053B000ED69000080B586B000AFF860B9607A6032
:1053C0002D4B1A881023FB18083A1A8000237B61A2
:1053D0001323FB1800221A701023FB181A887B680D
:1053E0009A4213D3BA687B69D1187B689AB2FB687A
:1053F0001800224B98470300DAB21323FB181B78DE
:10540000D318DAB21323FB181A702DE0BA687B693F
:10541000D1181023FB181A88FB681800174B9847FF
:105420000300DAB21323FB181B78D318DAB2132364
:10543000FB181A701323FB181B785BB2002B12D1D8
:105440001023FB181B887A68D31A7B601023FB1883
:105450001B887A69D3187B611023FB181B88FA68B4
:10546000D318FB60B8E7C0461323FB181B785BB268
:105470001800BD4606B080BD0C0000208953000016
:1054800090B587B000AF78600023FB601723FB184E
:1054900000221A701723FC180C23FB18504A19001D
:1054A0001000504B984703002370FB684E4A93420C
:1054B0000AD11723FC180C23FB184C4A19001000C2
:1054C000484B984703002370FB681B0C9BB21B0AD8
:1054D0009BB2DAB27B68DA71FB681B0C9BB21B09CA
:1054E0009BB2DBB20F221340DAB27B681A72FB6800
:1054F0001B0CDBB20F221340DAB27B685A72FB68D6
:105500009BB21B0A9BB2DAB27B681A71FB689BB232
:105510001B099BB2DBB20F221340DAB27B685A71CF
:10552000FB68DBB20F221340DAB27B689A71304B12
:10553000984702007B681A607B681B791B021AB2CD
:105540007B685B791B011BB2FF210B401BB213432D
:105550001AB27B689B791BB20F210B401BB213431D
:105560001AB21423FB181A801223FB18214A1A803E
:105570007B68DB791B021AB27B681B7A1B011BB2AA
:10558000FF210B401BB213431AB27B685B7A1BB23C
:105590000F210B401BB213431AB21023FB181A80C1
:1055A0001223FA181023FB1812881B889A4203D280
:1055B0001723FB18F3221A701223FA181423FB186E
:1055C00012881B889A4203D91723FB18F3221A70FA
:1055D0001723FB181B785BB21800BD4607B090BDBF
:1055E000AC07020049520000C3C15DD7481000005B
:1055F000894D00003013000090B585B000AF786091
:105600000F23FB1800221A707B68002B13D00E2387
:10561000FB187A6812781A700E23FB181B78002B7F
:1056200004D00E23FB181B78042B08D90E23FB187B
:1056300001221A7003E00E23FB1801221A700F23B7
:10564000FC180020404B9847030023700F23FB18E1
:105650001B785BB2002B0ED092235A003B493C4B87
:1056600018003C4B98473C4B18003C4B98470D208A
:105670003B4B98475FE03B4B1800364B98473A4B03
:1056800098470200394B11001800324B98470D2003
:10569000334B9847364B98470F23FC180E23FB18C3
:1056A0001B781800334B9847030023700F23FB1817
:1056B0001B785BB2002B39D10F23FC180E23FB188B
:1056C0001B7818002C4B9847030023700F23FB18FE
:1056D0001B785BB2002B2BD10E23FB181B78022BFF
:1056E00029D00E23FB181B78032B24D00F23FC1882
:1056F000224B9847030023700F23FB181B785BB2E3
:10570000002B0ED0AE235A001049114B1800114B3C
:1057100098471B4B1800114B98470D20104B98478A
:1057200007E00F23FB181B785BB208E0C04600E0DF
:10573000C046144B98470F23FB181B785BB2180028
:10574000BD4605B090BDC046CD510000D8F8000060
:105750000CF8000031DA000020F800004DDB0000FA
:1057600065DA00003CF80000894D000048F80000B0
:1057700071670000814E0000C94F0000CD4C000051
:1057800058F800000152000090B585B000AF786075
:105790000F23FC182D4B9847030023700F23FB1891
:1057A0001B785BB2002B0ED0BA235A002849294B34
:1057B0001800294B9847294B1800294B98470D2072
:1057C000284B98473AE00F23FC180020264B9847B7
:1057D000030023700F23FB181B785BB2002B0FD044
:1057E0007C23FF331A001A491A4B18001A4B9847AA
:1057F0001E4B18001A4B98470D201A4B98471DE076
:105800000F23FC181A4B9847030023700F23FB1833
:105810001B785BB2002B0FD08223FF331A000C4998
:105820000C4B18000C4B9847124B18000C4B984728
:105830000D200C4B984701E00F4B98470F23FB18A6
:105840001B785BB21800BD4605B090BD7D500000CE
:10585000E4F800000CF8000031DA000078F80000ED
:105860004DDB000065DA00008D7A000098F800003A
:1058700001520000BCF80000B968000080B586B095
:1058800000AF78600A00BB1C1A800C23FB180022B2
:105890001A600C23FB187A685A600C23FB18BA1C98
:1058A00012881A810C23FB1819000320034B984718
:1058B00003001800BD4606B080BDC046BD310000E3
:1058C00080B586B000AF78600A00BB1C1A800C233C
:1058D000FB187A681A600C23FB1800225A600C230C
:1058E000FB18BA1C12881A810C23FB18190003201C
:1058F000034B984703001800BD4606B080BDC04664
:10590000BD31000080B582B000AF0200FB1D1A70EF
:10591000BB1D0A1C1A70FB1D1B785A00BB1D1B788F
:105920005340034AD35C1800BD4602B080BDC04658
:10593000F4F8000090B585B000AFB9607A600F232D
:10594000FB18021C1A700EE0BB685A1CBA601A7869
:105950000F23FC180F23FB181B7811001800084BAD
:105960009847030023707B685A1E7A60002BEBD1A6
:105970000F23FB181B781800BD4605B090BDC0462C
:105980000559000090B589B000AFB9607A603B60FE
:105990000F23FB18021C1A701F23FB1805221A7014
:1059A0001E23FB1801221A701423FB180F22BA18A9
:1059B00012781A700F23FB181B78C13B0E2B00D9ED
:1059C0001BE19A00B64BD3181B689F46BB681B0CA3
:1059D000DAB21423FB185A70BB681B0ADAB214231C
:1059E000FB189A70BB68DAB21423FB18DA701F2315
:1059F000FB1805221A7005E1BB681B0ADAB21423F2
:105A0000FB185A703023FB181B78002B09D0142385
:105A1000FB185B78802252421343DAB21423FB183E
:105A20005A70BB68DAB21423FB189A701423FB185F
:105A30000022DA701F23FB1805221A70E2E01423FB
:105A4000FB1800225A701423FB1800229A701423AA
:105A5000FB180022DA701F23FB1805221A70D1E010
:105A60001423FB1800225A701423FB1800229A708A
:105A70001423FB180022DA701F23FB1805221A706A
:105A8000C0E01423FB18FF225A701423FB18FF22D6
:105A90009A701423FB18FF22DA701F23FB180522CB
:105AA0001A70AFE0BB681B0CDAB21423FB185A70F3
:105AB000BB681B0ADAB21423FB189A70BB68DAB20F
:105AC0001423FB18DA703B681B0ADAB21423FB18A4
:105AD0001A713B68DAB21423FB185A711F23FB18A2
:105AE00007221A708EE0BB681B0CDAB21423FB1875
:105AF0005A70BB681B0ADAB21423FB189A70BB6891
:105B0000DAB21423FB18DA703B681B0CDAB21423E8
:105B1000FB181A713B681B0ADAB21423FB185A717E
:105B20003B68DAB21423FB189A711F23FB18082272
:105B30001A7067E0BB681B0ADAB21423FB185A70AC
:105B40003023FB181B78002B09D01423FB185B783B
:105B5000802252421343DAB21423FB185A70BB68F6
:105B6000DAB21423FB189A707B681B0EDAB2142386
:105B7000FB18DA707B681B0CDAB21423FB181A715D
:105B80007B681B0ADAB21423FB185A717B68DAB2FD
:105B90001423FB189A711F23FB1808221A7031E096
:105BA000BB681B0CDAB21423FB185A70BB681B0AC3
:105BB000DAB21423FB189A70BB68DAB21423FB180C
:105BC000DA707B681B0EDAB21423FB181A717B683B
:105BD0001B0CDAB21423FB185A717B681B0ADAB269
:105BE0001423FB189A717B68DAB21423FB18DA715C
:105BF0001F23FB1809221A7004E01E23FB18002241
:105C00001A70C0461E23FB181B785BB2002B3ED0D7
:105C1000244B1B78002B15D11F23FB181B785C1E0F
:105C20001F23FB181B78013B1A001423FB181900D3
:105C30007F201D4B98470300DB18DAB21423FB18B2
:105C40001A5506E01F23FB181F22BA181278013AD2
:105C50001A701F23FB181B789AB21423FB1811002B
:105C60001800124B9847031E11D084235A00104984
:105C7000104B1800104B9847104B1800104B9847CA
:105C80000D20104B98471E23FB1800221A701E236C
:105C9000FB181B785BB21800BD4609B090BDC0462A
:105CA000ACFE00008802002035590000C1580000F9
:105CB000E8FE0000F4F9000031DA000008FA000004
:105CC0004DDB000065DA000080B584B000AF020053
:105CD000FB1D1A700F23FB1801221A70FB1D1B7885
:105CE000CF2B07D0FB1D1B78C52B03D0FB1D1B78CA
:105CF000C62B0CD10D23FB18012118003A4B9847F5
:105D0000031E04D00F23FB1800221A7063E00E2339
:105D1000FB180A221A700D23FB1801211800324BC0
:105D20009847031E13D02823FF331A002F49304B06
:105D30001800304B9847304B1800304B98470D20D7
:105D40002F4B98470F23FB1800221A7043E00D23B6
:105D5000FB181B78FA1D12789A420BD00E23FB1801
:105D60001B785BB2DAB2013AD1B20E22BA181170C6
:105D7000002BD0DC0E23FB180A221A700D23FB180F
:105D800001211800184B9847031E13D03623FF3308
:105D90001A001649164B1800164B9847164B180058
:105DA000164B98470D20164B98470F23FB180022DF
:105DB0001A7010E00D23FB181B78002B0BD00E235C
:105DC000FB181B785BB2DAB2013AD1B20E22BA18D4
:105DD0001170002BD2DC0F23FB181B785BB218006C
:105DE000BD4604B080BDC0467D580000F0FE0000F6
:105DF000F4F9000031DA000034FA00004DDB000055
:105E000065DA000080B586B000AF78600800110048
:105E1000BB1C021C1A807B1C0A1C1A701123FB1865
:105E200001221A701423FB1800221A80BB1C1A8846
:105E300080239B019A4205D81223FB18BA1C1288B2
:105E40001A8004E01223FB18802292011A80162384
:105E5000FB180A221A800B23FB18012118005F4B44
:105E60009847031E13D05823FF331A005C495D4B3B
:105E700018005D4B98475D4B18005D4B98470D200F
:105E80005C4B98471123FB1800221A7017E00B2374
:105E9000FB181B781B09DBB21A000F2313400F2BD2
:105EA0000CD01623FB1800229B5E9AB2013A91B2E5
:105EB0001622BA181180002BCDD100E0C046112364
:105EC000FB181B785BB2002B00D17DE01623FB187A
:105ED00000229B5E002B18DC6423FF331A0040492C
:105EE000404B1800404B98470B23FB181B781A00B7
:105EF000414B110018003C4B98470D203D4B9847F3
:105F00001123FB1800221A705FE01423FB180022F3
:105F10009B5E7A68D2181223FB181B8819001000A8
:105F20002E4B9847031E12D0B6235A002C492D4BF6
:105F300018002D4B9847314B18002D4B98470D20DA
:105F40002C4B98471123FB1800221A703DE07B1C54
:105F50001B78002B1FD12A4B1B78002B1BD10C2345
:105F6000FB18022118001D4B9847031E13D07823FD
:105F7000FF331A001A491B4B18001B4B9847214B43
:105F800018001B4B98470D201A4B98471123FB18FC
:105F900000221A7019E01423FB181A881223FB1828
:105FA0001B88D3189AB21423FB181A801223FB18EB
:105FB0001A88BB1CB91C09888A1A1A80BB1C1B884A
:105FC000002B00D032E700E0C0461123FB181B78FD
:105FD0005BB21800BD4606B080BDC0467D580000CB
:105FE000FCFE0000F4F9000031DA000068FA00005D
:105FF0004DDB000065DA00009CFA0000CCFA0000DE
:1060000088020020FCFA000080B586B000AF7860FE
:106010000A00BB1C1A801323FB1801221A700C23E0
:10602000FB1800221A801623FB1800221A80BB1CC2
:106030001A8880239B019A4205D81423FB18BA1CA6
:1060400012881A8004E01423FB18802292011A801F
:106050001123FB18F0221A701623FB1800229B5EF6
:10606000002B0FD1BB1C1A8880239B019A4204D8B5
:106070001223FB1803221A7013E01223FB180122CB
:106080001A700EE0BB1C1A8880239B019A4204D828
:106090001223FB1803221A7003E01223FB180222BA
:1060A0001A701123FB181A781223FB181B7813435C
:1060B000DAB21123FB181A701123FB180121180002
:1060C0003C4B9847031E12D0D4235A003A493B4B0D
:1060D00018003B4B98473B4B18003B4B98470D2013
:1060E0003A4B98471323FB1800221A705AE01623E4
:1060F000FB1800229B5E7A68D2181423FB181B88B9
:10610000190010002B4B9847031E13D0B223FF3306
:106110001A002949294B1800294B98472C4B180085
:10612000294B98470D20294B98471323FB18002231
:106130001A7037E0274B1B78002B1BD10C23FB1860
:10614000022118001B4B9847031E13D0BC23FF33BA
:106150001A001949194B1800194B98471E4B180083
:10616000194B98470D20194B98471323FB18002211
:106170001A7017E01623FB181A881423FB181B88C3
:10618000D3189AB21623FB181A80BB1CB91C142210
:10619000BA18098812888A1A1A80BB1C1B88002B1F
:1061A00000D044E71323FB181B785BB21800BD46F0
:1061B00006B080BDC15800000CFF0000F4F90000DB
:1061C00031DA000030FB00004DDB000065DA000032
:1061D00068FB0000880200209CFB0000B0B586B080
:1061E00002AF786039600D23FB1801221A700F236B
:1061F000FB18C9221A700E23FB1800221A707B6844
:10620000302B08D80F23FB18C3221A700E23FB185B
:1062100001221A7007E00F23FB18C9221A700E23FF
:10622000FB1800221A700D23FC183A6879680F23B6
:10623000FB1818780E23FB181B7800930423264DB7
:10624000A847030023700D23FB181B785BB2012BBA
:1062500012D0EC23FF331A002049214B1800214BA8
:1062600098477A68204B110018001E4B98470D2064
:106270001E4B984700232BE00D23FC180F23FB181F
:106280001B7818001A4B9847030023700D23FB1846
:106290001B785BB2012B1AD0F223FF331A000F498F
:1062A0000F4B18000F4B98477A68124B11001800DB
:1062B0000C4B98470D200D4B98470023009300236B
:1062C00000220021CF20044CA047002300E001233E
:1062D0001800BD4604B0B0BD855900001CFF000089
:1062E000F4F9000031DA0000D4FB000065DA0000A8
:1062F000C95C000000FC0000B0B588B002AFF860D7
:10630000B960BB1D1A801723FB18C7221A70BB1D6A
:106310001A881623FC18F9681723FB18187800232D
:10632000009313000022374DA84703002370162363
:10633000FB181B785BB2012B10D0334A3349344B26
:106340001800344B9847FA68334B11001800314B52
:1063500098470D20314B984700234FE01623FC1837
:106360001723FB181B7818002D4B98470300237048
:106370001623FB181B785BB2012B18D0294A23493E
:10638000234B1800234B9847FA68274B110018003D
:10639000204B98470D20214B984700230093002362
:1063A00000220021CF20174CA047002326E016230F
:1063B000FC18BB1D1A88BB68110018001B4B9847BE
:1063C000030023701623FB181B785BB2012B14D03B
:1063D000174A0E490E4B18000E4B9847154B1800E4
:1063E000154B98470D200D4B984700230093002331
:1063F00000220021CF20034CA04701231800BD46F6
:1064000006B0B0BD855900000F0200002CFF00004F
:10641000F4F9000031DA000038FC000065DA000011
:10642000C95C00001502000068FC00000960000063
:1064300026020000A0FC00004DDB0000B0B586B0D5
:1064400002AF786039600D23FB1801221A700F2308
:10645000FB18CA221A700E23FB1800221A707B68E0
:10646000FF2B08D80F23FB18C4221A700E23FB1829
:1064700001221A7007E00F23FB18CA221A700E239C
:10648000FB1800221A700D23FC1879680F23FB18E3
:1064900018780E23FB181B78009304230022444D28
:1064A000A847030023700D23FB181B785BB2012B58
:1064B00010D0404A4049414B1800414B98477A68F8
:1064C000404B110018003E4B98470D203E4B98471B
:1064D000002368E00D23FC180F23FB181B7818001D
:1064E0003A4B9847030023700D23FB181B785BB2CF
:1064F000012B18D0364A3049304B1800304B9847A2
:106500007A68344B110018002D4B98470D202E4B04
:10651000984700230093002300220021CF20244C21
:10652000A04700233FE00D23FC180E23FB181A7828
:106530000823FB1804211800274B984703002370F9
:106540000D23FB181B785BB2012B16D0234A1A4986
:106550001A4B18001A4B9847214B1800214B9847AB
:106560000D20194B9847002300930023002200219F
:10657000CF200F4CA047002315E00823FB181B7801
:106580001A000823FB185B781B021A430823FB1828
:106590009B781B041A430823FB18DB781B061A435D
:1065A0003B681A6001231800BD4604B0B0BDC04668
:1065B00085590000450200003CFF0000F4F900008E
:1065C00031DA0000C8FC000065DA0000C95C000098
:1065D0004B020000F4FC0000055E000053020000C6
:1065E00028FD00004DDB0000B0B588B002AFF860B8
:1065F000B960BB1D1A801723FB18C8221A70BB1D77
:106600001A881623FC18F9681723FB18187800233A
:10661000009313000022394DA8470300237016236E
:10662000FB181B785BB2012B11D09D239A003449D3
:10663000344B1800344B9847FA68344B110018005B
:10664000314B98470D20324B9847002352E01623D8
:10665000FC181723FB181B7818002E4B98470300D3
:1066600023701623FB181B785BB2012B18D02A4A23
:106670002349244B1800244B9847FA68274B1100F4
:106680001800214B98470D20214B98470023009379
:10669000002300220021CF20184CA047002329E02E
:1066A0001623FC18BB1D1988BB68002218001C4B60
:1066B0009847030023701623FB181B785BB2012B4D
:1066C00017D0A1239A000E490E4B18000E4B984785
:1066D000144B1800144B98470D200D4B984700237E
:1066E0000093002300220021CF20044CA047002368
:1066F00000E001231800BD4606B0B0BD855900007A
:106700004CFF0000F4F9000031DA000048FD000001
:1067100065DA0000C95C00007A02000078FD000024
:10672000055E0000B0FD00004DDB000080B582B0CA
:1067300000AF0C4B18000C4B984703007B607B6844
:10674000702293437B607B68502213437B60C0467A
:106750007B68044A19001000044B9847C046BD46A8
:1067600002B080BD24E80000D16800004569000047
:1067700080B582B000AF00233B603F4B00221A700F
:106780003B003E4A190010003D4B9847031E27D19D
:10679000394B01221A703B4A3B493C4B18003C4B99
:1067A00098473C4B18003C4B98470D203B4B984773
:1067B0003B00324A19001000314B9847031E0FD19D
:1067C000B2239A003049314B1800314B9847344B73
:1067D0001800314B98470D20304B9847002346E076
:1067E000254B1B78002B25D13B680C2293433B6043
:1067F0003B68702293433B603B68502213433B60ED
:106800003B681E4A19001000264B9847031E0ED104
:10681000254A1D491D4B18001D4B9847234B180056
:106820001D4B98470D201D4B984700231FE0124B2E
:1068300001221A703A1D80235B0111001800104BD1
:106840009847031E10D1B7239A000F490F4B180029
:106850000F4B9847164B18000F4B98470D200F4BC6
:10686000984706235B4202E0124B9847002318002A
:10687000BD4602B080BDC0468802002024E800006A
:106880003D640000C502000058FF0000F4F900005C
:1068900031DA0000D8FD00004DDB000065DA0000B1
:1068A00028FE0000DD610000D202000054FE00005E
:1068B00088FE00002D67000080B500AF034B00226A
:1068C0001A7000231800BD4680BDC0468802002013
:1068D00080B584B000AF78600C23FA187B68110093
:1068E0001800034B9847FB681800BD4604B080BDF4
:1068F0003D64000090B585B000AF786039600F232B
:10690000FC183A687B68110018000D4B984703008B
:1069100023700F23FB181B785BB2012B04D10F23CC
:10692000FB1800221A7003E00F23FB18FA221A70DA
:106930000F23FB181B785BB21800BD4605B090BD55
:106940003D64000090B585B000AF786039600F23DA
:10695000FC183A687B68110018000D4B984703003B
:1069600023700F23FB181B785BB2012B04D10F237C
:10697000FB1800221A7003E00F23FB18FA221A708A
:106980000F23FB181B785BB21800BD4605B090BD05
:10699000DD61000090B587B000AFF860B960BB1D45
:1069A0001A801723FC18BB1D1A88B968FB681800E9
:1069B0000D4B9847030023701723FB181B785BB21D
:1069C000012B04D11723FB1800221A7003E01723B0
:1069D000FB18FA221A701723FB181B785BB21800F9
:1069E000BD4607B090BDC046E965000090B587B0D0
:1069F00000AFF860B960BB1D1A801723FC18BB1DDF
:106A00001A88B968FB6818000D4B9847030023707B
:106A10001723FB181B785BB2012B04D11723FB183B
:106A200000221A7003E01723FB18FA221A701723AA
:106A3000FB181B785BB21800BD4607B090BDC0467E
:106A4000F962000090B589B000AFB96011007B60B9
:106A50000F23FB18021C1A700E23FB180A1C1A7055
:106A60003023FB181B88002B00D1BFE00F23FB183D
:106A700000229A565F4B1201D358002B00D1B5E08B
:106A80000F23FB181B785BB25A4A1B01D31804333F
:106A90001B889BB2002B00D1A8E00F23FB181B78AA
:106AA0005BB2544A1B01D3180A331B78DBB2012BAB
:106AB00000D09BE07B68FB61BB683022BA1812886B
:106AC000DA801923FB1801221A701A23FB183022CE
:106AD000BA1812881A800F23FB181B785BB2454A3C
:106AE0001B01D31804331B889BB21A22BA181288D0
:106AF000D31A9AB21623FB181A801623FB18002209
:106B00009B5E002B0FDD1923FB1800221A700F2348
:106B1000FB1800229A561A23FB18364912018A18CC
:106B2000043212881A800F23FB1800229A56314B28
:106B30001201D1581923FB181C781A23FB181A8844
:106B4000F86923002C4CA047031E38D10F23FB18F3
:106B500000229A56274B1201D258BB681A601A239A
:106B6000FB1800229A5EBB689A80BB68DA881A23F9
:106B7000FB181B88D31A9AB2BB68DA801F4B1B68BC
:106B8000002B0BD01D4B1B68BC680E22BA18117865
:106B90000F22BA1800201056220098473023F91807
:106BA0003023FA181A23FB1812881B88D31A0B807B
:106BB0001A23FB181B88FA69D318FB6110E0104BED
:106BC0001800104B98473023FB181A880E4B110001
:106BD00018000C4B98470D200C4B9847C04605E019
:106BE0003023FB181B88002B00D06AE7C046BD4647
:106BF00009B090BDD8030020993D00008804002012
:106C000064FF000031DA000070FF000065DA000068
:106C100090B5BBB002AF3A60FB1D021C1A703B1D61
:106C20000A1C1A80FB1D1B78412B20D1CC23F9189C
:106C30003868002304228D4CA047031E00D064E274
:106C4000CC23FB1801229A56C823FB181A70884BD4
:106C50001B68002B00D158E2854B1B68CC22BA1868
:106C600000201056C822BA18012198474DE2FB1D9A
:106C70001B78422B20D1C423F91838680023042242
:106C80007A4CA047031E00D03FE2C423FB18012228
:106C90009A56C023FB181A70754B1B68002B00D145
:106CA00033E2734B1B68C422BA1800201056C0226E
:106CB000BA180221984728E2FB1D1B78432B6BD1A1
:106CC000B423F918386800230C22684CA047031E2F
:106CD00000D01AE2B423FB185B7A5BB2002B34DBE2
:106CE000B423FB185B7A5BB2624A1B01D3180B33E7
:106CF00000221A70B423FB185B7A5BB25D4A1B0159
:106D0000D3180A3301221A705B4B1B889BB20133E4
:106D10009AB2594B1A80584B1B889BB2002B06D154
:106D2000554B1B889BB201339AB2534B1A80B42344
:106D3000FB185B7A5BB218004F4B1B8899B24D4A27
:106D40000301D31806330A1C1A80B423FB18092246
:106D50009A56A023FB181A70A023FB1802229A80CF
:106D6000B423FB185A88A023FB18DA80B423FB183D
:106D70005A68A023FB189A603D4B1B68002B00D17A
:106D8000C3E13B4B1B68B422BA1808201056A0225E
:106D9000BA1804219847B8E1FB1D1B78442B03D097
:106DA000FB1D1B784B2B3DD19C23F9183868002321
:106DB00004222E4CA047031E00D0A1E19C23FB1807
:106DC00000229A569823FB181A709C23FB18012264
:106DD0009A569823FB185A709C23FB185B785BB279
:106DE000002B0FD19C23FB181B785BB218009C234F
:106DF000FB185B88083B99B21E4A0301D31808337D
:106E00000A1C1A801A4B1B68002B00D178E1184B22
:106E10001B689C22BA18002010569822BA18052127
:106E200098476DE1FB1D1B784A2B29D10C23F918DB
:106E30003868002344220D4CA047031E00D064E1B3
:106E40000C23FB181A6C0C23FB181A640B4B1B68E1
:106E5000002B00D159E1094B1A680C23FB18196C5F
:106E60000C23FB18180090474FE1C046993D0000E5
:106E700088040020D80300208A020020900400200B
:106E8000FB1D1B78462B08D0FB1D1B78482B04D01C
:106E9000FB1D1B784D2B00D0B4E0DF23FB1806222E
:106EA0001A70FB1D1B78482B03D1DF23FB18092226
:106EB0001A70D823FB1810221A80D823FB181A88BE
:106EC0008823F91838680023924CA047031E00D08D
:106ED00018E1D623FB1800221A80D523FB1888223C
:106EE000BA18127B1A70D623FB188822BA18D289D6
:106EF0001A80D523FB181B785BB2874A1B01D31875
:106F00000C3300221A70D223FB188822BA18128977
:106F10001A80D023FB188822BA1852891A80882335
:106F2000FB185A887023FB185A818823FB185A686B
:106F30007023FB18DA60D523FB181B785BB2764A06
:106F40001B01D31806331B889BB2D622BA181288AD
:106F50009A4248D1D223FB1800229B5E002B25DDEC
:106F6000D223FB1800229A5E3B1D1B889A421DDA31
:106F7000D023FB181B883A68D3183B60D823FB1832
:106F8000D222BA1812881A803C68DF23FB181A78BC
:106F90007023F918D523FB1800201856D823FB18A6
:106FA0001B88009323005D4CA047ABE07023FB18C7
:106FB000D222BA1812889A807023FB1800221A6015
:106FC000574B1B68002B00D19CE0554B1B6870226F
:106FD000BC18DF22BA181178D522BA180020105632
:106FE000220098478EE0D823FA183B1D12881B8890
:106FF0009A4200D386E00123002200210020454C64
:10700000A0477FE0FB1D1B78452B07D0FB1D1B789D
:10701000472B03D0FB1D1B784C2B4CD1DE23FB18D8
:1070200007221A70FB1D1B78472B03D1DE23FB18A8
:1070300008221A706423F918386800230822354C96
:10704000A047031E60D1DC23FB1800221A80DB233B
:10705000FB186422BA1812781A70DC23FB18642219
:10706000BA1892881A806423FB1802229A5E6E2353
:10707000FB181A80DB23FB181B785BB2264A1B0126
:10708000D31806331B889BB2DC22BA1812889A42A6
:107090003AD1234B1B68002B36D0214B1B686E2244
:1070A000BC18DE22BA181178DB22BA18002010565C
:1070B0002200984728E0FB1D1B78522B25D1502336
:1070C000F918386801231422124CA047031E1CD162
:1070D0005023FB185B681A00124B1A60114B1B6897
:1070E000002B12D00F4B1C685023FB18186850233C
:1070F000FB1899685023FB181B7C1A00A04704E07A
:10710000C04602E0C04600E0C046C046BD4639B0B9
:1071100090BDC046993D0000D8030020456A00009C
:10712000880400208C04002080B500AF0C4B1B7835
:10713000DBB2002B10D10B4BB022002118000A4B00
:1071400098470A4B19000220094B9847044B01222B
:107150001A70084B00221A80C046BD4680BDC0464A
:107160008C020020D8030020CD320000116C0000FA
:10717000913F00008A02002080B582B000AF7860A5
:107180003960054B7A681A60044B3A681A60C04649
:10719000BD4602B080BDC046880400209004002097
:1071A00090B58BB004AF040008001100BB1D221C79
:1071B0001A807B1D021C1A703B1D0A1C1A701723B3
:1071C000FB18FF221A701523FB180B221A70BB1D27
:1071D0001B88022B00D07EE07B1D1B78012B08D181
:1071E0001523FB1807221A701623FB1800221A70A9
:1071F00067E07B1D1B78022B08D11523FB180B229F
:107200001A701623FB1807221A705AE01723FB186E
:107210001B785BB263E01623FB181B781A01324B14
:10722000D3183B613B699B7ADBB2002B42D13B69AF
:107230001022002118002D4B98473B6901229A72B9
:107240002B4B1B889BB201339AB2294B1A80284BD7
:107250001B889BB2002B06D1254B1B889BB20133A8
:107260009AB2234B1A80224B1B889AB23B69DA8070
:107270001723FB181622BA1812781A703B1D1B78B8
:107280000122134026D00C23FB181722BA181278BB
:107290001A703B692122DA720C23FA180023029338
:1072A0000023019300230093042350210220114C5A
:1072B000A0470FE01623FB181A781623FB1801329B
:1072C0001A701623FA181523FB1812781B789A42A5
:1072D000A1D300E0C0461723FB181B785BB218004F
:1072E000BD4607B090BDC046D8030020CD32000097
:1072F0008A020020B9350000B0B58AB004AF396009
:107300001100FB1D021C1A70BB1D0A1C1A701723EA
:10731000FB18FA221A70FB1D1B787F2B67D83B687D
:10732000002B64D0FB1D1B785BB2354A1B01D318C0
:107330000A331B78DBB2012B59D1BB1D1B78002B04
:1073400055D01623FB1844221A70FB1D1B785BB224
:107350002B4A1B01D3180B331B78DBB21A00012315
:1073600013400FD01623FB184B221A70FB1D1B78FD
:107370005BB2234A1B01D3180B331B78DAB2082304
:10738000FB185A720823FB18FA1D12781A72396812
:107390000823FB18082218001A4B9847FB1D1B787E
:1073A0005BB2174A1B01D31806331B889AB2082315
:1073B000FB185A811723FC180823FA181623FB1808
:1073C00019780023029300230193002300930C23D8
:1073D00002200D4DA847030023701723FB181B78CC
:1073E0005BB2002B03D01723FB18F7221A70172368
:1073F000FB181B785BB21800BD4606B0B0BDC04696
:10740000D803002091320000B935000090B58FB04C
:1074100004AF0400B960100019000F23FB18221CF0
:107420001A700C23FB18021C1A80BB1D0A1C1A8040
:107430002623FB18062252421A800F23FB181B78C2
:107440007F2B00D987E0BB68002B00D183E00C23A1
:10745000FB181A88AF23DB009A4200D97BE00F2388
:10746000FB181B785BB2404A1B01D3180A331B7808
:10747000DBB2012B6FD12323FB1845221A70242382
:10748000FB1850221A801023FB180F22BA1812780A
:107490001A701023FB180C22BA1812885A800F2376
:1074A000FB181B785BB2304A1B01D31806331B88CC
:1074B0009AB21023FB189A810F23FB181B785BB23A
:1074C000062B03DD2423FB1844221A800F23FB180C
:1074D0001B785BB2244A1B01D3180B331B78DBB239
:1074E0001A00012313400FD02323FB184C221A70DB
:1074F0000F23FB1800229A562423FB181A49120165
:107500008A18083212881A802323FB181B788022DD
:1075100052421343D9B21023FA182423FB181B88B4
:1075200002930C23FB181B880193BB680093102364
:1075300002200E4CA04703001A002623FB181A80D5
:107540002623FB1800229B5E002B04D02623FB1869
:107550000E2252421A802623FB1800229B5E18003E
:10756000BD460BB090BDC046D8030020B935000021
:1075700090B58DB004AFB96011007B600F23FB188C
:10758000021C1A700C23FB180A1C1A801E23FB18FD
:10759000062252421A800F23FB181B787F2B00D93A
:1075A00099E0BB68002B00D195E00C23FB181B88E9
:1075B000002B00D18FE00F23FB181B785BB24A4AE7
:1075C0001B01D3180A331B78DBB2012B00D082E0F9
:1075D0001E23FB1800221A800F23FB1800229A5644
:1075E000414B1201B968D1500F23FB181B785BB2D5
:1075F0003D4A1B01D31804330C22BA1812881A8092
:107600000F23FB181B785BB2374A1B01D3180C33CE
:107610001B78DBB2002B5ED11D23FB1846221A70AB
:107620000F23FB181B785BB22F4A1B01D3180C33B6
:1076300001221A700F23FB181B785BB22A4A1B0128
:10764000D3180B331B78DBB21A000123134003D08D
:107650001D23FB184D221A707B68002B05D11423C3
:10766000FB18012252421A6003E01423FB187A68C7
:107670001A601423FB180F22BA1812781A710F23FC
:10768000FB181B785BB2184A1B01D31806331B8802
:107690009AB21423FB18DA801423FA181D23FB185E
:1076A00019780023029300230193002300930823F9
:1076B00002200E4CA04703001A001E23FB181A805C
:1076C0001E23FB1800229B5E002B04D01E23FB18F8
:1076D0000E2252421A801E23FB1800229B5E1800C5
:1076E000BD4609B090BDC046D8030020B9350000A2
:1076F000B0B588B004AF0200FB1D1A700F23FB1851
:10770000FA221A70FB1D1B787F2B6AD8FB1D1B7891
:107710005BB2384A1B01D3180A331B78DBB2012B4A
:107720005FD10E23FB1849221A700823FB18FA1D9B
:1077300012781A70FB1D1B785BB22E4A1B01D318FE
:1077400006331B889AB20823FB185A80FB1D1B784E
:107750005BB2284A1B01D3180A3300221A70FB1DA2
:107760001B785BB2234A1B01D318063300221A8010
:10777000FB1D1B785BB21F4A1B01D3180B331B7810
:10778000DBB21A000123134003D00E23FB184E2254
:107790001A700F23FC180823FA180E23FB18197807
:1077A000002302930023019300230093042302206B
:1077B000114DA847030023700F23FB181B785BB201
:1077C000002B03D00F23FB18F7221A70FB1D1B7828
:1077D0005BB21A01074BD318102200211800074B87
:1077E00098470F23FB181B785BB21800BD4604B006
:1077F000B0BDC046D8030020B9350000CD3200002E
:1078000080B586B000AF786000233B611723FB187A
:1078100000221A701623FB1800221A7060E015234C
:10782000FB1800221A701423FB187A6812781A7059
:107830001523FB181522BA18127801321A70152375
:10784000FB181B78042B01D9002357E01423FB18E5
:107850001B782E2B04D01423FB181B78002B0DD182
:107860001623FB181B780C22BA18172179180978EF
:10787000D1541723FB1800221A701DE01423FB18A3
:107880001B782F2B16D91423FB181B78392B11D8F2
:107890001723FB181B781A1C9200D318DB18DAB2D6
:1078A0001423FB181B78D318DAB21723FB18303ACD
:1078B0001A7001E0002321E07B6801337B60142310
:1078C000FB181B782E2B04D01423FB181B78002BDD
:1078D000A9D11623FB181622BA18127801321A7091
:1078E0001623FB181B78032B99D90C23F9181023A6
:1078F000FB1804221800034B98473B691800BD464B
:1079000006B080BD91320000B0B588B004AF786099
:107910000F23FB18FA221A707B681800194B98473E
:1079200003001A000E23FB181A700E23FB181B7895
:10793000402B1FD80E23FB181B789BB2013399B242
:107940000F23FC187A68002302930023019300237D
:1079500000930B00CA2102200B4DA847030023709F
:107960000F23FB181B785BB2002B03D00F23FB18EF
:10797000F7221A700F23FB181B785BB21800BD4664
:1079800004B0B0BD0B330000B935000080B582B043
:1079900000AF3B007B607B68B9221A70134B00215B
:1079A0001800134B98477B681B781A00114B110085
:1079B00018000F4B9847104B012118000C4B9847AB
:1079C0000E4B002118000A4B98470D4B81211800DF
:1079D000074B9847C0460B4B18000B4B98470300CA
:1079E000012BF8D1C046BD4602B080BD080201009F
:1079F0006D5200000C020100140201001C02010083
:107A000004020100180201002952000080B582B072
:107A100000AF3B007B607B68AB221A70134B0021E8
:107A20001800134B98477B681B781A00114B110004
:107A300018000F4B9847104B012118000C4B98472A
:107A40000E4B002118000A4B98470D4B812118005E
:107A5000074B9847C0460B4B18000B4B9847030049
:107A6000012BF8D1C046BD4602B080BD080201001E
:107A70006D5200000C020100140201001C02010002
:107A800004020100180201002952000090B585B0DF
:107A900000AF0200FB1D1A700F23FB1800221A70A2
:107AA000244B984703001B051B0D234A934238D9EA
:107AB0000F23FC180823FB18204A19001000204B44
:107AC0009847030023700F23FB181B785BB2002B31
:107AD00026D1BB681B4A1340BB60BB681A4A1343DC
:107AE000BB60BB68154A19001000184B9847FB1D76
:107AF0001B78002B02D0164B984701E0154B984796
:107B0000BB68104A1340BB60BB688022520213431B
:107B1000BB60BB68094A190010000C4B984700E095
:107B2000C0460F23FB181B785BB21800BD4605B09A
:107B300090BDC046894D00009F0300001014000056
:107B400049520000FF8F88F8001011016D520000AB
:107B50000D7A00008D79000080B582B000AF104B27
:107B60001B68002B12D1EFF310837B607B68002B26
:107B700009D172B6BFF35F8F0A4B00221A700A4B0D
:107B800001221A7002E0084B00221A70044B1B6895
:107B90005A1C034B1A60C046BD4602B080BDC046A9
:107BA00090020020140000209402002080B500AF55
:107BB0000B4B1B685A1E0A4B1A60094B1B68002BA3
:107BC0000AD1084B1B78DBB2002B05D0064B0122F3
:107BD0001A70BFF35F8F62B6C046BD4680BDC04617
:107BE00090020020940200201400002080B584B090
:107BF00000AF0200FB1D1A700F23FB18FA1D12784C
:107C0000D2091A700E23FB18FA1D127852091A7045
:107C10000D4BBB600F23FB181B78002B0FD10F23DC
:107C2000FB181B789B0010229446BC446344083B1D
:107C30001A680E23FB181B78DB01D31800E0002321
:107C40001800BD4604B080BD0044004180B582B03C
:107C500000AF0200FB1D1A70FB1D1B781800034BC0
:107C6000984703001800BD4602B080BDED7B0000C0
:107C700080B582B000AF78607B6800221A707B68A4
:107C800001225A707B6800229A70C046BD4602B03D
:107C900080BD000080B584B000AF0200FB1D1A70EB
:107CA000BB1D0A1C1A70FB1D1B7818000D4B984752
:107CB0000300FB60FB1D1B781F22134001229A402A
:107CC0001300BB60BB1D1B78002B03D0FB68BA6898
:107CD0009A6102E0FB68BA685A61C046BD4604B0CA
:107CE00080BDC0464D7C000080B582B000AF3B1D1A
:107CF00018000E4B98473B1D01221A703B1D1900BE
:107D00000B200B4B984701210B200A4B98473B1D3A
:107D100000221A703B1D01225A703B1D19003720AA
:107D2000034B9847C046BD4602B080BD717C000041
:107D30005D830000957C000080B584B000AF020038
:107D4000FB1D1A700F23FB18FA1D127852091A70C6
:107D50000F23FB181B78002B0CD1094BBB600F23A2
:107D6000FB181B789B0010229446BC446344083BDC
:107D70001B6800E000231800BD4604B080BDC0466B
:107D80000018004080B584B000AF0200FB1D1A70DF
:107D9000FB1D1B7818000B4B98470300FB60FB1D75
:107DA0001B781F22134001229A401300BB60FB681E
:107DB0001B69BA6813405A1E9341DBB21800BD46D6
:107DC00004B080BD397D000080B584B000AF0200F2
:107DD000FB1D1A70FB1D1B781800094B9847030008
:107DE000FB60FB1D1B781F22134001229A401300E9
:107DF000BB60FB68BA681A61C046BD4604B080BD6E
:107E0000397D000080B582B000AF786008001100B5
:107E1000FB1C021C1A70BB1C0A1C1A70BB1C1B78B2
:107E2000002B01D0172319E0FB1C1A780D4B920090
:107E3000D358002B07D1FB1C1A780A4B92007968A3
:107E4000D15000230AE0FB1C1A78064B9200D2584E
:107E50007B689A4201D1002300E01D231800BD4633
:107E600002B080BD9804002080B584B000AF02004D
:107E7000FB1D1A70BB1D0A1C1A70BB1D1B78002B42
:107E80000ED1FB1D1B781800084B98470300FB60C0
:107E9000FB1D1B7801229A40FB68DA60002300E09A
:107EA00017231800BD4604B080BDC046397D0000D0
:107EB00080B584B000AF0200FB1D1A70BB1D0A1C08
:107EC0001A70BB1D1B78002B0ED1FB1D1B781800F0
:107ED000084B98470300FB60FB1D1B7801229A406A
:107EE000FB689A60002300E017231800BD4604B029
:107EF00080BDC046397D000080B500AF154B002223
:107F00001A7020E0134B1B781800134B9847031E80
:107F100013D0104B1B781800104B98470D4B1B7853
:107F20001A000F4B9200D358002B06D0094B1B7838
:107F30001A000B4B9200D3589847064B1B7801331D
:107F4000DAB2044B1A70034B1B780F2BDAD9C046F8
:107F5000BD4680BD94040020857D0000C97D0000E1
:107F60009804002080B582B000AF78607B68002262
:107F70001A70C046BD4602B080BD000080B582B018
:107F800000AF02003960FB1D1A70FB1D1B78012B2E
:107F90000AD0022B0FD0002B14D10E4B0D4A916941
:107FA0003A680A439A610FE00A4B0A4AD1693A6873
:107FB0000A43DA6108E0074B064A116A3A680A4345
:107FC0001A6201E0172300E000231800BD4602B04A
:107FD00080BDC0460004004080B582B000AF78602C
:107FE0007B6880221A707B6800225A707B680122AD
:107FF0009A707B680022DA70C046BD4602B080BD30
:1080000080B582B000AF0200FB1D1A70064BFA1D4E
:10801000127811001F220A40012191400A001A60C3
:10802000C046BD4602B080BD00E100E080B584B02E
:1080300000AF0200FB1D1A700F23FB18FA1D127807
:1080400052091A700F23FB181B78002B0CD1094B17
:10805000BB600F23FB181B789B0010229446BC4486
:108060006344083B1B6800E000231800BD4604B0D1
:1080700080BDC0460018004080B582B000AF0F4BF5
:108080003B6000237B6011E07B689B0008229446E4
:10809000BC446344083B1B685B78DBB25BB2002BDB
:1080A00001DA012306E07B6801337B607B68002BEB
:1080B000EAD000231800BD4602B080BD0018004081
:1080C00080B584B000AF2D4B7B60402100202C4B4D
:1080D00098473B0018002B4B98473B0000221A7032
:1080E0003B0019000520284B98470520274B98474F
:1080F0000023FB6018E0FB689B0010229446BC4400
:1081000063440C3B1A68FB689B0010218C46BC44FE
:1081100063440C3B1B681B78DBB201210B43DBB2D1
:108120001370FB680133FB60FB68002BE3D0C04693
:10813000174B9847031EFBD10B23FB1800221A7024
:108140000DE00B23FB181A78124B92000021D1503E
:108150000B23FB181A780B23FB1801321A700B2320
:10816000FB181B780F2BECD904200B4B98470B4BBB
:108170009847C046BD4604B080BDC04600180040C8
:108180007D7F0000657F0000BDAD000001AE0000F6
:10819000798000009804002001800000A181000087
:1081A00080B582B000AF154B3B6000237B6018E0C8
:1081B0007B689B0008229446BC446344083B1A68D1
:1081C0007B689B0008218C46BC446344083B1B68C9
:1081D0001B78DBB202210B43DBB213707B680133E7
:1081E0007B607B68002BE3D0C046054B9847031E9D
:1081F000FBD1C046BD4602B080BDC046001800405D
:108200007980000080B582B000AF78607B68002282
:108210001A607B6800225A607B6801221A727B68B0
:1082200001225A727B6800229A727B680222DA72FB
:10823000C046BD4602B080BD80B586B000AF02002A
:108240003960FB1D1A700823FB181800364B98473D
:108250003B685B68DAB20823FB181A700823FB1826
:1082600000225A703B681A7A0823FB189A703B6800
:108270001B68DBB20822BA18110018002B4B984774
:10828000FB1D1B7818002A4B984703003B61FB1D20
:108290001B78072213409B00FB603B68DB7A7B6105
:1082A0003B689B7A002B03D07B69082213437B61D8
:1082B000FB1D1B78DB08DBB21800FB1D1B78DB08FD
:1082C000DBB21A003B6906329200D3580F21FA68DC
:1082D00091400A00D2431A407969FB6899400B002B
:1082E0001A4311003B69821D9200D1503B685B7AB2
:1082F000002B0AD03B695A69FB1D1B78012199406C
:108300000B001A433B695A610AE03B695B69FA1D3D
:108310001278012191400A00D2431A403B695A6108
:10832000C046BD4606B080BDD97F0000A9B00000A0
:108330002D80000080B582B000AF78607B6880221D
:108340001A707B6800225A707B6801229A707B68E1
:108350000022DA70C046BD4602B080BD80B584B050
:1083600000AF02003960FB1D1A700C23FB181800C7
:10837000104B98470C23FB1880221A703B681A7820
:108380000C23FB185A703B685A780C23FB189A7020
:108390003B689A780C23FB18DA700C23FA18FB1D43
:1083A0001B7811001800044B9847C046BD4604B026
:1083B00080BDC04635830000A9B0000080B582B002
:1083C00000AF78607B6800221A70C046BD4602B0DC
:1083D00080BDF0B58DB000AFB860F9603A607B60E9
:1083E000002300243B627C6200230024BB61FC610B
:1083F0003F23FB6253E0FB6A203B002B04DB01229E
:108400009A4013007B610BE0FB6A2022D31A012201
:10841000DA4013000021FA6A91400A0013437B619D
:108420000122FB6A9A4013003B61BB69FC69DB18BF
:108430006441BB61FC61BB683A691A401500FB6886
:108440007A691A4016002B00334307D0BB6901221A
:108450001343BB61FB6900221343FB617A68FB692C
:108460009A4219D87A68FB699A4203D13A68BB6983
:108470009A4211D8B969FA693B687C68C91AA24165
:108480000B001400BB61FC613A6A3B6913433B6219
:108490007A6A7B6913437B62FB6A013BFB62FB6A7E
:1084A000002BA8DA3B6A7C6A18002100BD460DB09B
:1084B000F0BD80B586B000AFF860B9607A60162371
:1084C000FB1800221A80BB683B61BB685A08FB6836
:1084D0009A4201D2402326E0BB685B083B610AE078
:1084E0003A69FB68D31A3B611623FB181A881623D6
:1084F000FB1801321A803A69FB689A42F0D21623BF
:10850000FB181622BA181288013A1A801623FB1893
:108510001B88FF2B01D9402305E07B681622BA187F
:1085200012881A8000231800BD4606B080BD0000E6
:10853000F0B59DB000AFF863B9637A633322BA181F
:10854000137000230024BB65FC65002300243B65F9
:108550007C6500230024BB66FC6600233B66582331
:1085600030229446BC4463441A78FB6B5A43BB6B7D
:108570009A4201D94023C6E03323FB181B78002B15
:108580003DD1582330229446BC4463441B78DBB26F
:108590003B6100237B61FB6BBB600023FB605C4C99
:1085A000BA68FB6838697969A04703000C001B00B2
:1085B000FB640023BB64BB6B3B6000237B60B86C37
:1085C000F96C3A687B68534CA04703000C00BB650C
:1085D000FC6500210122BB6DFC6DC91AA2410B0094
:1085E00014003B657C653B6D1B0C7A6D16041E43C5
:1085F0003B6D1D043300BB660023FB667DE0332327
:10860000FB181B78012B00D077E0372330229446EB
:10861000BC44634400221A704EE0BB6BBB62002373
:10862000FB62B86AF96A03005B0F0A00D2001343C9
:10863000FB640300DB00BB64FB6B3B6200237B62DB
:10864000582330229446BC4463441B78DBB2BB61A0
:108650000023FB612E4CBA69FB69386A796AA0472E
:1086600003000C003B647C643B6C7C6CB86CF96C64
:108670001A002300274CA04703000C003B66372359
:1086800030229446BC4463441B783A6ED31A3B664E
:108690003B6EDB083B663B6E1F4A934215D937237E
:1086A00030229446BC4463441A78372330218C46E8
:1086B000BC44634401321A70372330229446BC44D0
:1086C00063441B78072BA8D900E0C046372330222B
:1086D0009446BC4463441B78082B01D1402312E02C
:1086E000372330229446BC4463441B785B031A0052
:1086F0003B6E1343BB660023FB66BB6EFC6E9AB2F7
:108700007B6B1A8000231800BD461DB0F0BDC0462B
:10871000E9D70000D3830000FF1F000080B584B0BC
:1087200000AF0200FB1D1A70BB1D0A1C1A701A4B09
:108730001B7801225340DBB2002B03D1BB1D1B78F9
:10874000002B1BD00C23FB181800144B98470C234C
:10875000FB18FA1D12781A700C23FB18190013204D
:108760000F4B984713200F4B98470B4BFA1D12786D
:108770005A70094B01221A70002308E0064B5B78FF
:10878000FA1D12789A4201D1002300E01D2318003F
:10879000BD4604B080BDC04698020020BD830000E5
:1087A000BDAD000001AE000080B582B000AF7860C2
:1087B0000A00FB1C1A707B684D4A93423FD04C4A1A
:1087C000934206D84B4A93420FD04B4A934221D052
:1087D00089E04A4A934200D15BE0494A934200D182
:1087E0006CE0484A93423FD07DE0FB1C1B78012B94
:1087F0000AD002DC002B05D075E0022B06D0032B3B
:1088000006D070E0404B6FE0404B6DE0404B6BE0BA
:10881000404B69E0FB1C1B78012B0AD002DC002BCB
:1088200005D060E0022B06D0032B06D05BE00323CB
:108830005AE0394B58E0394B56E0394B54E0FB1CB9
:108840001B78012B0AD002DC002B05D04BE0022B59
:1088500006D0032B06D046E0324B45E0324B43E0D6
:10886000324B41E0324B3FE0FB1C1B78012B0AD01E
:1088700002DC002B05D036E0022B06D0032B06D0FD
:1088800031E02C4B30E02C4B2EE02C4B2CE02C4BD1
:108890002AE0FB1C1B78012B0AD002DC002B05D040
:1088A00021E0022B06D0032B06D01CE0254B1BE059
:1088B000254B19E0254B17E0254B15E0FB1C1B78D9
:1088C000012B0AD002DC002B05D00CE0022B06D0D5
:1088D000032B06D007E01F4B06E01F4B04E01F4BA5
:1088E00002E01F4B00E000231800BD4602B080BD2F
:1088F0000010004200080042000C00420018004234
:10890000001C0042001400420300040003000500A4
:1089100003000600030007000300010003001E001F
:1089200003001F00030008000300090003000A0001
:1089300003000B00030010000300110003001200ED
:108940000300130003000C0003000D0003000E00E1
:1089500003000F00030016000300170003001800B7
:108960000300190090B58BB000AF78600C23FB18A2
:108970000F4A13CA13C313CA13C300237B620EE04A
:108980000C23FB187A6A9200D3581A007B689A422B
:1089900002D17B6ADBB206E07B6A01337B627B6AD1
:1089A000052BEDD900231800BD460BB090BDC04685
:1089B000E0FF000080B582B000AF0200FB1D1A701E
:1089C000C046BD4602B080BD80B584B000AF020095
:1089D0003960FB1D1A70134B1B7801225340DBB228
:1089E000002B15D00023FB600CE00F4BFA689200BF
:1089F0000E49D1500E4BFA6892000021D150FB680D
:108A00000133FB60FB68052BEFD9064B01221A707E
:108A1000FB1D1A78044B92003968D150C046BD4600
:108A200004B080BD9A0200209C020020B58900009D
:108A3000D804002090B585B000AF78600823FA18FC
:108A40000C4B1000190006231A000B4B98470F23FC
:108A5000FC187B681800094B9847030023700F230C
:108A6000FB181B780822BA18D35C5BB21800BD460D
:108A700005B090BDF8FF000099D80000658900009E
:108A800080B500AF034B1B6800209847C046BD4629
:108A900080BDC0469C02002080B500AF034B5B68E0
:108AA00001209847C046BD4680BDC0469C020020BC
:108AB00080B500AF034B9B6802209847C046BD4677
:108AC00080BDC0469C02002080B500AF034BDB6830
:108AD00003209847C046BD4680BDC0469C0200208A
:108AE00080B500AF034B1B6904209847C046BD46C4
:108AF00080BDC0469C02002080B500AF034B5B697F
:108B000005209847C046BD4680BDC0469C02002057
:108B100080B582B000AF78607B6880221A707B6875
:108B200000225A707B6801229A707B680022DA70FA
:108B3000C046BD4602B080BD80B584B000AF020023
:108B4000FB1D1A700F23FB18FA1D1278D2091A7038
:108B50000E23FB18FA1D127852091A700D4BBB60D8
:108B60000F23FB181B78002B0FD10F23FB181B784A
:108B70009B0010229446BC446344083B1A680E23B1
:108B8000FB181B78DB01D31800E000231800BD465A
:108B900004B080BD0044004180B582B000AF020047
:108BA000FB1D1A70FB1D1B781800034B9847030030
:108BB0001800BD4602B080BD398B000080B584B07E
:108BC00000AF0200FB1D1A70BB1D0A1C1A70FB1DB2
:108BD0001B7818000D4B98470300FB60FB1D1B78AA
:108BE0001F22134001229A401300BB60BB1D1B785B
:108BF000002B03D0FB68BA689A6102E0FB68BA6890
:108C00005A61C046BD4604B080BDC046998B000085
:108C100080B582B000AF78607B6800221A70C046D1
:108C2000BD4602B080BD000080B582B000AF02003A
:108C30003960FB1D1A70FB1D1B78012B0AD0022B1B
:108C40000FD0002B14D10E4B0D4A91693A680A439C
:108C50009A610FE00A4B0A4AD1693A680A43DA611D
:108C600008E0074B064A116A3A680A431A6201E0B3
:108C7000172300E000231800BD4602B080BDC046A7
:108C80000004004080B500AF054B9B78DBB21A00B2
:108C9000022313405A1E9341DBB21800BD4680BD2B
:108CA0000020004180B584B000AF78607B681B680D
:108CB000FB60FB681B7EDBB21A00012313405A1EC7
:108CC0009341DBB21800BD4604B080BD80B584B0CE
:108CD00000AF78607B681B68FB60FB681B7EDBB2C3
:108CE0001A00042313405A1E9341DBB21800BD46FC
:108CF00004B080BD80B584B000AF78600A00BB1CB2
:108D00001A807B681B68FB607B6818000A4B9847D9
:108D100003001A0001235340DBB2002B01D00523CE
:108D200006E0BB1C1B88DB05DA0DFB689A6200239A
:108D30001800BD4604B080BDA58C000080B584B08D
:108D400000AF786039607B681B68BB607B68180087
:108D50001B4B984703001A0001235340DBB2002B42
:108D600001D0102327E00F23FB1800221A70BB68E4
:108D70005B8B9BB21A000423134006D00F23FB1811
:108D80001E221A70BB6804225A837B689B79012BD0
:108D900008D1BB689B6A9BB2DB05DB0D9AB23B68CE
:108DA0001A8005E0BB689B6ADBB29AB23B681A8006
:108DB0000F23FB181B781800BD4604B080BDC046C9
:108DC000CD8C000090B593B000AF786039607B68BF
:108DD0001B687B637B681B683B631C23FB181800C4
:108DE000754B98471C23FB1800225A703B681B7870
:108DF000002B03D11C23FB1800229A703B689A6A4F
:108E00000C23FB181A603B68DA6A0C23FB185A60C3
:108E10003B681A6B0C23FB189A603B685A6B0C2357
:108E2000FB18DA604723FB1800221A702CE0472356
:108E3000FB181A780C23FB189200D3583B643B6C48
:108E4000002B09D14723FB181A783B6B110018003F
:108E50005A4B984703003B643B6C01330DD03B6C8D
:108E6000DAB21C23FB181A703B6C1B0CDBB21C2201
:108E7000BA1811001800524B98474723FB181A786C
:108E80004723FB1801321A704723FB181B78032B6A
:108E9000CDD93B681A787B685A713B681A7C7B682D
:108EA0009A713B689A7C7B68DA713B681A7D7B68B3
:108EB0001A720A23FB1800221A800023FB63002386
:108EC000BB633B681B78012B29D17B681B681800AA
:108ED0003C4B98470300FB62FB6A1433BB62BB6ADE
:108EE000DBB21800384B984703007B623B689B69F4
:108EF0002322BC180A22BA18796A1800334B984703
:108F0000030023702323FB181B78002B01D01723A9
:108F10004EE00A23FB181B88DAB27B6B1A733B689E
:108F20005B68FA6B1343FB633B689B68FA6B134304
:108F3000FB633B68DB68FA6B1343FB633B681B7C9A
:108F40001A00BB6B1343BB633B685B7C002B03D1F4
:108F50001F4B9847031E03D0FB6B80221343FB6318
:108F60003B689B7C002B04D0BB6B80229202134396
:108F7000BB633B68DB7C002B04D0BB6B8022920080
:108F80001343BB633B681B7D002B04D0BB6B80226B
:108F900092011343BB637B6B1A68FB6B1A437B6BB9
:108FA0001A607B6B5A68BB6B1A437B6B5A60002359
:108FB0001800BD4613B090BD118B0000A9870000BA
:108FC000A9B0000065890000E1AE0000B384000094
:108FD000858C000090B58BB000AFF860B9607A6006
:108FE000FB68BA681A60FB681B683B623B6A1B68D7
:108FF0000222134001D01C239CE03B6A1B68012223
:10900000134001D0052395E0FB681B6818004B4B0B
:1090100098470300FB61FB690233BB61FB691433B2
:109020007B610122BB699A40130019000220444B66
:1090300098471023FB181800424B98477B6824225E
:109040009A5C1023FB181A707B69DBB21022BA18E5
:10905000110018003C4B98477B69DBB218003B4B72
:1090600098477B6824229B5C00211800384B984766
:109070007B681B78012B05D13B6A1B680C221A43C5
:109080003B6A1A602723FB1800221A7010E027237E
:10909000FB181B78FA6802339B00D31804330022B4
:1090A0001A602723FB181A782723FB1801321A703D
:1090B0002723FB181B78062BE9D9FB680022DA620C
:1090C000FB6800229A62FB6800229A86FB680022F5
:1090D0001A86FB68362200219954FB68372200214A
:1090E0009954FB68382200219954FB6803225A7274
:1090F000FB6800221A71FB681B681322BC18180059
:109100000E4B984703002370124A1323FB181B7859
:1091100011001800104B98471323FB181A780F4BB7
:109120009200F968D1507A68FB68110018000C4B66
:10913000984703001800BD460BB090BD658900003C
:10914000298C0000118C0000BDAD000001AE0000B4
:109150001D870000AD930000C9890000D8040020DD
:10916000C58D000080B586B000AFF860B960FB1D0A
:109170001A70FB685B79012B01D015235CE0FB685A
:109180001B7A01225340DBB2002B54D0FB1D1B780D
:10919000002B4AD0BB685B78002B3FD0FB681800DF
:1091A000274B984703001A0001235340DBB2002BE2
:1091B00007D0BB681B7801211800224B9847052374
:1091C0003AE0BB681B78002118001E4B9847BB682B
:1091D0009B789AB2FB68110018001B4B9847FB68FC
:1091E000DB7901225340DBB2002B24D0C046FB6860
:1091F0001800164B984703001A0001235340DBB2B6
:10920000002BF4D11623FB1800221A801623FA181B
:10921000FB68110018000E4B98470CE0BB681B78E8
:1092200000211800074B984705E0BB681B78012117
:109230001800044B984700231800BD4606B080BDB7
:10924000A58C0000BD8B0000F58C0000CD8C0000CB
:109250003D8D000080B584B000AF78607B681B68EE
:10926000BB607B68DB6A1B78DAB20E23FB181A80BE
:109270007B68DB6A5A1C7B68DA627B689B79012B0E
:1092800013D17B68DB6A1B78DBB21B021AB20E2398
:10929000FB1800215B5E13431AB20E23FB181A80E1
:1092A0007B68DB6A5A1C7B68DA620E23FB181B881A
:1092B000DB05DA0DBB689A627B689B8E9BB2013B33
:1092C0009AB27B689A86C046BD4604B080BD000055
:1092D00080B584B000AF78607B681B68FB60084B8A
:1092E0001B881A00FB689A627B685B8E9BB2013B0D
:1092F0009AB27B685A86C046BD4604B080BDC0465F
:10930000F004002080B584B000AF78607B681B68F3
:10931000FB600A23FB1800221A80FB689A6A0A2362
:10932000FB181A807B685B8E9BB2013B9AB27B680C
:109330005A86C046BD4604B080BD80B584B000AF3B
:1093400078607B681B68FB60FB689B6A9AB20A23A3
:10935000FB18D205D20D1A807B689B6A0A22BA18C4
:109360001288D2B21A707B689B6A5A1C7B689A6218
:109370007B689B79012B0DD17B689B6A0A22BA1806
:109380001288120A92B2D2B21A707B689B6A5A1C77
:109390007B689A627B681B8E9BB2013B9AB27B68AA
:1093A0001A86C046BD4604B080BD000080B586B0B8
:1093B00000AF0200FB1D1A70FB1D1A78964B92003D
:1093C000D3587B617B691B683B617B6937229A5C60
:1093D0007B693621595C0F23FB180A401A703B69E0
:1093E0001B7EDAB20C23FB181A803B699B7DDBB233
:1093F0009AB20C23FB180C21791809880A401A80AC
:109400000C23FB181B880122134038D07B695B7941
:10941000012B10D17B695B7ADBB2002B0BD17B690E
:1094200018007E4B98477B695B8E9BB2002B02D164
:109430003B6901221A757B695B79012B1FD17B691E
:109440005B7ADBB2002B1AD07B691800744B98470B
:109450007B699B8E9BB2002B11D13B6901221A754F
:109460007B695B7ADBB2012B09D17B69DB79012255
:109470005340DBB2002B02D03B6902229A750C23C9
:10948000FB181B880422134000D17EE03B695B8BF4
:109490009BB21A000423134022D07B695B7ADBB2B3
:1094A000012B14D07B6938221E2199547B69032239
:1094B0005A723B6905221A750F23FB181B78082284
:1094C000134004D07B699B697A69100098473B6917
:1094D0009A6A0A23FB181A803B6904225A8354E0D3
:1094E0007B695B7ADBB2012B1ED17B6918004D4B87
:1094F00098477B695B8E9BB2002B46D13B69042267
:109500001A757B693822002199547B6903225A72AB
:109510000F23FB181B780122134036D07B69DB68D0
:109520007A691000984730E07B6918003E4B9847F5
:109530007B691B8E9BB2002B27D17B6938220021CF
:1095400099543B6904221A757B695B7ADBB2022B62
:109550000BD10F23FB181B780422134015D07B6915
:109560005B697A69100098470FE07B695B7ADBB230
:10957000002B0AD10F23FB181B780222134004D0C2
:109580007B691B697A69100098470C23FB181B88BC
:109590000222134024D07B695B79012B20D17B69A7
:1095A0005B7ADBB2012B1BD17B69DB790122534053
:1095B000DBB2002B14D03B6902221A757B690322AF
:1095C0005A727B693822002199540F23FB181B78AB
:1095D0000122134004D07B69DB687A691000984748
:1095E0000C23FB181B888022134010D03B6980227B
:1095F0001A753B6980221A760F23FB181B784022CC
:10960000134004D07B695B6A7A6910009847C046B2
:10961000BD4606B080BDC046D8040020D1920000EF
:1096200055920000059300003B93000080B582B086
:1096300000AF78607B6800221A70C046BD4602B059
:1096400080BD000080B582B000AF02003960FB1D14
:109650001A70FB1D1B78012B0AD0022B0FD0002B98
:1096600014D10E4B0D4A91693A680A439A610FE092
:109670000A4B0A4AD1693A680A43DA6108E0074BA3
:10968000064A116A3A680A431A6201E0172300E0A9
:1096900000231800BD4602B080BDC0460004004053
:1096A00080B582B000AF78607B6880221A707B68DA
:1096B00000225A707B6801229A707B680022DA705F
:1096C000C046BD4602B080BD80B500AF054B9B785B
:1096D000DBB21A00022313405A1E9341DBB218007A
:1096E000BD4680BD0020004180B584B000AF7860E9
:1096F0007B681B68FB60FB68DB695A1E9341DBB229
:109700001800BD4604B080BD80B582B000AF78605F
:10971000C0467B681800044B9847031EF9D1C04629
:10972000BD4602B080BDC046E9960000B0B58CB021
:1097300002AF786039607B681B68BB617B681B681F
:109740001800A84B984703007B617B6914333B6189
:1097500000237B6200233B620A23FB1800221A804D
:109760001F23FB1800221A701E23FB1810221A70E8
:109770003B681B8A8022D20193421CD08022D201F6
:10978000934206DC002B0DD080229201934224D01C
:1097900035E0C022D201934228D0802212029342A7
:1097A00012D02CE01F23FB1800221A701E23FB1876
:1097B00010221A7023E01F23FB1800221A701E23A8
:1097C000FB1808221A701AE01F23FB1800221A70D7
:1097D0001E23FB1803221A7011E01F23FB1801221D
:1097E0001A701E23FB1810221A7008E01F23FB18A2
:1097F00001221A701E23FB1808221A70C0463B680B
:109800001A683B68DB681A433B685B6913433A6834
:10981000128A13433A68127E120213433A682621D1
:10982000525C520713437B621D23FB1800221A70FF
:109830003B685B68FB60FB68002B1ED080225205F2
:1098400093424FD13B6827229B5C01225340DBB2FD
:10985000002B46D03B681D6A3B69DBB21800624BA7
:10986000984701001D23FC180A23FB181A00280042
:109870005E4B98470300237033E03B6827229B5CD4
:10988000002B14D03B68186A3B68996A1D23FC18AA
:109890001F23FB181D780A23FA181E23FB181B78B8
:1098A00000932B00524DA847030023701AE03B6839
:1098B0001D6A3B69DBB218004B4B98471D23FC180F
:1098C0001F23FB1819780A23FA181E23FB181B788C
:1098D00000930B0001002800454DA84703002370AA
:1098E00000E0C0461D23FB181B78002B03D01D236E
:1098F000FB181B7871E03B685B7E002B03D03B6854
:109900009A7EBB699A737B6818003A4B98470A2382
:10991000FB181A88BB699A817A6AFB6813437B62D9
:109920003B6827229B5C01225340DBB2002B03D013
:109930007B6A042213437B623B685B7E9A023B682E
:109940001B7F5B021A433B685B7F1B021A433B6829
:1099500024215B5C5B041A433B6825215B5C1B0490
:1099600013433B623B68DB7A1A003B6A13433B625A
:109970003B681B89FF2B0BD07B6A80225204134368
:109980007B623B681B891A003B6A13433B6208E019
:109990003B68DB7E002B04D07B6A8022D204134319
:1099A0007B623B682C229B5C002B03D1124B9847B7
:1099B000031E03D07B6A802213437B627B681800FE
:1099C0000C4B9847BB693A6A5A607B681800094B90
:1099D0009847BB697A6A1A6000231800BD460AB02E
:1099E000B0BDC04665890000E1AE0000B384000050
:1099F0003185000009970000C996000090B593B02A
:109A000000AFF860B9607A603B23FB1800221A703F
:109A1000FB68BA681A60FB681B687B63FB681B689D
:109A20001800864B984703003B633B6B0233FB6295
:109A30003B6B1433BB627B6B1B680122134001D06C
:109A40000523F6E07B6B1B680222134001D01C2328
:109A5000EFE00122FB6A9A40130019000220784BC4
:109A600098472423FB181800764B98477B682D22D3
:109A70009A5C2423FB181A70BB6ADBB22422BA1842
:109A800011001800704B9847BB6ADBB218006F4B8F
:109A900098477B682D229B5C002118006C4B9847EF
:109AA0007B68DA7AFB685A717B6824229A5CFB68CF
:109AB0009A717B6825229A5CFB68DA717B68DA7E92
:109AC000FB681A727B681A7FFB685A723B23FC188A
:109AD0007A68FB68110018005E4B984703002370FA
:109AE0003B23FB181B78002B03D03B23FB181B7870
:109AF0009FE02023FB181800574B98472023FB18A2
:109B000000225A702023FB1800229A707B681A6B7F
:109B10001023FB181A607B685A6B1023FB185A60DD
:109B20007B689A6B1023FB189A607B68DA6B1023B2
:109B3000FB18DA604723FB1800221A702CE0472339
:109B4000FB181A781023FB189200D3583B643B6C27
:109B5000002B09D14723FB181A78BB6811001800A5
:109B60003E4B984703003B643B6C01330DD03B6C8C
:109B7000DAB22023FB181A703B6C1B0CDBB22022DC
:109B8000BA1811001800364B98474723FB181A786B
:109B90004723FB1801321A704723FB181B78032B4D
:109BA000CDD90023FB630AE0FA68FB6B02339B000C
:109BB000D318043300221A60FB6B0133FB63FB6B89
:109BC000052BF1D9FB6800229A62FB6800225A62D9
:109BD000FB680022DA85FB6800229A85FB68302248
:109BE00000219954FB68312200219954FB683222EC
:109BF00000219954FB68332200219954FB681B68AB
:109C00002722BC1818000D4B984703002370154AF3
:109C10002723FB181B7811001800134B98472723A4
:109C2000FB181A78114B9200F968D1503B23FB18AE
:109C30001B781800BD4613B090BDC0466589000072
:109C4000459600002D960000BDAD000001AE00005D
:109C50001D8700002D970000A1960000A987000035
:109C6000A9B00000059E0000C9890000D8040020AA
:109C700080B584B000AF78600A00BB1C1A807B6896
:109C80001B68FB607B68DB7901225340DBB2002B51
:109C900001D01C2317E07B68DB8D9BB2002B01D029
:109CA000052310E07B681800094B9847FB68BA1C35
:109CB00012881A85C046FB681B7EDBB21A0002239D
:109CC0001340F8D000231800BD4604B080BDC04644
:109CD0000997000080B584B000AF786039607B6878
:109CE0001B68FB607B689B7901225340DBB2002B31
:109CF00001D01C235EE07B689B8D9BB2002B01D0C2
:109D0000052357E0FB681B7EDBB21A0004231340D7
:109D100001D105234EE07B681800284B9847FB686B
:109D20005B8B9BB2DAB20B23FB183F210A401A70FF
:109D30000B23FB181B78002B36D00B23FB181B784A
:109D40000222134004D0FB6802225A831A2331E016
:109D50000B23FB181B780422134004D0FB68042259
:109D60005A831E2326E00B23FB181B780122134085
:109D700004D0FB6801225A8313231BE00B23FB183A
:109D80001B781022134004D0FB6810225A83422310
:109D900010E00B23FB181B782022134004D0FB6833
:109DA00020225A83412305E0FB681B8D9AB23B6851
:109DB0001A8000231800BD4604B080BD099700003A
:109DC00080B584B000AF78607B681B68FB60FB687F
:109DD000DB695A1E9341DBB21800BD4604B080BD5A
:109DE00080B582B000AF7860C0467B681800044B35
:109DF0009847031EF9D1C046BD4602B080BDC0469B
:109E0000C19D000080B588B000AF0200FB1D1A7034
:109E1000FB1D1A78A34B9200D358BB61BB691B682A
:109E20007B61BB691800A04B98477B691B7EDAB247
:109E30001223FB181A807B699B7DDBB29AB2122336
:109E4000FB181221791809880A401A80BB69302250
:109E50009B5CBA693121525C1340DAB21023FB18C3
:109E60001A801223FB181B880122134044D0BB69BF
:109E7000DB8D9BB2002B3CD0BB699B6A1B78DAB2AE
:109E80001C23FB181A80BB699B6A5A1CBB699A6227
:109E9000BB695B79012B13D1BB699B6A1B78DBB271
:109EA0001B021AB21C23FB1800215B5E13431AB27B
:109EB0001C23FB181A80BB699B6A5A1CBB699A62F7
:109EC0001C23FB181B88DB05DB0D9AB27B691A8506
:109ED000BB69DB8D9BB2013B9BB2BA69191CD18572
:109EE000002B09D17B6901221A757B6902229A75C0
:109EF00002E07B6901221A751223FB181B880222DB
:109F0000134011D07B6902221A75BB6933220021EC
:109F100099541023FB181B880122134004D0BB69FD
:109F2000DB68BA69100098471223FB181B880422CB
:109F3000134000D1BDE0BB699B8D9BB2002B00D1CB
:109F4000B4E07B695B8B9BB2DAB21F23FB183F2125
:109F50000A401A701F23FB181B780822134007D0F1
:109F60001F23FB181F22BA18127808218A431A707F
:109F70001F23FB181B78002B50D01F23FB181B78C6
:109F80000222134007D0BB6932221A2199547B69FF
:109F900002225A8336E01F23FB181B780422134049
:109FA00007D0BB6932221E2199547B6904225A834F
:109FB00028E01F23FB181B780122134007D0BB6940
:109FC0003222132199547B6901225A831AE01F23FC
:109FD000FB181B781022134007D0BB6932224221A4
:109FE00099547B6910225A830CE01F23FB181B78BD
:109FF0002022134006D0BB693222412199547B694B
:10A0000020225A831023FB181B880422134050D0AF
:10A01000BB695B69BA69100098474AE07B691B8D90
:10A020009AB20E23FB18D205D20D1A80BB695B6A67
:10A030000E22BA181288D2B21A70BB695B6A5A1C17
:10A04000BB695A62BB695B79012B0DD1BB695B6A45
:10A050000E22BA181288120A92B2D2B21A70BB69D2
:10A060005B6A5A1CBB695A62BB699B8D9BB2013B00
:10A070009BB2BA69191C9185002B1AD17B69042205
:10A080001A75BB693222002199541023FB181B88D2
:10A09000022213400DD0BB691B69BA6910009847B2
:10A0A00007E0C046D8040020E19D00007B6904223F
:10A0B0001A751223FB181B881022134010D07B69DD
:10A0C00010221A757B6910221A761023FB181B8840
:10A0D0001022134004D0BB69DB69BA6910009847AD
:10A0E0001223FB181B882022134010D07B692022EA
:10A0F0001A757B6920221A761023FB181B88082208
:10A10000134004D0BB699B69BA69100098471223B9
:10A11000FB181B880822134010D07B6908221A758F
:10A120007B6908221A761023FB181B882022134013
:10A1300004D0BB691B6ABA6910009847C046BD4687
:10A1400008B080BD80B582B000AF78607B68012226
:10A150005A607B6800225A707B6806221A707B68FE
:10A1600000221A727B6800225A72C046BD4602B0B5
:10A1700080BD80B582B000AF78607B6800221A7025
:10A18000C046BD4602B080BD80B582B000AF7860E9
:10A190007B6800221A707B6804225A707B68002258
:10A1A0009A707B68802212029A607B680022DA70C3
:10A1B0007B6801221A717B6800221A737B68012276
:10A1C0005A737B6800229A73C046BD4602B080BDB8
:10A1D00080B582B000AF78607B6803221A707B681C
:10A1E00000225A707B6801229A70C046BD4602B0B8
:10A1F00080BD80B582B000AF78607B6800221A70A5
:10A200007B6800225A807B6800229A807B6800224B
:10A210009A717B680022DA717B6801225A707B6830
:10A2200007221A727B683F225A817B6801221A73C7
:10A230007B680122DA817B6806221A82C046BD460D
:10A2400002B080BD80B582B000AF0200FB1D1A7065
:10A25000034AFB1D1B781372C046BD4602B080BD89
:10A260000004004080B582B000AF0200FB1D1A70F0
:10A27000BB1D0A1C1A70FB1D1B78012B08D0022B7A
:10A280000BD0002B0ED10B4ABB1D1B7853720BE079
:10A29000084ABB1D1B78937206E0064ABB1D1B785B
:10A2A000D37201E0172300E000231800BD4602B07E
:10A2B00080BDC0460004004080B582B000AF0200FF
:10A2C000FB1D1A70084AFB1D1B780F210B40D9B2E9
:10A2D00053680F20014049001E2083430B43536005
:10A2E000C046BD4602B080BD0040004180B500AF11
:10A2F000C046044BDB6810221340FAD0C046BD466E
:10A3000080BDC0460008004080B500AF0C4B022263
:10A310009A840C4B98470A4A0B4B9B68D362084AB5
:10A32000094B5B689362064B00229A84054B984761
:10A33000034A054B1B689BB29384C046BD4680BD53
:10A3400000080040EDA20000B402002080B582B0F9
:10A3500000AF0200FB1D1A70FB1D1B78082B40D8B4
:10A360009A00224BD3181B689F46214B1B6939E08A
:10A37000204B1B6A9B059B0FDBB21A001E4BD34080
:10A3800030E080231B022DE080231B022AE0184BC3
:10A390005B6927E0164B1B680222134001D10023A2
:10A3A00020E0164B9847124B1B680422134009D03B
:10A3B0000020134B984702000D4B9B681B041B0C9D
:10A3C00053430FE00F4B0DE00A4A5023D35CDBB23E
:10A3D0001A000423134001D1002303E0044BDB687F
:10A3E00000E000231800BD4602B080BD000001005F
:10A3F000B40200200008004000127A00EDA2000024
:10A40000E1AE0000006CDC0280B584B000AF786083
:10A410001A4B1B6AFB607B681B781A1C03231340D2
:10A42000DAB20D23FB1803210A4010001A78032129
:10A430008A43111C021C0A431A707B689A780C2309
:10A44000FB18D0011A787F210A40111C021C0A4314
:10A450001A707B685A780C23FB1801210A4090017E
:10A460001A7840218A43111C021C0A431A70034BBC
:10A47000FA681A62C046BD4604B080BD00080040BC
:10A4800080B584B000AF7860434A0C23FB18928AF1
:10A490001A807B685B781A1C07231340DAB20C23FE
:10A4A000FB1807210A4010005A7807218A43111C23
:10A4B000021C0A435A707B681B78002B06D10C23C0
:10A4C000FB181A7804210A431A7005E00C23FB18C4
:10A4D0001A7804218A431A707B689A780C23FB1837
:10A4E00001210A4050011A7820218A43111C021CC4
:10A4F0000A431A707B68DA780C23FB1801210A40A2
:10A5000010011A7810218A43111C021C0A431A7088
:10A510007B681A790C23FB1801210A40D0001A78B5
:10A5200008218A43111C021C0A431A707B685A7B5B
:10A530000C23FB18D0011A787F210A40111C021C41
:10A540000A431A707B681A7B0C23FB1801210A400E
:10A5500090011A7840218A43111C021C0A431A7088
:10A560007B689A7B0C23FB1801210A4010015A7862
:10A5700010218A43111C021C0A435A707B689A6896
:10A58000064B5A61044A0C23FB181B889382C04671
:10A59000BD4604B080BDC04600080040B4020020A3
:10A5A00080B582B000AF78607B681B7A9B021B0489
:10A5B0001A0C7B685B899B059B0D1A432A4B5A60DA
:10A5C0007B689A797B68DB791343DBB21A007B687E
:10A5D0005B8813437A6892881A437B685B78DB0157
:10A5E0001A43214B1A607B681B78042B16D17B68B9
:10A5F0001B7B9B061A007B68DB891B0419001B4B25
:10A600000B4013437A68128A1A43174B9A60164B11
:10A610001B687A6812781A43134B1A607B681B78A0
:10A62000202B1CD17B681B7B9B061A007B68DB8977
:10A630001B0419000D4B0B4013437A68128A1A430E
:10A64000094B9A60084B1B687A68127804210A4308
:10A65000D2B213438022D2001A43034B1A60C04681
:10A66000BD4602B080BDC046B40200200000FF031A
:10A6700080B582B000AF0200FB1D1A70FB1D1B7875
:10A68000082B3BD89A00214BD3181B689F46204BC0
:10A690001F4A126A02210A431A62002331E01C4B4E
:10A6A0001B4A926902210A439A6129E0184A184B11
:10A6B0001B8A9BB202210B439BB2138220E0144AF7
:10A6C000134B9B8A9BB202210B439BB2938217E0F0
:10A6D000104B1B6802221A430E4B1A600E4B984710
:10A6E0000EE00B4A0A494423CB5CDBB202210B4348
:10A6F000D9B24423D15403E0002302E0172300E041
:10A7000000231800BD4602B080BDC04624000100F1
:10A7100000080040B402002009A3000080B584B006
:10A7200000AF0200FB1D1A700023FB60FB1D1B78AD
:10A73000082B21D89A00184BD3181B689F46082372
:10A74000FB601BE00423FB6018E00123FB6015E0C5
:10A750000223FB6012E0D023FB600FE00F4A50237E
:10A76000D35CDBB21A0003231340033B5A4253412C
:10A77000DBB20CE001230AE0002308E0074BDB68B2
:10A78000FA681A40FB68D31A5A425341DBB21800E8
:10A79000BD4604B080BDC04648000100000800402E
:10A7A00080B582B000AF3B0003221A7000237B60AB
:10A7B00009E07B68DBB23A0011001800054B9847AE
:10A7C0007B6801337B607B68242BF2D9C046BD4691
:10A7D00002B080BDBDAD000080B5AAB000AF964B01
:10A7E000C222D2009A600220944B9847944B98471B
:10A7F0009423FB181800934B98479423FB1880224E
:10A8000012029A609423FB1800221A709423FB18FA
:10A8100003225A709423FB1800229A709423FB1889
:10A820000022DA709423FB1801221A719423FB187A
:10A8300000225A739423FB1800221A739423FB18E6
:10A840001800814B98470520804B9847C04605204B
:10A850007F4B984703001A0001235340DBB2002BC3
:10A86000F5D1754A938A80210B4393828023FB188C
:10A870001800784B98478023FB1804221A70802315
:10A88000FB1800225A70744B1B689B0EA422BA1846
:10A890001360A423FB181B683F2B03D11F23A422A2
:10A8A000BA181360A423FB181B68DAB28023FB18C4
:10A8B0001A728023FB1800225A808023FB18002282
:10A8C000DA718023FB1800229A718023FB18002282
:10A8D0009A808023FB18614A1A828023FB18072282
:10A8E0001A738023FB183F22DA818023FB1818009B
:10A8F0005B4B98477C23FB1818005A4B98477C23E6
:10A90000FB1800221A707C23FB1801229A707C230A
:10A91000FB1800225A707C23FB181800524B9847F2
:10A9200006204A4B9847514B98476423FB18180060
:10A930004F4B98476423FB1805221A706423FB18B9
:10A9400001225A606423FB1800221A726423FB1848
:10A9500000225A726423FB1819000120454B9847C6
:10A960000120454B98475823FB181800404B984747
:10A970005823FB1804221A705823FB1820225A600F
:10A980005823FB1800221A725823FB1800225A720F
:10A990005823FB1819000220364B98470220364BEB
:10A9A00098470C23FB181800344B98470C23FB18CE
:10A9B00001221A700C23FB1819000020304B984715
:10A9C0000020304B98470720204B9847C04607206F
:10A9D0001F4B984703001A0001235340DBB2002BA2
:10A9E000F5D10020284B984700210020274B98479D
:10A9F00000210120254B984700210220234B984736
:10AA00003B0018001A4B98473B0007221A703B0086
:10AA100001225A603B0000221A723B0000225A7247
:10AA20003B0019000020134B98470020124B984719
:10AA3000C046BD462AB080BD00080040B9A2000053
:10AA4000A1A7000089A1000081A4000071A6000058
:10AA50001DA70000F3A1000024608000B9050000DC
:10AA6000A1A50000D1A1000009A4000035AB0000A1
:10AA700045A1000065AB000089AC000073A1000097
:10AA8000BDAD000001AE000045A2000065A20000BF
:10AA900080B582B000AF02003960FB1D1A70FB1D4B
:10AAA0001B78012B0AD0022B0FD0002B14D10E4B98
:10AAB0000D4A91693A680A439A610FE00A4B0A4AC3
:10AAC000D1693A680A43DA6108E0074B064A116A1D
:10AAD0003A680A431A6201E0172300E000231800D5
:10AAE000BD4602B080BDC0460004004080B500AF46
:10AAF000024B9847C046BD4680BDC046597B00000A
:10AB000080B500AF024B9847C046BD4680BDC046E9
:10AB1000AD7B000080B500AF054B5B78DBB25BB26C
:10AB2000002B01DA012300E000231800BD4680BDA0
:10AB3000000C004080B500AF08210020074B98476B
:10AB4000074B01221A70C046054B1B78DBB21A0076
:10AB500001231340F8D1C046BD4680BD91AA000034
:10AB6000000C004080B586B000AF02003960FB1DCC
:10AB70001A70FB1D1B787B61FB1D1B783B613B68DA
:10AB80001B781B021A007B6913437B613B685B786F
:10AB9000002B04D07B698022D20213437B613B6887
:10ABA0005B7A002B04D07B698022120313437B6104
:10ABB0003B685B68012B2CD93B685A683B685B6833
:10ABC000013B13401AD10023FB600223BB6005E068
:10ABD000FB680133FB60BB685B00BB603B685A6885
:10ABE000BB689A42F4D8FB681B023A6913433B6185
:10ABF0007B698022520313437B610AE03B685B68F8
:10AC00001B023A6913433B617B6980229202134322
:10AC10007B613B681B7A002B04D07B698022920306
:10AC200013437B61C046134B9847031EFBD1124B65
:10AC30009847124AFB1D1B781370C0460D4B98476E
:10AC4000031EFBD10E4B3A699A60C046094B9847E8
:10AC5000031EFBD10A4B0A4A51688022520211405E
:10AC60007A690A435A60074B9847C046BD4606B00A
:10AC700080BDC04615AB0000EDAA0000080C0040E6
:10AC8000000C004001AB000080B582B000AF0200B4
:10AC9000FB1D1A70C0460E4B9847031EFBD10D4B8F
:10ACA00098470D4AFB1D1B781370C046084B984708
:10ACB000031EFBD1094B094A5268802149020A430D
:10ACC0005A60074B9847C046BD4602B080BDC0469B
:10ACD00015AB0000EDAA0000040C0040000C004081
:10ACE00001AB000080B586B000AF0200FB1D1A70FA
:10ACF000C0462A4B9847031EFBD1294B9847294A47
:10AD0000FB1D1B781370C046244B9847031EFBD1D4
:10AD1000254B5B68DB04DB0EDBB21800234B984746
:10AD200003007B611F4AFB1D1B7813701E4B5B6881
:10AD3000DB02DB0FDAB21323FB181A701C4AFB1D6F
:10AD40001B781370C046154B9847031EFBD1164B5A
:10AD50009B681B021B0C9BB2FB60164B984713238E
:10AD6000FB181B78002B09D1FB68012B06D9124B6D
:10AD7000F9687869984703007B610AE01323FB18A0
:10AD80001B78002B05D0FB6801337A69DA40130089
:10AD90007B617B691800BD4606B080BD15AB000025
:10ADA000EDAA0000040C0040000C00404DA3000080
:10ADB000080C004001AB0000FDD4000080B584B059
:10ADC00000AF02003960FB1D1A70FB1D1B78FB6091
:10ADD0003B681B781B021A00FB681343FB60FB1DDA
:10ADE0001B781800044B9847044BFA6892B25A80BB
:10ADF000C046BD4604B080BD49AE0000000C004016
:10AE000080B582B000AF0200FB1D1A700A4B984754
:10AE10000A4AFB1D1B7813700949094B5B889BB2DA
:10AE20008022D20113439BB24B80064B9847C04609
:10AE3000BD4602B080BDC046EDAA0000020C004035
:10AE4000000C004001AB000080B584B000AF0200F0
:10AE5000FB1D1A701C4B98471C4AFB1D1B78137076
:10AE60001B4B5B881B051B0FDBB2FB60184A53882A
:10AE700018490B405380164A154B5B889BB2164904
:10AE80000B409BB25380C046114B5B889BB21A00AB
:10AE90008023DB011340F7D10D4AFB68DBB2191C9C
:10AEA0000F230B40D9B25388081C0F210140080220
:10AEB00008490B40191C031C0B435380074B984750
:10AEC000C046BD4604B080BDEDAA0000020C0040A3
:10AED000000C0040FFF0FFFFFFBFFFFF01AB0000D1
:10AEE00080B584B000AF0200FB1D1A700D4B98476F
:10AEF0000D4AFB1D1B7813700C4B5B881B051B0F49
:10AF0000DAB20F23FB181A70094B98470F23FB186E
:10AF10001B781800074B984703001800BD4604B083
:10AF200080BDC046EDAA0000020C0040000C0040AD
:10AF300001AB0000E5AC000080B584B000AF0200BA
:10AF4000FB1D1A700F23FB18FA1D1278D2091A7014
:10AF50000E23FB18FA1D127852091A700D4BBB60B4
:10AF60000F23FB181B78002B0FD10F23FB181B7826
:10AF70009B0010229446BC446344083B1A680E238D
:10AF8000FB181B78DB01D31800E000231800BD4636
:10AF900004B080BD0044004180B588B000AFF860C7
:10AFA000B9607A600023FB617B68DB780122534043
:10AFB000DBB2002B35D07B681B78802B0BD0FB6974
:10AFC000802252021343FB617B681B781B061A0028
:10AFD000FB691343FB617B685B78002B03D07B68C4
:10AFE0005B78022B10D1FB69802292021343FB6134
:10AFF0007B689B78002B04D0FB698022D20213432C
:10B00000FB61FB68BA685A607B685B78012B03D0F0
:10B010007B685B78022B07D1FB69224A1340FB61F6
:10B0200002E0FB68BA685A60BB681B041B0CBB617A
:10B03000BB681B0C7B61BA69FB691343A022D20574
:10B040001A43FB689A627A69FB691343D02212069D
:10B050001A43FB689A627B68DB7801225340DBB2BB
:10B06000002B1AD0FA698023DB0213400AD07B68D8
:10B070009B78012B03D1FB68BA689A6102E0FB68F8
:10B08000BA685A617B685B78012B03D07B685B7878
:10B09000022B02D1FB68BA689A60C046BD4608B070
:10B0A00080BDC046FFFFFBFF80B584B000AF02004B
:10B0B0003960FB1D1A70FB1D1B7818000A4B98475E
:10B0C0000300FB60FB1D1B781F22134001229A40E6
:10B0D0001300BB603A68B968FB681800034B9847D7
:10B0E000C046BD4604B080BD39AF000099AF000036
:10B0F00080B500AFC046BD4680BD000080B500AF42
:10B10000064B9847064B9847064B9847064B98477F
:10B11000064B9847C046BD4680BDC046D9A7000033
:10B12000E97C0000F1B00000C1800000F1B0000037
:10B1300080B582B000AF78607B6800221A70C0468C
:10B14000BD4602B080BD000080B582B000AF0200F5
:10B150003960FB1D1A70FB1D1B78012B0AD0022BD6
:10B160000FD0002B14D10E4B0D4A91693A680A4357
:10B170009A610FE00A4B0A4AD1693A680A43DA61D8
:10B1800008E0074B064A116A3A680A431A6201E06E
:10B19000172300E000231800BD4602B080BDC04662
:10B1A0000004004080B582B000AF78607B688022E8
:10B1B0001A707B6800225A707B6801229A707B6843
:10B1C0000022DA70C046BD4602B080BD80B584B0B2
:10B1D00000AF78600023FB600CE00A4BFA68920035
:10B1E000D2587B689A4202D1FB68DBB206E0FB686A
:10B1F0000133FB60FB68022BEFD900231800BD462A
:10B2000004B080BD6C00010090B585B000AF7860DF
:10B2100039600F23FC183B681800AD4B98470300BA
:10B2200023707B6800221A600F23FB181A78A94B41
:10B230009200D2587B685A607B6800229A727B68C1
:10B240000022DA727B6800221A737B6800225A722D
:10B250007B6800221A727B680022DA617B68002218
:10B260001A627B6800225A627B6800229A627B68BD
:10B2700000221A757B6800225A757B6800229A7535
:10B280007B680022DA757B6800221A767B680022D0
:10B290005A767B6800221A747B6800225A747B6895
:10B2A00000229A747B680022DA747B682C220021C9
:10B2B00099547B682D22002199547B682E2200210D
:10B2C00099547B682F22002199547B6830220021F9
:10B2D00099547B683122002199547B6832220021E5
:10B2E00099547B683322002199547B6834220021D1
:10B2F00099547B683522002199547B6836220021BD
:10B3000099547B683722002199547B6838220021A8
:10B3100099547B683922002199547B683A22002194
:10B3200099547B683B22002199547B683C22002180
:10B3300099547B683D22002199547B683E2200216C
:10B3400099547B683F22002199547B684022002158
:10B3500099547B684122002199547B684222002144
:10B3600099547B684322002199547B684422002130
:10B3700099547B684522002199547B68462200211C
:10B3800099547B684722002199547B684822002108
:10B3900099547B684922002199547B684A220021F4
:10B3A00099547B684B22002199547B684C220021E0
:10B3B00099547B684D22002199547B684E220021CC
:10B3C00099547B684F22002199547B6850220021B8
:10B3D00099547B685122002199547B6852220021A4
:10B3E00099547B685322002199547B685422002190
:10B3F00099547B685522002199547B68562200217C
:10B4000099547B685722002199547B689822002127
:10B4100099547B6800229A657B6800229A677B6852
:10B420009922002199547B680022DA657B6800220A
:10B43000DA677B689A22002199547B6800221A6699
:10B440007B688022002199507B689B2200219954BF
:10B450007B6800225A667B688422002199507B68B1
:10B460009C22002199547B6800229A667B6888227E
:10B47000002199507B689D22002199547B6800220D
:10B48000DA667B688C22002199507B689E2200211D
:10B4900099547B6800221A677B689022002199509A
:10B4A0007B689F22002199547B6800225A677B6841
:10B4B0009422002199507B68A022012199547B6835
:10B4C000A12200219954C046BD4605B090BDC0469A
:10B4D000CDB100008800010080B586B000AFB96032
:10B4E0007A600F23FB18021C1A7000237B61002373
:10B4F0003B611DE0BA683B69D31810331B78012B00
:10B5000013D10F23FB181B781B4AD35C1A003B692D
:10B510009A4201DA17232AE080235A043B699A40B1
:10B5200013001A007B6913437B613B6901333B6164
:10B530003B69032BDEDDBB68A1229B5C002B04D0A2
:10B540007B698022120113437B61BB681B7B1B0359
:10B550001A007B6913437B61BB68DB7A1B021A000C
:10B560007B6913437B617B687A691A60002318004A
:10B57000BD4606B080BDC0469400010080B586B0CF
:10B5800000AFB9607A600F23FB18021C1A701723F2
:10B59000FB1800221A70BB681B7A002B07D01723F8
:10B5A000FB181722BA18127804210A431A70BB68D4
:10B5B0005B7A012B07D11723FB181722BA181278D0
:10B5C00001210A431A707B681722BA1812781A7080
:10B5D000C046BD4606B080BD80B588B000AFB9603A
:10B5E0007A600F23FB18021C1A700F23FB181A78BD
:10B5F0001B23FB183E498A5C1A700023FB616EE036
:10B60000FA6913009B009B185B002833BA68D318B3
:10B6100004337B617B695B7A1B22BA1812789A42E9
:10B6200001D817235FE07B691B780F2B01D9172303
:10B6300059E07B691B781B061A00F0231B051A4092
:10B640007B695B781B041900FF231B040B401A4322
:10B650007B699B78002B01D0802300E000231A43F4
:10B660007B69DB78002B01D0082300E000231A431C
:10B670007B691B79002B01D0102300E000231A43C3
:10B680007B695B79190003230B401A437B699B7923
:10B690005B01190060230B401A437B69DB791B02B5
:10B6A0001900C0239B000B401A437B691B7A1B03C4
:10B6B0001900E023DB010B401A437B695B7A9B0294
:10B6C0001900C0231B010B4013433B61FB699B0026
:10B6D0007A68D3183A691A60FB690133FB61FB6928
:10B6E000012B8DDD00231800BD4608B080BDC0468B
:10B6F0009400010080B588B000AFB9607A600F2374
:10B70000FB18021C1A700F23FB181A781723FB185A
:10B710002D498A5C1A700023BB610023FB6148E05D
:10B72000BA685021FB69D3185B181B78002B10D026
:10B730001723FB181A78FB699A4201D817233FE0B8
:10B7400080235A02FB699A4013001A00BB69134315
:10B75000BB61BA68FB691C335B00D31809331B78E3
:10B76000002B23D01723FB181A78FB699A4201D8C3
:10B77000172325E0BA68FB691C335B00D318093333
:10B780001B78022B0AD10223FF331A00FB699A406F
:10B7900013001A00BB691343BB6107E00122FB6978
:10B7A0009A4013001A00BB691343BB61FB69013364
:10B7B000FB61FB69072BB3D97B68BA691A60002368
:10B7C0001800BD4608B080BD9800010080B588B063
:10B7D00000AFB9607A600F23FB18021C1A700F23A8
:10B7E000FB181A781723FB181D498A5C1A70BB686E
:10B7F00010333B613B695B7A1B011A0030231A400E
:10B800003B691B7A190007230B401343BB610023DC
:10B81000FB611AE03A69FB69D31804331B78002BEB
:10B8200010D01723FB181A78FB699A4201DC172302
:10B8300012E080235A02FB699A4013001A00BB6988
:10B840001343BB61FB690133FB61FB69032BE1DD42
:10B850007B68BA691A6000231800BD4608B080BD35
:10B860009400010090B591B000AFF860B9607A60C3
:10B870003B23FC18BB681800C44B98470300237097
:10B880003B23FB181A78C24B9200D35819000220B0
:10B89000C04B9847BB681B680222134001D01C2391
:10B8A000BEE1BB681B680122134001D01C23B7E135
:10B8B0003B23FB181A78B84B9200D3587B637B6804
:10B8C0001A687B6B9A4204D87B685A687B6B9A42F1
:10B8D00001D91723A4E10023FB630EE07A68FB6B18
:10B8E00006339B00D31804331A687B6B9A4201D944
:10B8F000172395E1FB6B0133FB63FB6B032BEDDD42
:10B900000023FB6319E07A689821FB6BD3185B185E
:10B910001B7801225340DBB2002B0AD13B23FB18DA
:10B920001B789E4AD35C1A00FB6B9A4202DC1723F9
:10B9300076E1C046FB6B0133FB63FB6B072BE2DD5B
:10B940000023FB623323FC182C23FA1879683B236D
:10B95000FB181B781800924B984703002370332381
:10B96000FB181B78002B03D03323FB181B7857E1FF
:10B970002B23FA1879683B23FB181B781800894B96
:10B9800098473323FC182023FA1879683B23FB18C7
:10B990001B781800844B9847030023703323FB184F
:10B9A0001B78002B03D03323FB181B7838E10023CE
:10B9B000FB613323FC181C23FA1879683B23FB181E
:10B9C0001B781800794B9847030023703323FB182A
:10B9D0001B78002B03D03323FB181B7820E1332383
:10B9E000FC181823FA1879683B23FB181B781800F9
:10B9F0006F4B9847030023703323FB181B78002BF1
:10BA000003D03323FB181B780AE10023FB6309E012
:10BA1000FA68FB6B9B00D318043300221A60FB6B9F
:10BA20000133FB63FB6B0B2BF2DDFB6800225A63D7
:10BA3000FB6800229A633B23FB181A785D4B920047
:10BA4000F968D150FB68BA681A607B68A022995CDB
:10BA5000FB683C2299541423FB181800564B984756
:10BA60007B689A7A1423FB181A703B23FB181B7807
:10BA7000524AD35C1422BA1811001800504B984750
:10BA80003B23FB181B784D4AD35C18004D4B98475D
:10BA90000023FB632DE07A689821FB6BD3185B18B9
:10BAA0001B7801225340DBB2002B1ED11023FB1860
:10BAB0001800454B98477B68FA6B1E329200D358AA
:10BAC000DAB21023FB181A701023FB1801225A70E7
:10BAD0007B68FA6B16329200D358DBB21022BA1888
:10BAE00011001800394B984700E0C046FB6B01334A
:10BAF000FB633B23FB181B78284AD35C1A00FB6BC3
:10BB00009A42C8DCFA6ABB681A60C046BB689B6888
:10BB100004221340FAD1BB68FF221A71C046BB68E9
:10BB20009B6804221340FAD12B23FB181A78BB68B8
:10BB30005A712023FB181A68BB68DA602023FB18AF
:10BB40005A68BB681A61FA69BB689A61C046BB68EB
:10BB50009B681F4A1340FAD1BA69BB68DA63C046D2
:10BB6000BB689B6810221340FAD17B681A68BB68D7
:10BB70005A63C046BB689B68164A1340FAD17B687B
:10BB80005A68BB681A640023FB633FE0CDB1000034
:10BB90007C00010049B1000088000100980001000C
:10BBA000D9B400007DB50000D9B50000F5B600009D
:10BBB000CDB70000F404002031B10000780001008E
:10BBC000BDAD000001AE0000A5B10000A9B00000AD
:10BBD0004000020080000400C046BB689B68124918
:10BBE000FA6B91400A001340F7D17A68FB6B063379
:10BBF0009B00D31804331A68B968FB6B10339B00A1
:10BC0000CB1804331A60FB6B0133FB633B23FB1837
:10BC10001B78064AD35C1A00FB6B9A42DCDC0023DB
:10BC20001800BD4611B090BD00010800940001004D
:10BC300080B582B000AF0200FB1D1A70064BFA1DE2
:10BC4000127811001F220A40012191400A001A6057
:10BC5000C046BD4602B080BD00E100E080B582B0C4
:10BC600000AF7860044A7B68D3181B785BB2180079
:10BC7000BD4602B080BDC0461800002080B584B02B
:10BC800000AFF860B960FB1D1A70FB1D1B78FA68E5
:10BC90009B00D3180433BA681A60FB685A6BFB1D0B
:10BCA0001978054B8900CB581A43FB685A63002367
:10BCB0001800BD4604B080BD9C00010080B582B074
:10BCC00000AF78600A00FB1C1A707B681B681800C4
:10BCD0000F4B9847030018000E4B984703001800BD
:10BCE0000D4B98477B689A6BFB1C19780B4B8900AE
:10BCF000CB581A437B689A637B681B68FA1C1178DF
:10BD0000064A89008A589A62C046BD4602B080BD84
:10BD1000CDB100005DBC000031BC00009C00010002
:10BD200080B500AF0020024B9847C046BD4680BD9D
:10BD30005DBD000080B500AF0120024B9847C046B2
:10BD4000BD4680BD5DBD000080B500AF0220024B46
:10BD50009847C046BD4680BD5DBD000080B586B039
:10BD600000AF0200FB1D1A70FB1D1A78184B9200E1
:10BD7000D3583B613B691B68DA6A3B695B6B1A40CD
:10BD80003B699B6B1340FB6000237B6119E0114B07
:10BD90007A699200D358FA6813400FD03A697B69E8
:10BDA0009B00D31804331B683A69100098473B691D
:10BDB0001B68084A796989008A58DA627B6901330D
:10BDC0007B617B690B2BE2DDC046BD4606B080BDC2
:10BDD000F40400209C00010080B582B000AF2F4B1E
:10BDE0007B602F4B3B607A683B689A420CD007E03F
:10BDF0003B681A1D3A607A68111D796012681A60F2
:10BE00003A68284B9A42F3D3274B3B6004E03B68E7
:10BE10001A1D3A6000221A603A68244B9A42F6D3FF
:10BE2000234B7B60234B7A68FF218A439A60224A26
:10BE300090235B000221D150204AD37803218B4309
:10BE4000191C02230B43D3701C4AD3780C218B435B
:10BE5000191C08230B43D370194A937B30218B4361
:10BE6000191C20230B439373154A937B0C218B439E
:10BE7000191C08230B439373114A937B03218B43B3
:10BE8000191C02230B4393730E4A536880210B4302
:10BE900053600D4B98470D4B9847FEE70002010099
:10BEA00000000020800000208000002010050020FD
:10BEB0000000000000ED00E0007000410050004173
:10BEC00000480041004000413DD8000065C6000028
:10BED00080B500AFFEE7000080B586B000AFF86027
:10BEE000B9607A6000237B61FB68002B12D00123CC
:10BEF0005B4213E00B4B1A680B4B1B68B9681800C8
:10BF00009047BB680133BB607B6901337B617B6811
:10BF1000013B7B607B68002BECDC7B691800BD4635
:10BF200006B080BD000500200805002080B586B061
:10BF300000AFF860B9607A6000237B61FB68012B79
:10BF40001DD0FB68022B1AD0FB68032B17D00123EE
:10BF50005B4218E00E4B1A680E4B1868BB68591C00
:10BF6000B9601B7819009047031E02DA01235B4277
:10BF700009E07B6901337B617B68013B7B607B6807
:10BF8000002BE7D17B691800BD4606B080BDC046D6
:10BF9000040500200805002080B584B000AF78605B
:10BFA0000A4B1B68002B02D1084B094A1A60074B49
:10BFB0001B68FB60054B1A687B68D218034B1A603C
:10BFC000FB681800BD4604B080BDC046CC0200200E
:10BFD0001025002080B582B000AF786001235B425D
:10BFE0001800BD4602B080BD80B582B000AF786059
:10BFF00039603B68802292015A6000231800BD46D8
:10C0000002B080BD80B582B000AF78600123180017
:10C01000BD4602B080BD80B584B000AFF860B960A5
:10C020007A6000231800BD4604B080BD80B584B09E
:10C0300000AFF860B9607A603B60FB687A681A60AC
:10C04000FB68BA681A61FB6800225A60FB683A68AC
:10C050009A60FB68BA69DA60C046BD4604B080BD2C
:10C0600080B584B000AF78600A00FB1C1A707B6852
:10C070001A687B685B68D31AFB60FB68002B03DCE3
:10C080007B681800084B98477B6819697B685B6878
:10C09000581C7A685060CB18FA1C12781A70C04687
:10C0A000BD4604B080BDC04629C1000080B582B045
:10C0B00000AF78600A00BB1C1A80BB1C00229B5E8C
:10C0C0001B121BB25AB27B6811001800064B98472E
:10C0D000BB1C1B885AB27B6811001800024B9847A2
:10C0E000C046BD4602B080BD61C0000080B584B0CE
:10C0F00000AFF860B9607A600DE0BB681B785AB297
:10C10000FB6811001800074B98477B68013B7B6078
:10C11000BB680133BB607B68002BEED1C046BD46D7
:10C1200004B080BD61C0000090B583B000AF7860FE
:10C130007B685B68002B0CD07B689C687B68D86848
:10C140007B6819697B685B681A00A0477B680022DE
:10C150005A60C046BD4603B090BD000080B500AF38
:10C160000020054B98470200044B1B7ADBB2DA40F3
:10C1700013001800BD4680BDE5AC0000000400407F
:10C1800080B584B000AF78607B681B68FB60C046F8
:10C19000FB689B6802221340FAD1FB681B680222ED
:10C1A0001A43FB681A60C046BD4604B080BD00005B
:10C1B00080B582B000AF7860044B1B685A1C034BFB
:10C1C0001A60C046BD4602B080BDC046D002002005
:10C1D00080B582B000AF78607B6864225A807B684B
:10C1E00000221A707B6800225A70C046BD4602B019
:10C1F00080BD000090B5B1B000AF786039600C230D
:10C20000FB182E4A13CA13C33B685B881A007B686D
:10C210005A657B681433BC22BA1813603B681B78DC
:10C220001A000C23FB189200D2581823FB18110097
:10C230001800234B9847234B984704003B685B88C2
:10C240001A00214B1100FA221002984703001A002D
:10C250001E4B11002000984703001A001823FB18FA
:10C260005A601823FB180522DA723B681B781A0003
:10C270000C23FB189200D1581823FA18BC23FB1882
:10C280001B681800124B98473B685B780833DAB29A
:10C290001049BC23FB181B6818000F4B98473B68DC
:10C2A0005B780833DAB2BC23FB181B681100180056
:10C2B0000A4B9847C046BD4631B090BDCC00010046
:10C2C00009B200005DC1000011D60000FDD40000DD
:10C2D00065B80000B1C100007DBC0000BDBC00001D
:10C2E00080B584B000AF78607B681433FB60FB6876
:10C2F0001800034B9847C046BD4604B080BDC046F9
:10C3000081C1000080B586B000AFF860B9607A6086
:10C310003B6000237B6132E0F9687A6913009B007F
:10C320009B189B005B5CDB07DB0FDBB2002B23D190
:10C330007A6913009B009B189B00FA68D3183B6135
:10C340003B69BA685A603B691A7802218A431A70BD
:10C350003B697A689A60FB685A6D0D4B110038682A
:10C36000984703001A003B69DA603B691A7801219B
:10C370000A431A707B6907E07B6901337B617B6943
:10C38000002BC9DD01235B421800BD4606B080BD0D
:10C39000FDD4000080B586B000AFF860B9607A6067
:10C3A000BA6813009B009B189B00FA68D3187B6146
:10C3B0007B691A7802210A431A70FB685A6D074B91
:10C3C00011007868984703001A00054B1B68D218C3
:10C3D0007B691A61C046BD4606B080BDFDD4000031
:10C3E000D002002080B584B000AF786039603A6830
:10C3F00013009B009B189B007A68D318FB60FB68B6
:10C400001A7802218A431A70C046BD4604B080BD26
:10C4100090B585B000AF78600023FB6053E0796889
:10C42000FA6813009B009B189B005B5CDB07DB0F2B
:10C43000DBB2002B44D07968FA6813009B009B188C
:10C440009B005B5C9B07DB0FDBB2002B38D0FA68EC
:10C4500013009B009B189B007A68D318BB60BB68D5
:10C460001A691C4B1B68D31A2AD5BB681B78042297
:10C470001340DBB2002B23D1BB681A7804210A4396
:10C480001A70BB685C68BB689A68BB68DB68F9684F
:10C490007868A047BB68DB68002B07D0BB68DA6808
:10C4A0000C4B1B68D218BB681A6104E0BB681A7891
:10C4B00002218A431A70BB681A7804218A431A70D1
:10C4C000FB680133FB60FB68002BA8DDC046BD465E
:10C4D00005B090BDD002002080B584B000AF02004E
:10C4E000FB1D1A700F23FB18FA1D1278D2091A705F
:10C4F0000E23FB18FA1D127852091A700D4BBB60FF
:10C500000F23FB181B78002B0FD10F23FB181B7870
:10C510009B0010229446BC446344083B1A680E23D7
:10C52000FB181B78DB01D31800E000231800BD4680
:10C5300004B080BD0044004180B582B000AF02006D
:10C54000FB1D1A70FB1D1B781800034B9847030056
:10C550001800BD4602B080BDD9C4000080B582B0CD
:10C5600000AF78607B6800221A707B6801225A70E5
:10C570007B6800229A70C046BD4602B080BD0000B4
:10C5800080B584B000AF0200FB1D1A70BB1D0A1CF1
:10C590001A70FB1D1B7818000D4B98470300FB60B9
:10C5A000FB1D1B781F22134001229A401300BB6021
:10C5B000BB1D1B78002B03D0FB68BA689A6102E0B0
:10C5C000FB68BA685A61C046BD4604B080BDC0462B
:10C5D00039C5000080B582B000AF3B1D1800094B83
:10C5E00098473B1D01221A703B1D19000320064B82
:10C5F000984700210320054B9847C046BD4602B02E
:10C6000080BDC0465DC500005D83000081C500009F
:10C6100080B582B000AF3B1D18000F4B98473B1D03
:10C6200001221A703B1D190023200C4B98473B1D1B
:10C6300019000220094B984700210B20084B98470E
:10C6400001212320064B984701210220044B9847E3
:10C65000C046BD4602B080BD5DC500005D830000E0
:10C6600081C5000080B586B000AF0E4B98470E4BD9
:10C6700098470E4B98470E4B98470E4B98470E4BDA
:10C6800018000E4B98470E4B98470E4B98470E4B91
:10C69000984700200D4B98470D4B98470D4B9847F6
:10C6A000F7E7C046FDB00000E1260000B90F00002A
:10C6B00011C60000D5C50000D80001004DDB000008
:10C6C00029240000C91D0000AD1400009945000098
:10C6D000CD150000FD1B0000031C0E3000B50E2818
:10C6E00019D800F001FF16141210181B180E0C18A0
:10C6F0000E0E0A1D0800002014E0702011E0162024
:10C700000FE00C200DE079200BE0682009E00B2001
:10C7100007E0102005E00020834203DA052000E056
:10C720000220404200BD0000F8B5041C43342378C9
:10C73000051CD8071CD50426334323700220285635
:10C7400092B200230C4FB847002805DA2378B34390
:10C7500023700A4B98470DE02278142313400020E1
:10C76000042B07D1064B9847E86D064B9847F3E733
:10C7700001204042F8BDC0460D740000D9C600003B
:10C780009945000011C40000074B40220380962306
:10C790009B00038102610023202283704360C360F9
:10C7A000426103767047C0465B07000038B5041C41
:10C7B0000D1C002830D000292ED00B69002B2BD067
:10C7C0004B68002B28D000217422164B9847201C60
:10C7D000154B5830291C1C229847636E002B0BD137
:10C7E0002869124B98476066002817D0231C4333F2
:10C7F0001A7820210A431A702A89FA235B005343CE
:10C8000068680B49221C0B4DA847031C20650020BB
:10C81000834205DA1C2002E0162000E00C20404292
:10C8200038BDC046CFD8000099D8000085D8000098
:10C83000B5CF000005C30000002802D041650020EC
:10C8400001E0162040427047F0B5061C85B00F1C71
:10C8500000240F4BE558002D15D0E91C301C0D4B62
:10C86000984700280FD16A46022313802B1C5833A7
:10C870001B8801975BBA5380022028566946102214
:10C88000054B984702E004341C2CE2D105B0F0BD02
:10C89000FC02002035DD0000F9720000F0B5041C38
:10C8A00089B00D1C002851D000294FD0081C394BED
:10C8B000984740284CD8211C43310B780191DB0765
:10C8C000D90F6A46CEB2E01C1172002E42D1012768
:10C8D000291C314B27809847019A0220137801992F
:10C8E000BB438343E32213406A460B70127A231C36
:10C8F000483366641A709A7C5E80531E9A41D2B2A5
:10C90000391C264B9847A070002825DB244B80005B
:10C91000C4502B1C1F78002F26D02022391C914395
:10C920000A1C413AD2B20133052A0DD93A2F0BD055
:10C930002F2F09D02E2F02D1002EEBD00FE0302266
:10C9400017409742E6D00AE00126E3E7162004E00C
:10C950005B2002E0782000E01C20404217E0281C09
:10C96000104B9847002012E06A4602231382231CD2
:10C9700058331B88281C5BBA53820B4B9847059091
:10C980000220205604A91022084B9847381C09B0F1
:10C99000F0BDC04659DD000049DD0000A171000076
:10C9A000FC0200200979000001780000F972000003
:10C9B000F0B595B002AF7B613B1C70331B78051C52
:10C9C000FB603B1C74331B783961FA61BB60002843
:10C9D00001D1162029E1C36E68460733DB08DB006E
:10C9E000C01A854602AC7C603C6E002CF1D02B1C3A
:10C9F00043331B78D80700D412E19A0700D511E120
:10CA00001C070BD48B4E386EB047031CB861F86915
:10CA10000E33341C002813D11E1C1DE02B1C703358
:10CA20001B78002B00D0FFE02B1C43331B781A0728
:10CA3000E8D5814B00209847E86D804B9847F3E795
:10CA4000F869B047BE697B6910363618002B03D0F1
:10CA5000181CA04702363618786E002807D0A04769
:10CA60000236FC6E30180619002C00D1061CFC6939
:10CA7000002C06D0C024BC617C69002C03D180242A
:10CA800000E0FC69BC617C6E002C0FD0BC68002CFF
:10CA900003D0BC6920231C43BC61FC6803232340F2
:10CAA000DB00BC69042213431C43BC613C69002CBD
:10CAB00003D0BC6902231C43BC612B1C43331A788E
:10CAC00008210A431A70381C0095203079685C4BA5
:10CAD000EA6E5C4CA047381C203010215A4B984716
:10CAE000802E09DD802149423143381C49B2203073
:10CAF000554CA047F611F3E7544B1E4004D5802354
:10CB0000013E5B421E430136381C71B220304E4C50
:10CB1000A047381C4E4C20300621A047381C4D4BF6
:10CB200020304D4906229847381C20300321464AC0
:10CB30009047BB69381C444A59B2203090472B1C9F
:10CB400060330020195E381C2030A047394E386E03
:10CB5000B04701B2381C2030A047386EB047021CE5
:10CB6000381C2030396E3B4B9847786E002815D022
:10CB7000B04701B2381C2030A047786EB047021C85
:10CB8000381C344C2030796EA047BC6E002C05D088
:10CB9000381C211C2030FA6E2E4CA047FC69002C5A
:10CBA0001FD0244E201CB04701B2381C2030284C26
:10CBB000A047F869B047021C381C2030F969254CA1
:10CBC000A047786900280CD0B04701B2381C204A31
:10CBD000203090477869B047021C381C20307969B2
:10CBE000A047381C2C1C20301C4B4334984721781C
:10CBF0008907C90F01290BD1EA6C002A08D16B6D96
:10CC0000002B05D03420C2553A1C281C34329847DA
:10CC1000237802221343082293432370002005E067
:10CC2000802002E0782000E00B204042BD4613B097
:10CC3000F0BDC04659DD00009945000011C4000058
:10CC400029C700002DC0000061C000007F000080E7
:10CC5000ADC00000EDC000004101010029C100008D
:10CC6000F0B593B002AFFB603B1C58331B78041C3B
:10CC70003B613B1C5C331B787961BA607B600028A8
:10CC800001D11625A7E0C36E6A460733DB08DB0037
:10CC9000D21A7B69954602AE002BF2D03A69022A7D
:10CCA000EFD8051C43352B789A0700D490E01A077B
:10CCB0000AD44B4B78699847FD683B6902352D18BB
:10CCC000002B11D002350FE0031C70331B78002BB2
:10CCD00000D07FE02B781A07EBD5424B0020984715
:10CCE000E06D414B9847F5E7231C43331A78082140
:10CCF0000A431A70381C0094311C2C30E26E3B4BF6
:10CD00003B4EB0477B6801211940302319433B69F2
:10CD1000381C5A000623134019432C30354B9847D2
:10CD2000344B802D08DD802149422943381C49B20B
:10CD30002C309847ED11F3E72F4A154004D5802297
:10CD4000013D524215430135381C69B22C309847D9
:10CD5000234E7869B04701B2381C2C30274DA847C4
:10CD60007869B047021C381C2C307969244EB047D2
:10CD70003A69002A06D02188381C4B1C238009B24E
:10CD80002C30A8472388002B01D101232380BB68C6
:10CD9000002B06D0FA68002A03D0381C2C30191C4E
:10CDA000B047381C174B2C309847231C43331A7854
:10CDB00008218A431A703B690025AB420CD1636D90
:10CDC000AB4209D03A1C201C02211832984703E0DC
:10CDD000802500E00B256D42281CBD4611B0F0BD3A
:10CDE00059DD00009945000011C4000029C700006A
:10CDF0002DC0000061C000007F000080ADC00000B9
:10CE0000EDC0000029C10000F0B58DB002AF041CD8
:10CE1000B9607A6001D1162086E0C36E6A46073396
:10CE2000DB08DB00D21A954602AD3D60BD68002DDF
:10CE3000F1D07D68022DEED8051C43352B789A077A
:10CE40006FD51A071AD4B868394DA847251C433541
:10CE50002B78082213432B70FD60461D0094381C6C
:10CE600014303968E26E334B334DA847381C7E21AD
:10CE700014304942314B98472D4D0EE0031C70335E
:10CE80001B78002B4FD12B781A07DCD52C4B0020B8
:10CE90009847E06D2B4B9847F5E7284B802E08DD2F
:10CEA000802149423143381C49B214309847F61169
:10CEB000F3E72549314004D580220139524211431C
:10CEC0000131381C49B2143098472188381C4B1C5A
:10CED000238009B214301D4EB0472388002B01D1A6
:10CEE00001232380B868A84701B2381C1430B0472A
:10CEF000B868A847021C381C1430B968144B98470E
:10CF00007D68381C69B214300C4B9847381C1430BB
:10CF1000104B9847FD6808222B78002093432B7014
:10CF200003E0802000E00B204042BD460BB0F0BD86
:10CF300059DD000029C700002DC0000061C00000BD
:10CF40009945000011C400007F000080ADC00000C2
:10CF5000EDC0000029C10000F7B5C02301A90025DC
:10CF60000B704D70A84219D0041C433423789A07E3
:10CF700016D51A0716D408263343237080782B1C45
:10CF800040B20222094FB8472B1CA8420CDA237882
:10CF9000B3432370064B9847031C05E0162302E0B9
:10CFA000802300E00B235B42181CFEBD0D740000C3
:10CFB000D9C6000070B5051C86B00E1C141C0028D4
:10CFC00012D0002A10D0101C084B9847002804DA11
:10CFD000281C311C0022064B05E0636D002B03D09A
:10CFE000201C072101AA984706B070BD59CF000048
:10CFF00095C30000F7B5022301AC00276370B84267
:10D000001ED0051C43352B789E071BD51E071BD44D
:10D01000082633432B7080782170110AA170E270CA
:10D02000211C3B1C40B20422094CA0473B1CB842C7
:10D030000CDA2B78B3432B70064B9847031C05E0A2
:10D04000162302E0802300E00B235B42181CFEBD88
:10D050000D740000D9C6000030B5041C87B000284C
:10D060001CD002200E4B20569847231C43331A78BD
:10D07000FC2195070A401A70E36CE06D01930023D0
:10D08000E364216D074B9847636DED0F002B05D0CE
:10D09000002D03D0201C052101AA984707B030BD00
:10D0A000F1760000E5C30000F7B5E02301AE0027EC
:10D0B000051C33707770B84236D0041C4334237893
:10D0C0009A0733D5B9422BD11A0714D423781022EA
:10D0D000134308273B43237002202856311C0222A9
:10D0E0000023154DA847002814DA2378BB4323708A
:10D0F000124B98471EE0031C70331B78002B17D18E
:10D1000023781A07E2D50E4B00209847E86D0D4BA7
:10D110009847F5E72378022293432370002009E023
:10D12000094B9847381C05E0162002E0802000E0FB
:10D130000B204042FEBDC0460D740000D9C6000061
:10D140009945000011C4000059D00000F0B5041C3E
:10D15000406E0F23027887B0151C9D43502D00D1DF
:10D1600098E008D8302D3FD0402D00D1B3E0202DDD
:10D1700000D0C3E00EE0702D00D1ACE003D8602DEC
:10D1800000D196E0BAE0902D00D1AAE0B02D00D1F8
:10D19000ADE0B3E001AA0323012900D9C3781370DD
:10D1A0001378002B0DD0636D002B02D0201C0121C1
:10D1B00098476F235B42E364201C0021504B984743
:10D1C0009CE0231C433319788907C90F05D11A78CD
:10D1D000E16402210A431A7090E0636D002B00D1D4
:10D1E0008CE0201C012188E001AD13072A7CDB0FB5
:10D1F00004269B00B2431A432A7407780323D2B251
:10D200007F089A431F40131C3B432B74431C187820
:10D210005A1C7F2801D9131CF9E758789E78000220
:10D22000304303330026686001931818B74204D0D6
:10D230000678437836021E4302305118636DA860A9
:10D24000081AE860002B03D0201C06212A1C9847EE
:10D250002B7C9B079B0F012B0BD1B6B2201C4021CE
:10D26000321C284B9847002848D0231C48334022C2
:10D270000CE0022B42D1B6B2201C5021321C214BB3
:10D28000984700283AD0231C483350224A341A7059
:10D29000268033E08578C3782D021D43201C62214F
:10D2A0002A1C184B9847002828D0231C483360229A
:10D2B0000DE08578C3782D021D43201C70212A1CA7
:10D2C000104B9847002819D0231C483370224A3449
:10D2D0001A70258012E0636D002B0FD0201C0221F4
:10D2E0000AE0636D002B09D0201C032104E0636D6C
:10D2F000002B03D0201C042101AA984707B0F0BDE1
:10D30000A9D00000F5CF000038B5041E17D0426C3C
:10D31000836E9A4206D98B235B42C3640021084B7B
:10D3200098470CE0626C636E02209918A36E205639
:10D330009A1A92B20023034DA8470028F2D138BDB3
:10D34000A9D0000071750000F7B5041E42D0636CCF
:10D35000676ECA1801230197626400261D1CA9424A
:10D3600003DC201C1C4B984734E0019F785DDF01F3
:10D37000BC46032D01D14D230EE07F2707407B43A0
:10D3800040B20135F618002801DA6346E7E7A36EDC
:10D39000AF199F4207D98B235B42E364201C002115
:10D3A0000E4B984716E0BA4214D30D4B201C311C8B
:10D3B0009847636CBB4202D1002363640AE09E1B62
:10D3C000019B751BD919181C2A1C064B98476564CC
:10D3D0000021BCE7F7BDC04609D30000A9D000007A
:10D3E0004DD10000ABD8000070B5374D86007459A0
:10D3F00086B0002C66D006292BD0072939D0052904
:10D4000060D101201056314B98470190002806DA70
:10D4100002202F4B205698470023735111E0231C04
:10D4200043331A7801210A431A701D331B88002BDD
:10D4300004D0E06D216D0022264B9847201C264B1E
:10D440009847636D002B3DD0201C002101AA98470E
:10D4500038E00423D15E002903DD201C1F4B9847D0
:10D4600003E00B1C081C0D331AD11B4B201C9847E2
:10D4700028E0231C433310881A78510702D408216E
:10D480008A431A701A7804218A431A70D306DE0F71
:10D4900000B2002B02DB002808DA01E0002802DAE3
:10D4A0000A4B9847E064201C0D4BE0E7251C4835EB
:10D4B0002978002906D0231C4A331A88201C094BDE
:10D4C00098472E7006B070BDFC020020D9C600003F
:10D4D000F176000095C3000009D3000049D3000095
:10D4E00059D00000F5CF000002B471464908490048
:10D4F000095C49008E4402BC7047C04600224308C4
:10D500008B4274D303098B425FD3030A8B4244D30B
:10D51000030B8B4228D3030C8B420DD3FF2209024D
:10D5200012BA030C8B4202D31212090265D0030B0C
:10D530008B4219D300E0090AC30B8B4201D3CB0302
:10D54000C01A5241830B8B4201D38B03C01A524144
:10D55000430B8B4201D34B03C01A5241030B8B4246
:10D5600001D30B03C01A5241C30A8B4201D3CB0231
:10D57000C01A5241830A8B4201D38B02C01A524116
:10D58000430A8B4201D34B02C01A5241030A8B4219
:10D5900001D30B02C01A5241CDD2C3098B4201D331
:10D5A000CB01C01A524183098B4201D38B01C01AAF
:10D5B000524143098B4201D34B01C01A5241030926
:10D5C0008B4201D30B01C01A5241C3088B4201D3D5
:10D5D000CB00C01A524183088B4201D38B00C01A82
:10D5E000524143088B4201D34B00C01A5241411AA9
:10D5F00000D20146524110467047FFE701B50020B6
:10D6000000F0F0F802BDC0460029F7D076E7704779
:10D6100003460B437FD4002243088B4274D3030993
:10D620008B425FD3030A8B4244D3030B8B4228D334
:10D63000030C8B420DD3FF22090212BA030C8B425A
:10D6400002D31212090265D0030B8B4219D300E0FA
:10D65000090AC30B8B4201D3CB03C01A5241830B7F
:10D660008B4201D38B03C01A5241430B8B4201D32F
:10D670004B03C01A5241030B8B4201D30B03C01A58
:10D680005241C30A8B4201D3CB02C01A5241830AD2
:10D690008B4201D38B02C01A5241430A8B4201D301
:10D6A0004B02C01A5241030A8B4201D30B02C01A2B
:10D6B0005241CDD2C3098B4201D3CB01C01A524192
:10D6C00083098B4201D38B01C01A524143098B421B
:10D6D00001D34B01C01A524103098B4201D30B0104
:10D6E000C01A5241C3088B4201D3CB00C01A524129
:10D6F00083088B4201D38B00C01A524143088B42EE
:10D7000001D34B00C01A5241411A00D20146524186
:10D71000104670475DE0CA0F00D04942031000D3A5
:10D720004042534000229C4603098B422DD3030AFA
:10D730008B4212D3FC22890112BA030A8B420CD30A
:10D74000890192118B4208D3890192118B4204D333
:10D7500089013AD0921100E08909C3098B4201D3B3
:10D76000CB01C01A524183098B4201D38B01C01AED
:10D77000524143098B4201D34B01C01A5241030964
:10D780008B4201D30B01C01A5241C3088B4201D313
:10D79000CB00C01A524183088B4201D38B00C01AC0
:10D7A0005241D9D243088B4201D34B00C01A524197
:10D7B000411A00D20146634652415B10104601D324
:10D7C0004042002B00D54942704763465B1000D3AE
:10D7D000404201B5002000F005F802BD0029F8D054
:10D7E00016E770477047C046F0B5CE464746150469
:10D7F0002D0C2E0080B50704140C3F0C9946030C29
:10D800007E435D43674363437F19340CE4199C46B0
:10D81000A54203D980235B029846C4444B4651433A
:10D8200043433604360C250C24046544A4195918C6
:10D83000491920000CBC90469946F0BD70B50026F1
:10D840000C4D0D4C641BA410A64209D1002602F019
:10D85000C7FC0A4D0A4C641BA410A64205D170BD3A
:10D86000B300EB5898470136EEE7B300EB58984702
:10D870000136F2E7EC010100EC010100EC010100CE
:10D88000F001010010B5034B0100186800F072F8B8
:10D8900010BDC0461C000020002310B59A4200D1E4
:10D8A00010BDCC5CC4540133F8E710B5884202D9EE
:10D8B0008B18984208D300239A4207D0CC5CC454FA
:10D8C0000133F9E78B5C8354013AFBD210BD0300AE
:10D8D0008218934200D1704719700133F9E70000B4
:10D8E00070B50500002910D00C1F2368002B00DA4A
:10D8F000E418280000F008FD1D4A1368002B05D12C
:10D9000063601460280000F000FD70BDA34209D9D7
:10D91000216860188342F3D118685B684118216060
:10D92000EEE713005A68002A01D0A242F9D919681B
:10D930005818A0420BD12068091858181960824263
:10D94000E0D110685268411819605A60DAE7A042C5
:10D9500002D90C232B60D5E721686018824203D1DD
:10D96000106852684118216062605C60CAE7C04676
:10D9700018030020032370B5CD1C9D430835060015
:10D980000C2D1ED20C25A9421DD8300000F0BCFC85
:10D99000254A14682100002919D1244C2368002B42
:10D9A00003D1300000F0DCF820602900300000F0E6
:10D9B000D7F8431C2CD10C233000336000F0A5FCB9
:10D9C00003E0002DDFDA0C233360002070BD0B680C
:10D9D0005B1B1AD40B2B03D90B60CC18256003E01A
:10D9E0008C420ED163681360300000F08EFC200082
:10D9F00007220B30231D9043C31AE7D05A42E2504E
:10DA0000E4E74B6863600C00EEE70C004968C2E78E
:10DA10000323C41C9C43A042E0D0211A300000F034
:10DA20009FF8431CDAD1C6E7180300201C0300202E
:10DA30000FB40B4B13B51C68002C05D0A369002B49
:10DA400002D1200000F064FB05AB049AA16820001D
:10DA5000019300F0E9FD16BC08BC04B01847C046AD
:10DA60001C000020084B70B51C680500002C05D078
:10DA7000A369002B02D1200000F04AFB2900A26814
:10DA8000200001F075F870BD1C00002070B5050085
:10DA90000E00002804D08369002B01D100F038FB70
:10DAA000AB69AC68002B02D1280000F031FB244B9D
:10DAB0009C420FD16C68A3891B0702D52369002BF8
:10DAC00020D12100280000F0B5F900281AD001204B
:10DAD000404270BD1B4B9C4201D1AC68EBE71A4B36
:10DAE0009C42E8D1EC68E6E7013B0136A360002BDD
:10DAF00004DAA269934216DB0A2914D023685A1C5F
:10DB0000226019703178A3680029EDD1013BA36030
:10DB1000002B0FDA22000A31280000F035F9431CEF
:10DB2000D5D00A20D5E72200280000F02DF9431CAB
:10DB3000E8D1CCE70A2023685A1C22601870C8E795
:10DB40006C0101008C0101004C01010010B5034B78
:10DB500001001868FFF79AFF10BDC0461C000020A6
:10DB6000002370B5064C050008002360FEF714FA88
:10DB7000431C03D12368002B00D02B6070BDC0462E
:10DB80000C0500204A424A41802310B55200DB00B8
:10DB900000F002F810BD0000F0B51D004F4B85B03D
:10DBA0001E6804000F000092002E05D0B369002B00
:10DBB00002D1300000F0ACFA494B9C4250D174685D
:10DBC000009B022B05D0012B00D984E0002D00DA48
:10DBD00081E02100300000F02DFA616B002908D0AF
:10DBE00023004433994202D03000FFF779FE00232E
:10DBF00063630023A3616360A3891B0603D52169C6
:10DC00003000FFF76DFEA389364A1340A381009BC5
:10DC1000022B5AD003AB02AA2100300000F00EFB09
:10DC2000A3891843A081002D24D1029D2800FFF76D
:10DC300029FE0195071E42D1029B0193AB4239D1C7
:10DC4000012040420223A2891343A3810023A36041
:10DC500023004733236023610123636105B0F0BDD6
:10DC6000214B9C4201D1B468AAE7204B9C42A7D12A
:10DC7000F468A5E7002FD9D0B369002B02D130009A
:10DC800000F046FA009B012B03D1A389009A1A43A6
:10DC9000A2810820A389276027616561184018D0F8
:10DCA000012018400023984211D06D42A360A56165
:10DCB0001800D3E70198FFF7E5FD071EC0D08023C9
:10DCC000A289019D1343A381D6E70020BAE7A5608E
:10DCD000C4E7A060C2E701204042BFE71C0000206B
:10DCE0006C0101005CF3FFFF8C0101004C0101009D
:10DCF0000EB410B59DB002A9029008610B488224B1
:10DD000088604861012040421FABC881084804CBAD
:10DD1000A400006801938C8100F05AFB0023029A52
:10DD200013701DB010BC08BC03B01847FFFFFF7F85
:10DD30001C00002002780B78002A03D0013001314A
:10DD40009A42F7D0D01A7047031C0A7801311A7032
:10DD50000133002AF9D170470023C25C0133002A45
:10DD6000FBD1581E7047002330B59A420AD0013AC1
:10DD7000C45CCD5CAC4204D19A4202D00133002C89
:10DD8000F6D1631B180030BDF8B505000E00140075
:10DD9000002804D08369002B01D100F0B9F9224B8F
:10DDA0009C422DD16C68A369A360A3891B0731D560
:10DDB0002369002B2ED023682269F7B2981A636971
:10DDC000F6B2984205DB2100280000F033F9002864
:10DDD00026D1A3680130013BA36023685A1C22604E
:10DDE0001F706369984204D0A389DB071AD50A2EF5
:10DDF00018D12100280000F01DF9002812D00FE0F2
:10DE00000A4B9C4201D1AC68CDE7094B9C42CAD178
:10DE1000EC68C8E72100280000F00CF80028CAD000
:10DE2000012676423000F8BD6C0101008C01010032
:10DE30004C010100364B70B51D6806000C00002D2A
:10DE400005D0AB69002B02D1280000F061F9314BFD
:10DE50009C420FD16C680C23E25E93B219072DD45B
:10DE6000D90611D409230120336037331343A3812A
:10DE7000404270BD284B9C4201D1AC68EBE7274B78
:10DE80009C42E8D1EC68E6E75B0713D5616B00299B
:10DE900008D023004433994202D03000FFF720FD20
:10DEA000002363632422A3899343A3810023636037
:10DEB000236923600823A2891343A3812369002BCC
:10DEC0000BD1A0218022A389890092000B409342AC
:10DED00003D02100300000F0D9F90123A2891340BA
:10DEE00011D00023A36063695B42A3610020236912
:10DEF0008342BED10C23E25E1306BAD540231343FE
:10DF0000A3810138B5E7920700D46369A360EDE708
:10DF10001C0000206C0101008C0101004C0101007B
:10DF2000F7B58A8905000C00130760D44B68002BF5
:10DF300004DC0B6C002B01DC0020FEBDE76A002F27
:10DF4000FAD000232E682B6080235B011A4034D066
:10DF5000606DA3895B0706D56368C01A636B002BED
:10DF600001D0236CC01A0200216A00232800E76A4E
:10DF7000B847A189431C06D12B681D2B31D82C4AE8
:10DF8000DA40D3072DD50023636023692360CB04D7
:10DF900005D5431C02D12B68002B00D16065616B55
:10DFA0002E600029C8D023004433994202D02800B3
:10DFB000FFF796FC00206063BFE70123216A280079
:10DFC000B847431CC5D12B68002BC2D01D2B01D0F4
:10DFD000162B01D12E60AFE74023A2891343A38102
:10DFE000ABE740230B430120A3814042A5E70F6923
:10DFF000002FA1D00B680F60DB1B01930023920759
:10E0000000D14B69A360019B002B00DC94E7019BCE
:10E010003A00216A2800A66AB047002803DC4023A2
:10E02000A2891343DFE7019B3F181B1A0193EAE71C
:10E03000010040200B6970B505000C00002B01D1D8
:10E04000002070BD002804D08369002B01D100F0AE
:10E050005FF80B4B9C4209D16C680C22A35E002B2D
:10E06000EED021002800FFF75BFFEAE7054B9C425A
:10E0700001D1AC68F1E7044B9C42EED1EC68ECE7CF
:10E080006C0101008C0101004C01010010B5024936
:10E0900000F0B2F810BDC04635E00000002310B516
:10E0A000040003604360836081814366C281036131
:10E0B00043618361190008225C30FFF708FC054BBF
:10E0C00024626362044BA362044BE362044B236348
:10E0D00010BDC046DDEB000005EC00003DEC00008B
:10E0E00069EC000070B568254A1E55430E002900F2
:10E0F0007431FFF73FFC041E08D000212A000160A4
:10E1000046600C30A0606832FFF7E1FB200070BD74
:10E11000836913B50400002B28D18364C3640365AD
:10E12000134B144A1B6882620193984201D1012368
:10E130008361200000F020F86060200000F01CF8EF
:10E14000A060200000F018F80022E0600421606860
:10E15000FFF7A4FF01220921A068FFF79FFF022219
:10E160001221E068FFF79AFF0123A36113BDC046A7
:10E17000480101008DE00000F8B51E4B07001E6845
:10E18000B369002B02D13000FFF7C2FF4836B468F4
:10E190007368013B04D53368002B07D03668F6E777
:10E1A0000C22A55E002D0DD06834F2E70421380062
:10E1B000FFF798FF30600028F0D10C2304003B608B
:10E1C0002000F8BD012320005B42E3810233A381DC
:10E1D00065662560A560656025616561A5610822A9
:10E1E00029005C30FFF773FB6563A563A564E564F4
:10E1F000E6E7C04648010100F7B504000700002625
:10E2000001914834002C01D13000FEBD6368A5683F
:10E210000093009B013B009301D52468F2E7AB8992
:10E22000012B08D90E22AB5E013304D0290038003F
:10E23000019B984706436835EBE7000070B50E0078
:10E240001D000E23C95E90B01400002907DA0023D8
:10E250002B60B3891B0611D48023DB000FE001AAD9
:10E2600000F02EFD0028F2DBF022029B1202134088
:10E27000054A9B185A4253412B60EDE7402300208A
:10E28000236010B070BDC04600E0FFFFF7B5022666
:10E290008B8905000C00334206D0230047332360EE
:10E2A000236101236361F7BD01AB6A46FFF7C6FF37
:10E2B000009907002800FFF75DFB002806D10C221B
:10E2C000A35E9A05EFD41E43A681E6E70D4BAB6231
:10E2D0008023A28920601343A381009B2061636196
:10E2E000019B002B0AD00E23E15E280000F0FAFC0F
:10E2F000002803D00123A2891343A381A0893843B6
:10E30000A081D0E78DE0000070477047F0B58E68BF
:10E3100085B007000C00039201939E4239D89023E8
:10E320008A89DB001A4234D00325096923685B1A05
:10E330000293636902985D43EB0F5D19019B6D10B9
:10E3400001331B18AB4200D91D00530532D52900FB
:10E350003800FFF70FFB061E09D10C233B6040235A
:10E360000120A28940421343A38105B0F0BD029A67
:10E370002169FFF791FAA389144A1A4080231343B5
:10E38000A381029B2661F61826606561019EED1A45
:10E39000A560019BB34200D21E00320003992068A1
:10E3A000FFF783FAA36800209B1BA36023689E19D4
:10E3B0002660DAE72A00380000F0C5FC061EE0D12E
:10E3C00021693800FFF78CFAC7E7C0467FFBFFFFE3
:10E3D000F0B59FB0029005938B890F0016001B06C5
:10E3E00011D50B69002B0ED14021FFF7C3FA38601D
:10E3F0003861002805D10C23029A013813601FB040
:10E40000F0BD40237B61002306AD6B6120336B764A
:10E410001033AB7634002378002B47D1A31B049331
:10E420000DD0A31B320039000298FFF76FFF431C89
:10E4300000D1B5E06A69049B944663446B6123781C
:10E44000002B00D1ACE00122002352426A6002A9F5
:10E450005432521801342B60EB60AB601370AB6523
:10E46000584E05222178300000F062FC621C002822
:10E4700020D12968CB0604D5532302AE20309B1946
:10E4800018700B0704D553232B2002AE9B1918706C
:10E4900023782A2B16D000200A21099B2278303AB3
:10E4A000092A55D9002815D0099313E0252BB5D09A
:10E4B0000134B0E70123801B8340296814000B431B
:10E4C0002B60CDE7059B181D1B680590002B39DBE1
:10E4D0000993140023782E2B0BD16378621C2A2B0E
:10E4E0003ED1059B02341A1D1B680592002B34DBBC
:10E4F0000793354E21780322300000F019FC0028E4
:10E5000006D04023801B83402A68013413432B60CC
:10E51000217806222D48661C297600F009FC002887
:10E5200046D02B4B002B2FD12968059B0722C9050C
:10E5300028D59B189343083305936B69039A9B185E
:10E540006B6167E75B42EB6002230B432B60C0E724
:10E550004B4301349B180120A0E701235B42C7E72E
:10E56000002314000A201A006B6021783039092931
:10E5700003D9002BBDD00792BBE7424301345218A8
:10E580000123F2E70733D5E705AB00933A00114BBF
:10E590002900029800E000BF0390039B0133CCD117
:10E5A000BB890B985B0600D429E70120404226E78F
:10E5B00005AB00933A00074B2900029800F0BEF922
:10E5C000EAE7C046AC010100B2010100B60101005A
:10E5D000000000000DE30000936810B5013B93605C
:10E5E000002B05DA9469A34208DBCBB20A2B05D0D5
:10E5F0001368581C10601970C8B210BDFFF7C4FB37
:10E60000FBE7F8B506000F001400D518AC4201D1A5
:10E61000002007E021783A003000FFF7DDFF0134E9
:10E62000431CF3D1F8BD0000F0B59FB006000F0009
:10E6300014000593002804D08369002B01D1FFF753
:10E6400067FD7F4B9F425CD17768BB891B0762D512
:10E650003B69002B5FD0002306AD6B6120336B76E6
:10E660001033AB760294029C2378002B5DD1029B81
:10E67000E31A04930DD0049B029A39003000FFF78F
:10E68000C0FF431C00D1CCE06A69049B94466344FC
:10E690006B612378002B00D1C3E00122002352429A
:10E6A0006A6002A95432521801342B60EB60AB60EF
:10E6B0001370AB6521780522624800F039FB631CBA
:10E6C0009C46002835D12968CB0604D5532302AADD
:10E6D00020309B1818700B0704D553232B2002AA57
:10E6E0009B18187023782A2B2CD000200A21099B14
:10E6F0002278303A092A00D86BE000282AD0099302
:10E7000028E0514B9F4201D1B7689EE74F4B9F4293
:10E710009BD1F76899E739003000FFF78BFB0028A1
:10E7200099D0012040421FB0F0BD252B9FD001346D
:10E730009AE7444B2968C01A012383400B432B609E
:10E740006446B7E7059B181D1B680590002B3ADB54
:10E750000993644623782E2B0BD16378621C2A2BF5
:10E760003FD1059B02341A1D1B680592002B35DB37
:10E77000079321780322364800F0DAFA002807D000
:10E78000334B2A68C01A4023834013432B60013463
:10E790002178631C06222F480293297600F0C8FADC
:10E7A000002844D02C4B002B2FD12968059B072231
:10E7B000C90528D59B189343083305936B69039AC1
:10E7C0009B186B614FE75B42EB6002230B432B60AE
:10E7D000BFE74B4301349B18012089E701235B42CB
:10E7E000C6E7002314000A201A006B602178303934
:10E7F000092903D9002BBCD00792BAE74243013460
:10E8000052180123F2E70733D5E705AB00933A002E
:10E81000124B2900300000E000BF0390039B01333E
:10E82000CCD1BB895B0600D57BE70B987BE705ABBA
:10E8300000933A00094B2900300000F07FF8ECE724
:10E840006C010100AC0101008C0101004C010100D0
:10E85000B2010100B60101000000000003E6000063
:10E86000F7B5150001938A680B6900900C0093427C
:10E8700000DA130022002B6043321278002A01D004
:10E8800001332B6023689B0602D52B6802332B6073
:10E89000062723681F4027D0230043331B785A1EC6
:10E8A00093412268920630D42200019943320098A5
:10E8B000089EB047431C25D0062320682A68E168DB
:10E8C00003400025042B03D18D1AEB43DB171D40B9
:10E8D000A3682269934201DD9B1AED180027BD420F
:10E8E00020D1002010E00137E3682A689B1A9F427C
:10E8F000D2DA22000123193201990098089EB0470C
:10E90000431CF0D101204042FEBD3020E1184331CC
:10E91000087021005A1C45310978A218433202338D
:10E920001170C1E7220001231A3201990098089E54
:10E93000B047431CE6D00137D1E70000F0B58BB0FB
:10E9400006920A0043320793059004920A7E0C0057
:10E95000109B6E2A00D18FE017D8632A2CD008D8DC
:10E96000002A00D199E0582A54D02600423632704D
:10E9700029E0642A01D0692AF7D121681A680806BB
:10E9800023D5111D1960156825E0732A00D188E090
:10E9900008D86F2A29D0702AE7D1202209680A43B3
:10E9A000226003E0752A20D0782ADED12200782167
:10E9B000453211706C4A30E00E001A684236111D63
:10E9C000196013683370012379E04906D9D5111D08
:10E9D00019600023D55E002D03DA2D23049A6D42C1
:10E9E0001370624B0A2703932FE02068196805060D
:10E9F00003D5081D18600D6805E04006F9D50D68BF
:10EA0000081D1860ADB2594B082703936F2A18D020
:10EA10000A2716E045310A70544A03921A682168A1
:10EA2000101D18601568080622D5CB0702D52023D3
:10EA3000194321601027002D03D1202322689A4317
:10EA400022602300002243331A706368A360002B06
:10EA50005CDB0422216891432160002D58D1049E83
:10EA6000002B64D02600039B42361B7833705EE097
:10EA70004806DAD5ADB2D8E709681A68080605D5A0
:10EA8000111D1960136862691A6006E04906F7D51E
:10EA9000111D19601368A28A1A800023049E236145
:10EAA00054E01A68111D1960166800216268300070
:10EAB00000F03EF9002801D0801B6060636823618C
:10EAC0000023049A137041E02369320006990598E7
:10EAD000079DA847431C43D0236800259B070FD4FC
:10EAE000099BE06898423DDA18003BE022000123D0
:10EAF000193206990598079EB047431C30D001355E
:10EB0000E368099A9B1A9D42F0DBE9E7002DA9D042
:10EB1000049E28003900FEF777FD039B013E5B5CF5
:10EB2000280033703900FEF7E9FC051EF1D1082FEB
:10EB300009D12368DB0706D563682269934202DCAA
:10EB40003023013E3370049B9B1B2361079B09AA62
:10EB500000932100069B0598FFF782FE431CB3D16A
:10EB6000012040420BB0F0BDCE010100BD0101000B
:10EB700070B506000D001400002804D08369002B36
:10EB800001D1FFF7C5FA124B9C4211D17468A368FA
:10EB9000013BA360002B05DAA269934212DBEBB2C2
:10EBA0000A2B0FD02368E8B25A1C22601D7070BD7A
:10EBB000084B9C4201D1B468E9E7074B9C42E6D17F
:10EBC000F468E4E7220029003000FFF7DDF8EEE703
:10EBD0006C0101008C0101004C01010070B50C00BA
:10EBE0000E25495F00F0D6F8002803DB636D1B1883
:10EBF000636570BDA389024A1340A381F9E7C0464B
:10EC0000FFEFFFFFF8B51F008B8905000C00160011
:10EC1000DB0505D50E23C95E0022022300F074F83F
:10EC2000A389054A28001340A38132000E23E15E28
:10EC30003B0000F01FF8F8BDFFEFFFFF70B50C00C0
:10EC40000E25495F00F060F8A389421C03D1054AF4
:10EC50001340A38170BD802252011343A3816065DC
:10EC6000F8E7C046FFEFFFFF10B50E23C95E00F0C6
:10EC700015F810BD70B50500080011000022064C03
:10EC800022601A00FDF752F9431C03D12368002BC0
:10EC900000D02B6070BDC0460C050020002370B56D
:10ECA000064C050008002360FDF794F9431C03D1CE
:10ECB0002368002B00D02B6070BDC0460C050020DF
:10ECC000002370B5064C0500080011002360FDF715
:10ECD0008BF9431C03D12368002B00D02B6070BD3F
:10ECE0000C050020002370B5064C050008002360C9
:10ECF000FDF788F9431C03D12368002B00D02B605B
:10ED000070BDC0460C05002070B50500080011005C
:10ED10000022064C22601A00FDF77DF9431C03D146
:10ED20002368002B00D02B6070BDC0460C0500206E
:10ED3000C9B28218904201D10020704703788B42FB
:10ED4000FBD00130F6E7F8B507000D0016000029EA
:10ED500005D11100FEF70EFE04002000F8BD002AC8
:10ED600003D1FEF7BDFD3400F7E700F027F82C00D3
:10ED70008642F2D931003800FEF7FCFD041EECD0CB
:10ED800029003200FEF788FD29003800FEF7A8FDB3
:10ED9000E3E7000070B50500080011000022064CF2
:10EDA00022601A00FDF798F8431C03D12368002B5A
:10EDB00000D02B6070BDC0460C0500200B1F1B68E7
:10EDC000181F002B01DA0B58C0187047002C0042A6
:10EDD00000300042003400421B1C1C0000080010E0
:10EDE0000020000062726F6B65722E686976656D37
:10EDF000712E636F6D00000057692D466920636FA7
:10EE00006E6E65637465640D0000000057692D46E1
:10EE10006920646973636F6E6E65637465640D0069
:10EE2000636F6E6E656374746F717569726531328C
:10EE300033000000517569726574656368000000F5
:10EE400057692D46692049502069732025752E2564
:10EE5000752E25752E25750D0A000000436F6E6E08
:10EE6000656374206661696C20746F2073657276C7
:10EE7000657228257329212072657472792069745E
:10EE8000206175746F6D61746963616C6C792E0DAE
:10EE90000A00000061746D656C2F73616D706C65A4
:10EEA0002F636861745F64656D6F2F23000000003D
:10EEB0005072657061726174696F6E206F66207444
:10EEC0006865206368617420686173206265656E9F
:10EED00020636F6D706C657465642E0D000000001A
:10EEE0004D5154542062726F6B6572206465636C7F
:10EEF000696E6520796F7572206163636573732134
:10EF0000206572726F7220636F64652025640D0A3C
:10EF10000000000061746D656C2F73616D706C652D
:10EF20002F636861745F64656D6F2F00203E3E2023
:10EF3000000000000D0000004D515454206469731E
:10EF4000636F6E6E65637465640D00004D515454BB
:10EF500020696E697469616C697A6174696F6E2089
:10EF60006661696C65642E204572726F7220636FF2
:10EF7000646520697320282564290D0A00000000BB
:10EF80004D515454207265676973746572206361D2
:10EF90006C6C6261636B206661696C65642E2045F0
:10EFA00072726F7220636F64652069732028256414
:10EFB000290D0A00456E74657220746865207573AA
:10EFC0006572206E616D6520284D61782025642072
:10EFD00063686172616374657273290D0A000000D1
:10EFE00055736572203A2025730D0A002573257329
:10EFF00000000000746F706963203A2025730D0AC9
:10F00000000000006D61696E3A206D326D5F7769B6
:10F0100066695F696E69742063616C6C20657272E9
:10F020006F7221282564290D0A0000004C65616B70
:10F030002C202564202C202564206D730D0A0000EF
:10F04000466C7573682C202564206D730D0A0000D2
:10F050004F766572666C6F77210D00002575000094
:10F0600025730D0A0000000053656E736572610020
:10F0700053656E736572613030317878787878785E
:10F080007878787878787878787878787878787800
:10F09000787878787878787878787800284150503F
:10F0A0002928455252295B25735D5B25645D00006C
:10F0B000696E76616C69646520696F636C74206346
:10F0C0006D6400006E6D5F6275735F696F63746C71
:10F0D00000000000284150502928455252295B2544
:10F0E000735D5B25645D00002848494629466169D7
:10F0F0006C20746F2077616B757020746865206375
:10F1000068697000286869662920574946495F4840
:10F110004F53545F5243565F4354524C5F31206209
:10F120007573206661696C002868696629206164CE
:10F13000647265737320627573206661696C000088
:10F14000286869662920436F72727570746564203F
:10F150007061636B65742053697A65203D20257565
:10F16000203C4C203D2025752C2047203D20257536
:10F170002C204F50203D20253032583E0A00000000
:10F18000286869662920696E76616C6964206772F7
:10F190006F75702049440000286869662920686FEF
:10F1A000737420617070206469646E2774207365C5
:10F1B0007420525820446F6E65000000286869660C
:10F1C000292057726F6E672053697A65000000002E
:10F1D00028686966292046616C736520696E7465CC
:10F1E000727275707420256C78000000286869665A
:10F1F00029204661696C20746F2052656164206922
:10F200006E7465727275707420726567000000001C
:10F210002868696629204641494C20746F2077612F
:10F220006B65757020746865206368697000000004
:10F230002848494629204661696C20746F2068611E
:10F240006E646C6520696E746572727570742025C9
:10F25000642074727920416761696E2E2E0A000065
:10F26000206869665F726563656976653A20496EF4
:10F2700076616C696420617267756D656E740000FB
:10F2800041505020526571756573746564205369EF
:10F290007A65206973206C61726765722074686199
:10F2A0006E20746865207265636976656420627596
:10F2B000666665722073697A65203C25643E3C254C
:10F2C000643E0A0041505020526571756573746543
:10F2D000642041646472657373206265796F6E6443
:10F2E000207468652072656369766564206275665E
:10F2F000666572206164647265737320616E642058
:10F300006C656E6774680000475270203F2025646A
:10F310000A000000E83F0000C03F0000B83F0000C6
:10F32000D03F0000C83F0000E83F0000D83F000089
:10F33000E03F00006869665F73656E64000000006E
:10F340006869665F697372006869665F68616E64A8
:10F350006C655F69737200006869665F72656365FA
:10F36000697665006869665F72656769737465725E
:10F370005F636200284150502928494E464F2900BA
:10F38000436F6E666C696374656420495020222067
:10F3900025752E25752E25752E25752022200A000F
:10F3A000284150502928455252295B25735D5B2521
:10F3B000645D0000524551204E6F7420646566699B
:10F3C0006E65642025640A00494E56414C4944202C
:10F3D000504F494E54455200494E56414C494420E5
:10F3E0005353494400000000494E56414C494420C3
:10F3F00043480000494E56414C494420444843503C
:10F40000205345525645522049500000494E56411E
:10F410004C4944204B455920494E44455800000072
:10F42000494E56414C4944204B45592053495A4571
:10F4300000000000494E56414C4944205745502099
:10F440004B455900494E56414C494420415554487A
:10F45000454E5449434154494F4E204D4F44450079
:10F46000494E56414C4944204E6F206F66207363CD
:10F47000616E20736C6F747321000000494E564119
:10F480004C4944207363616E20736C6F74207469FF
:10F490006D652100494E56414C4944204E6F206F06
:10F4A000662070726F626520726571756573747322
:10F4B00020706572207363616E20736C6F7400003E
:10F4C000494E56414C494420525353492074687266
:10F4D0006573686F6C64202564200A004669726D4C
:10F4E00077617265207665722020203A2025752E7E
:10F4F00025752E25750A00004D696E2064726976A7
:10F50000657220766572203A2025752E25752E2588
:10F51000750A000043757272206472697665722004
:10F520007665723A2025752E25752E25750A000000
:10F530004D69736D61746368204669726D6177729D
:10F54000652056657273696F6E0000004B65792007
:10F550006973206E6F742076616C6964000000002E
:10F56000496E76616C6964204B6579005353494458
:10F57000204C454E20494E56414C49440000000065
:10F58000434820494E56414C49440000496E76613B
:10F590006C696420576570206B657920696E6465BD
:10F5A000782025640A000000496E76616C69642049
:10F5B000576570206B6579206C656E6774682025CF
:10F5C000640A0000496E636F727265637420505361
:10F5D0004B206B6579206C656E67746800000000D5
:10F5E000756E646566696E65642073656320747901
:10F5F000706500005F50535F5345525645525F207F
:10F600006973206E6F7420646566696E65640000BE
:10F610004C697374656E206368616E6E656C2073EF
:10F62000686F756C64206F6E6C7920626520312C78
:10F630002036206F7220313100000000504F5745B6
:10F640005220534156452025640A0000494E564138
:10F650004C494420444F4D41494E204E414D4500B8
:10F6600050524E4720427566666572206578636524
:10F6700065646564206D6178696D756D2073697A64
:10F6800065202564206F72204E554C4C20427566D3
:10F690006665720A000000006D326D5F7769666909
:10F6A0005F6362006D326D5F776966695F696E697D
:10F6B000740000006D326D5F776966695F636F6E1D
:10F6C0006E6563745F73630028415050292845526A
:10F6D00052295B25735D5B25645D000042757320D4
:10F6E0006572726F72202831292E2057616B652058
:10F6F0007570206661696C65640000004275732056
:10F700006572726F72202832292E2057616B652036
:10F710007570206661696C6564000000636C6F63DE
:10F720006B73207374696C6C204F46462E205761B2
:10F730006B65207570206661696C6564000000006F
:10F740005B6E6D692073746172745D3A20666169E5
:10F750006C207265616420726567203078313131C8
:10F7600038202E2E2E0000006661696C65642074BE
:10F770006F2064652D696E697469616C697A6500D2
:10F780004572726F72207768696C65207772697450
:10F79000696E6720726567004572726F72207768C4
:10F7A000696C652072656164696E672072656700C7
:10F7B0005B70756C6C75705F6374726C5D3A20661B
:10F7C00061696C656420746F20726561640000007B
:10F7D0005B70756C6C75705F6374726C5D3A2066FB
:10F7E00061696C656420746F2077726974650000CC
:10F7F0006E6D5F636C6B6C6573735F77616B6500D7
:10F80000636869705F6465696E697400284150506F
:10F810002928455252295B25735D5B25645D0000F4
:10F820005B6E6D692073746172745D3A2066616904
:10F830006C20696E69742062757300002841505015
:10F840002928494E464F29004368697020494420C1
:10F85000256C780A000000006661696C656420749C
:10F860006F20656E61626C6520696E746572727579
:10F870007074732E2E0000005B6E6D692073746FC0
:10F88000705D3A20636869705F6465696E697420B1
:10F890006661696C000000005B6E6D692073746FB7
:10F8A000705D3A2053504920666C6173682064692A
:10F8B0007361626C65206661696C00005B6E6D69E6
:10F8C0002073746F705D3A206661696C20696E699F
:10F8D00074206275730000006E6D5F6472765F69FC
:10F8E0006E6974006E6D5F6472765F6465696E69DF
:10F8F000740000000009121B242D363F48415A5362
:10F900006C657E7719100B023D342F265158434AFF
:10F91000757C676E323B2029161F040D7A7368616F
:10F920005E574C452B2239300F061D14636A7178DF
:10F93000474E555C646D767F4049525B2C253E37BF
:10F9400008011A137D746F6659504B42353C272EBF
:10F950001118030A565F444D727B60691E170C052F
:10F960003A3328214F465D546B627970070E151C9F
:10F97000232A31384148535A656C777E09001B129F
:10F980002D243F3658514A437C756E671019020B7F
:10F99000343D262F737A6168575E454C3B322920EF
:10F9A0001F160D046A6378714E475C55222B30395F
:10F9B000060F141D252C373E0108131A6D647F763F
:10F9C00049405B523C352E2718110A03747D666F3F
:10F9D0005059424B171E050C333A21285F564D44AF
:10F9E0007B7269600E071C152A233831464F545D1F
:10F9F000626B7079284150502928455252295B2565
:10FA0000735D5B25645D00005B6E6D6920737069DA
:10FA10005D3A204661696C656420636D642077728D
:10FA20006974652C20627573206572726F722E2E58
:10FA30002E0000005B6E6D69207370695D3A204690
:10FA400061696C656420636D6420726573706F6EAC
:10FA5000736520726561642C206275732065727213
:10FA60006F722E2E2E0000005B6E6D692073706920
:10FA70005D3A204661696C6564206461746120723E
:10FA80006573706F6E736520726561642C2062759A
:10FA900073206572726F722E2E2E00005B6E6D6980
:10FAA000207370695D3A204661696C656420646109
:10FAB000746120726573706F6E7365207265616426
:10FAC0002E2E2E2825303278290A00005B6E6D69B3
:10FAD000207370695D3A204661696C6564206461D9
:10FAE000746120626C6F636B20726561642C2062AC
:10FAF0007573206572726F722E2E2E005B6E6D69AB
:10FB0000207370695D3A204661696C6564206461A8
:10FB1000746120626C6F636B206372632072656135
:10FB2000642C20627573206572726F722E2E2E0007
:10FB30005B6E6D69207370695D3A204661696C6522
:10FB400064206461746120626C6F636B20636D6418
:10FB50002077726974652C20627573206572726FEC
:10FB6000722E2E2E000000005B6E6D69207370698E
:10FB70005D3A204661696C6564206461746120624D
:10FB80006C6F636B2077726974652C2062757320CB
:10FB90006572726F722E2E2E000000005B6E6D6912
:10FBA000207370695D3A204661696C656420646108
:10FBB000746120626C6F636B20637263207772697B
:10FBC00074652C20627573206572726F722E2E2EF2
:10FBD000000000005B6E6D69207370695D3A20461D
:10FBE00061696C656420636D642C2077726974654B
:10FBF00020726567202825303878292E2E2E0A009D
:10FC00005B6E6D69207370695D3A204661696C6551
:10FC10006420636D6420726573706F6E73652C2051
:10FC200077726974652072656720282530387829D5
:10FC30002E2E2E0A000000005B6E6D692073706925
:10FC40005D3A204661696C656420636D642C2077A1
:10FC50007269746520626C6F636B20282530387878
:10FC6000292E2E2E0A0000005B6E6D6920737069CC
:10FC7000205D3A204661696C656420636D64207282
:10FC80006573706F6E73652C20777269746520627E
:10FC90006C6F636B202825303878292E2E2E0A00B1
:10FCA0005B6E6D69207370695D3A204661696C65B1
:10FCB0006420626C6F636B20646174612077726989
:10FCC00074652E2E2E0000005B6E6D6920737069C6
:10FCD0005D3A204661696C656420636D642C207216
:10FCE00065616420726567202825303878292E2EBA
:10FCF0002E0A00005B6E6D69207370695D3A2046C4
:10FD000061696C656420636D6420726573706F6EE9
:10FD100073652C2072656164207265672028253028
:10FD20003878292E2E2E0A005B6E6D69207370695B
:10FD30005D3A204661696C6564206461746120727B
:10FD40006561642E2E2E00005B6E6D6920737069F4
:10FD50005D3A204661696C656420636D642C207295
:10FD600065616420626C6F636B20282530387829C8
:10FD70002E2E2E0A000000005B6E6D6920737069E4
:10FD80005D3A204661696C656420636D642072652C
:10FD900073706F6E73652C207265616420626C6F86
:10FDA000636B202825303878292E2E2E0A0000007B
:10FDB0005B6E6D69207370695D3A204661696C65A0
:10FDC0006420626C6F636B20646174612072656192
:10FDD000642E2E2E000000005B6E6D69207370692A
:10FDE0005D3A204661696C656420696E7465726E67
:10FDF000616C20726561642070726F746F636F6CE8
:10FE0000207769746820435243206F6E2C207265FE
:10FE1000747972696E672077697468204352432051
:10FE20006F66662E2E2E00005B6E6D692073706902
:10FE30005D3A204661696C656420696E7465726E16
:10FE4000616C20726561642070726F746F636F6C97
:10FE50002E2E2E005B6E6D69207370695D3A204610
:10FE600061696C656420696E7465726E616C20777F
:10FE7000726974652070726F746F636F6C20726545
:10FE8000672E2E2E000000005B6E6D692073706976
:10FE90005D3A204661696C20636D6420726561641F
:10FEA00020636869702069642E2E2E00A45A000019
:10FEB000A45A0000345B0000F85900003E5A0000CC
:10FEC000605A0000E65A0000E65A0000A05B0000FD
:10FED000CC590000FA5B0000FA5B0000FA5B0000FE
:10FEE000FA5B0000825A00007370695F636D640002
:10FEF0007370695F636D645F727370007370695FC4
:10FF0000646174615F726561640000007370695FB1
:10FF1000646174615F777269746500007370695F12
:10FF200077726974655F7265670000006E6D5F735C
:10FF300070695F7772697465000000007370695FB3
:10FF4000726561645F726567000000006E6D5F73CB
:10FF500070695F72656164006E6D5F7370695F697F
:10FF60006E697400284150502928494E464F290097
:10FF700028455252522943757272656E74203C2591
:10FF8000643E0A00284150502928455252295B25D9
:10FF9000735D5B25645D0000534E492045786365C1
:10FFA000656473204D6178204C656E67746800004D
:10FFB000556E6B6E6F776E2053534C20536F636B8F
:10FFC0006574204F7074696F6E2025640A0000000C
:10FFD0004E6F742053534C20536F636B6574000055
:10FFE00000080042000C00420010004200140042D1
:10FFF00000180042001C0042090A0B0C0D0E000004
:020000021000EC
:100000006AA30000E2A30000E2A3000088A30000AE
:1000100082A300008EA3000070A3000094A3000040
:10002000C8A30000ACA60000FCA60000FCA60000CF
:10003000F8A600009EA60000BEA600008EA6000046
:10004000D0A60000E2A600004AA7000078A70000A2
:1000500078A7000074A7000044A7000050A7000084
:100060003EA7000056A700005CA700000020004249
:1000700000240042002800421A1A1B000001000060
:100080000002000000040000FFFFFF00FFFFFF0070
:10009000FFFF00000402020008040200010000004B
:1000A0000200000004000000080000000010000032
:1000B000002000000040000000800000000001005F
:1000C00000000200000004000000080000200042C0
:1000D00000240042002800422D2D2057494E433174
:1000E0003530302057692D4669204D5154542063D6
:1000F000686174206578616D706C65202D2D0D0A26
:100100002D2D2053414D5732355F58504C41494EAB
:1001100045445F50524F202D2D0D0A2D2D20436F49
:100120006D70696C65643A204A756E2032322032F7
:100130003031392031343A34323A3539202D2D0DD1
:10014000004D514973647000200000200000000041
:10015000000000000000000000000000000000009F
:10016000000000000000000000000000000000008F
:10017000000000000000000000000000000000007F
:10018000000000000000000000000000000000006F
:10019000000000000000000000000000000000005F
:1001A000000000000000000000000000232D302BA4
:1001B0002000686C4C006566674546470030313268
:1001C00033343536373839414243444546003031BF
:1001D000323334353637383961626364656600001E
:1001E000F8B5C046F8BC08BC9E467047DD0000006C
:1001F000F8B5C046F8BC08BC9E467047B500000084
:1002000012131400401F000008000000000100004D
:100210000F000000010000000F101100200000205E
:10022000000000006C0101008C0101004C01010084
:1002300000000000000000000000000000000000BE
:1002400000000000000000000000000000000000AE
:10025000000000000000000000000000000000009E
:10026000000000000000000000000000000000008E
:10027000000000000000000000000000000000007E
:040000030000BDD963
:00000001FF
