
WINC1500_MQTT_CHAT_EXAMPLE1.elf:     file format elf32-littlearm

Sections:
Idx Name          Size      VMA       LMA       File off  Algn
  0 .text         00009b4c  00000000  00000000  00010000  2**2
                  CONTENTS, ALLOC, LOAD, READONLY, CODE
  1 .relocate     00000078  20000000  00009b4c  00020000  2**2
                  CONTENTS, ALLOC, LOAD, DATA
  2 .bss          0000047c  20000078  00009bc4  00020078  2**2
                  ALLOC
  3 .stack        00002004  200004f4  0000a040  00020078  2**0
                  ALLOC
  4 .ARM.attributes 00000028  00000000  00000000  00020078  2**0
                  CONTENTS, READONLY
  5 .comment      000000ca  00000000  00000000  000200a0  2**0
                  CONTENTS, READONLY
  6 .debug_info   0006a0e4  00000000  00000000  0002016a  2**0
                  CONTENTS, READONLY, DEBUGGING
  7 .debug_abbrev 00009d86  00000000  00000000  0008a24e  2**0
                  CONTENTS, READONLY, DEBUGGING
  8 .debug_loc    000142d6  00000000  00000000  00093fd4  2**0
                  CONTENTS, READONLY, DEBUGGING
  9 .debug_aranges 00000ff8  00000000  00000000  000a82aa  2**0
                  CONTENTS, READONLY, DEBUGGING
 10 .debug_ranges 00001618  00000000  00000000  000a92a2  2**0
                  CONTENTS, READONLY, DEBUGGING
 11 .debug_macro  00026363  00000000  00000000  000aa8ba  2**0
                  CONTENTS, READONLY, DEBUGGING
 12 .debug_line   00023c67  00000000  00000000  000d0c1d  2**0
                  CONTENTS, READONLY, DEBUGGING
 13 .debug_str    000954eb  00000000  00000000  000f4884  2**0
                  CONTENTS, READONLY, DEBUGGING
 14 .debug_frame  000033dc  00000000  00000000  00189d70  2**2
                  CONTENTS, READONLY, DEBUGGING

Disassembly of section .text:

00000000 <exception_table>:
       0:	f8 24 00 20 09 5f 00 00 05 5f 00 00 05 5f 00 00     .$. ._..._..._..
	...
      2c:	05 5f 00 00 00 00 00 00 00 00 00 00 05 5f 00 00     ._..........._..
      3c:	05 5f 00 00 05 5f 00 00 05 5f 00 00 05 5f 00 00     ._..._..._..._..
      4c:	25 03 00 00 89 40 00 00 05 5f 00 00 05 5f 00 00     %....@..._..._..
      5c:	05 5f 00 00 05 5f 00 00 75 46 00 00 85 46 00 00     ._..._..uF...F..
      6c:	95 46 00 00 a5 46 00 00 b5 46 00 00 c5 46 00 00     .F...F...F...F..
      7c:	d5 5e 00 00 e5 5e 00 00 f5 5e 00 00 01 04 00 00     .^...^...^......
      8c:	11 04 00 00 21 04 00 00 00 00 00 00 00 00 00 00     ....!...........
      9c:	05 5f 00 00 05 5f 00 00 05 5f 00 00 05 5f 00 00     ._..._..._..._..
      ac:	05 5f 00 00 00 00 00 00                             ._......

000000b4 <__do_global_dtors_aux>:
      b4:	b510      	push	{r4, lr}
      b6:	4c06      	ldr	r4, [pc, #24]	; (d0 <__do_global_dtors_aux+0x1c>)
      b8:	7823      	ldrb	r3, [r4, #0]
      ba:	2b00      	cmp	r3, #0
      bc:	d107      	bne.n	ce <__do_global_dtors_aux+0x1a>
      be:	4b05      	ldr	r3, [pc, #20]	; (d4 <__do_global_dtors_aux+0x20>)
      c0:	2b00      	cmp	r3, #0
      c2:	d002      	beq.n	ca <__do_global_dtors_aux+0x16>
      c4:	4804      	ldr	r0, [pc, #16]	; (d8 <__do_global_dtors_aux+0x24>)
      c6:	e000      	b.n	ca <__do_global_dtors_aux+0x16>
      c8:	bf00      	nop
      ca:	2301      	movs	r3, #1
      cc:	7023      	strb	r3, [r4, #0]
      ce:	bd10      	pop	{r4, pc}
      d0:	20000078 	.word	0x20000078
      d4:	00000000 	.word	0x00000000
      d8:	00009b4c 	.word	0x00009b4c

000000dc <frame_dummy>:
      dc:	4b08      	ldr	r3, [pc, #32]	; (100 <frame_dummy+0x24>)
      de:	b510      	push	{r4, lr}
      e0:	2b00      	cmp	r3, #0
      e2:	d003      	beq.n	ec <frame_dummy+0x10>
      e4:	4907      	ldr	r1, [pc, #28]	; (104 <frame_dummy+0x28>)
      e6:	4808      	ldr	r0, [pc, #32]	; (108 <frame_dummy+0x2c>)
      e8:	e000      	b.n	ec <frame_dummy+0x10>
      ea:	bf00      	nop
      ec:	4807      	ldr	r0, [pc, #28]	; (10c <frame_dummy+0x30>)
      ee:	6803      	ldr	r3, [r0, #0]
      f0:	2b00      	cmp	r3, #0
      f2:	d100      	bne.n	f6 <frame_dummy+0x1a>
      f4:	bd10      	pop	{r4, pc}
      f6:	4b06      	ldr	r3, [pc, #24]	; (110 <frame_dummy+0x34>)
      f8:	2b00      	cmp	r3, #0
      fa:	d0fb      	beq.n	f4 <frame_dummy+0x18>
      fc:	4798      	blx	r3
      fe:	e7f9      	b.n	f4 <frame_dummy+0x18>
     100:	00000000 	.word	0x00000000
     104:	2000007c 	.word	0x2000007c
     108:	00009b4c 	.word	0x00009b4c
     10c:	00009b4c 	.word	0x00009b4c
     110:	00000000 	.word	0x00000000

00000114 <rtc_calendar_enable>:
				alarm.time.pm = 0;
				module->clock_24h = true;
				rtc_calendar_set_alarm(module, &alarm, (enum rtc_calendar_alarm)i);
				module->clock_24h = false;
			} else if (alarm.time.hour == 12) {
				alarm.time.hour = 0;
     114:	6801      	ldr	r1, [r0, #0]
     116:	2208      	movs	r2, #8
     118:	4b05      	ldr	r3, [pc, #20]	; (130 <rtc_calendar_enable+0x1c>)
     11a:	601a      	str	r2, [r3, #0]
	Rtc *const rtc_module = module->hw;
     11c:	6802      	ldr	r2, [r0, #0]
        if (rtc_module->MODE2.STATUS.reg & RTC_STATUS_SYNCBUSY) {
     11e:	7a93      	ldrb	r3, [r2, #10]
	while (rtc_calendar_is_syncing(module)) {
     120:	b25b      	sxtb	r3, r3
     122:	2b00      	cmp	r3, #0
     124:	dbfb      	blt.n	11e <rtc_calendar_enable+0xa>
	rtc_module->MODE2.CTRL.reg |= RTC_MODE2_CTRL_ENABLE;
     126:	880b      	ldrh	r3, [r1, #0]
     128:	2202      	movs	r2, #2
     12a:	4313      	orrs	r3, r2
     12c:	800b      	strh	r3, [r1, #0]
}
     12e:	4770      	bx	lr
     130:	e000e100 	.word	0xe000e100

00000134 <rtc_calendar_disable>:
{
     134:	b510      	push	{r4, lr}
	Rtc *const rtc_module = module->hw;
     136:	6802      	ldr	r2, [r0, #0]
 * \param[in] vector  Interrupt vector to disable
 */
static inline void system_interrupt_disable(
		const enum system_interrupt_vector vector)
{
	NVIC->ICER[0] = (uint32_t)(1 << ((uint32_t)vector & 0x0000001f));
     138:	2408      	movs	r4, #8
     13a:	2380      	movs	r3, #128	; 0x80
     13c:	4907      	ldr	r1, [pc, #28]	; (15c <rtc_calendar_disable+0x28>)
     13e:	50cc      	str	r4, [r1, r3]
	Rtc *const rtc_module = module->hw;
     140:	6801      	ldr	r1, [r0, #0]
        if (rtc_module->MODE2.STATUS.reg & RTC_STATUS_SYNCBUSY) {
     142:	7a8b      	ldrb	r3, [r1, #10]
	while (rtc_calendar_is_syncing(module)) {
     144:	b25b      	sxtb	r3, r3
     146:	2b00      	cmp	r3, #0
     148:	dbfb      	blt.n	142 <rtc_calendar_disable+0xe>
	rtc_module->MODE2.INTENCLR.reg = RTC_MODE2_INTENCLR_MASK;
     14a:	23c1      	movs	r3, #193	; 0xc1
     14c:	7193      	strb	r3, [r2, #6]
	rtc_module->MODE2.INTFLAG.reg = RTC_MODE2_INTFLAG_MASK;
     14e:	7213      	strb	r3, [r2, #8]
	rtc_module->MODE2.CTRL.reg &= ~RTC_MODE2_CTRL_ENABLE;
     150:	8813      	ldrh	r3, [r2, #0]
     152:	2102      	movs	r1, #2
     154:	438b      	bics	r3, r1
     156:	8013      	strh	r3, [r2, #0]
}
     158:	bd10      	pop	{r4, pc}
     15a:	46c0      	nop			; (mov r8, r8)
     15c:	e000e100 	.word	0xe000e100

00000160 <rtc_calendar_reset>:
{
     160:	b570      	push	{r4, r5, r6, lr}
     162:	0004      	movs	r4, r0
	Rtc *const rtc_module = module->hw;
     164:	6805      	ldr	r5, [r0, #0]
	rtc_calendar_disable(module);
     166:	4b07      	ldr	r3, [pc, #28]	; (184 <rtc_calendar_reset+0x24>)
     168:	4798      	blx	r3
	module->registered_callback = 0;
     16a:	2300      	movs	r3, #0
     16c:	8223      	strh	r3, [r4, #16]
	module->enabled_callback    = 0;
     16e:	8263      	strh	r3, [r4, #18]
	Rtc *const rtc_module = module->hw;
     170:	6822      	ldr	r2, [r4, #0]
        if (rtc_module->MODE2.STATUS.reg & RTC_STATUS_SYNCBUSY) {
     172:	7a93      	ldrb	r3, [r2, #10]
	while (rtc_calendar_is_syncing(module)) {
     174:	b25b      	sxtb	r3, r3
     176:	2b00      	cmp	r3, #0
     178:	dbfb      	blt.n	172 <rtc_calendar_reset+0x12>
	rtc_module->MODE2.CTRL.reg |= RTC_MODE2_CTRL_SWRST;
     17a:	882b      	ldrh	r3, [r5, #0]
     17c:	2201      	movs	r2, #1
     17e:	4313      	orrs	r3, r2
     180:	802b      	strh	r3, [r5, #0]
}
     182:	bd70      	pop	{r4, r5, r6, pc}
     184:	00000135 	.word	0x00000135

00000188 <rtc_calendar_time_to_register_value>:
{
     188:	b510      	push	{r4, lr}
	register_value = (time->year - module->year_init_value) <<
     18a:	88cb      	ldrh	r3, [r1, #6]
     18c:	88c2      	ldrh	r2, [r0, #6]
     18e:	1a9a      	subs	r2, r3, r2
     190:	0692      	lsls	r2, r2, #26
	register_value |= (time->month << RTC_MODE2_CLOCK_MONTH_Pos);
     192:	794b      	ldrb	r3, [r1, #5]
     194:	059b      	lsls	r3, r3, #22
	register_value |= (time->day << RTC_MODE2_CLOCK_DAY_Pos);
     196:	790c      	ldrb	r4, [r1, #4]
     198:	0464      	lsls	r4, r4, #17
	register_value |= (time->hour << RTC_MODE2_CLOCK_HOUR_Pos);
     19a:	4323      	orrs	r3, r4
     19c:	788c      	ldrb	r4, [r1, #2]
     19e:	0324      	lsls	r4, r4, #12
     1a0:	4323      	orrs	r3, r4
     1a2:	4313      	orrs	r3, r2
	if (!(module->clock_24h) && (time->pm)) {
     1a4:	7902      	ldrb	r2, [r0, #4]
     1a6:	2a00      	cmp	r2, #0
     1a8:	d105      	bne.n	1b6 <rtc_calendar_time_to_register_value+0x2e>
     1aa:	78ca      	ldrb	r2, [r1, #3]
     1ac:	2a00      	cmp	r2, #0
     1ae:	d002      	beq.n	1b6 <rtc_calendar_time_to_register_value+0x2e>
		register_value |= RTC_MODE2_CLOCK_HOUR_PM;
     1b0:	2280      	movs	r2, #128	; 0x80
     1b2:	0252      	lsls	r2, r2, #9
     1b4:	4313      	orrs	r3, r2
	register_value |= (time->minute << RTC_MODE2_CLOCK_MINUTE_Pos);
     1b6:	7848      	ldrb	r0, [r1, #1]
     1b8:	0180      	lsls	r0, r0, #6
	register_value |= (time->second << RTC_MODE2_CLOCK_SECOND_Pos);
     1ba:	780a      	ldrb	r2, [r1, #0]
     1bc:	4310      	orrs	r0, r2
     1be:	4318      	orrs	r0, r3
}
     1c0:	bd10      	pop	{r4, pc}

000001c2 <rtc_calendar_register_value_to_time>:
{
     1c2:	b510      	push	{r4, lr}
	time->year = ((register_value & RTC_MODE2_CLOCK_YEAR_Msk) >>
     1c4:	0e8b      	lsrs	r3, r1, #26
			RTC_MODE2_CLOCK_YEAR_Pos) + module->year_init_value;
     1c6:	88c4      	ldrh	r4, [r0, #6]
     1c8:	191b      	adds	r3, r3, r4
	time->year = ((register_value & RTC_MODE2_CLOCK_YEAR_Msk) >>
     1ca:	80d3      	strh	r3, [r2, #6]
	time->month = ((register_value & RTC_MODE2_CLOCK_MONTH_Msk) >>
     1cc:	018b      	lsls	r3, r1, #6
     1ce:	0f1b      	lsrs	r3, r3, #28
     1d0:	7153      	strb	r3, [r2, #5]
	time->day = ((register_value & RTC_MODE2_CLOCK_DAY_Msk) >>
     1d2:	028b      	lsls	r3, r1, #10
     1d4:	0edb      	lsrs	r3, r3, #27
     1d6:	7113      	strb	r3, [r2, #4]
	if (module->clock_24h) {
     1d8:	7903      	ldrb	r3, [r0, #4]
     1da:	2b00      	cmp	r3, #0
     1dc:	d10c      	bne.n	1f8 <rtc_calendar_register_value_to_time+0x36>
				(RTC_MODE2_CLOCK_HOUR_Msk & ~RTC_MODE2_CLOCK_HOUR_PM)) >>
     1de:	040b      	lsls	r3, r1, #16
     1e0:	0f1b      	lsrs	r3, r3, #28
		time->hour = ((register_value &
     1e2:	7093      	strb	r3, [r2, #2]
		time->pm = ((register_value & RTC_MODE2_CLOCK_HOUR_PM) != 0);
     1e4:	03cb      	lsls	r3, r1, #15
     1e6:	0fdb      	lsrs	r3, r3, #31
     1e8:	70d3      	strb	r3, [r2, #3]
	time->minute = ((register_value & RTC_MODE2_CLOCK_MINUTE_Msk) >>
     1ea:	0988      	lsrs	r0, r1, #6
     1ec:	233f      	movs	r3, #63	; 0x3f
     1ee:	4018      	ands	r0, r3
     1f0:	7050      	strb	r0, [r2, #1]
	time->second = ((register_value & RTC_MODE2_CLOCK_SECOND_Msk) >>
     1f2:	4019      	ands	r1, r3
     1f4:	7011      	strb	r1, [r2, #0]
}
     1f6:	bd10      	pop	{r4, pc}
		time->hour = ((register_value & RTC_MODE2_CLOCK_HOUR_Msk) >>
     1f8:	03cb      	lsls	r3, r1, #15
     1fa:	0edb      	lsrs	r3, r3, #27
     1fc:	7093      	strb	r3, [r2, #2]
     1fe:	e7f4      	b.n	1ea <rtc_calendar_register_value_to_time+0x28>

00000200 <rtc_calendar_set_time>:
 * \param[in] time  The time to set in the calendar
 */
void rtc_calendar_set_time(
		struct rtc_module *const module,
		const struct rtc_calendar_time *const time)
{
     200:	b510      	push	{r4, lr}
	/* Sanity check arguments */
	Assert(module);
	Assert(module->hw);

	Rtc *const rtc_module = module->hw;
     202:	6804      	ldr	r4, [r0, #0]

	uint32_t register_value = rtc_calendar_time_to_register_value(module, time);
     204:	4b03      	ldr	r3, [pc, #12]	; (214 <rtc_calendar_set_time+0x14>)
     206:	4798      	blx	r3
        if (rtc_module->MODE2.STATUS.reg & RTC_STATUS_SYNCBUSY) {
     208:	7aa3      	ldrb	r3, [r4, #10]

	while (rtc_calendar_is_syncing(module)) {
     20a:	b25b      	sxtb	r3, r3
     20c:	2b00      	cmp	r3, #0
     20e:	dbfb      	blt.n	208 <rtc_calendar_set_time+0x8>
		/* Wait for synchronization */
	}

	/* Write value to register. */
	rtc_module->MODE2.CLOCK.reg = register_value;
     210:	6120      	str	r0, [r4, #16]
}
     212:	bd10      	pop	{r4, pc}
     214:	00000189 	.word	0x00000189

00000218 <rtc_calendar_get_time>:
 * \param[out] time  Pointer to value that will be filled with current time
 */
void rtc_calendar_get_time(
		struct rtc_module *const module,
		struct rtc_calendar_time *const time)
{
     218:	b510      	push	{r4, lr}
     21a:	000a      	movs	r2, r1
	/* Sanity check arguments */
	Assert(module);
	Assert(module->hw);

	Rtc *const rtc_module = module->hw;
     21c:	6803      	ldr	r3, [r0, #0]

	/* Change of read method based on value of continuously_update value in
	 * the configuration structure. */
	if (!(module->continuously_update)) {
     21e:	7941      	ldrb	r1, [r0, #5]
     220:	2900      	cmp	r1, #0
     222:	d006      	beq.n	232 <rtc_calendar_get_time+0x1a>
		rtc_module->MODE2.READREQ.reg = RTC_READREQ_RREQ;

		while (rtc_calendar_is_syncing(module)) {
			/* Wait for synchronization */
		}
	} else if (!(rtc_module->MODE2.READREQ.reg & RTC_READREQ_RCONT)){
     224:	8859      	ldrh	r1, [r3, #2]
     226:	0449      	lsls	r1, r1, #17
     228:	d50b      	bpl.n	242 <rtc_calendar_get_time+0x2a>
			/* Wait for synchronization */
		}
	}

	/* Read value. */
	uint32_t register_value = rtc_module->MODE2.CLOCK.reg;
     22a:	6919      	ldr	r1, [r3, #16]

	/* Convert value to time structure. */
	rtc_calendar_register_value_to_time(module, register_value, time);
     22c:	4b0a      	ldr	r3, [pc, #40]	; (258 <rtc_calendar_get_time+0x40>)
     22e:	4798      	blx	r3
}
     230:	bd10      	pop	{r4, pc}
		rtc_module->MODE2.READREQ.reg = RTC_READREQ_RREQ;
     232:	490a      	ldr	r1, [pc, #40]	; (25c <rtc_calendar_get_time+0x44>)
     234:	8059      	strh	r1, [r3, #2]
	Rtc *const rtc_module = module->hw;
     236:	6804      	ldr	r4, [r0, #0]
        if (rtc_module->MODE2.STATUS.reg & RTC_STATUS_SYNCBUSY) {
     238:	7aa1      	ldrb	r1, [r4, #10]
		while (rtc_calendar_is_syncing(module)) {
     23a:	b249      	sxtb	r1, r1
     23c:	2900      	cmp	r1, #0
     23e:	dbfb      	blt.n	238 <rtc_calendar_get_time+0x20>
     240:	e7f3      	b.n	22a <rtc_calendar_get_time+0x12>
		rtc_module->MODE2.READREQ.reg |= RTC_READREQ_RCONT | RTC_READREQ_RREQ;
     242:	8859      	ldrh	r1, [r3, #2]
     244:	24c0      	movs	r4, #192	; 0xc0
     246:	0224      	lsls	r4, r4, #8
     248:	4321      	orrs	r1, r4
     24a:	8059      	strh	r1, [r3, #2]
	Rtc *const rtc_module = module->hw;
     24c:	6804      	ldr	r4, [r0, #0]
        if (rtc_module->MODE2.STATUS.reg & RTC_STATUS_SYNCBUSY) {
     24e:	7aa1      	ldrb	r1, [r4, #10]
		while (rtc_calendar_is_syncing(module)) {
     250:	b249      	sxtb	r1, r1
     252:	2900      	cmp	r1, #0
     254:	dbfb      	blt.n	24e <rtc_calendar_get_time+0x36>
     256:	e7e8      	b.n	22a <rtc_calendar_get_time+0x12>
     258:	000001c3 	.word	0x000001c3
     25c:	ffff8000 	.word	0xffff8000

00000260 <rtc_calendar_set_alarm>:
 */
enum status_code rtc_calendar_set_alarm(
		struct rtc_module *const module,
		const struct rtc_calendar_alarm_time *const alarm,
		const enum rtc_calendar_alarm alarm_index)
{
     260:	b570      	push	{r4, r5, r6, lr}
     262:	000d      	movs	r5, r1
     264:	0014      	movs	r4, r2

	Rtc *const rtc_module = module->hw;

	/* Sanity check. */
	if ((uint32_t)alarm_index > RTC_NUM_OF_ALARMS) {
		return STATUS_ERR_INVALID_ARG;
     266:	2317      	movs	r3, #23
	if ((uint32_t)alarm_index > RTC_NUM_OF_ALARMS) {
     268:	2a01      	cmp	r2, #1
     26a:	d901      	bls.n	270 <rtc_calendar_set_alarm+0x10>

	/* Set alarm mask */
	rtc_module->MODE2.Mode2Alarm[alarm_index].MASK.reg = alarm->mask;

	return STATUS_OK;
}
     26c:	0018      	movs	r0, r3
     26e:	bd70      	pop	{r4, r5, r6, pc}
	Rtc *const rtc_module = module->hw;
     270:	6806      	ldr	r6, [r0, #0]
	uint32_t register_value = rtc_calendar_time_to_register_value(module, &(alarm->time));
     272:	4b06      	ldr	r3, [pc, #24]	; (28c <rtc_calendar_set_alarm+0x2c>)
     274:	4798      	blx	r3
        if (rtc_module->MODE2.STATUS.reg & RTC_STATUS_SYNCBUSY) {
     276:	7ab3      	ldrb	r3, [r6, #10]
	while (rtc_calendar_is_syncing(module)) {
     278:	b25b      	sxtb	r3, r3
     27a:	2b00      	cmp	r3, #0
     27c:	dbfb      	blt.n	276 <rtc_calendar_set_alarm+0x16>
     27e:	00e4      	lsls	r4, r4, #3
     280:	1934      	adds	r4, r6, r4
	rtc_module->MODE2.Mode2Alarm[alarm_index].ALARM.reg = register_value;
     282:	61a0      	str	r0, [r4, #24]
	rtc_module->MODE2.Mode2Alarm[alarm_index].MASK.reg = alarm->mask;
     284:	7a2b      	ldrb	r3, [r5, #8]
     286:	7723      	strb	r3, [r4, #28]
	return STATUS_OK;
     288:	2300      	movs	r3, #0
     28a:	e7ef      	b.n	26c <rtc_calendar_set_alarm+0xc>
     28c:	00000189 	.word	0x00000189

00000290 <rtc_calendar_init>:
{
     290:	b530      	push	{r4, r5, lr}
     292:	b083      	sub	sp, #12
     294:	0005      	movs	r5, r0
     296:	0014      	movs	r4, r2
	module->hw = hw;
     298:	6001      	str	r1, [r0, #0]
		const enum system_clock_apb_bus bus,
		const uint32_t mask)
{
	switch (bus) {
		case SYSTEM_CLOCK_APB_APBA:
			PM->APBAMASK.reg |= mask;
     29a:	4a1c      	ldr	r2, [pc, #112]	; (30c <rtc_calendar_init+0x7c>)
     29c:	6993      	ldr	r3, [r2, #24]
     29e:	2120      	movs	r1, #32
     2a0:	430b      	orrs	r3, r1
     2a2:	6193      	str	r3, [r2, #24]
	gclk_chan_conf.source_generator = GCLK_GENERATOR_2;
     2a4:	a901      	add	r1, sp, #4
     2a6:	2302      	movs	r3, #2
     2a8:	700b      	strb	r3, [r1, #0]
	system_gclk_chan_set_config(RTC_GCLK_ID, &gclk_chan_conf);
     2aa:	2004      	movs	r0, #4
     2ac:	4b18      	ldr	r3, [pc, #96]	; (310 <rtc_calendar_init+0x80>)
     2ae:	4798      	blx	r3
	system_gclk_chan_enable(RTC_GCLK_ID);
     2b0:	2004      	movs	r0, #4
     2b2:	4b18      	ldr	r3, [pc, #96]	; (314 <rtc_calendar_init+0x84>)
     2b4:	4798      	blx	r3
	rtc_calendar_reset(module);
     2b6:	0028      	movs	r0, r5
     2b8:	4b17      	ldr	r3, [pc, #92]	; (318 <rtc_calendar_init+0x88>)
     2ba:	4798      	blx	r3
	module->clock_24h           = config->clock_24h;
     2bc:	7923      	ldrb	r3, [r4, #4]
     2be:	712b      	strb	r3, [r5, #4]
	module->continuously_update = config->continuously_update;
     2c0:	78e3      	ldrb	r3, [r4, #3]
     2c2:	716b      	strb	r3, [r5, #5]
	module->year_init_value     = config->year_init_value;
     2c4:	88e3      	ldrh	r3, [r4, #6]
     2c6:	80eb      	strh	r3, [r5, #6]
	_rtc_instance[0] = module;
     2c8:	4b14      	ldr	r3, [pc, #80]	; (31c <rtc_calendar_init+0x8c>)
     2ca:	601d      	str	r5, [r3, #0]
	Rtc *const rtc_module = module->hw;
     2cc:	682a      	ldr	r2, [r5, #0]
	tmp_reg = RTC_MODE2_CTRL_MODE(2) | config->prescaler;
     2ce:	8823      	ldrh	r3, [r4, #0]
	if (!(config->clock_24h)) {
     2d0:	7921      	ldrb	r1, [r4, #4]
     2d2:	2900      	cmp	r1, #0
     2d4:	d017      	beq.n	306 <rtc_calendar_init+0x76>
	tmp_reg = RTC_MODE2_CTRL_MODE(2) | config->prescaler;
     2d6:	2108      	movs	r1, #8
     2d8:	430b      	orrs	r3, r1
	if (config->clear_on_match) {
     2da:	78a1      	ldrb	r1, [r4, #2]
     2dc:	2900      	cmp	r1, #0
     2de:	d001      	beq.n	2e4 <rtc_calendar_init+0x54>
		tmp_reg |= RTC_MODE2_CTRL_MATCHCLR;
     2e0:	2180      	movs	r1, #128	; 0x80
     2e2:	430b      	orrs	r3, r1
	rtc_module->MODE2.CTRL.reg = tmp_reg;
     2e4:	8013      	strh	r3, [r2, #0]
	if (config->continuously_update) {
     2e6:	78e3      	ldrb	r3, [r4, #3]
     2e8:	2b00      	cmp	r3, #0
     2ea:	d004      	beq.n	2f6 <rtc_calendar_init+0x66>
		rtc_module->MODE2.READREQ.reg |= RTC_READREQ_RCONT;
     2ec:	8853      	ldrh	r3, [r2, #2]
     2ee:	2180      	movs	r1, #128	; 0x80
     2f0:	01c9      	lsls	r1, r1, #7
     2f2:	430b      	orrs	r3, r1
     2f4:	8053      	strh	r3, [r2, #2]
		rtc_calendar_set_alarm(module, &(config->alarm[i]), (enum rtc_calendar_alarm)i);
     2f6:	0021      	movs	r1, r4
     2f8:	3108      	adds	r1, #8
     2fa:	2200      	movs	r2, #0
     2fc:	0028      	movs	r0, r5
     2fe:	4b08      	ldr	r3, [pc, #32]	; (320 <rtc_calendar_init+0x90>)
     300:	4798      	blx	r3
}
     302:	b003      	add	sp, #12
     304:	bd30      	pop	{r4, r5, pc}
		tmp_reg |= RTC_MODE2_CTRL_CLKREP;
     306:	2148      	movs	r1, #72	; 0x48
     308:	430b      	orrs	r3, r1
     30a:	e7e6      	b.n	2da <rtc_calendar_init+0x4a>
     30c:	40000400 	.word	0x40000400
     310:	0000574d 	.word	0x0000574d
     314:	000056c1 	.word	0x000056c1
     318:	00000161 	.word	0x00000161
     31c:	20000304 	.word	0x20000304
     320:	00000261 	.word	0x00000261

00000324 <RTC_Handler>:
/**
 * \internal ISR handler for RTC
 */
#if (RTC_INST_NUM == 1)
void RTC_Handler(void)
{
     324:	b510      	push	{r4, lr}
	struct rtc_module *module = _rtc_instance[instance_index];
     326:	4b0f      	ldr	r3, [pc, #60]	; (364 <RTC_Handler+0x40>)
     328:	681a      	ldr	r2, [r3, #0]
	Rtc *const rtc_module = module->hw;
     32a:	6814      	ldr	r4, [r2, #0]
	uint16_t callback_mask = module->enabled_callback;
     32c:	8a51      	ldrh	r1, [r2, #18]
	callback_mask &= module->registered_callback;
     32e:	8a13      	ldrh	r3, [r2, #16]
     330:	4019      	ands	r1, r3
	uint16_t interrupt_status = rtc_module->MODE2.INTFLAG.reg;
     332:	7a20      	ldrb	r0, [r4, #8]
	interrupt_status &= rtc_module->MODE2.INTENSET.reg;
     334:	79e3      	ldrb	r3, [r4, #7]
     336:	4003      	ands	r3, r0
	if (interrupt_status & RTC_MODE2_INTFLAG_OVF) {
     338:	b258      	sxtb	r0, r3
     33a:	2800      	cmp	r0, #0
     33c:	db06      	blt.n	34c <RTC_Handler+0x28>
	} else if (interrupt_status & RTC_MODE2_INTFLAG_ALARM(1 << 0)) {
     33e:	07db      	lsls	r3, r3, #31
     340:	d503      	bpl.n	34a <RTC_Handler+0x26>
		if (callback_mask & (1 << RTC_CALENDAR_CALLBACK_ALARM_0)) {
     342:	07cb      	lsls	r3, r1, #31
     344:	d40a      	bmi.n	35c <RTC_Handler+0x38>
		rtc_module->MODE2.INTFLAG.reg = RTC_MODE2_INTFLAG_ALARM(1 << 0);
     346:	2301      	movs	r3, #1
     348:	7223      	strb	r3, [r4, #8]
	_rtc_interrupt_handler(0);
}
     34a:	bd10      	pop	{r4, pc}
		if (callback_mask & (1 << RTC_CALENDAR_CALLBACK_OVERFLOW)) {
     34c:	078b      	lsls	r3, r1, #30
     34e:	d402      	bmi.n	356 <RTC_Handler+0x32>
		rtc_module->MODE2.INTFLAG.reg = RTC_MODE2_INTFLAG_OVF;
     350:	2380      	movs	r3, #128	; 0x80
     352:	7223      	strb	r3, [r4, #8]
     354:	e7f9      	b.n	34a <RTC_Handler+0x26>
			module->callbacks[RTC_CALENDAR_CALLBACK_OVERFLOW]();
     356:	68d3      	ldr	r3, [r2, #12]
     358:	4798      	blx	r3
     35a:	e7f9      	b.n	350 <RTC_Handler+0x2c>
			module->callbacks[RTC_CALENDAR_CALLBACK_ALARM_0]();
     35c:	6893      	ldr	r3, [r2, #8]
     35e:	4798      	blx	r3
     360:	e7f1      	b.n	346 <RTC_Handler+0x22>
     362:	46c0      	nop			; (mov r8, r8)
     364:	20000304 	.word	0x20000304

00000368 <tc_register_callback>:
	/* Sanity check arguments */
	Assert(module);
	Assert(callback_func);

	/* Register callback function */
	module->callback[callback_type] = callback_func;
     368:	1c93      	adds	r3, r2, #2
     36a:	009b      	lsls	r3, r3, #2
     36c:	5019      	str	r1, [r3, r0]

	/* Set the bit corresponding to the callback_type */
	if (callback_type == TC_CALLBACK_CC_CHANNEL0) {
     36e:	2a02      	cmp	r2, #2
     370:	d009      	beq.n	386 <tc_register_callback+0x1e>
		module->register_callback_mask |= TC_INTFLAG_MC(1);
	}
	else if (callback_type == TC_CALLBACK_CC_CHANNEL1) {
     372:	2a03      	cmp	r2, #3
     374:	d00c      	beq.n	390 <tc_register_callback+0x28>
		module->register_callback_mask |= TC_INTFLAG_MC(2);
	}
	else {
		module->register_callback_mask |= (1 << callback_type);
     376:	2301      	movs	r3, #1
     378:	4093      	lsls	r3, r2
     37a:	001a      	movs	r2, r3
     37c:	7e03      	ldrb	r3, [r0, #24]
     37e:	4313      	orrs	r3, r2
     380:	7603      	strb	r3, [r0, #24]
	}
	return STATUS_OK;
}
     382:	2000      	movs	r0, #0
     384:	4770      	bx	lr
		module->register_callback_mask |= TC_INTFLAG_MC(1);
     386:	7e03      	ldrb	r3, [r0, #24]
     388:	2210      	movs	r2, #16
     38a:	4313      	orrs	r3, r2
     38c:	7603      	strb	r3, [r0, #24]
     38e:	e7f8      	b.n	382 <tc_register_callback+0x1a>
		module->register_callback_mask |= TC_INTFLAG_MC(2);
     390:	7e03      	ldrb	r3, [r0, #24]
     392:	2220      	movs	r2, #32
     394:	4313      	orrs	r3, r2
     396:	7603      	strb	r3, [r0, #24]
     398:	e7f3      	b.n	382 <tc_register_callback+0x1a>
	...

0000039c <_tc_interrupt_handler>:
 * \param[in]  instance  ID of the TC instance calling the interrupt
 *                       handler
 */
void _tc_interrupt_handler(
		uint8_t instance)
{
     39c:	b570      	push	{r4, r5, r6, lr}
	/* Temporary variable */
	uint8_t interrupt_and_callback_status_mask;

	/* Get device instance from the look-up table */
	struct tc_module *module
     39e:	0080      	lsls	r0, r0, #2
     3a0:	4b16      	ldr	r3, [pc, #88]	; (3fc <_tc_interrupt_handler+0x60>)
     3a2:	58c4      	ldr	r4, [r0, r3]
			= (struct tc_module *)_tc_instances[instance];

	/* Read and mask interrupt flag register */
	interrupt_and_callback_status_mask = module->hw->COUNT8.INTFLAG.reg &
     3a4:	6823      	ldr	r3, [r4, #0]
     3a6:	7b9d      	ldrb	r5, [r3, #14]
     3a8:	7e22      	ldrb	r2, [r4, #24]
     3aa:	7e63      	ldrb	r3, [r4, #25]
     3ac:	4013      	ands	r3, r2
     3ae:	401d      	ands	r5, r3
			module->register_callback_mask &
			module->enable_callback_mask;

	/* Check if an Overflow interrupt has occurred */
	if (interrupt_and_callback_status_mask & TC_INTFLAG_OVF) {
     3b0:	07eb      	lsls	r3, r5, #31
     3b2:	d406      	bmi.n	3c2 <_tc_interrupt_handler+0x26>
		/* Clear interrupt flag */
		module->hw->COUNT8.INTFLAG.reg = TC_INTFLAG_OVF;
	}

	/* Check if an Error interrupt has occurred */
	if (interrupt_and_callback_status_mask & TC_INTFLAG_ERR) {
     3b4:	07ab      	lsls	r3, r5, #30
     3b6:	d40b      	bmi.n	3d0 <_tc_interrupt_handler+0x34>
		/* Clear interrupt flag */
		module->hw->COUNT8.INTFLAG.reg = TC_INTFLAG_ERR;
	}

	/* Check if an Match/Capture Channel 0 interrupt has occurred */
	if (interrupt_and_callback_status_mask & TC_INTFLAG_MC(1)) {
     3b8:	06eb      	lsls	r3, r5, #27
     3ba:	d410      	bmi.n	3de <_tc_interrupt_handler+0x42>
		/* Clear interrupt flag */
		module->hw->COUNT8.INTFLAG.reg = TC_INTFLAG_MC(1);
	}

	/* Check if an Match/Capture Channel 1 interrupt has occurred */
	if (interrupt_and_callback_status_mask & TC_INTFLAG_MC(2)) {
     3bc:	06ab      	lsls	r3, r5, #26
     3be:	d415      	bmi.n	3ec <_tc_interrupt_handler+0x50>
		/* Invoke registered and enabled callback function */
		(module->callback[TC_CALLBACK_CC_CHANNEL1])(module);
		/* Clear interrupt flag */
		module->hw->COUNT8.INTFLAG.reg = TC_INTFLAG_MC(2);
	}
}
     3c0:	bd70      	pop	{r4, r5, r6, pc}
		(module->callback[TC_CALLBACK_OVERFLOW])(module);
     3c2:	0020      	movs	r0, r4
     3c4:	68a3      	ldr	r3, [r4, #8]
     3c6:	4798      	blx	r3
		module->hw->COUNT8.INTFLAG.reg = TC_INTFLAG_OVF;
     3c8:	2301      	movs	r3, #1
     3ca:	6822      	ldr	r2, [r4, #0]
     3cc:	7393      	strb	r3, [r2, #14]
     3ce:	e7f1      	b.n	3b4 <_tc_interrupt_handler+0x18>
		(module->callback[TC_CALLBACK_ERROR])(module);
     3d0:	0020      	movs	r0, r4
     3d2:	68e3      	ldr	r3, [r4, #12]
     3d4:	4798      	blx	r3
		module->hw->COUNT8.INTFLAG.reg = TC_INTFLAG_ERR;
     3d6:	2302      	movs	r3, #2
     3d8:	6822      	ldr	r2, [r4, #0]
     3da:	7393      	strb	r3, [r2, #14]
     3dc:	e7ec      	b.n	3b8 <_tc_interrupt_handler+0x1c>
		(module->callback[TC_CALLBACK_CC_CHANNEL0])(module);
     3de:	0020      	movs	r0, r4
     3e0:	6923      	ldr	r3, [r4, #16]
     3e2:	4798      	blx	r3
		module->hw->COUNT8.INTFLAG.reg = TC_INTFLAG_MC(1);
     3e4:	2310      	movs	r3, #16
     3e6:	6822      	ldr	r2, [r4, #0]
     3e8:	7393      	strb	r3, [r2, #14]
     3ea:	e7e7      	b.n	3bc <_tc_interrupt_handler+0x20>
		(module->callback[TC_CALLBACK_CC_CHANNEL1])(module);
     3ec:	0020      	movs	r0, r4
     3ee:	6963      	ldr	r3, [r4, #20]
     3f0:	4798      	blx	r3
		module->hw->COUNT8.INTFLAG.reg = TC_INTFLAG_MC(2);
     3f2:	6823      	ldr	r3, [r4, #0]
     3f4:	2220      	movs	r2, #32
     3f6:	739a      	strb	r2, [r3, #14]
}
     3f8:	e7e2      	b.n	3c0 <_tc_interrupt_handler+0x24>
     3fa:	46c0      	nop			; (mov r8, r8)
     3fc:	20000308 	.word	0x20000308

00000400 <TC3_Handler>:
	MRECURSION(TC_INST_NUM, _TC_INTERRUPT_HANDLER, TC_INST_MAX_ID)
     400:	b510      	push	{r4, lr}
     402:	2000      	movs	r0, #0
     404:	4b01      	ldr	r3, [pc, #4]	; (40c <TC3_Handler+0xc>)
     406:	4798      	blx	r3
     408:	bd10      	pop	{r4, pc}
     40a:	46c0      	nop			; (mov r8, r8)
     40c:	0000039d 	.word	0x0000039d

00000410 <TC4_Handler>:
     410:	b510      	push	{r4, lr}
     412:	2001      	movs	r0, #1
     414:	4b01      	ldr	r3, [pc, #4]	; (41c <TC4_Handler+0xc>)
     416:	4798      	blx	r3
     418:	bd10      	pop	{r4, pc}
     41a:	46c0      	nop			; (mov r8, r8)
     41c:	0000039d 	.word	0x0000039d

00000420 <TC5_Handler>:
     420:	b510      	push	{r4, lr}
     422:	2002      	movs	r0, #2
     424:	4b01      	ldr	r3, [pc, #4]	; (42c <TC5_Handler+0xc>)
     426:	4798      	blx	r3
     428:	bd10      	pop	{r4, pc}
     42a:	46c0      	nop			; (mov r8, r8)
     42c:	0000039d 	.word	0x0000039d

00000430 <_tc_get_inst_index>:
 *
 * \return Index of the given TC module instance.
 */
uint8_t _tc_get_inst_index(
		Tc *const hw)
{
     430:	b530      	push	{r4, r5, lr}
     432:	b085      	sub	sp, #20
	/* List of available TC modules. */
	Tc *const tc_modules[TC_INST_NUM] = TC_INSTS;
     434:	aa01      	add	r2, sp, #4
     436:	4b0b      	ldr	r3, [pc, #44]	; (464 <_tc_get_inst_index+0x34>)
     438:	cb32      	ldmia	r3!, {r1, r4, r5}
     43a:	c232      	stmia	r2!, {r1, r4, r5}

	/* Find index for TC instance. */
	for (uint32_t i = 0; i < TC_INST_NUM; i++) {
		if (hw == tc_modules[i]) {
     43c:	9b01      	ldr	r3, [sp, #4]
     43e:	4298      	cmp	r0, r3
     440:	d00d      	beq.n	45e <_tc_get_inst_index+0x2e>
     442:	9b02      	ldr	r3, [sp, #8]
     444:	4298      	cmp	r0, r3
     446:	d008      	beq.n	45a <_tc_get_inst_index+0x2a>
		}
	}

	/* Invalid data given. */
	Assert(false);
	return 0;
     448:	2300      	movs	r3, #0
		if (hw == tc_modules[i]) {
     44a:	9a03      	ldr	r2, [sp, #12]
     44c:	4282      	cmp	r2, r0
     44e:	d002      	beq.n	456 <_tc_get_inst_index+0x26>
}
     450:	0018      	movs	r0, r3
     452:	b005      	add	sp, #20
     454:	bd30      	pop	{r4, r5, pc}
	for (uint32_t i = 0; i < TC_INST_NUM; i++) {
     456:	3302      	adds	r3, #2
     458:	e002      	b.n	460 <_tc_get_inst_index+0x30>
     45a:	2301      	movs	r3, #1
     45c:	e000      	b.n	460 <_tc_get_inst_index+0x30>
     45e:	2300      	movs	r3, #0
			return i;
     460:	b2db      	uxtb	r3, r3
     462:	e7f5      	b.n	450 <_tc_get_inst_index+0x20>
     464:	00008a54 	.word	0x00008a54

00000468 <tc_init>:
 */
enum status_code tc_init(
		struct tc_module *const module_inst,
		Tc *const hw,
		const struct tc_config *const config)
{
     468:	b5f0      	push	{r4, r5, r6, r7, lr}
     46a:	b087      	sub	sp, #28
     46c:	0004      	movs	r4, r0
     46e:	000d      	movs	r5, r1
     470:	0016      	movs	r6, r2
	uint8_t ctrlbset_tmp = 0;
	/* Temporary variable to hold all updates to the CTRLC
	 * register before they are written to it */
	uint8_t ctrlc_tmp = 0;
	/* Temporary variable to hold TC instance number */
	uint8_t instance = _tc_get_inst_index(hw);
     472:	0008      	movs	r0, r1
     474:	4b85      	ldr	r3, [pc, #532]	; (68c <tc_init+0x224>)
     476:	4798      	blx	r3
     478:	0007      	movs	r7, r0

	/* Array of GLCK ID for different TC instances */
	uint8_t inst_gclk_id[] = TC_INST_GCLK_ID;
     47a:	ab05      	add	r3, sp, #20
     47c:	221b      	movs	r2, #27
     47e:	701a      	strb	r2, [r3, #0]
     480:	3201      	adds	r2, #1
     482:	705a      	strb	r2, [r3, #1]
     484:	709a      	strb	r2, [r3, #2]
	/* Array of PM APBC mask bit position for different TC instances */
	uint16_t inst_pm_apbmask[] = TC_INST_PM_APBCMASK;
     486:	ab03      	add	r3, sp, #12
     488:	2280      	movs	r2, #128	; 0x80
     48a:	0112      	lsls	r2, r2, #4
     48c:	801a      	strh	r2, [r3, #0]
     48e:	2280      	movs	r2, #128	; 0x80
     490:	0152      	lsls	r2, r2, #5
     492:	805a      	strh	r2, [r3, #2]
     494:	2280      	movs	r2, #128	; 0x80
     496:	0192      	lsls	r2, r2, #6
     498:	809a      	strh	r2, [r3, #4]
	struct system_gclk_chan_config gclk_chan_config;

#if TC_ASYNC == true
	/* Initialize parameters */
	for (uint8_t i = 0; i < TC_CALLBACK_N; i++) {
		module_inst->callback[i]        = NULL;
     49a:	2300      	movs	r3, #0
     49c:	60a3      	str	r3, [r4, #8]
     49e:	60e3      	str	r3, [r4, #12]
     4a0:	6123      	str	r3, [r4, #16]
     4a2:	6163      	str	r3, [r4, #20]
	}
	module_inst->register_callback_mask     = 0x00;
     4a4:	7623      	strb	r3, [r4, #24]
	module_inst->enable_callback_mask       = 0x00;
     4a6:	7663      	strb	r3, [r4, #25]

	/* Register this instance for callbacks*/
	_tc_instances[instance] = module_inst;
     4a8:	0082      	lsls	r2, r0, #2
     4aa:	4b79      	ldr	r3, [pc, #484]	; (690 <tc_init+0x228>)
     4ac:	50d4      	str	r4, [r2, r3]
#endif

	/* Associate the given device instance with the hardware module */
	module_inst->hw = hw;
     4ae:	6025      	str	r5, [r4, #0]
#else
	/* Check if odd numbered TC modules are being configured in 32-bit
	 * counter size. Only even numbered counters are allowed to be
	 * configured in 32-bit counter size.
	 */
	if ((config->counter_size == TC_COUNTER_SIZE_32BIT) &&
     4b0:	78b3      	ldrb	r3, [r6, #2]
     4b2:	2b08      	cmp	r3, #8
     4b4:	d006      	beq.n	4c4 <tc_init+0x5c>
#endif

	/* Make the counter size variable in the module_inst struct reflect
	 * the counter size in the module
	 */
	module_inst->counter_size = config->counter_size;
     4b6:	7123      	strb	r3, [r4, #4]

	if (hw->COUNT8.CTRLA.reg & TC_CTRLA_SWRST) {
     4b8:	882b      	ldrh	r3, [r5, #0]
		/* We are in the middle of a reset. Abort. */
		return STATUS_BUSY;
     4ba:	2005      	movs	r0, #5
	if (hw->COUNT8.CTRLA.reg & TC_CTRLA_SWRST) {
     4bc:	07db      	lsls	r3, r3, #31
     4be:	d505      	bpl.n	4cc <tc_init+0x64>
			return STATUS_OK;
	}

	Assert(false);
	return STATUS_ERR_INVALID_ARG;
}
     4c0:	b007      	add	sp, #28
     4c2:	bdf0      	pop	{r4, r5, r6, r7, pc}
		return STATUS_ERR_INVALID_ARG;
     4c4:	2017      	movs	r0, #23
	if ((config->counter_size == TC_COUNTER_SIZE_32BIT) &&
     4c6:	07fa      	lsls	r2, r7, #31
     4c8:	d5fa      	bpl.n	4c0 <tc_init+0x58>
     4ca:	e7f4      	b.n	4b6 <tc_init+0x4e>
	if (hw->COUNT8.STATUS.reg & TC_STATUS_SLAVE) {
     4cc:	7beb      	ldrb	r3, [r5, #15]
		return STATUS_ERR_DENIED;
     4ce:	3017      	adds	r0, #23
	if (hw->COUNT8.STATUS.reg & TC_STATUS_SLAVE) {
     4d0:	06db      	lsls	r3, r3, #27
     4d2:	d4f5      	bmi.n	4c0 <tc_init+0x58>
	if (hw->COUNT8.CTRLA.reg & TC_CTRLA_ENABLE) {
     4d4:	882b      	ldrh	r3, [r5, #0]
     4d6:	079b      	lsls	r3, r3, #30
     4d8:	d4f2      	bmi.n	4c0 <tc_init+0x58>
	if (config->pwm_channel[0].enabled) {
     4da:	7c33      	ldrb	r3, [r6, #16]
     4dc:	2b00      	cmp	r3, #0
     4de:	d179      	bne.n	5d4 <tc_init+0x16c>
	if (config->pwm_channel[1].enabled) {
     4e0:	7f33      	ldrb	r3, [r6, #28]
     4e2:	2b00      	cmp	r3, #0
     4e4:	d000      	beq.n	4e8 <tc_init+0x80>
     4e6:	e081      	b.n	5ec <tc_init+0x184>
		case SYSTEM_CLOCK_APB_APBB:
			PM->APBBMASK.reg |= mask;
			break;

		case SYSTEM_CLOCK_APB_APBC:
			PM->APBCMASK.reg |= mask;
     4e8:	496a      	ldr	r1, [pc, #424]	; (694 <tc_init+0x22c>)
     4ea:	6a08      	ldr	r0, [r1, #32]
			inst_pm_apbmask[instance]);
     4ec:	007a      	lsls	r2, r7, #1
	system_apb_clock_set_mask(SYSTEM_CLOCK_APB_APBC,
     4ee:	ab03      	add	r3, sp, #12
     4f0:	5ad3      	ldrh	r3, [r2, r3]
     4f2:	4303      	orrs	r3, r0
     4f4:	620b      	str	r3, [r1, #32]
	if ((config->counter_size == TC_COUNTER_SIZE_32BIT))
     4f6:	78b3      	ldrb	r3, [r6, #2]
     4f8:	2b08      	cmp	r3, #8
     4fa:	d100      	bne.n	4fe <tc_init+0x96>
     4fc:	e086      	b.n	60c <tc_init+0x1a4>
	gclk_chan_config.source_generator = config->clock_source;
     4fe:	a901      	add	r1, sp, #4
     500:	7833      	ldrb	r3, [r6, #0]
     502:	700b      	strb	r3, [r1, #0]
	system_gclk_chan_set_config(inst_gclk_id[instance], &gclk_chan_config);
     504:	ab05      	add	r3, sp, #20
     506:	5ddf      	ldrb	r7, [r3, r7]
     508:	0038      	movs	r0, r7
     50a:	4b63      	ldr	r3, [pc, #396]	; (698 <tc_init+0x230>)
     50c:	4798      	blx	r3
	system_gclk_chan_enable(inst_gclk_id[instance]);
     50e:	0038      	movs	r0, r7
     510:	4b62      	ldr	r3, [pc, #392]	; (69c <tc_init+0x234>)
     512:	4798      	blx	r3
	ctrla_tmp =
     514:	8931      	ldrh	r1, [r6, #8]
     516:	88b3      	ldrh	r3, [r6, #4]
     518:	430b      	orrs	r3, r1
			(uint32_t)config->wave_generation |
     51a:	78b1      	ldrb	r1, [r6, #2]
     51c:	79b2      	ldrb	r2, [r6, #6]
     51e:	4311      	orrs	r1, r2
	ctrla_tmp =
     520:	4319      	orrs	r1, r3
	if (config->run_in_standby) {
     522:	7873      	ldrb	r3, [r6, #1]
     524:	2b00      	cmp	r3, #0
     526:	d002      	beq.n	52e <tc_init+0xc6>
		ctrla_tmp |= TC_CTRLA_RUNSTDBY;
     528:	2380      	movs	r3, #128	; 0x80
     52a:	011b      	lsls	r3, r3, #4
     52c:	4319      	orrs	r1, r3
	/* Sanity check arguments */
	Assert(module_inst);
	Assert(module_inst->hw);

	/* Get a pointer to the module's hardware instance */
	TcCount8 *const tc_module = &(module_inst->hw->COUNT8);
     52e:	6822      	ldr	r2, [r4, #0]

#if (SAML21) || (SAML22) || (SAMC20) || (SAMC21) || (SAMR30)
	return (tc_module->SYNCBUSY.reg);
#else
	return (tc_module->STATUS.reg & TC_STATUS_SYNCBUSY);
     530:	7bd3      	ldrb	r3, [r2, #15]
	while (tc_is_syncing(module_inst)) {
     532:	b25b      	sxtb	r3, r3
     534:	2b00      	cmp	r3, #0
     536:	dbfb      	blt.n	530 <tc_init+0xc8>
	hw->COUNT8.CTRLA.reg = ctrla_tmp;
     538:	8029      	strh	r1, [r5, #0]
	if (config->oneshot) {
     53a:	7b71      	ldrb	r1, [r6, #13]
		ctrlbset_tmp = TC_CTRLBSET_ONESHOT;
     53c:	1e4b      	subs	r3, r1, #1
     53e:	4199      	sbcs	r1, r3
     540:	0089      	lsls	r1, r1, #2
	if (config->count_direction) {
     542:	7bb3      	ldrb	r3, [r6, #14]
     544:	2b00      	cmp	r3, #0
     546:	d001      	beq.n	54c <tc_init+0xe4>
		ctrlbset_tmp |= TC_CTRLBSET_DIR;
     548:	2301      	movs	r3, #1
     54a:	4319      	orrs	r1, r3
	TcCount8 *const tc_module = &(module_inst->hw->COUNT8);
     54c:	6822      	ldr	r2, [r4, #0]
	return (tc_module->STATUS.reg & TC_STATUS_SYNCBUSY);
     54e:	7bd3      	ldrb	r3, [r2, #15]
	while (tc_is_syncing(module_inst)) {
     550:	b25b      	sxtb	r3, r3
     552:	2b00      	cmp	r3, #0
     554:	dbfb      	blt.n	54e <tc_init+0xe6>
	hw->COUNT8.CTRLBCLR.reg = 0xFF;
     556:	23ff      	movs	r3, #255	; 0xff
     558:	712b      	strb	r3, [r5, #4]
	if (ctrlbset_tmp) {
     55a:	2900      	cmp	r1, #0
     55c:	d005      	beq.n	56a <tc_init+0x102>
	TcCount8 *const tc_module = &(module_inst->hw->COUNT8);
     55e:	6822      	ldr	r2, [r4, #0]
	return (tc_module->STATUS.reg & TC_STATUS_SYNCBUSY);
     560:	7bd3      	ldrb	r3, [r2, #15]
		while (tc_is_syncing(module_inst)) {
     562:	b25b      	sxtb	r3, r3
     564:	2b00      	cmp	r3, #0
     566:	dbfb      	blt.n	560 <tc_init+0xf8>
		hw->COUNT8.CTRLBSET.reg = ctrlbset_tmp;
     568:	7169      	strb	r1, [r5, #5]
	ctrlc_tmp = config->waveform_invert_output;
     56a:	7ab1      	ldrb	r1, [r6, #10]
		if (config->enable_capture_on_channel[i] == true) {
     56c:	7af3      	ldrb	r3, [r6, #11]
     56e:	2b00      	cmp	r3, #0
     570:	d001      	beq.n	576 <tc_init+0x10e>
			ctrlc_tmp |= (TC_CTRLC_CPTEN(1) << i);
     572:	2310      	movs	r3, #16
     574:	4319      	orrs	r1, r3
		if (config->enable_capture_on_channel[i] == true) {
     576:	7b33      	ldrb	r3, [r6, #12]
     578:	2b00      	cmp	r3, #0
     57a:	d001      	beq.n	580 <tc_init+0x118>
			ctrlc_tmp |= (TC_CTRLC_CPTEN(1) << i);
     57c:	2320      	movs	r3, #32
     57e:	4319      	orrs	r1, r3
	TcCount8 *const tc_module = &(module_inst->hw->COUNT8);
     580:	6822      	ldr	r2, [r4, #0]
	return (tc_module->STATUS.reg & TC_STATUS_SYNCBUSY);
     582:	7bd3      	ldrb	r3, [r2, #15]
	while (tc_is_syncing(module_inst)) {
     584:	b25b      	sxtb	r3, r3
     586:	2b00      	cmp	r3, #0
     588:	dbfb      	blt.n	582 <tc_init+0x11a>
	hw->COUNT8.CTRLC.reg = ctrlc_tmp;
     58a:	71a9      	strb	r1, [r5, #6]
	TcCount8 *const tc_module = &(module_inst->hw->COUNT8);
     58c:	6822      	ldr	r2, [r4, #0]
	return (tc_module->STATUS.reg & TC_STATUS_SYNCBUSY);
     58e:	7bd3      	ldrb	r3, [r2, #15]
	while (tc_is_syncing(module_inst)) {
     590:	b25b      	sxtb	r3, r3
     592:	2b00      	cmp	r3, #0
     594:	dbfb      	blt.n	58e <tc_init+0x126>
	switch (module_inst->counter_size) {
     596:	7923      	ldrb	r3, [r4, #4]
     598:	2b04      	cmp	r3, #4
     59a:	d03f      	beq.n	61c <tc_init+0x1b4>
     59c:	2b08      	cmp	r3, #8
     59e:	d05e      	beq.n	65e <tc_init+0x1f6>
	return STATUS_ERR_INVALID_ARG;
     5a0:	2017      	movs	r0, #23
	switch (module_inst->counter_size) {
     5a2:	2b00      	cmp	r3, #0
     5a4:	d000      	beq.n	5a8 <tc_init+0x140>
     5a6:	e78b      	b.n	4c0 <tc_init+0x58>
     5a8:	7bd3      	ldrb	r3, [r2, #15]
			while (tc_is_syncing(module_inst)) {
     5aa:	b25b      	sxtb	r3, r3
     5ac:	2b00      	cmp	r3, #0
     5ae:	dbfb      	blt.n	5a8 <tc_init+0x140>
				= config->counter_16_bit.value;
     5b0:	8d33      	ldrh	r3, [r6, #40]	; 0x28
     5b2:	822b      	strh	r3, [r5, #16]
	TcCount8 *const tc_module = &(module_inst->hw->COUNT8);
     5b4:	6822      	ldr	r2, [r4, #0]
	return (tc_module->STATUS.reg & TC_STATUS_SYNCBUSY);
     5b6:	7bd3      	ldrb	r3, [r2, #15]
			while (tc_is_syncing(module_inst)) {
     5b8:	b25b      	sxtb	r3, r3
     5ba:	2b00      	cmp	r3, #0
     5bc:	dbfb      	blt.n	5b6 <tc_init+0x14e>
					config->counter_16_bit.compare_capture_channel[0];
     5be:	8d73      	ldrh	r3, [r6, #42]	; 0x2a
			hw->COUNT16.CC[0].reg =
     5c0:	832b      	strh	r3, [r5, #24]
	TcCount8 *const tc_module = &(module_inst->hw->COUNT8);
     5c2:	6822      	ldr	r2, [r4, #0]
	return (tc_module->STATUS.reg & TC_STATUS_SYNCBUSY);
     5c4:	7bd3      	ldrb	r3, [r2, #15]
			while (tc_is_syncing(module_inst)) {
     5c6:	b25b      	sxtb	r3, r3
     5c8:	2b00      	cmp	r3, #0
     5ca:	dbfb      	blt.n	5c4 <tc_init+0x15c>
					config->counter_16_bit.compare_capture_channel[1];
     5cc:	8db3      	ldrh	r3, [r6, #44]	; 0x2c
			hw->COUNT16.CC[1].reg =
     5ce:	836b      	strh	r3, [r5, #26]
			return STATUS_OK;
     5d0:	2000      	movs	r0, #0
     5d2:	e775      	b.n	4c0 <tc_init+0x58>
	Assert(config);

	/* Default configuration values */
	config->mux_position = SYSTEM_PINMUX_GPIO;
	config->direction    = SYSTEM_PINMUX_PIN_DIR_INPUT;
	config->input_pull   = SYSTEM_PINMUX_PIN_PULL_UP;
     5d4:	a902      	add	r1, sp, #8
     5d6:	2301      	movs	r3, #1
     5d8:	708b      	strb	r3, [r1, #2]
	config->powersave    = false;
     5da:	2200      	movs	r2, #0
     5dc:	70ca      	strb	r2, [r1, #3]
		pin_config.mux_position = config->pwm_channel[0].pin_mux;
     5de:	7e32      	ldrb	r2, [r6, #24]
     5e0:	700a      	strb	r2, [r1, #0]
		pin_config.direction = SYSTEM_PINMUX_PIN_DIR_OUTPUT;
     5e2:	704b      	strb	r3, [r1, #1]
		system_pinmux_pin_set_config(
     5e4:	7d30      	ldrb	r0, [r6, #20]
     5e6:	4b2e      	ldr	r3, [pc, #184]	; (6a0 <tc_init+0x238>)
     5e8:	4798      	blx	r3
     5ea:	e779      	b.n	4e0 <tc_init+0x78>
	config->input_pull   = SYSTEM_PINMUX_PIN_PULL_UP;
     5ec:	a902      	add	r1, sp, #8
     5ee:	2301      	movs	r3, #1
     5f0:	708b      	strb	r3, [r1, #2]
	config->powersave    = false;
     5f2:	2200      	movs	r2, #0
     5f4:	70ca      	strb	r2, [r1, #3]
		pin_config.mux_position = config->pwm_channel[1].pin_mux;
     5f6:	3224      	adds	r2, #36	; 0x24
     5f8:	18b2      	adds	r2, r6, r2
     5fa:	7812      	ldrb	r2, [r2, #0]
     5fc:	700a      	strb	r2, [r1, #0]
		pin_config.direction = SYSTEM_PINMUX_PIN_DIR_OUTPUT;
     5fe:	704b      	strb	r3, [r1, #1]
		system_pinmux_pin_set_config(
     600:	331f      	adds	r3, #31
     602:	18f3      	adds	r3, r6, r3
     604:	7818      	ldrb	r0, [r3, #0]
     606:	4b26      	ldr	r3, [pc, #152]	; (6a0 <tc_init+0x238>)
     608:	4798      	blx	r3
     60a:	e76d      	b.n	4e8 <tc_init+0x80>
     60c:	6a08      	ldr	r0, [r1, #32]
				inst_pm_apbmask[instance + 1]);
     60e:	1c7a      	adds	r2, r7, #1
     610:	0052      	lsls	r2, r2, #1
		system_apb_clock_set_mask(SYSTEM_CLOCK_APB_APBC,
     612:	ab03      	add	r3, sp, #12
     614:	5ad3      	ldrh	r3, [r2, r3]
     616:	4303      	orrs	r3, r0
     618:	620b      	str	r3, [r1, #32]
     61a:	e770      	b.n	4fe <tc_init+0x96>
     61c:	7bd3      	ldrb	r3, [r2, #15]
			while (tc_is_syncing(module_inst)) {
     61e:	b25b      	sxtb	r3, r3
     620:	2b00      	cmp	r3, #0
     622:	dbfb      	blt.n	61c <tc_init+0x1b4>
					config->counter_8_bit.value;
     624:	2328      	movs	r3, #40	; 0x28
     626:	5cf3      	ldrb	r3, [r6, r3]
			hw->COUNT8.COUNT.reg =
     628:	742b      	strb	r3, [r5, #16]
	TcCount8 *const tc_module = &(module_inst->hw->COUNT8);
     62a:	6822      	ldr	r2, [r4, #0]
	return (tc_module->STATUS.reg & TC_STATUS_SYNCBUSY);
     62c:	7bd3      	ldrb	r3, [r2, #15]
			while (tc_is_syncing(module_inst)) {
     62e:	b25b      	sxtb	r3, r3
     630:	2b00      	cmp	r3, #0
     632:	dbfb      	blt.n	62c <tc_init+0x1c4>
					config->counter_8_bit.period;
     634:	2329      	movs	r3, #41	; 0x29
     636:	5cf3      	ldrb	r3, [r6, r3]
			hw->COUNT8.PER.reg =
     638:	752b      	strb	r3, [r5, #20]
	TcCount8 *const tc_module = &(module_inst->hw->COUNT8);
     63a:	6822      	ldr	r2, [r4, #0]
	return (tc_module->STATUS.reg & TC_STATUS_SYNCBUSY);
     63c:	7bd3      	ldrb	r3, [r2, #15]
			while (tc_is_syncing(module_inst)) {
     63e:	b25b      	sxtb	r3, r3
     640:	2b00      	cmp	r3, #0
     642:	dbfb      	blt.n	63c <tc_init+0x1d4>
					config->counter_8_bit.compare_capture_channel[0];
     644:	232a      	movs	r3, #42	; 0x2a
     646:	5cf3      	ldrb	r3, [r6, r3]
			hw->COUNT8.CC[0].reg =
     648:	762b      	strb	r3, [r5, #24]
	TcCount8 *const tc_module = &(module_inst->hw->COUNT8);
     64a:	6822      	ldr	r2, [r4, #0]
	return (tc_module->STATUS.reg & TC_STATUS_SYNCBUSY);
     64c:	7bd3      	ldrb	r3, [r2, #15]
			while (tc_is_syncing(module_inst)) {
     64e:	b25b      	sxtb	r3, r3
     650:	2b00      	cmp	r3, #0
     652:	dbfb      	blt.n	64c <tc_init+0x1e4>
					config->counter_8_bit.compare_capture_channel[1];
     654:	232b      	movs	r3, #43	; 0x2b
     656:	5cf3      	ldrb	r3, [r6, r3]
			hw->COUNT8.CC[1].reg =
     658:	766b      	strb	r3, [r5, #25]
			return STATUS_OK;
     65a:	2000      	movs	r0, #0
     65c:	e730      	b.n	4c0 <tc_init+0x58>
     65e:	7bd3      	ldrb	r3, [r2, #15]
			while (tc_is_syncing(module_inst)) {
     660:	b25b      	sxtb	r3, r3
     662:	2b00      	cmp	r3, #0
     664:	dbfb      	blt.n	65e <tc_init+0x1f6>
				= config->counter_32_bit.value;
     666:	6ab3      	ldr	r3, [r6, #40]	; 0x28
     668:	612b      	str	r3, [r5, #16]
	TcCount8 *const tc_module = &(module_inst->hw->COUNT8);
     66a:	6822      	ldr	r2, [r4, #0]
	return (tc_module->STATUS.reg & TC_STATUS_SYNCBUSY);
     66c:	7bd3      	ldrb	r3, [r2, #15]
			while (tc_is_syncing(module_inst)) {
     66e:	b25b      	sxtb	r3, r3
     670:	2b00      	cmp	r3, #0
     672:	dbfb      	blt.n	66c <tc_init+0x204>
			hw->COUNT32.CC[0].reg =
     674:	6af3      	ldr	r3, [r6, #44]	; 0x2c
     676:	61ab      	str	r3, [r5, #24]
	TcCount8 *const tc_module = &(module_inst->hw->COUNT8);
     678:	6822      	ldr	r2, [r4, #0]
	return (tc_module->STATUS.reg & TC_STATUS_SYNCBUSY);
     67a:	7bd3      	ldrb	r3, [r2, #15]
			while (tc_is_syncing(module_inst)) {
     67c:	b25b      	sxtb	r3, r3
     67e:	2b00      	cmp	r3, #0
     680:	dbfb      	blt.n	67a <tc_init+0x212>
					config->counter_32_bit.compare_capture_channel[1];
     682:	6b33      	ldr	r3, [r6, #48]	; 0x30
			hw->COUNT32.CC[1].reg =
     684:	61eb      	str	r3, [r5, #28]
			return STATUS_OK;
     686:	2000      	movs	r0, #0
     688:	e71a      	b.n	4c0 <tc_init+0x58>
     68a:	46c0      	nop			; (mov r8, r8)
     68c:	00000431 	.word	0x00000431
     690:	20000308 	.word	0x20000308
     694:	40000400 	.word	0x40000400
     698:	0000574d 	.word	0x0000574d
     69c:	000056c1 	.word	0x000056c1
     6a0:	00005845 	.word	0x00005845

000006a4 <tc_set_count_value>:
	/* Sanity check arguments */
	Assert(module_inst);
	Assert(module_inst->hw);

	/* Get a pointer to the module's hardware instance*/
	Tc *const tc_module = module_inst->hw;
     6a4:	6802      	ldr	r2, [r0, #0]
     6a6:	7bd3      	ldrb	r3, [r2, #15]

	while (tc_is_syncing(module_inst)) {
     6a8:	b25b      	sxtb	r3, r3
     6aa:	2b00      	cmp	r3, #0
     6ac:	dbfb      	blt.n	6a6 <tc_set_count_value+0x2>
		/* Wait for sync */
	}

	/* Write to based on the TC counter_size */
	switch (module_inst->counter_size) {
     6ae:	7903      	ldrb	r3, [r0, #4]
     6b0:	2b04      	cmp	r3, #4
     6b2:	d005      	beq.n	6c0 <tc_set_count_value+0x1c>
     6b4:	2b08      	cmp	r3, #8
     6b6:	d00b      	beq.n	6d0 <tc_set_count_value+0x2c>
		case TC_COUNTER_SIZE_32BIT:
			tc_module->COUNT32.COUNT.reg = (uint32_t)count;
			return STATUS_OK;

		default:
			return STATUS_ERR_INVALID_ARG;
     6b8:	2017      	movs	r0, #23
	switch (module_inst->counter_size) {
     6ba:	2b00      	cmp	r3, #0
     6bc:	d004      	beq.n	6c8 <tc_set_count_value+0x24>
	}
}
     6be:	4770      	bx	lr
			tc_module->COUNT8.COUNT.reg  = (uint8_t)count;
     6c0:	b2c9      	uxtb	r1, r1
     6c2:	7411      	strb	r1, [r2, #16]
			return STATUS_OK;
     6c4:	2000      	movs	r0, #0
     6c6:	e7fa      	b.n	6be <tc_set_count_value+0x1a>
			tc_module->COUNT16.COUNT.reg = (uint16_t)count;
     6c8:	b289      	uxth	r1, r1
     6ca:	8211      	strh	r1, [r2, #16]
			return STATUS_OK;
     6cc:	2000      	movs	r0, #0
     6ce:	e7f6      	b.n	6be <tc_set_count_value+0x1a>
			tc_module->COUNT32.COUNT.reg = (uint32_t)count;
     6d0:	6111      	str	r1, [r2, #16]
			return STATUS_OK;
     6d2:	2000      	movs	r0, #0
     6d4:	e7f3      	b.n	6be <tc_set_count_value+0x1a>
	...

000006d8 <extint_callback>:
 */
static void extint_callback(void)
{
	//update_led_state();
	//sleep_cnt++;
	water_state.run = 1;
     6d8:	2201      	movs	r2, #1
     6da:	4b03      	ldr	r3, [pc, #12]	; (6e8 <extint_callback+0x10>)
     6dc:	711a      	strb	r2, [r3, #4]
{
	PortGroup *const port_base = port_get_group_from_gpio_pin(gpio_pin);
	uint32_t pin_mask  = (1UL << (gpio_pin % 32));

	/* Toggle pin output level */
	port_base->OUTTGL.reg = pin_mask;
     6de:	2280      	movs	r2, #128	; 0x80
     6e0:	0412      	lsls	r2, r2, #16
     6e2:	4b02      	ldr	r3, [pc, #8]	; (6ec <extint_callback+0x14>)
     6e4:	61da      	str	r2, [r3, #28]
	port_pin_toggle_output_level(LED_0_PIN);
}
     6e6:	4770      	bx	lr
     6e8:	200002d8 	.word	0x200002d8
     6ec:	41004400 	.word	0x41004400

000006f0 <configure_extint>:

/** Configures the External Interrupt Controller to detect changes in the board
 *  button state.
 */
void configure_extint(void)
{
     6f0:	b510      	push	{r4, lr}
     6f2:	b084      	sub	sp, #16
	struct extint_chan_conf eint_chan_conf;
	extint_chan_get_config_defaults(&eint_chan_conf);
     6f4:	ac01      	add	r4, sp, #4
     6f6:	0020      	movs	r0, r4
     6f8:	4b0c      	ldr	r3, [pc, #48]	; (72c <configure_extint+0x3c>)
     6fa:	4798      	blx	r3

	eint_chan_conf.gpio_pin           = BUTTON_0_EIC_PIN;
     6fc:	2337      	movs	r3, #55	; 0x37
     6fe:	9301      	str	r3, [sp, #4]
	eint_chan_conf.gpio_pin_mux       = BUTTON_0_EIC_MUX;
     700:	2300      	movs	r3, #0
     702:	6063      	str	r3, [r4, #4]
	eint_chan_conf.gpio_pin_pull      = EXTINT_PULL_UP;
     704:	3301      	adds	r3, #1
     706:	7223      	strb	r3, [r4, #8]
	eint_chan_conf.detection_criteria = EXTINT_DETECT_FALLING;
     708:	2202      	movs	r2, #2
     70a:	72e2      	strb	r2, [r4, #11]
	eint_chan_conf.filter_input_signal = true;
     70c:	72a3      	strb	r3, [r4, #10]
	extint_chan_set_config(BUTTON_0_EIC_LINE, &eint_chan_conf);
     70e:	0021      	movs	r1, r4
     710:	2007      	movs	r0, #7
     712:	4b07      	ldr	r3, [pc, #28]	; (730 <configure_extint+0x40>)
     714:	4798      	blx	r3
	extint_register_callback(extint_callback,
     716:	2200      	movs	r2, #0
     718:	2107      	movs	r1, #7
     71a:	4806      	ldr	r0, [pc, #24]	; (734 <configure_extint+0x44>)
     71c:	4b06      	ldr	r3, [pc, #24]	; (738 <configure_extint+0x48>)
     71e:	4798      	blx	r3
	extint_chan_enable_callback(BUTTON_0_EIC_LINE,
     720:	2100      	movs	r1, #0
     722:	2007      	movs	r0, #7
     724:	4b05      	ldr	r3, [pc, #20]	; (73c <configure_extint+0x4c>)
     726:	4798      	blx	r3
	configure_eic_callback();
     728:	b004      	add	sp, #16
     72a:	bd10      	pop	{r4, pc}
     72c:	00004161 	.word	0x00004161
     730:	00004175 	.word	0x00004175
     734:	000006d9 	.word	0x000006d9
     738:	0000401d 	.word	0x0000401d
     73c:	00004049 	.word	0x00004049

00000740 <socket_resolve_handler>:
 *
 * \param[in] doamin_name Domain name.
 * \param[in] server_ip IP of server.
 */
static void socket_resolve_handler(uint8_t *doamin_name, uint32_t server_ip)
{
     740:	b510      	push	{r4, lr}
	mqtt_socket_resolve_handler(doamin_name, server_ip);
     742:	4b01      	ldr	r3, [pc, #4]	; (748 <socket_resolve_handler+0x8>)
     744:	4798      	blx	r3
}
     746:	bd10      	pop	{r4, pc}
     748:	000064c5 	.word	0x000064c5

0000074c <socket_event_handler>:
{
     74c:	b510      	push	{r4, lr}
	mqtt_socket_event_handler(sock, msg_type, msg_data);
     74e:	4b01      	ldr	r3, [pc, #4]	; (754 <socket_event_handler+0x8>)
     750:	4798      	blx	r3
}
     752:	bd10      	pop	{r4, pc}
     754:	00007065 	.word	0x00007065

00000758 <wifi_callback>:
{
     758:	b510      	push	{r4, lr}
     75a:	b082      	sub	sp, #8
	switch (msg_type) {
     75c:	282c      	cmp	r0, #44	; 0x2c
     75e:	d003      	beq.n	768 <wifi_callback+0x10>
     760:	2832      	cmp	r0, #50	; 0x32
     762:	d01c      	beq.n	79e <wifi_callback+0x46>
}
     764:	b002      	add	sp, #8
     766:	bd10      	pop	{r4, pc}
		if (msg_wifi_state->u8CurrState == M2M_WIFI_CONNECTED) {
     768:	780b      	ldrb	r3, [r1, #0]
     76a:	2b01      	cmp	r3, #1
     76c:	d011      	beq.n	792 <wifi_callback+0x3a>
		} else if (msg_wifi_state->u8CurrState == M2M_WIFI_DISCONNECTED) {
     76e:	2b00      	cmp	r3, #0
     770:	d1f8      	bne.n	764 <wifi_callback+0xc>
			printf("Wi-Fi disconnected\r\n");
     772:	4812      	ldr	r0, [pc, #72]	; (7bc <wifi_callback+0x64>)
     774:	4b12      	ldr	r3, [pc, #72]	; (7c0 <wifi_callback+0x68>)
     776:	4798      	blx	r3
			m2m_wifi_connect((char *)MAIN_WLAN_SSID, sizeof(MAIN_WLAN_SSID),
     778:	23ff      	movs	r3, #255	; 0xff
     77a:	9300      	str	r3, [sp, #0]
     77c:	4b11      	ldr	r3, [pc, #68]	; (7c4 <wifi_callback+0x6c>)
     77e:	2202      	movs	r2, #2
     780:	2111      	movs	r1, #17
     782:	4811      	ldr	r0, [pc, #68]	; (7c8 <wifi_callback+0x70>)
     784:	4c11      	ldr	r4, [pc, #68]	; (7cc <wifi_callback+0x74>)
     786:	47a0      	blx	r4
			mqtt_disconnect(&mqtt_inst, 1);
     788:	2101      	movs	r1, #1
     78a:	4811      	ldr	r0, [pc, #68]	; (7d0 <wifi_callback+0x78>)
     78c:	4b11      	ldr	r3, [pc, #68]	; (7d4 <wifi_callback+0x7c>)
     78e:	4798      	blx	r3
     790:	e7e8      	b.n	764 <wifi_callback+0xc>
			printf("Wi-Fi connected\r\n");
     792:	4811      	ldr	r0, [pc, #68]	; (7d8 <wifi_callback+0x80>)
     794:	4b0a      	ldr	r3, [pc, #40]	; (7c0 <wifi_callback+0x68>)
     796:	4798      	blx	r3
			m2m_wifi_request_dhcp_client();
     798:	4b10      	ldr	r3, [pc, #64]	; (7dc <wifi_callback+0x84>)
     79a:	4798      	blx	r3
     79c:	e7e2      	b.n	764 <wifi_callback+0xc>
		printf("Wi-Fi IP is %u.%u.%u.%u\r\n",
     79e:	788b      	ldrb	r3, [r1, #2]
     7a0:	784a      	ldrb	r2, [r1, #1]
     7a2:	7808      	ldrb	r0, [r1, #0]
     7a4:	78c9      	ldrb	r1, [r1, #3]
     7a6:	9100      	str	r1, [sp, #0]
     7a8:	0001      	movs	r1, r0
     7aa:	480d      	ldr	r0, [pc, #52]	; (7e0 <wifi_callback+0x88>)
     7ac:	4c0d      	ldr	r4, [pc, #52]	; (7e4 <wifi_callback+0x8c>)
     7ae:	47a0      	blx	r4
		mqtt_connect(&mqtt_inst, main_mqtt_broker);
     7b0:	490d      	ldr	r1, [pc, #52]	; (7e8 <wifi_callback+0x90>)
     7b2:	4807      	ldr	r0, [pc, #28]	; (7d0 <wifi_callback+0x78>)
     7b4:	4b0d      	ldr	r3, [pc, #52]	; (7ec <wifi_callback+0x94>)
     7b6:	4798      	blx	r3
}
     7b8:	e7d4      	b.n	764 <wifi_callback+0xc>
     7ba:	46c0      	nop			; (mov r8, r8)
     7bc:	00008c54 	.word	0x00008c54
     7c0:	000077c9 	.word	0x000077c9
     7c4:	00008c68 	.word	0x00008c68
     7c8:	00008c74 	.word	0x00008c74
     7cc:	000024d9 	.word	0x000024d9
     7d0:	20000118 	.word	0x20000118
     7d4:	00006d25 	.word	0x00006d25
     7d8:	00008c40 	.word	0x00008c40
     7dc:	000024f5 	.word	0x000024f5
     7e0:	00008c88 	.word	0x00008c88
     7e4:	000076ad 	.word	0x000076ad
     7e8:	00008a60 	.word	0x00008a60
     7ec:	00006519 	.word	0x00006519

000007f0 <mqtt_callback>:
 *  - [MQTT_CALLBACK_DISCONNECTED](@ref MQTT_CALLBACK_DISCONNECTED)
 *  - [MQTT_CALLBACK_RECV_PUBLISH](@ref MQTT_CALLBACK_RECV_PUBLISH)
 * \param[in] data A structure contains notification informations. @ref mqtt_data
 */
static void mqtt_callback(struct mqtt_module *module_inst, int type, union mqtt_data *data)
{
     7f0:	b5f0      	push	{r4, r5, r6, r7, lr}
     7f2:	b087      	sub	sp, #28
     7f4:	0005      	movs	r5, r0
     7f6:	0014      	movs	r4, r2
	switch (type) {
     7f8:	2901      	cmp	r1, #1
     7fa:	d04b      	beq.n	894 <mqtt_callback+0xa4>
     7fc:	dd2d      	ble.n	85a <mqtt_callback+0x6a>
     7fe:	2905      	cmp	r1, #5
     800:	d05a      	beq.n	8b8 <mqtt_callback+0xc8>
     802:	2906      	cmp	r1, #6
     804:	d15e      	bne.n	8c4 <mqtt_callback+0xd4>

		break;

	case MQTT_CALLBACK_RECV_PUBLISH:
		/* You received publish message which you had subscribed. */
		if (data->recv_publish.topic != NULL && data->recv_publish.msg != NULL) {
     806:	6810      	ldr	r0, [r2, #0]
     808:	2800      	cmp	r0, #0
     80a:	d05b      	beq.n	8c4 <mqtt_callback+0xd4>
     80c:	6893      	ldr	r3, [r2, #8]
     80e:	2b00      	cmp	r3, #0
     810:	d058      	beq.n	8c4 <mqtt_callback+0xd4>
			if (!strncmp(data->recv_publish.topic, MAIN_CHAT_TOPIC, strlen(MAIN_CHAT_TOPIC))) {
     812:	2217      	movs	r2, #23
     814:	492c      	ldr	r1, [pc, #176]	; (8c8 <mqtt_callback+0xd8>)
     816:	4b2d      	ldr	r3, [pc, #180]	; (8cc <mqtt_callback+0xdc>)
     818:	4798      	blx	r3
     81a:	1e05      	subs	r5, r0, #0
     81c:	d152      	bne.n	8c4 <mqtt_callback+0xd4>
				/* Print user name and message */
				for (int i = strlen(MAIN_CHAT_TOPIC); i < data->recv_publish.topic_size; i++) {
     81e:	6863      	ldr	r3, [r4, #4]
     820:	2b17      	cmp	r3, #23
     822:	dd08      	ble.n	836 <mqtt_callback+0x46>
     824:	2617      	movs	r6, #23
					printf("%c", data->recv_publish.topic[i]);
     826:	4f2a      	ldr	r7, [pc, #168]	; (8d0 <mqtt_callback+0xe0>)
     828:	6823      	ldr	r3, [r4, #0]
     82a:	5d98      	ldrb	r0, [r3, r6]
     82c:	47b8      	blx	r7
				for (int i = strlen(MAIN_CHAT_TOPIC); i < data->recv_publish.topic_size; i++) {
     82e:	3601      	adds	r6, #1
     830:	6863      	ldr	r3, [r4, #4]
     832:	42b3      	cmp	r3, r6
     834:	dcf8      	bgt.n	828 <mqtt_callback+0x38>
				}
				printf(" >> ");
     836:	4827      	ldr	r0, [pc, #156]	; (8d4 <mqtt_callback+0xe4>)
     838:	4b27      	ldr	r3, [pc, #156]	; (8d8 <mqtt_callback+0xe8>)
     83a:	4798      	blx	r3
				for (int i = 0; i < data->recv_publish.msg_size; i++) {
     83c:	68e3      	ldr	r3, [r4, #12]
     83e:	2b00      	cmp	r3, #0
     840:	dd07      	ble.n	852 <mqtt_callback+0x62>
					printf("%c", data->recv_publish.msg[i]);
     842:	4e23      	ldr	r6, [pc, #140]	; (8d0 <mqtt_callback+0xe0>)
     844:	68a3      	ldr	r3, [r4, #8]
     846:	5d58      	ldrb	r0, [r3, r5]
     848:	47b0      	blx	r6
				for (int i = 0; i < data->recv_publish.msg_size; i++) {
     84a:	3501      	adds	r5, #1
     84c:	68e3      	ldr	r3, [r4, #12]
     84e:	42ab      	cmp	r3, r5
     850:	dcf8      	bgt.n	844 <mqtt_callback+0x54>
				}
				printf("\r\n");
     852:	4822      	ldr	r0, [pc, #136]	; (8dc <mqtt_callback+0xec>)
     854:	4b22      	ldr	r3, [pc, #136]	; (8e0 <mqtt_callback+0xf0>)
     856:	4798      	blx	r3
     858:	e034      	b.n	8c4 <mqtt_callback+0xd4>
	switch (type) {
     85a:	2900      	cmp	r1, #0
     85c:	d132      	bne.n	8c4 <mqtt_callback+0xd4>
		if (data->sock_connected.result >= 0) {
     85e:	6813      	ldr	r3, [r2, #0]
     860:	2b00      	cmp	r3, #0
     862:	db0d      	blt.n	880 <mqtt_callback+0x90>
			mqtt_connect_broker(module_inst, 1, NULL, NULL, mqtt_user, NULL, NULL, 0, 0, 0);
     864:	2300      	movs	r3, #0
     866:	9305      	str	r3, [sp, #20]
     868:	9304      	str	r3, [sp, #16]
     86a:	9303      	str	r3, [sp, #12]
     86c:	9302      	str	r3, [sp, #8]
     86e:	9301      	str	r3, [sp, #4]
     870:	4b1c      	ldr	r3, [pc, #112]	; (8e4 <mqtt_callback+0xf4>)
     872:	9300      	str	r3, [sp, #0]
     874:	2300      	movs	r3, #0
     876:	2200      	movs	r2, #0
     878:	2101      	movs	r1, #1
     87a:	4c1b      	ldr	r4, [pc, #108]	; (8e8 <mqtt_callback+0xf8>)
     87c:	47a0      	blx	r4
     87e:	e021      	b.n	8c4 <mqtt_callback+0xd4>
			printf("Connect fail to server(%s)! retry it automatically.\r\n", main_mqtt_broker);
     880:	4c1a      	ldr	r4, [pc, #104]	; (8ec <mqtt_callback+0xfc>)
     882:	0021      	movs	r1, r4
     884:	481a      	ldr	r0, [pc, #104]	; (8f0 <mqtt_callback+0x100>)
     886:	4b14      	ldr	r3, [pc, #80]	; (8d8 <mqtt_callback+0xe8>)
     888:	4798      	blx	r3
			mqtt_connect(module_inst, main_mqtt_broker); /* Retry that. */
     88a:	0021      	movs	r1, r4
     88c:	0028      	movs	r0, r5
     88e:	4b19      	ldr	r3, [pc, #100]	; (8f4 <mqtt_callback+0x104>)
     890:	4798      	blx	r3
     892:	e017      	b.n	8c4 <mqtt_callback+0xd4>
		if (data->connected.result == MQTT_CONN_RESULT_ACCEPT) {
     894:	7811      	ldrb	r1, [r2, #0]
     896:	2900      	cmp	r1, #0
     898:	d10a      	bne.n	8b0 <mqtt_callback+0xc0>
			mqtt_subscribe(module_inst, MAIN_CHAT_TOPIC "#", 0);
     89a:	2200      	movs	r2, #0
     89c:	4916      	ldr	r1, [pc, #88]	; (8f8 <mqtt_callback+0x108>)
     89e:	4b17      	ldr	r3, [pc, #92]	; (8fc <mqtt_callback+0x10c>)
     8a0:	4798      	blx	r3
			mqtt_connected = 1; //wt
     8a2:	2201      	movs	r2, #1
     8a4:	4b16      	ldr	r3, [pc, #88]	; (900 <mqtt_callback+0x110>)
     8a6:	701a      	strb	r2, [r3, #0]
			printf("Preparation of the chat has been completed.\r\n");
     8a8:	4816      	ldr	r0, [pc, #88]	; (904 <mqtt_callback+0x114>)
     8aa:	4b0d      	ldr	r3, [pc, #52]	; (8e0 <mqtt_callback+0xf0>)
     8ac:	4798      	blx	r3
     8ae:	e009      	b.n	8c4 <mqtt_callback+0xd4>
			printf("MQTT broker decline your access! error code %d\r\n", data->connected.result);
     8b0:	4815      	ldr	r0, [pc, #84]	; (908 <mqtt_callback+0x118>)
     8b2:	4b09      	ldr	r3, [pc, #36]	; (8d8 <mqtt_callback+0xe8>)
     8b4:	4798      	blx	r3
     8b6:	e005      	b.n	8c4 <mqtt_callback+0xd4>

		break;

	case MQTT_CALLBACK_DISCONNECTED:
		/* Stop timer and USART callback. */
		mqtt_connected = 0; //wt
     8b8:	2200      	movs	r2, #0
     8ba:	4b11      	ldr	r3, [pc, #68]	; (900 <mqtt_callback+0x110>)
     8bc:	701a      	strb	r2, [r3, #0]
		printf("MQTT disconnected\r\n");
     8be:	4813      	ldr	r0, [pc, #76]	; (90c <mqtt_callback+0x11c>)
     8c0:	4b07      	ldr	r3, [pc, #28]	; (8e0 <mqtt_callback+0xf0>)
     8c2:	4798      	blx	r3
		//wt usart_disable_callback(&cdc_uart_module, USART_CALLBACK_BUFFER_RECEIVED);
		break;
	}
}
     8c4:	b007      	add	sp, #28
     8c6:	bdf0      	pop	{r4, r5, r6, r7, pc}
     8c8:	00008b28 	.word	0x00008b28
     8cc:	000079e3 	.word	0x000079e3
     8d0:	000076e1 	.word	0x000076e1
     8d4:	00008b40 	.word	0x00008b40
     8d8:	000076ad 	.word	0x000076ad
     8dc:	00008b48 	.word	0x00008b48
     8e0:	000077c9 	.word	0x000077c9
     8e4:	2000018c 	.word	0x2000018c
     8e8:	0000662d 	.word	0x0000662d
     8ec:	00008a60 	.word	0x00008a60
     8f0:	00008a70 	.word	0x00008a70
     8f4:	00006519 	.word	0x00006519
     8f8:	00008aa8 	.word	0x00008aa8
     8fc:	00006a85 	.word	0x00006a85
     900:	20000114 	.word	0x20000114
     904:	00008ac4 	.word	0x00008ac4
     908:	00008af4 	.word	0x00008af4
     90c:	00008b4c 	.word	0x00008b4c

00000910 <u_mqtt_init>:
		while (1) {
		}
	}
}

void u_mqtt_init(void) {
     910:	b530      	push	{r4, r5, lr}
     912:	b09f      	sub	sp, #124	; 0x7c
	sw_timer_get_config_defaults(&swt_conf);
     914:	ac02      	add	r4, sp, #8
     916:	0020      	movs	r0, r4
     918:	4b2f      	ldr	r3, [pc, #188]	; (9d8 <u_mqtt_init+0xc8>)
     91a:	4798      	blx	r3
	sw_timer_init(&swt_module_inst, &swt_conf);
     91c:	4d2f      	ldr	r5, [pc, #188]	; (9dc <u_mqtt_init+0xcc>)
     91e:	0021      	movs	r1, r4
     920:	0028      	movs	r0, r5
     922:	4b2f      	ldr	r3, [pc, #188]	; (9e0 <u_mqtt_init+0xd0>)
     924:	4798      	blx	r3
	sw_timer_enable(&swt_module_inst);
     926:	0028      	movs	r0, r5
     928:	4b2e      	ldr	r3, [pc, #184]	; (9e4 <u_mqtt_init+0xd4>)
     92a:	4798      	blx	r3
	mqtt_get_config_defaults(&mqtt_conf);
     92c:	0020      	movs	r0, r4
     92e:	4b2e      	ldr	r3, [pc, #184]	; (9e8 <u_mqtt_init+0xd8>)
     930:	4798      	blx	r3
	mqtt_conf.port = 1883; //wt
     932:	4b2e      	ldr	r3, [pc, #184]	; (9ec <u_mqtt_init+0xdc>)
     934:	8023      	strh	r3, [r4, #0]
	mqtt_conf.timer_inst = &swt_module_inst;
     936:	6065      	str	r5, [r4, #4]
	mqtt_conf.recv_buffer = mqtt_buffer;
     938:	4b2d      	ldr	r3, [pc, #180]	; (9f0 <u_mqtt_init+0xe0>)
     93a:	60e3      	str	r3, [r4, #12]
	mqtt_conf.recv_buffer_size = MAIN_MQTT_BUFFER_SIZE;
     93c:	2380      	movs	r3, #128	; 0x80
     93e:	6123      	str	r3, [r4, #16]
	result = mqtt_init(&mqtt_inst, &mqtt_conf);
     940:	0021      	movs	r1, r4
     942:	482c      	ldr	r0, [pc, #176]	; (9f4 <u_mqtt_init+0xe4>)
     944:	4b2c      	ldr	r3, [pc, #176]	; (9f8 <u_mqtt_init+0xe8>)
     946:	4798      	blx	r3
     948:	1e01      	subs	r1, r0, #0
	if (result < 0) {
     94a:	db2c      	blt.n	9a6 <u_mqtt_init+0x96>
	result = mqtt_register_callback(&mqtt_inst, mqtt_callback);
     94c:	492b      	ldr	r1, [pc, #172]	; (9fc <u_mqtt_init+0xec>)
     94e:	4829      	ldr	r0, [pc, #164]	; (9f4 <u_mqtt_init+0xe4>)
     950:	4b2b      	ldr	r3, [pc, #172]	; (a00 <u_mqtt_init+0xf0>)
     952:	4798      	blx	r3
     954:	1e01      	subs	r1, r0, #0
	if (result < 0) {
     956:	db2a      	blt.n	9ae <u_mqtt_init+0x9e>
	configure_timer();
	
	configure_mqtt();
	
	/* Initialize the BSP. */
	nm_bsp_init();
     958:	4b2a      	ldr	r3, [pc, #168]	; (a04 <u_mqtt_init+0xf4>)
     95a:	4798      	blx	r3

	/* Setup user name first */
	printf("Enter the user name (Max %d characters)\r\n", MAIN_CHAT_USER_NAME_SIZE);
     95c:	2140      	movs	r1, #64	; 0x40
     95e:	482a      	ldr	r0, [pc, #168]	; (a08 <u_mqtt_init+0xf8>)
     960:	4d2a      	ldr	r5, [pc, #168]	; (a0c <u_mqtt_init+0xfc>)
     962:	47a8      	blx	r5
	//scanf("%64s", mqtt_user);
	mqtt_user[0] = 'T';
     964:	4c2a      	ldr	r4, [pc, #168]	; (a10 <u_mqtt_init+0x100>)
     966:	2354      	movs	r3, #84	; 0x54
     968:	7023      	strb	r3, [r4, #0]
	mqtt_user[1] = 'W';
     96a:	3303      	adds	r3, #3
     96c:	7063      	strb	r3, [r4, #1]
	printf("User : %s\r\n", mqtt_user);
     96e:	0021      	movs	r1, r4
     970:	4828      	ldr	r0, [pc, #160]	; (a14 <u_mqtt_init+0x104>)
     972:	47a8      	blx	r5
	sprintf(topic, "%s%s", MAIN_CHAT_TOPIC, mqtt_user);
     974:	0023      	movs	r3, r4
     976:	4a28      	ldr	r2, [pc, #160]	; (a18 <u_mqtt_init+0x108>)
     978:	4928      	ldr	r1, [pc, #160]	; (a1c <u_mqtt_init+0x10c>)
     97a:	a802      	add	r0, sp, #8
     97c:	4c28      	ldr	r4, [pc, #160]	; (a20 <u_mqtt_init+0x110>)
     97e:	47a0      	blx	r4
	printf("topic : %s\r\n", topic);
     980:	a902      	add	r1, sp, #8
     982:	4828      	ldr	r0, [pc, #160]	; (a24 <u_mqtt_init+0x114>)
     984:	47a8      	blx	r5
	
	/* Initialize Wi-Fi parameters structure. */
	memset((uint8_t *)&param, 0, sizeof(tstrWifiInitParam));
     986:	2218      	movs	r2, #24
     988:	2100      	movs	r1, #0
     98a:	a818      	add	r0, sp, #96	; 0x60
     98c:	4b26      	ldr	r3, [pc, #152]	; (a28 <u_mqtt_init+0x118>)
     98e:	4798      	blx	r3

	/* Initialize Wi-Fi driver with data and status callbacks. */
	param.pfAppWifiCb = wifi_callback; /* Set Wi-Fi event callback. */
     990:	4b26      	ldr	r3, [pc, #152]	; (a2c <u_mqtt_init+0x11c>)
     992:	9318      	str	r3, [sp, #96]	; 0x60
	ret = m2m_wifi_init(&param);
     994:	a818      	add	r0, sp, #96	; 0x60
     996:	4b26      	ldr	r3, [pc, #152]	; (a30 <u_mqtt_init+0x120>)
     998:	4798      	blx	r3
     99a:	1e01      	subs	r1, r0, #0
	if (M2M_SUCCESS != ret) {
     99c:	d00b      	beq.n	9b6 <u_mqtt_init+0xa6>
		printf("main: m2m_wifi_init call error!(%d)\r\n", ret);
     99e:	4825      	ldr	r0, [pc, #148]	; (a34 <u_mqtt_init+0x124>)
     9a0:	4b1a      	ldr	r3, [pc, #104]	; (a0c <u_mqtt_init+0xfc>)
     9a2:	4798      	blx	r3
     9a4:	e7fe      	b.n	9a4 <u_mqtt_init+0x94>
		printf("MQTT initialization failed. Error code is (%d)\r\n", result);
     9a6:	4824      	ldr	r0, [pc, #144]	; (a38 <u_mqtt_init+0x128>)
     9a8:	4b18      	ldr	r3, [pc, #96]	; (a0c <u_mqtt_init+0xfc>)
     9aa:	4798      	blx	r3
     9ac:	e7fe      	b.n	9ac <u_mqtt_init+0x9c>
		printf("MQTT register callback failed. Error code is (%d)\r\n", result);
     9ae:	4823      	ldr	r0, [pc, #140]	; (a3c <u_mqtt_init+0x12c>)
     9b0:	4b16      	ldr	r3, [pc, #88]	; (a0c <u_mqtt_init+0xfc>)
     9b2:	4798      	blx	r3
     9b4:	e7fe      	b.n	9b4 <u_mqtt_init+0xa4>
		while (1) { /* Loop forever. */
		}
	}

	/* Initialize socket interface. */
	socketInit();
     9b6:	4b22      	ldr	r3, [pc, #136]	; (a40 <u_mqtt_init+0x130>)
     9b8:	4798      	blx	r3
	registerSocketCallback(socket_event_handler, socket_resolve_handler);
     9ba:	4922      	ldr	r1, [pc, #136]	; (a44 <u_mqtt_init+0x134>)
     9bc:	4822      	ldr	r0, [pc, #136]	; (a48 <u_mqtt_init+0x138>)
     9be:	4b23      	ldr	r3, [pc, #140]	; (a4c <u_mqtt_init+0x13c>)
     9c0:	4798      	blx	r3

	/* Connect to router. */
	m2m_wifi_connect((char *)MAIN_WLAN_SSID, sizeof(MAIN_WLAN_SSID),
     9c2:	23ff      	movs	r3, #255	; 0xff
     9c4:	9300      	str	r3, [sp, #0]
     9c6:	4b22      	ldr	r3, [pc, #136]	; (a50 <u_mqtt_init+0x140>)
     9c8:	2202      	movs	r2, #2
     9ca:	2111      	movs	r1, #17
     9cc:	4821      	ldr	r0, [pc, #132]	; (a54 <u_mqtt_init+0x144>)
     9ce:	4c22      	ldr	r4, [pc, #136]	; (a58 <u_mqtt_init+0x148>)
     9d0:	47a0      	blx	r4
	MAIN_WLAN_AUTH, (char *)MAIN_WLAN_PSK, M2M_WIFI_CH_ALL);
}
     9d2:	b01f      	add	sp, #124	; 0x7c
     9d4:	bd30      	pop	{r4, r5, pc}
     9d6:	46c0      	nop			; (mov r8, r8)
     9d8:	0000615d 	.word	0x0000615d
     9dc:	20000314 	.word	0x20000314
     9e0:	00006169 	.word	0x00006169
     9e4:	00006215 	.word	0x00006215
     9e8:	00006405 	.word	0x00006405
     9ec:	0000075b 	.word	0x0000075b
     9f0:	20000094 	.word	0x20000094
     9f4:	20000118 	.word	0x20000118
     9f8:	00006429 	.word	0x00006429
     9fc:	000007f1 	.word	0x000007f1
     a00:	000064b5 	.word	0x000064b5
     a04:	000012bd 	.word	0x000012bd
     a08:	00008bc8 	.word	0x00008bc8
     a0c:	000076ad 	.word	0x000076ad
     a10:	2000018c 	.word	0x2000018c
     a14:	00008bf4 	.word	0x00008bf4
     a18:	00008b28 	.word	0x00008b28
     a1c:	00008c00 	.word	0x00008c00
     a20:	0000796d 	.word	0x0000796d
     a24:	00008c08 	.word	0x00008c08
     a28:	0000754b 	.word	0x0000754b
     a2c:	00000759 	.word	0x00000759
     a30:	00002149 	.word	0x00002149
     a34:	00008c18 	.word	0x00008c18
     a38:	00008b60 	.word	0x00008b60
     a3c:	00008b94 	.word	0x00008b94
     a40:	00003a75 	.word	0x00003a75
     a44:	00000741 	.word	0x00000741
     a48:	0000074d 	.word	0x0000074d
     a4c:	00003ab9 	.word	0x00003ab9
     a50:	00008c68 	.word	0x00008c68
     a54:	00008c74 	.word	0x00008c74
     a58:	000024d9 	.word	0x000024d9

00000a5c <u_sw_timer_task>:

void u_sw_timer_task(void) {
     a5c:	b510      	push	{r4, lr}
	sw_timer_task(&swt_module_inst);
     a5e:	4802      	ldr	r0, [pc, #8]	; (a68 <u_sw_timer_task+0xc>)
     a60:	4b02      	ldr	r3, [pc, #8]	; (a6c <u_sw_timer_task+0x10>)
     a62:	4798      	blx	r3
}
     a64:	bd10      	pop	{r4, pc}
     a66:	46c0      	nop			; (mov r8, r8)
     a68:	20000314 	.word	0x20000314
     a6c:	0000629d 	.word	0x0000629d

00000a70 <u_publish>:

void u_m2m_wifi_handle_events(void) {
	m2m_wifi_handle_events(NULL);
}

void u_publish(char *topic, char *data, uint8_t data_len) {
     a70:	b510      	push	{r4, lr}
     a72:	b082      	sub	sp, #8
	//char buffer[5] = "hello";
	//char topic[2] = "TW";
	//char topic[strlen(MAIN_CHAT_TOPIC) + MAIN_CHAT_USER_NAME_SIZE + 1];
	if (mqtt_connected) {
     a74:	4c08      	ldr	r4, [pc, #32]	; (a98 <u_publish+0x28>)
     a76:	7824      	ldrb	r4, [r4, #0]
     a78:	2c00      	cmp	r4, #0
     a7a:	d101      	bne.n	a80 <u_publish+0x10>
		mqtt_publish(&mqtt_inst, topic, data, data_len, 2, 0); // Qos changed to 2 N
	}
     a7c:	b002      	add	sp, #8
     a7e:	bd10      	pop	{r4, pc}
		mqtt_publish(&mqtt_inst, topic, data, data_len, 2, 0); // Qos changed to 2 N
     a80:	2300      	movs	r3, #0
     a82:	9301      	str	r3, [sp, #4]
     a84:	3302      	adds	r3, #2
     a86:	9300      	str	r3, [sp, #0]
     a88:	0013      	movs	r3, r2
     a8a:	000a      	movs	r2, r1
     a8c:	0001      	movs	r1, r0
     a8e:	4803      	ldr	r0, [pc, #12]	; (a9c <u_publish+0x2c>)
     a90:	4c03      	ldr	r4, [pc, #12]	; (aa0 <u_publish+0x30>)
     a92:	47a0      	blx	r4
     a94:	e7f2      	b.n	a7c <u_publish+0xc>
     a96:	46c0      	nop			; (mov r8, r8)
     a98:	20000114 	.word	0x20000114
     a9c:	20000118 	.word	0x20000118
     aa0:	000068dd 	.word	0x000068dd

00000aa4 <pulse_width_parse>:
Function: Pulse width parse
Parameter: None
Return: bool, 0x0: Flush, 1: Leak, 2: Overflow, 3: periodically upload
*/
/************************************************************************/
void pulse_width_parse(void){
     aa4:	b510      	push	{r4, lr}
	if(water_state.report){
     aa6:	4b26      	ldr	r3, [pc, #152]	; (b40 <pulse_width_parse+0x9c>)
     aa8:	78db      	ldrb	r3, [r3, #3]
     aaa:	2b00      	cmp	r3, #0
     aac:	d11c      	bne.n	ae8 <pulse_width_parse+0x44>
		water_state.flush = 2;
		water_state.report = 0;
		return;
	}
	
	if (!water_state.send) return;
     aae:	4b24      	ldr	r3, [pc, #144]	; (b40 <pulse_width_parse+0x9c>)
     ab0:	781b      	ldrb	r3, [r3, #0]
     ab2:	2b00      	cmp	r3, #0
     ab4:	d01e      	beq.n	af4 <pulse_width_parse+0x50>
	
	if(pulse.width < 150){ //noise
     ab6:	4b23      	ldr	r3, [pc, #140]	; (b44 <pulse_width_parse+0xa0>)
     ab8:	891b      	ldrh	r3, [r3, #8]
     aba:	b29b      	uxth	r3, r3
     abc:	2b95      	cmp	r3, #149	; 0x95
     abe:	d91a      	bls.n	af6 <pulse_width_parse+0x52>
		water_state.noise = 1;
	}
	else if(pulse.width <= 10000){ //leakage time less than 10 seconds
     ac0:	4b20      	ldr	r3, [pc, #128]	; (b44 <pulse_width_parse+0xa0>)
     ac2:	891b      	ldrh	r3, [r3, #8]
     ac4:	b29b      	uxth	r3, r3
     ac6:	4a20      	ldr	r2, [pc, #128]	; (b48 <pulse_width_parse+0xa4>)
     ac8:	4293      	cmp	r3, r2
     aca:	d918      	bls.n	afe <pulse_width_parse+0x5a>
		water_state.flush = 0;
		pulse.total_leak +=1;
		printf("Leak, %d ms\r\n", pulse.width);
		//return 0;
	}
	else if(pulse.width < 30000) { //less than 0.5 minutes
     acc:	4b1d      	ldr	r3, [pc, #116]	; (b44 <pulse_width_parse+0xa0>)
     ace:	891b      	ldrh	r3, [r3, #8]
     ad0:	b29b      	uxth	r3, r3
     ad2:	4a1e      	ldr	r2, [pc, #120]	; (b4c <pulse_width_parse+0xa8>)
     ad4:	4293      	cmp	r3, r2
     ad6:	d922      	bls.n	b1e <pulse_width_parse+0x7a>
		pulse.total_flush +=1;
		printf("Flush, %d ms\r\n", pulse.width);
		//return 1;
	}
	else{
		water_state.leak = 1;
     ad8:	4b19      	ldr	r3, [pc, #100]	; (b40 <pulse_width_parse+0x9c>)
     ada:	2201      	movs	r2, #1
     adc:	709a      	strb	r2, [r3, #2]
		water_state.flush = 1;
     ade:	705a      	strb	r2, [r3, #1]
		printf("Overflow!\r\n");
     ae0:	481b      	ldr	r0, [pc, #108]	; (b50 <pulse_width_parse+0xac>)
     ae2:	4b1c      	ldr	r3, [pc, #112]	; (b54 <pulse_width_parse+0xb0>)
     ae4:	4798      	blx	r3
     ae6:	e005      	b.n	af4 <pulse_width_parse+0x50>
		water_state.leak = 2;
     ae8:	4b15      	ldr	r3, [pc, #84]	; (b40 <pulse_width_parse+0x9c>)
     aea:	2202      	movs	r2, #2
     aec:	709a      	strb	r2, [r3, #2]
		water_state.flush = 2;
     aee:	705a      	strb	r2, [r3, #1]
		water_state.report = 0;
     af0:	2200      	movs	r2, #0
     af2:	70da      	strb	r2, [r3, #3]
		//return 2;
	}
}
     af4:	bd10      	pop	{r4, pc}
		water_state.noise = 1;
     af6:	2201      	movs	r2, #1
     af8:	4b11      	ldr	r3, [pc, #68]	; (b40 <pulse_width_parse+0x9c>)
     afa:	715a      	strb	r2, [r3, #5]
     afc:	e7fa      	b.n	af4 <pulse_width_parse+0x50>
		water_state.leak = 1;
     afe:	4b10      	ldr	r3, [pc, #64]	; (b40 <pulse_width_parse+0x9c>)
     b00:	2201      	movs	r2, #1
     b02:	709a      	strb	r2, [r3, #2]
		water_state.flush = 0;
     b04:	2200      	movs	r2, #0
     b06:	705a      	strb	r2, [r3, #1]
		pulse.total_leak +=1;
     b08:	4a0e      	ldr	r2, [pc, #56]	; (b44 <pulse_width_parse+0xa0>)
     b0a:	8953      	ldrh	r3, [r2, #10]
     b0c:	3301      	adds	r3, #1
     b0e:	b29b      	uxth	r3, r3
     b10:	8153      	strh	r3, [r2, #10]
		printf("Leak, %d ms\r\n", pulse.width);
     b12:	8911      	ldrh	r1, [r2, #8]
     b14:	b289      	uxth	r1, r1
     b16:	4810      	ldr	r0, [pc, #64]	; (b58 <pulse_width_parse+0xb4>)
     b18:	4b10      	ldr	r3, [pc, #64]	; (b5c <pulse_width_parse+0xb8>)
     b1a:	4798      	blx	r3
     b1c:	e7ea      	b.n	af4 <pulse_width_parse+0x50>
		water_state.leak = 0;
     b1e:	4b08      	ldr	r3, [pc, #32]	; (b40 <pulse_width_parse+0x9c>)
     b20:	2200      	movs	r2, #0
     b22:	709a      	strb	r2, [r3, #2]
		water_state.flush = 1;
     b24:	3201      	adds	r2, #1
     b26:	705a      	strb	r2, [r3, #1]
		pulse.total_flush +=1;
     b28:	4a06      	ldr	r2, [pc, #24]	; (b44 <pulse_width_parse+0xa0>)
     b2a:	8993      	ldrh	r3, [r2, #12]
     b2c:	3301      	adds	r3, #1
     b2e:	b29b      	uxth	r3, r3
     b30:	8193      	strh	r3, [r2, #12]
		printf("Flush, %d ms\r\n", pulse.width);
     b32:	8911      	ldrh	r1, [r2, #8]
     b34:	b289      	uxth	r1, r1
     b36:	480a      	ldr	r0, [pc, #40]	; (b60 <pulse_width_parse+0xbc>)
     b38:	4b08      	ldr	r3, [pc, #32]	; (b5c <pulse_width_parse+0xb8>)
     b3a:	4798      	blx	r3
     b3c:	e7da      	b.n	af4 <pulse_width_parse+0x50>
     b3e:	46c0      	nop			; (mov r8, r8)
     b40:	200002d8 	.word	0x200002d8
     b44:	200002c8 	.word	0x200002c8
     b48:	00002710 	.word	0x00002710
     b4c:	0000752f 	.word	0x0000752f
     b50:	00008d00 	.word	0x00008d00
     b54:	000077c9 	.word	0x000077c9
     b58:	00008ce0 	.word	0x00008ce0
     b5c:	000076ad 	.word	0x000076ad
     b60:	00008cf0 	.word	0x00008cf0

00000b64 <shift_right>:

void shift_right(uint8_t arr[], uint8_t start, uint8_t end){ //circular shift, e.g. 41xx -> xx41
     b64:	b5f0      	push	{r4, r5, r6, r7, lr}
     b66:	46c6      	mov	lr, r8
     b68:	b500      	push	{lr}
	uint8_t k = 0;
	for(k = start; k <= end; k++){ //get first 'x' position
     b6a:	4291      	cmp	r1, r2
     b6c:	d825      	bhi.n	bba <shift_right+0x56>
		if(arr[k] == 'x') break;
     b6e:	5c43      	ldrb	r3, [r0, r1]
     b70:	2b78      	cmp	r3, #120	; 0x78
     b72:	d024      	beq.n	bbe <shift_right+0x5a>
     b74:	000b      	movs	r3, r1
	for(k = start; k <= end; k++){ //get first 'x' position
     b76:	3301      	adds	r3, #1
     b78:	b2db      	uxtb	r3, r3
     b7a:	429a      	cmp	r2, r3
     b7c:	d302      	bcc.n	b84 <shift_right+0x20>
		if(arr[k] == 'x') break;
     b7e:	5cc4      	ldrb	r4, [r0, r3]
     b80:	2c78      	cmp	r4, #120	; 0x78
     b82:	d1f8      	bne.n	b76 <shift_right+0x12>
	}
	for(uint8_t j = 0; j <= end - k; j++){ //shift 'end - k' = number of 'x' times
     b84:	1ad6      	subs	r6, r2, r3
     b86:	d415      	bmi.n	bb4 <shift_right+0x50>
     b88:	2700      	movs	r7, #0
		uint8_t temp = arr[end];
		for(uint8_t i = end-1; i >= start; i--){
     b8a:	1e53      	subs	r3, r2, #1
     b8c:	b2db      	uxtb	r3, r3
     b8e:	469c      	mov	ip, r3
		uint8_t temp = arr[end];
     b90:	5c83      	ldrb	r3, [r0, r2]
     b92:	4698      	mov	r8, r3
		for(uint8_t i = end-1; i >= start; i--){
     b94:	4663      	mov	r3, ip
     b96:	4561      	cmp	r1, ip
     b98:	d806      	bhi.n	ba8 <shift_right+0x44>
			arr[i+1] = arr[i];
     b9a:	5cc5      	ldrb	r5, [r0, r3]
     b9c:	18c4      	adds	r4, r0, r3
     b9e:	7065      	strb	r5, [r4, #1]
		for(uint8_t i = end-1; i >= start; i--){
     ba0:	3b01      	subs	r3, #1
     ba2:	b2db      	uxtb	r3, r3
     ba4:	4299      	cmp	r1, r3
     ba6:	d9f8      	bls.n	b9a <shift_right+0x36>
		}
		arr[start] = temp;
     ba8:	4643      	mov	r3, r8
     baa:	5443      	strb	r3, [r0, r1]
	for(uint8_t j = 0; j <= end - k; j++){ //shift 'end - k' = number of 'x' times
     bac:	3701      	adds	r7, #1
     bae:	b2ff      	uxtb	r7, r7
     bb0:	42b7      	cmp	r7, r6
     bb2:	dded      	ble.n	b90 <shift_right+0x2c>
	}
}
     bb4:	bc04      	pop	{r2}
     bb6:	4690      	mov	r8, r2
     bb8:	bdf0      	pop	{r4, r5, r6, r7, pc}
	for(k = start; k <= end; k++){ //get first 'x' position
     bba:	000b      	movs	r3, r1
     bbc:	e7e2      	b.n	b84 <shift_right+0x20>
     bbe:	000b      	movs	r3, r1
     bc0:	e7e0      	b.n	b84 <shift_right+0x20>
	...

00000bc4 <pulse_width_package>:
Parameter: None
Return: None
*/
/************************************************************************/

void pulse_width_package(void){
     bc4:	b570      	push	{r4, r5, r6, lr}
     bc6:	b090      	sub	sp, #64	; 0x40
	struct rtc_calendar_time time;
	//! [rtc_module_instance]
	//struct rtc_module rtc_instance;
	char topic[7] = "Sensera";
     bc8:	aa0c      	add	r2, sp, #48	; 0x30
     bca:	4b63      	ldr	r3, [pc, #396]	; (d58 <pulse_width_package+0x194>)
     bcc:	6819      	ldr	r1, [r3, #0]
     bce:	910c      	str	r1, [sp, #48]	; 0x30
     bd0:	8899      	ldrh	r1, [r3, #4]
     bd2:	8091      	strh	r1, [r2, #4]
     bd4:	799b      	ldrb	r3, [r3, #6]
     bd6:	7193      	strb	r3, [r2, #6]
	uint8_t temp[44] = "Sensera001xxxxxxxxxxxxxxxxxxxxxxxxxxxxxxxxx";
     bd8:	a901      	add	r1, sp, #4
     bda:	4b60      	ldr	r3, [pc, #384]	; (d5c <pulse_width_package+0x198>)
     bdc:	000a      	movs	r2, r1
     bde:	cb13      	ldmia	r3!, {r0, r1, r4}
     be0:	c213      	stmia	r2!, {r0, r1, r4}
     be2:	cb13      	ldmia	r3!, {r0, r1, r4}
     be4:	c213      	stmia	r2!, {r0, r1, r4}
     be6:	cb13      	ldmia	r3!, {r0, r1, r4}
     be8:	c213      	stmia	r2!, {r0, r1, r4}
     bea:	cb03      	ldmia	r3!, {r0, r1}
     bec:	c203      	stmia	r2!, {r0, r1}
	uint8_t flush_flg_addr = 28;
	uint8_t leak_flg_addr = 29;
	uint8_t flush_time_addr = 30;
	uint8_t leak_time_addr = 38;
	
	pulse.package_ID++;
     bee:	4c5c      	ldr	r4, [pc, #368]	; (d60 <pulse_width_package+0x19c>)
     bf0:	89e3      	ldrh	r3, [r4, #14]
     bf2:	3301      	adds	r3, #1
     bf4:	b29b      	uxth	r3, r3
     bf6:	81e3      	strh	r3, [r4, #14]
	//rtc_calendar_get_time(&rtc_instance, &time);
	time = get_time();
     bf8:	ae0e      	add	r6, sp, #56	; 0x38
     bfa:	0030      	movs	r0, r6
     bfc:	4b59      	ldr	r3, [pc, #356]	; (d64 <pulse_width_package+0x1a0>)
     bfe:	4798      	blx	r3
	sprintf(&temp[package_id_addr], "%u", pulse.package_ID);
     c00:	89e2      	ldrh	r2, [r4, #14]
     c02:	b292      	uxth	r2, r2
     c04:	4d58      	ldr	r5, [pc, #352]	; (d68 <pulse_width_package+0x1a4>)
     c06:	0029      	movs	r1, r5
     c08:	200e      	movs	r0, #14
     c0a:	4468      	add	r0, sp
     c0c:	4c57      	ldr	r4, [pc, #348]	; (d6c <pulse_width_package+0x1a8>)
     c0e:	47a0      	blx	r4
	sprintf(&temp[timestamp_addr], "%u", time.second);
     c10:	7832      	ldrb	r2, [r6, #0]
     c12:	0029      	movs	r1, r5
     c14:	2012      	movs	r0, #18
     c16:	4468      	add	r0, sp
     c18:	47a0      	blx	r4
	sprintf(&temp[timestamp_addr+2], "%u", time.minute);
     c1a:	7872      	ldrb	r2, [r6, #1]
     c1c:	0029      	movs	r1, r5
     c1e:	a805      	add	r0, sp, #20
     c20:	47a0      	blx	r4
	sprintf(&temp[timestamp_addr+4], "%u", time.hour);
     c22:	78b2      	ldrb	r2, [r6, #2]
     c24:	0029      	movs	r1, r5
     c26:	2016      	movs	r0, #22
     c28:	4468      	add	r0, sp
     c2a:	47a0      	blx	r4
	sprintf(&temp[timestamp_addr+6], "%u", time.day);
     c2c:	7932      	ldrb	r2, [r6, #4]
     c2e:	0029      	movs	r1, r5
     c30:	a806      	add	r0, sp, #24
     c32:	47a0      	blx	r4
	sprintf(&temp[timestamp_addr+8], "%u", time.month);
     c34:	7972      	ldrb	r2, [r6, #5]
     c36:	0029      	movs	r1, r5
     c38:	201a      	movs	r0, #26
     c3a:	4468      	add	r0, sp
     c3c:	47a0      	blx	r4
	sprintf(&temp[timestamp_addr+10], "%u", time.year);
     c3e:	88f2      	ldrh	r2, [r6, #6]
     c40:	0029      	movs	r1, r5
     c42:	a807      	add	r0, sp, #28
     c44:	47a0      	blx	r4
	sprintf(&temp[flush_flg_addr], "%u", water_state.flush);
     c46:	4e4a      	ldr	r6, [pc, #296]	; (d70 <pulse_width_package+0x1ac>)
     c48:	7872      	ldrb	r2, [r6, #1]
     c4a:	b2d2      	uxtb	r2, r2
     c4c:	0029      	movs	r1, r5
     c4e:	a808      	add	r0, sp, #32
     c50:	47a0      	blx	r4
	sprintf(&temp[leak_flg_addr], "%u", water_state.leak);
     c52:	78b2      	ldrb	r2, [r6, #2]
     c54:	b2d2      	uxtb	r2, r2
     c56:	0029      	movs	r1, r5
     c58:	2021      	movs	r0, #33	; 0x21
     c5a:	4468      	add	r0, sp
     c5c:	47a0      	blx	r4
	if(water_state.flush==2 && water_state.leak==2){ //periodical report
     c5e:	7873      	ldrb	r3, [r6, #1]
     c60:	2b02      	cmp	r3, #2
     c62:	d019      	beq.n	c98 <pulse_width_package+0xd4>
		sprintf(&temp[leak_time_addr], "%u", pulse.total_leak);
		pulse.total_flush = 0;
		pulse.total_leak = 0;
	}
	else{
		sprintf(&temp[flush_time_addr], "%u", pulse.width/1000);
     c64:	4c3e      	ldr	r4, [pc, #248]	; (d60 <pulse_width_package+0x19c>)
     c66:	8920      	ldrh	r0, [r4, #8]
     c68:	b280      	uxth	r0, r0
     c6a:	21fa      	movs	r1, #250	; 0xfa
     c6c:	0089      	lsls	r1, r1, #2
     c6e:	4b41      	ldr	r3, [pc, #260]	; (d74 <pulse_width_package+0x1b0>)
     c70:	4798      	blx	r3
     c72:	b282      	uxth	r2, r0
     c74:	4d3c      	ldr	r5, [pc, #240]	; (d68 <pulse_width_package+0x1a4>)
     c76:	0029      	movs	r1, r5
     c78:	2022      	movs	r0, #34	; 0x22
     c7a:	4468      	add	r0, sp
     c7c:	4e3b      	ldr	r6, [pc, #236]	; (d6c <pulse_width_package+0x1a8>)
     c7e:	47b0      	blx	r6
		if(pulse.width < 99999) sprintf(&temp[leak_time_addr], "%u", pulse.width); //can only display 5 digits
     c80:	8923      	ldrh	r3, [r4, #8]
     c82:	8922      	ldrh	r2, [r4, #8]
     c84:	b292      	uxth	r2, r2
     c86:	0029      	movs	r1, r5
     c88:	202a      	movs	r0, #42	; 0x2a
     c8a:	4468      	add	r0, sp
     c8c:	47b0      	blx	r6
     c8e:	ad01      	add	r5, sp, #4
     c90:	aa0c      	add	r2, sp, #48	; 0x30
void pulse_width_package(void){
     c92:	002c      	movs	r4, r5
	
	
	
	for(uint8_t i = 0; i < 44; i++){//used to replace space added by sprintf
		if(temp[i] == '\0'){
			temp[i] = 'x';
     c94:	2178      	movs	r1, #120	; 0x78
     c96:	e019      	b.n	ccc <pulse_width_package+0x108>
	if(water_state.flush==2 && water_state.leak==2){ //periodical report
     c98:	4b35      	ldr	r3, [pc, #212]	; (d70 <pulse_width_package+0x1ac>)
     c9a:	789b      	ldrb	r3, [r3, #2]
     c9c:	2b02      	cmp	r3, #2
     c9e:	d1e1      	bne.n	c64 <pulse_width_package+0xa0>
		sprintf(&temp[flush_time_addr], "%u", pulse.total_flush);
     ca0:	4c2f      	ldr	r4, [pc, #188]	; (d60 <pulse_width_package+0x19c>)
     ca2:	89a2      	ldrh	r2, [r4, #12]
     ca4:	b292      	uxth	r2, r2
     ca6:	4d30      	ldr	r5, [pc, #192]	; (d68 <pulse_width_package+0x1a4>)
     ca8:	0029      	movs	r1, r5
     caa:	2022      	movs	r0, #34	; 0x22
     cac:	4468      	add	r0, sp
     cae:	4e2f      	ldr	r6, [pc, #188]	; (d6c <pulse_width_package+0x1a8>)
     cb0:	47b0      	blx	r6
		sprintf(&temp[leak_time_addr], "%u", pulse.total_leak);
     cb2:	8962      	ldrh	r2, [r4, #10]
     cb4:	b292      	uxth	r2, r2
     cb6:	0029      	movs	r1, r5
     cb8:	202a      	movs	r0, #42	; 0x2a
     cba:	4468      	add	r0, sp
     cbc:	47b0      	blx	r6
		pulse.total_flush = 0;
     cbe:	2300      	movs	r3, #0
     cc0:	81a3      	strh	r3, [r4, #12]
		pulse.total_leak = 0;
     cc2:	8163      	strh	r3, [r4, #10]
     cc4:	e7e3      	b.n	c8e <pulse_width_package+0xca>
     cc6:	3401      	adds	r4, #1
	for(uint8_t i = 0; i < 44; i++){//used to replace space added by sprintf
     cc8:	4294      	cmp	r4, r2
     cca:	d004      	beq.n	cd6 <pulse_width_package+0x112>
		if(temp[i] == '\0'){
     ccc:	7823      	ldrb	r3, [r4, #0]
     cce:	2b00      	cmp	r3, #0
     cd0:	d1f9      	bne.n	cc6 <pulse_width_package+0x102>
			temp[i] = 'x';
     cd2:	7021      	strb	r1, [r4, #0]
     cd4:	e7f7      	b.n	cc6 <pulse_width_package+0x102>
		}
	}
	shift_right(temp, package_id_addr, package_id_addr+3);
     cd6:	220d      	movs	r2, #13
     cd8:	210a      	movs	r1, #10
     cda:	a801      	add	r0, sp, #4
     cdc:	4e26      	ldr	r6, [pc, #152]	; (d78 <pulse_width_package+0x1b4>)
     cde:	47b0      	blx	r6
	shift_right(temp, timestamp_addr, timestamp_addr+1);
     ce0:	220f      	movs	r2, #15
     ce2:	210e      	movs	r1, #14
     ce4:	a801      	add	r0, sp, #4
     ce6:	47b0      	blx	r6
	shift_right(temp, timestamp_addr+2, timestamp_addr+3);
     ce8:	2211      	movs	r2, #17
     cea:	2110      	movs	r1, #16
     cec:	a801      	add	r0, sp, #4
     cee:	47b0      	blx	r6
	shift_right(temp, timestamp_addr+4, timestamp_addr+5);
     cf0:	2213      	movs	r2, #19
     cf2:	2112      	movs	r1, #18
     cf4:	a801      	add	r0, sp, #4
     cf6:	47b0      	blx	r6
	shift_right(temp, timestamp_addr+6, timestamp_addr+7);
     cf8:	2215      	movs	r2, #21
     cfa:	2114      	movs	r1, #20
     cfc:	a801      	add	r0, sp, #4
     cfe:	47b0      	blx	r6
	shift_right(temp, timestamp_addr+8, timestamp_addr+9);
     d00:	2217      	movs	r2, #23
     d02:	2116      	movs	r1, #22
     d04:	a801      	add	r0, sp, #4
     d06:	47b0      	blx	r6
	shift_right(temp, timestamp_addr+10, timestamp_addr+13);
     d08:	221b      	movs	r2, #27
     d0a:	2118      	movs	r1, #24
     d0c:	a801      	add	r0, sp, #4
     d0e:	47b0      	blx	r6
	shift_right(temp, flush_time_addr, flush_time_addr+7);
     d10:	2225      	movs	r2, #37	; 0x25
     d12:	211e      	movs	r1, #30
     d14:	a801      	add	r0, sp, #4
     d16:	47b0      	blx	r6
	shift_right(temp, leak_time_addr, leak_time_addr+4);
     d18:	222a      	movs	r2, #42	; 0x2a
     d1a:	2126      	movs	r1, #38	; 0x26
     d1c:	a801      	add	r0, sp, #4
     d1e:	47b0      	blx	r6
	
	for(uint8_t i = 0; i < 44; i++){//
		if(temp[i] == 'x'){
			temp[i] = '0';
     d20:	2230      	movs	r2, #48	; 0x30
     d22:	e002      	b.n	d2a <pulse_width_package+0x166>
     d24:	3501      	adds	r5, #1
	for(uint8_t i = 0; i < 44; i++){//
     d26:	42a5      	cmp	r5, r4
     d28:	d004      	beq.n	d34 <pulse_width_package+0x170>
		if(temp[i] == 'x'){
     d2a:	782b      	ldrb	r3, [r5, #0]
     d2c:	2b78      	cmp	r3, #120	; 0x78
     d2e:	d1f9      	bne.n	d24 <pulse_width_package+0x160>
			temp[i] = '0';
     d30:	702a      	strb	r2, [r5, #0]
     d32:	e7f7      	b.n	d24 <pulse_width_package+0x160>
		}
	}
	temp[43] = '\0'; //stop print here
     d34:	ac01      	add	r4, sp, #4
     d36:	2200      	movs	r2, #0
     d38:	232b      	movs	r3, #43	; 0x2b
     d3a:	54e2      	strb	r2, [r4, r3]
	
	//printf("hour = %d, minute = %d, second = %d\r\n", time.hour, time.minute, time.second);
	printf("%s", temp);
     d3c:	0021      	movs	r1, r4
     d3e:	480f      	ldr	r0, [pc, #60]	; (d7c <pulse_width_package+0x1b8>)
     d40:	4b0f      	ldr	r3, [pc, #60]	; (d80 <pulse_width_package+0x1bc>)
     d42:	4798      	blx	r3
	//if(!water_state.noise)	sendto(tx_socket, &temp, sizeof(temp)-1, 0, (struct sockaddr *)&addr, sizeof(addr));
	//return water_state.noise;
	
	//char topic[strlen(MAIN_CHAT_TOPIC) + MAIN_CHAT_USER_NAME_SIZE + 1];
	u_publish(topic, temp, strlen(temp));
     d44:	0020      	movs	r0, r4
     d46:	4b0f      	ldr	r3, [pc, #60]	; (d84 <pulse_width_package+0x1c0>)
     d48:	4798      	blx	r3
     d4a:	b2c2      	uxtb	r2, r0
     d4c:	0021      	movs	r1, r4
     d4e:	a80c      	add	r0, sp, #48	; 0x30
     d50:	4b0d      	ldr	r3, [pc, #52]	; (d88 <pulse_width_package+0x1c4>)
     d52:	4798      	blx	r3
}
     d54:	b010      	add	sp, #64	; 0x40
     d56:	bd70      	pop	{r4, r5, r6, pc}
     d58:	00008ca4 	.word	0x00008ca4
     d5c:	00008cb4 	.word	0x00008cb4
     d60:	200002c8 	.word	0x200002c8
     d64:	00000e79 	.word	0x00000e79
     d68:	00008cac 	.word	0x00008cac
     d6c:	0000796d 	.word	0x0000796d
     d70:	200002d8 	.word	0x200002d8
     d74:	00007179 	.word	0x00007179
     d78:	00000b65 	.word	0x00000b65
     d7c:	00008cb0 	.word	0x00008cb0
     d80:	000076ad 	.word	0x000076ad
     d84:	000079d5 	.word	0x000079d5
     d88:	00000a71 	.word	0x00000a71

00000d8c <upload_data>:
Function: Upload package
Parameter: None
Return: None
*/
/************************************************************************/
void upload_data(void) {
     d8c:	b510      	push	{r4, lr}
	bool upload = false;
	
	pulse_width_parse();
     d8e:	4b09      	ldr	r3, [pc, #36]	; (db4 <upload_data+0x28>)
     d90:	4798      	blx	r3
	/*if (water_state.report) {  //periodically report to server every 2 mins
		water_state.report = 0;
		upload = true;
	}*/
	if (water_state.flush != 0 || water_state.leak !=0) {
     d92:	4b09      	ldr	r3, [pc, #36]	; (db8 <upload_data+0x2c>)
     d94:	785b      	ldrb	r3, [r3, #1]
     d96:	2b00      	cmp	r3, #0
     d98:	d103      	bne.n	da2 <upload_data+0x16>
     d9a:	4b07      	ldr	r3, [pc, #28]	; (db8 <upload_data+0x2c>)
     d9c:	789b      	ldrb	r3, [r3, #2]
     d9e:	2b00      	cmp	r3, #0
     da0:	d007      	beq.n	db2 <upload_data+0x26>
		upload = true;
	}
	if (upload) {
		pulse_width_package();
     da2:	4b06      	ldr	r3, [pc, #24]	; (dbc <upload_data+0x30>)
     da4:	4798      	blx	r3
		water_state.flush = 0;
     da6:	4a04      	ldr	r2, [pc, #16]	; (db8 <upload_data+0x2c>)
     da8:	2300      	movs	r3, #0
     daa:	7053      	strb	r3, [r2, #1]
		water_state.leak = 0;
     dac:	7093      	strb	r3, [r2, #2]
		//water_state.send = 0;
		pulse.width = 0;
     dae:	4a04      	ldr	r2, [pc, #16]	; (dc0 <upload_data+0x34>)
     db0:	8113      	strh	r3, [r2, #8]
	}
	//return upload;
     db2:	bd10      	pop	{r4, pc}
     db4:	00000aa5 	.word	0x00000aa5
     db8:	200002d8 	.word	0x200002d8
     dbc:	00000bc5 	.word	0x00000bc5
     dc0:	200002c8 	.word	0x200002c8

00000dc4 <configure_rtc_calendar>:

//! [alarm_struct]
struct rtc_calendar_alarm_time alarm;

void configure_rtc_calendar(void)
{
     dc4:	b530      	push	{r4, r5, lr}
     dc6:	b087      	sub	sp, #28
	/* Initialize and set time structure to default */
	struct rtc_calendar_time time;
	rtc_calendar_get_time_defaults(&time);

	/* Set defaults into configuration structure */
	config->prescaler           = RTC_CALENDAR_PRESCALER_DIV_1024;
     dc8:	ac01      	add	r4, sp, #4
     dca:	23a0      	movs	r3, #160	; 0xa0
     dcc:	011b      	lsls	r3, r3, #4
     dce:	8023      	strh	r3, [r4, #0]
	config->clear_on_match      = false;
     dd0:	2300      	movs	r3, #0
     dd2:	70a3      	strb	r3, [r4, #2]
#ifdef FEATURE_RTC_CONTINUOUSLY_UPDATED
	config->continuously_update = false;
     dd4:	70e3      	strb	r3, [r4, #3]
#endif
	config->clock_24h           = false;
	config->year_init_value     = 2000;
     dd6:	22fa      	movs	r2, #250	; 0xfa
     dd8:	00d2      	lsls	r2, r2, #3
     dda:	80e2      	strh	r2, [r4, #6]
	rtc_calendar_get_config_defaults(&config_rtc_calendar);
	//! [init_conf]

	//! [time_struct]

	alarm.time.year      = 2018;
     ddc:	490f      	ldr	r1, [pc, #60]	; (e1c <configure_rtc_calendar+0x58>)
     dde:	4a10      	ldr	r2, [pc, #64]	; (e20 <configure_rtc_calendar+0x5c>)
     de0:	80ca      	strh	r2, [r1, #6]
	alarm.time.month     = 7;
     de2:	2207      	movs	r2, #7
     de4:	714a      	strb	r2, [r1, #5]
	alarm.time.day       = 2;
     de6:	3a05      	subs	r2, #5
     de8:	710a      	strb	r2, [r1, #4]
	alarm.time.hour      = 15;
     dea:	320d      	adds	r2, #13
     dec:	708a      	strb	r2, [r1, #2]
	alarm.time.minute    = 25;
     dee:	320a      	adds	r2, #10
     df0:	704a      	strb	r2, [r1, #1]
	alarm.time.second    = 0;
     df2:	700b      	strb	r3, [r1, #0]
	//! [time_struct]

	//! [set_config]
	config_rtc_calendar.clock_24h = true;
     df4:	3301      	adds	r3, #1
     df6:	7123      	strb	r3, [r4, #4]
	config_rtc_calendar.alarm[0].time = alarm.time;
     df8:	3a11      	subs	r2, #17
     dfa:	a803      	add	r0, sp, #12
     dfc:	4b09      	ldr	r3, [pc, #36]	; (e24 <configure_rtc_calendar+0x60>)
     dfe:	4798      	blx	r3
	config_rtc_calendar.alarm[0].mask = RTC_CALENDAR_ALARM_MASK_YEAR;
     e00:	2306      	movs	r3, #6
     e02:	7423      	strb	r3, [r4, #16]
	//! [set_config]

	//! [init_rtc]
	rtc_calendar_init(&rtc_instance, RTC, &config_rtc_calendar);
     e04:	4d08      	ldr	r5, [pc, #32]	; (e28 <configure_rtc_calendar+0x64>)
     e06:	0022      	movs	r2, r4
     e08:	4908      	ldr	r1, [pc, #32]	; (e2c <configure_rtc_calendar+0x68>)
     e0a:	0028      	movs	r0, r5
     e0c:	4b08      	ldr	r3, [pc, #32]	; (e30 <configure_rtc_calendar+0x6c>)
     e0e:	4798      	blx	r3
	//! [init_rtc]

	//! [enable]
	rtc_calendar_enable(&rtc_instance);
     e10:	0028      	movs	r0, r5
     e12:	4b08      	ldr	r3, [pc, #32]	; (e34 <configure_rtc_calendar+0x70>)
     e14:	4798      	blx	r3
	//! [enable]
}
     e16:	b007      	add	sp, #28
     e18:	bd30      	pop	{r4, r5, pc}
     e1a:	46c0      	nop			; (mov r8, r8)
     e1c:	2000036c 	.word	0x2000036c
     e20:	000007e2 	.word	0x000007e2
     e24:	00007515 	.word	0x00007515
     e28:	200001cc 	.word	0x200001cc
     e2c:	40001400 	.word	0x40001400
     e30:	00000291 	.word	0x00000291
     e34:	00000115 	.word	0x00000115

00000e38 <rtc_init>:
	////time.second = (gau8SocketTestBuffer[17]-'0')*10 + (gau8SocketTestBuffer[18]-'0');//59;
	//
	////rtc_calendar_set_time(&rtc_instance, &time); //set time
//}

void rtc_init(void) {
     e38:	b510      	push	{r4, lr}
	time.year   = 2012;
     e3a:	4c0a      	ldr	r4, [pc, #40]	; (e64 <rtc_init+0x2c>)
     e3c:	4b0a      	ldr	r3, [pc, #40]	; (e68 <rtc_init+0x30>)
     e3e:	80e3      	strh	r3, [r4, #6]
	time.month  = 12;
     e40:	230c      	movs	r3, #12
     e42:	7163      	strb	r3, [r4, #5]
	time.day    = 30;
     e44:	3312      	adds	r3, #18
     e46:	7123      	strb	r3, [r4, #4]
	time.hour   = 22;
     e48:	3b08      	subs	r3, #8
     e4a:	70a3      	strb	r3, [r4, #2]
	time.minute = 55;
     e4c:	3321      	adds	r3, #33	; 0x21
     e4e:	7063      	strb	r3, [r4, #1]
	time.second = 59;
     e50:	3304      	adds	r3, #4
     e52:	7023      	strb	r3, [r4, #0]
	
	configure_rtc_calendar();
     e54:	4b05      	ldr	r3, [pc, #20]	; (e6c <rtc_init+0x34>)
     e56:	4798      	blx	r3
	rtc_calendar_set_time(&rtc_instance, &time); //set time
     e58:	0021      	movs	r1, r4
     e5a:	4805      	ldr	r0, [pc, #20]	; (e70 <rtc_init+0x38>)
     e5c:	4b05      	ldr	r3, [pc, #20]	; (e74 <rtc_init+0x3c>)
     e5e:	4798      	blx	r3
}
     e60:	bd10      	pop	{r4, pc}
     e62:	46c0      	nop			; (mov r8, r8)
     e64:	200001e0 	.word	0x200001e0
     e68:	000007dc 	.word	0x000007dc
     e6c:	00000dc5 	.word	0x00000dc5
     e70:	200001cc 	.word	0x200001cc
     e74:	00000201 	.word	0x00000201

00000e78 <get_time>:

struct rtc_calendar_time get_time(void) {
     e78:	b570      	push	{r4, r5, r6, lr}
     e7a:	0004      	movs	r4, r0
	rtc_calendar_get_time(&rtc_instance, &time);
     e7c:	4d05      	ldr	r5, [pc, #20]	; (e94 <get_time+0x1c>)
     e7e:	0029      	movs	r1, r5
     e80:	4805      	ldr	r0, [pc, #20]	; (e98 <get_time+0x20>)
     e82:	4b06      	ldr	r3, [pc, #24]	; (e9c <get_time+0x24>)
     e84:	4798      	blx	r3
	return time;
     e86:	2208      	movs	r2, #8
     e88:	0029      	movs	r1, r5
     e8a:	0020      	movs	r0, r4
     e8c:	4b04      	ldr	r3, [pc, #16]	; (ea0 <get_time+0x28>)
     e8e:	4798      	blx	r3
     e90:	0020      	movs	r0, r4
     e92:	bd70      	pop	{r4, r5, r6, pc}
     e94:	200001e0 	.word	0x200001e0
     e98:	200001cc 	.word	0x200001cc
     e9c:	00000219 	.word	0x00000219
     ea0:	00007515 	.word	0x00007515

00000ea4 <tc_callback_to_counter>:

/** TC Callback function.
 */
static void tc_callback_to_counter(
		struct tc_module *const module_inst)
{
     ea4:	b510      	push	{r4, lr}
     ea6:	b082      	sub	sp, #8
     ea8:	0004      	movs	r4, r0
	return (port_base->IN.reg & pin_mask);
     eaa:	4b24      	ldr	r3, [pc, #144]	; (f3c <tc_callback_to_counter+0x98>)
     eac:	6a1b      	ldr	r3, [r3, #32]
	bool pin_state = port_pin_get_input_level(WAVE_INPUT);
	//port_pin_toggle_output_level(LED_0_PIN);
	if(!pin_state){ //check input level
     eae:	021b      	lsls	r3, r3, #8
     eb0:	d426      	bmi.n	f00 <tc_callback_to_counter+0x5c>
		//pin_pre_state = pin_state;
		pulse.cnt_ctrl = 1;
     eb2:	4b23      	ldr	r3, [pc, #140]	; (f40 <tc_callback_to_counter+0x9c>)
     eb4:	2201      	movs	r2, #1
     eb6:	701a      	strb	r2, [r3, #0]
		pulse.count++;
     eb8:	685a      	ldr	r2, [r3, #4]
     eba:	3201      	adds	r2, #1
     ebc:	605a      	str	r2, [r3, #4]
		if(pulse.count == INT_MAX_32) pulse.count = 0;
     ebe:	685b      	ldr	r3, [r3, #4]
     ec0:	3301      	adds	r3, #1
     ec2:	d019      	beq.n	ef8 <tc_callback_to_counter+0x54>
		if(pulse.count == 30000){
     ec4:	4b1e      	ldr	r3, [pc, #120]	; (f40 <tc_callback_to_counter+0x9c>)
     ec6:	685a      	ldr	r2, [r3, #4]
     ec8:	4b1e      	ldr	r3, [pc, #120]	; (f44 <tc_callback_to_counter+0xa0>)
     eca:	429a      	cmp	r2, r3
     ecc:	d12d      	bne.n	f2a <tc_callback_to_counter+0x86>
			water_state.send = 2; //send warning immediately
     ece:	2202      	movs	r2, #2
     ed0:	4b1d      	ldr	r3, [pc, #116]	; (f48 <tc_callback_to_counter+0xa4>)
     ed2:	701a      	strb	r2, [r3, #0]
			pulse.width = pulse.count;
     ed4:	4b1a      	ldr	r3, [pc, #104]	; (f40 <tc_callback_to_counter+0x9c>)
     ed6:	685a      	ldr	r2, [r3, #4]
     ed8:	b292      	uxth	r2, r2
     eda:	811a      	strh	r2, [r3, #8]
			pulse.count = 0;
     edc:	2200      	movs	r2, #0
     ede:	605a      	str	r2, [r3, #4]
	config->input_pull = PORT_PIN_PULL_UP;
     ee0:	a901      	add	r1, sp, #4
     ee2:	2301      	movs	r3, #1
     ee4:	704b      	strb	r3, [r1, #1]
	config->powersave  = false;
     ee6:	708a      	strb	r2, [r1, #2]
			
			struct port_config port_confg;
			port_get_config_defaults(&port_confg);
			port_confg.direction = PORT_PIN_DIR_OUTPUT;
     ee8:	700b      	strb	r3, [r1, #0]
			port_pin_set_config(Buzzer, &port_confg);
     eea:	2004      	movs	r0, #4
     eec:	4b17      	ldr	r3, [pc, #92]	; (f4c <tc_callback_to_counter+0xa8>)
     eee:	4798      	blx	r3
		port_base->OUTSET.reg = pin_mask;
     ef0:	2210      	movs	r2, #16
     ef2:	4b17      	ldr	r3, [pc, #92]	; (f50 <tc_callback_to_counter+0xac>)
     ef4:	619a      	str	r2, [r3, #24]
     ef6:	e018      	b.n	f2a <tc_callback_to_counter+0x86>
		if(pulse.count == INT_MAX_32) pulse.count = 0;
     ef8:	2200      	movs	r2, #0
     efa:	4b11      	ldr	r3, [pc, #68]	; (f40 <tc_callback_to_counter+0x9c>)
     efc:	605a      	str	r2, [r3, #4]
     efe:	e7e1      	b.n	ec4 <tc_callback_to_counter+0x20>
			port_pin_set_output_level(Buzzer, true);
		}
	}
	else{
		//sample_count++;
		if(pulse.cnt_ctrl){// pulse ended
     f00:	4b0f      	ldr	r3, [pc, #60]	; (f40 <tc_callback_to_counter+0x9c>)
     f02:	781b      	ldrb	r3, [r3, #0]
     f04:	2b00      	cmp	r3, #0
     f06:	d00d      	beq.n	f24 <tc_callback_to_counter+0x80>
			pulse.cnt_ctrl = 0;
     f08:	2200      	movs	r2, #0
     f0a:	4b0d      	ldr	r3, [pc, #52]	; (f40 <tc_callback_to_counter+0x9c>)
     f0c:	701a      	strb	r2, [r3, #0]
			if (water_state.send == 2) {
     f0e:	4b0e      	ldr	r3, [pc, #56]	; (f48 <tc_callback_to_counter+0xa4>)
     f10:	781b      	ldrb	r3, [r3, #0]
     f12:	2b02      	cmp	r3, #2
     f14:	d00f      	beq.n	f36 <tc_callback_to_counter+0x92>
				water_state.send = 0; //if the previous sending is for overflow, don't send this one
			}
			else {
				water_state.send = 1; //data is ready to be sent
     f16:	2201      	movs	r2, #1
     f18:	4b0b      	ldr	r3, [pc, #44]	; (f48 <tc_callback_to_counter+0xa4>)
     f1a:	701a      	strb	r2, [r3, #0]
			}
			
			pulse.width = pulse.count;
     f1c:	4a08      	ldr	r2, [pc, #32]	; (f40 <tc_callback_to_counter+0x9c>)
     f1e:	6853      	ldr	r3, [r2, #4]
     f20:	b29b      	uxth	r3, r3
     f22:	8113      	strh	r3, [r2, #8]
			//printf("Pulse Width = %d\r\n", pulse.count);
		}
		pulse.count = 0;
     f24:	2200      	movs	r2, #0
     f26:	4b06      	ldr	r3, [pc, #24]	; (f40 <tc_callback_to_counter+0x9c>)
     f28:	605a      	str	r2, [r3, #4]
	}
	
	tc_set_count_value(module_inst,TC_COUNT_VALUE);
     f2a:	490a      	ldr	r1, [pc, #40]	; (f54 <tc_callback_to_counter+0xb0>)
     f2c:	0020      	movs	r0, r4
     f2e:	4b0a      	ldr	r3, [pc, #40]	; (f58 <tc_callback_to_counter+0xb4>)
     f30:	4798      	blx	r3
}
     f32:	b002      	add	sp, #8
     f34:	bd10      	pop	{r4, pc}
				water_state.send = 0; //if the previous sending is for overflow, don't send this one
     f36:	4b04      	ldr	r3, [pc, #16]	; (f48 <tc_callback_to_counter+0xa4>)
     f38:	701a      	strb	r2, [r3, #0]
     f3a:	e7ef      	b.n	f1c <tc_callback_to_counter+0x78>
     f3c:	41004480 	.word	0x41004480
     f40:	200002c8 	.word	0x200002c8
     f44:	00007530 	.word	0x00007530
     f48:	200002d8 	.word	0x200002d8
     f4c:	000041ed 	.word	0x000041ed
     f50:	41004400 	.word	0x41004400
     f54:	0000447f 	.word	0x0000447f
     f58:	000006a5 	.word	0x000006a5

00000f5c <tc_callback_to_wk>:
			tc_callback_to_counter,
			TC_CALLBACK_OVERFLOW);
	tc_enable_callback(&tc_instance, TC_CALLBACK_OVERFLOW);
}

static void tc_callback_to_wk(struct tc_module *const module_inst){ //timer for wake up
     f5c:	b510      	push	{r4, lr}
	water_state.report = 1;
     f5e:	2201      	movs	r2, #1
     f60:	4b04      	ldr	r3, [pc, #16]	; (f74 <tc_callback_to_wk+0x18>)
     f62:	70da      	strb	r2, [r3, #3]
	port_base->OUTTGL.reg = pin_mask;
     f64:	2280      	movs	r2, #128	; 0x80
     f66:	0412      	lsls	r2, r2, #16
     f68:	4b03      	ldr	r3, [pc, #12]	; (f78 <tc_callback_to_wk+0x1c>)
     f6a:	61da      	str	r2, [r3, #28]
	port_pin_toggle_output_level(LED_0_PIN);
	tc_set_count_value(module_inst,TC_WAKE_VALUE);
     f6c:	4903      	ldr	r1, [pc, #12]	; (f7c <tc_callback_to_wk+0x20>)
     f6e:	4b04      	ldr	r3, [pc, #16]	; (f80 <tc_callback_to_wk+0x24>)
     f70:	4798      	blx	r3
}
     f72:	bd10      	pop	{r4, pc}
     f74:	200002d8 	.word	0x200002d8
     f78:	41004400 	.word	0x41004400
     f7c:	0000f37f 	.word	0x0000f37f
     f80:	000006a5 	.word	0x000006a5

00000f84 <u_tc_init>:
			TC_CALLBACK_OVERFLOW);
	tc_enable_callback(&tc_instance_wk, TC_CALLBACK_OVERFLOW);
}


void u_tc_init(void) {
     f84:	b510      	push	{r4, lr}
     f86:	b08e      	sub	sp, #56	; 0x38
{
	/* Sanity check arguments */
	Assert(config);

	/* Write default config to config struct */
	config->clock_source               = GCLK_GENERATOR_0;
     f88:	aa01      	add	r2, sp, #4
     f8a:	2300      	movs	r3, #0
     f8c:	7013      	strb	r3, [r2, #0]
	config->counter_size               = TC_COUNTER_SIZE_16BIT;
     f8e:	7093      	strb	r3, [r2, #2]
	config->clock_prescaler            = TC_CLOCK_PRESCALER_DIV1;
     f90:	2100      	movs	r1, #0
     f92:	8093      	strh	r3, [r2, #4]
	config->wave_generation            = TC_WAVE_GENERATION_NORMAL_FREQ;
     f94:	7191      	strb	r1, [r2, #6]
	config->reload_action              = TC_RELOAD_ACTION_GCLK;
     f96:	8113      	strh	r3, [r2, #8]
	config->run_in_standby             = false;
     f98:	7051      	strb	r1, [r2, #1]
#if (SAML21) || (SAML22) || (SAMC20) || (SAMC21) || (SAMR30)
	config->on_demand                  = false;
#endif
	config->waveform_invert_output     = TC_WAVEFORM_INVERT_OUTPUT_NONE;
     f9a:	7291      	strb	r1, [r2, #10]
	config->enable_capture_on_channel[TC_COMPARE_CAPTURE_CHANNEL_0] = false;
     f9c:	72d1      	strb	r1, [r2, #11]
	config->enable_capture_on_channel[TC_COMPARE_CAPTURE_CHANNEL_1] = false;
     f9e:	7311      	strb	r1, [r2, #12]
#ifdef 	FEATURE_TC_IO_CAPTURE
	config->enable_capture_on_IO[TC_COMPARE_CAPTURE_CHANNEL_0] = false;
	config->enable_capture_on_IO[TC_COMPARE_CAPTURE_CHANNEL_1] = false;
#endif

	config->count_direction            = TC_COUNT_DIRECTION_UP;
     fa0:	7391      	strb	r1, [r2, #14]
	config->oneshot                    = false;
     fa2:	7351      	strb	r1, [r2, #13]

	config->pwm_channel[TC_COMPARE_CAPTURE_CHANNEL_0].enabled = false;
     fa4:	7411      	strb	r1, [r2, #16]
	config->pwm_channel[TC_COMPARE_CAPTURE_CHANNEL_0].pin_out = 0;
     fa6:	6153      	str	r3, [r2, #20]
	config->pwm_channel[TC_COMPARE_CAPTURE_CHANNEL_0].pin_mux = 0;
     fa8:	6193      	str	r3, [r2, #24]

	config->pwm_channel[TC_COMPARE_CAPTURE_CHANNEL_1].enabled = false;
     faa:	7711      	strb	r1, [r2, #28]
	config->pwm_channel[TC_COMPARE_CAPTURE_CHANNEL_1].pin_out = 0;
     fac:	6213      	str	r3, [r2, #32]
	config->pwm_channel[TC_COMPARE_CAPTURE_CHANNEL_1].pin_mux = 0;
     fae:	6253      	str	r3, [r2, #36]	; 0x24

	config->counter_16_bit.value                   = 0x0000;
	config->counter_16_bit.compare_capture_channel\
		[TC_COMPARE_CAPTURE_CHANNEL_0]                        = 0x0000;
     fb0:	8553      	strh	r3, [r2, #42]	; 0x2a
	config->counter_16_bit.compare_capture_channel\
		[TC_COMPARE_CAPTURE_CHANNEL_1]                        = 0x0000;
     fb2:	8593      	strh	r3, [r2, #44]	; 0x2c
	config_tc.counter_16_bit.value = TC_COUNT_VALUE;
     fb4:	4b35      	ldr	r3, [pc, #212]	; (108c <u_tc_init+0x108>)
     fb6:	8513      	strh	r3, [r2, #40]	; 0x28
	tc_init(&tc_instance, CONF_TC_INSTANCE, &config_tc);
     fb8:	4c35      	ldr	r4, [pc, #212]	; (1090 <u_tc_init+0x10c>)
     fba:	4936      	ldr	r1, [pc, #216]	; (1094 <u_tc_init+0x110>)
     fbc:	0020      	movs	r0, r4
     fbe:	4b36      	ldr	r3, [pc, #216]	; (1098 <u_tc_init+0x114>)
     fc0:	4798      	blx	r3
	/* Sanity check arguments */
	Assert(module_inst);
	Assert(module_inst->hw);

	/* Get a pointer to the module's hardware instance */
	TcCount8 *const tc_module = &(module_inst->hw->COUNT8);
     fc2:	6822      	ldr	r2, [r4, #0]
	return (tc_module->STATUS.reg & TC_STATUS_SYNCBUSY);
     fc4:	7bd3      	ldrb	r3, [r2, #15]

	while (tc_is_syncing(module_inst)) {
     fc6:	b25b      	sxtb	r3, r3
     fc8:	2b00      	cmp	r3, #0
     fca:	dbfb      	blt.n	fc4 <u_tc_init+0x40>
		/* Wait for sync */
	}

	/* Enable TC module */
	tc_module->CTRLA.reg |= TC_CTRLA_ENABLE;
     fcc:	8813      	ldrh	r3, [r2, #0]
     fce:	2102      	movs	r1, #2
     fd0:	430b      	orrs	r3, r1
     fd2:	8013      	strh	r3, [r2, #0]
	tc_register_callback(
     fd4:	4c2e      	ldr	r4, [pc, #184]	; (1090 <u_tc_init+0x10c>)
     fd6:	2200      	movs	r2, #0
     fd8:	4930      	ldr	r1, [pc, #192]	; (109c <u_tc_init+0x118>)
     fda:	0020      	movs	r0, r4
     fdc:	4b30      	ldr	r3, [pc, #192]	; (10a0 <u_tc_init+0x11c>)
     fde:	4798      	blx	r3
	/* Sanity check arguments */
	Assert(module);


	/* Enable interrupts for this TC module */
	system_interrupt_enable(_tc_interrupt_get_interrupt_vector(_tc_get_inst_index(module->hw)));
     fe0:	6820      	ldr	r0, [r4, #0]
     fe2:	4b30      	ldr	r3, [pc, #192]	; (10a4 <u_tc_init+0x120>)
     fe4:	4798      	blx	r3
	return (enum system_interrupt_vector)tc_interrupt_vectors[inst_num];
     fe6:	4b30      	ldr	r3, [pc, #192]	; (10a8 <u_tc_init+0x124>)
	NVIC->ISER[0] = (uint32_t)(1 << ((uint32_t)vector & 0x0000001f));
     fe8:	5c1a      	ldrb	r2, [r3, r0]
     fea:	231f      	movs	r3, #31
     fec:	4013      	ands	r3, r2
     fee:	2001      	movs	r0, #1
     ff0:	0002      	movs	r2, r0
     ff2:	409a      	lsls	r2, r3
     ff4:	4b2d      	ldr	r3, [pc, #180]	; (10ac <u_tc_init+0x128>)
     ff6:	601a      	str	r2, [r3, #0]
	else if (callback_type == TC_CALLBACK_CC_CHANNEL1) {
		module->enable_callback_mask |= TC_INTFLAG_MC(2);
		module->hw->COUNT8.INTENSET.reg = TC_INTFLAG_MC(2);
	}
	else {
		module->enable_callback_mask |= (1 << callback_type);
     ff8:	7e63      	ldrb	r3, [r4, #25]
     ffa:	2201      	movs	r2, #1
     ffc:	4313      	orrs	r3, r2
     ffe:	7663      	strb	r3, [r4, #25]
		module->hw->COUNT8.INTENSET.reg = (1 << callback_type);
    1000:	6823      	ldr	r3, [r4, #0]
    1002:	7358      	strb	r0, [r3, #13]
	config->counter_size               = TC_COUNTER_SIZE_16BIT;
    1004:	aa01      	add	r2, sp, #4
    1006:	2300      	movs	r3, #0
    1008:	2100      	movs	r1, #0
    100a:	7093      	strb	r3, [r2, #2]
	config->wave_generation            = TC_WAVE_GENERATION_NORMAL_FREQ;
    100c:	7193      	strb	r3, [r2, #6]
	config->reload_action              = TC_RELOAD_ACTION_GCLK;
    100e:	8113      	strh	r3, [r2, #8]
	config->waveform_invert_output     = TC_WAVEFORM_INVERT_OUTPUT_NONE;
    1010:	2400      	movs	r4, #0
    1012:	7294      	strb	r4, [r2, #10]
	config->enable_capture_on_channel[TC_COMPARE_CAPTURE_CHANNEL_0] = false;
    1014:	72d1      	strb	r1, [r2, #11]
	config->enable_capture_on_channel[TC_COMPARE_CAPTURE_CHANNEL_1] = false;
    1016:	7311      	strb	r1, [r2, #12]
	config->count_direction            = TC_COUNT_DIRECTION_UP;
    1018:	7391      	strb	r1, [r2, #14]
	config->oneshot                    = false;
    101a:	7351      	strb	r1, [r2, #13]
	config->pwm_channel[TC_COMPARE_CAPTURE_CHANNEL_0].enabled = false;
    101c:	7411      	strb	r1, [r2, #16]
	config->pwm_channel[TC_COMPARE_CAPTURE_CHANNEL_0].pin_out = 0;
    101e:	6153      	str	r3, [r2, #20]
	config->pwm_channel[TC_COMPARE_CAPTURE_CHANNEL_0].pin_mux = 0;
    1020:	6193      	str	r3, [r2, #24]
	config->pwm_channel[TC_COMPARE_CAPTURE_CHANNEL_1].enabled = false;
    1022:	7711      	strb	r1, [r2, #28]
	config->pwm_channel[TC_COMPARE_CAPTURE_CHANNEL_1].pin_out = 0;
    1024:	6213      	str	r3, [r2, #32]
	config->pwm_channel[TC_COMPARE_CAPTURE_CHANNEL_1].pin_mux = 0;
    1026:	6253      	str	r3, [r2, #36]	; 0x24
		[TC_COMPARE_CAPTURE_CHANNEL_0]                        = 0x0000;
    1028:	8553      	strh	r3, [r2, #42]	; 0x2a
		[TC_COMPARE_CAPTURE_CHANNEL_1]                        = 0x0000;
    102a:	8593      	strh	r3, [r2, #44]	; 0x2c
	config_tc.counter_16_bit.value = TC_WAKE_VALUE;
    102c:	4b20      	ldr	r3, [pc, #128]	; (10b0 <u_tc_init+0x12c>)
    102e:	8513      	strh	r3, [r2, #40]	; 0x28
	config_tc.clock_source        = GCLK_GENERATOR_1;
    1030:	7010      	strb	r0, [r2, #0]
	config_tc.clock_prescaler     = TC_CLOCK_PRESCALER_DIV1024;
    1032:	23e0      	movs	r3, #224	; 0xe0
    1034:	00db      	lsls	r3, r3, #3
    1036:	8093      	strh	r3, [r2, #4]
	config_tc.run_in_standby      = true;
    1038:	7050      	strb	r0, [r2, #1]
	tc_init(&tc_instance_wk, TC_WAKE_UP, &config_tc);
    103a:	4c1e      	ldr	r4, [pc, #120]	; (10b4 <u_tc_init+0x130>)
    103c:	491e      	ldr	r1, [pc, #120]	; (10b8 <u_tc_init+0x134>)
    103e:	0020      	movs	r0, r4
    1040:	4b15      	ldr	r3, [pc, #84]	; (1098 <u_tc_init+0x114>)
    1042:	4798      	blx	r3
	TcCount8 *const tc_module = &(module_inst->hw->COUNT8);
    1044:	6822      	ldr	r2, [r4, #0]
	return (tc_module->STATUS.reg & TC_STATUS_SYNCBUSY);
    1046:	7bd3      	ldrb	r3, [r2, #15]
	while (tc_is_syncing(module_inst)) {
    1048:	b25b      	sxtb	r3, r3
    104a:	2b00      	cmp	r3, #0
    104c:	dbfb      	blt.n	1046 <u_tc_init+0xc2>
	tc_module->CTRLA.reg |= TC_CTRLA_ENABLE;
    104e:	8813      	ldrh	r3, [r2, #0]
    1050:	2102      	movs	r1, #2
    1052:	430b      	orrs	r3, r1
    1054:	8013      	strh	r3, [r2, #0]
	tc_register_callback(
    1056:	4c17      	ldr	r4, [pc, #92]	; (10b4 <u_tc_init+0x130>)
    1058:	2200      	movs	r2, #0
    105a:	4918      	ldr	r1, [pc, #96]	; (10bc <u_tc_init+0x138>)
    105c:	0020      	movs	r0, r4
    105e:	4b10      	ldr	r3, [pc, #64]	; (10a0 <u_tc_init+0x11c>)
    1060:	4798      	blx	r3
	system_interrupt_enable(_tc_interrupt_get_interrupt_vector(_tc_get_inst_index(module->hw)));
    1062:	6820      	ldr	r0, [r4, #0]
    1064:	4b0f      	ldr	r3, [pc, #60]	; (10a4 <u_tc_init+0x120>)
    1066:	4798      	blx	r3
	return (enum system_interrupt_vector)tc_interrupt_vectors[inst_num];
    1068:	4b0f      	ldr	r3, [pc, #60]	; (10a8 <u_tc_init+0x124>)
    106a:	5c1a      	ldrb	r2, [r3, r0]
    106c:	231f      	movs	r3, #31
    106e:	4013      	ands	r3, r2
    1070:	2201      	movs	r2, #1
    1072:	0011      	movs	r1, r2
    1074:	4099      	lsls	r1, r3
    1076:	4b0d      	ldr	r3, [pc, #52]	; (10ac <u_tc_init+0x128>)
    1078:	6019      	str	r1, [r3, #0]
		module->enable_callback_mask |= (1 << callback_type);
    107a:	7e63      	ldrb	r3, [r4, #25]
    107c:	2101      	movs	r1, #1
    107e:	430b      	orrs	r3, r1
    1080:	7663      	strb	r3, [r4, #25]
		module->hw->COUNT8.INTENSET.reg = (1 << callback_type);
    1082:	6823      	ldr	r3, [r4, #0]
    1084:	735a      	strb	r2, [r3, #13]
	/*Configures the External Interrupt callback*/
	configure_tc_wk(); //config timer
	
	/*Configures TC callback*/
	configure_tc_callbacks_wk();
}
    1086:	b00e      	add	sp, #56	; 0x38
    1088:	bd10      	pop	{r4, pc}
    108a:	46c0      	nop			; (mov r8, r8)
    108c:	0000447f 	.word	0x0000447f
    1090:	200001e8 	.word	0x200001e8
    1094:	42002c00 	.word	0x42002c00
    1098:	00000469 	.word	0x00000469
    109c:	00000ea5 	.word	0x00000ea5
    10a0:	00000369 	.word	0x00000369
    10a4:	00000431 	.word	0x00000431
    10a8:	00008d0c 	.word	0x00008d0c
    10ac:	e000e100 	.word	0xe000e100
    10b0:	fffff37f 	.word	0xfffff37f
    10b4:	20000204 	.word	0x20000204
    10b8:	42003000 	.word	0x42003000
    10bc:	00000f5d 	.word	0x00000f5d

000010c0 <usart_serial_getchar>:
 * \param[out]    c       Destination for the read character.
 */
static inline void usart_serial_getchar(
		struct usart_module *const module,
		uint8_t *c)
{
    10c0:	b570      	push	{r4, r5, r6, lr}
    10c2:	b082      	sub	sp, #8
    10c4:	0005      	movs	r5, r0
    10c6:	000e      	movs	r6, r1
	uint16_t temp = 0;
    10c8:	2200      	movs	r2, #0
    10ca:	466b      	mov	r3, sp
    10cc:	80da      	strh	r2, [r3, #6]

	while(STATUS_OK != usart_read_wait(module, &temp));
    10ce:	4c06      	ldr	r4, [pc, #24]	; (10e8 <usart_serial_getchar+0x28>)
    10d0:	466b      	mov	r3, sp
    10d2:	1d99      	adds	r1, r3, #6
    10d4:	0028      	movs	r0, r5
    10d6:	47a0      	blx	r4
    10d8:	2800      	cmp	r0, #0
    10da:	d1f9      	bne.n	10d0 <usart_serial_getchar+0x10>

	*c = temp;
    10dc:	466b      	mov	r3, sp
    10de:	3306      	adds	r3, #6
    10e0:	881b      	ldrh	r3, [r3, #0]
    10e2:	7033      	strb	r3, [r6, #0]
}
    10e4:	b002      	add	sp, #8
    10e6:	bd70      	pop	{r4, r5, r6, pc}
    10e8:	00004edd 	.word	0x00004edd

000010ec <usart_serial_putchar>:
{
    10ec:	b570      	push	{r4, r5, r6, lr}
    10ee:	0005      	movs	r5, r0
	while(STATUS_OK !=usart_write_wait(module, c));
    10f0:	b28c      	uxth	r4, r1
    10f2:	4e03      	ldr	r6, [pc, #12]	; (1100 <usart_serial_putchar+0x14>)
    10f4:	0021      	movs	r1, r4
    10f6:	0028      	movs	r0, r5
    10f8:	47b0      	blx	r6
    10fa:	2800      	cmp	r0, #0
    10fc:	d1fa      	bne.n	10f4 <usart_serial_putchar+0x8>
}
    10fe:	bd70      	pop	{r4, r5, r6, pc}
    1100:	00004eb1 	.word	0x00004eb1

00001104 <configure_console>:
		//}
	//}
//}

void configure_console(void)
{
    1104:	b5f0      	push	{r4, r5, r6, r7, lr}
    1106:	b091      	sub	sp, #68	; 0x44
{
	/* Sanity check arguments */
	Assert(config);

	/* Set default config in the config struct */
	config->data_order       = USART_DATAORDER_LSB;
    1108:	2380      	movs	r3, #128	; 0x80
    110a:	05db      	lsls	r3, r3, #23
    110c:	9300      	str	r3, [sp, #0]
	config->transfer_mode    = USART_TRANSFER_ASYNCHRONOUSLY;
    110e:	2300      	movs	r3, #0
    1110:	9301      	str	r3, [sp, #4]
	config->parity           = USART_PARITY_NONE;
    1112:	22ff      	movs	r2, #255	; 0xff
    1114:	4669      	mov	r1, sp
    1116:	810a      	strh	r2, [r1, #8]
	config->stopbits         = USART_STOPBITS_1;
    1118:	2200      	movs	r2, #0
    111a:	728b      	strb	r3, [r1, #10]
	config->character_size   = USART_CHARACTER_SIZE_8BIT;
    111c:	72cb      	strb	r3, [r1, #11]
	config->baudrate         = 9600;
	config->receiver_enable  = true;
    111e:	2401      	movs	r4, #1
    1120:	2124      	movs	r1, #36	; 0x24
    1122:	4668      	mov	r0, sp
    1124:	5444      	strb	r4, [r0, r1]
	config->transmitter_enable = true;
    1126:	3101      	adds	r1, #1
    1128:	5444      	strb	r4, [r0, r1]
	config->clock_polarity_inverted = false;
    112a:	3101      	adds	r1, #1
    112c:	5443      	strb	r3, [r0, r1]
	config->use_external_clock = false;
    112e:	3101      	adds	r1, #1
    1130:	5443      	strb	r3, [r0, r1]
	config->ext_clock_freq   = 0;
    1132:	930a      	str	r3, [sp, #40]	; 0x28
	config->mux_setting      = USART_RX_1_TX_2_XCK_3;
	config->run_in_standby   = false;
    1134:	3105      	adds	r1, #5
    1136:	5443      	strb	r3, [r0, r1]
	config->generator_source = GCLK_GENERATOR_0;
    1138:	3101      	adds	r1, #1
    113a:	5443      	strb	r3, [r0, r1]
	config->pinmux_pad0      = PINMUX_DEFAULT;
	config->pinmux_pad1      = PINMUX_DEFAULT;
	config->pinmux_pad2      = PINMUX_DEFAULT;
	config->pinmux_pad3      = PINMUX_DEFAULT;
#ifdef FEATURE_USART_OVER_SAMPLE
	config->sample_adjustment     = USART_SAMPLE_ADJUSTMENT_7_8_9;
    113c:	9305      	str	r3, [sp, #20]
	config->sample_rate           = USART_SAMPLE_RATE_16X_ARITHMETIC;
    113e:	8203      	strh	r3, [r0, #16]
#endif
#ifdef FEATURE_USART_LIN_SLAVE
	config->lin_slave_enable      = false;
    1140:	76c3      	strb	r3, [r0, #27]
	config->lin_header_delay = LIN_MASTER_HEADER_DELAY_0;
	config->lin_break_length = LIN_MASTER_BREAK_LENGTH_13_BIT;
#endif

#ifdef FEATURE_USART_IMMEDIATE_BUFFER_OVERFLOW_NOTIFICATION
	config->immediate_buffer_overflow_notification  = false;
    1142:	7602      	strb	r2, [r0, #24]
#endif
#ifdef FEATURE_USART_START_FRAME_DECTION
	config->start_frame_detection_enable            = false;
    1144:	7702      	strb	r2, [r0, #28]
#endif
#ifdef FEATURE_USART_IRDA
	config->encoding_format_enable                  = false;
    1146:	7642      	strb	r2, [r0, #25]
	config->receive_pulse_length                    = 19;
    1148:	2313      	movs	r3, #19
    114a:	7683      	strb	r3, [r0, #26]
	config->iso7816_config.inhibit_nack             = ISO7816_INHIBIT_NACK_DISABLE;
	config->iso7816_config.successive_recv_nack     = ISO7816_SUCCESSIVE_RECV_NACK_DISABLE;
	config->iso7816_config.max_iterations           = 7;
#endif
#ifdef FEATURE_USART_COLLISION_DECTION
	config->collision_detection_enable              = false;
    114c:	7742      	strb	r2, [r0, #29]
	struct usart_config usart_conf;

	usart_get_config_defaults(&usart_conf);
	usart_conf.mux_setting = EDBG_CDC_SERCOM_MUX_SETTING;
    114e:	23c4      	movs	r3, #196	; 0xc4
    1150:	039b      	lsls	r3, r3, #14
    1152:	9303      	str	r3, [sp, #12]
	usart_conf.pinmux_pad0 = EDBG_CDC_SERCOM_PINMUX_PAD0;
    1154:	2301      	movs	r3, #1
    1156:	425b      	negs	r3, r3
    1158:	930c      	str	r3, [sp, #48]	; 0x30
	usart_conf.pinmux_pad1 = EDBG_CDC_SERCOM_PINMUX_PAD1;
    115a:	930d      	str	r3, [sp, #52]	; 0x34
	usart_conf.pinmux_pad2 = EDBG_CDC_SERCOM_PINMUX_PAD2;
    115c:	4b18      	ldr	r3, [pc, #96]	; (11c0 <configure_console+0xbc>)
    115e:	930e      	str	r3, [sp, #56]	; 0x38
	usart_conf.pinmux_pad3 = EDBG_CDC_SERCOM_PINMUX_PAD3;
    1160:	4b18      	ldr	r3, [pc, #96]	; (11c4 <configure_console+0xc0>)
    1162:	930f      	str	r3, [sp, #60]	; 0x3c
	usart_conf.baudrate    = 115200;
    1164:	23e1      	movs	r3, #225	; 0xe1
    1166:	025b      	lsls	r3, r3, #9
    1168:	9308      	str	r3, [sp, #32]
static inline void stdio_serial_init(
		struct usart_module *const module,
		usart_inst_t const hw,
		const struct usart_config *const config)
{
	stdio_base = (void *)module;
    116a:	4d17      	ldr	r5, [pc, #92]	; (11c8 <configure_console+0xc4>)
    116c:	4b17      	ldr	r3, [pc, #92]	; (11cc <configure_console+0xc8>)
    116e:	601d      	str	r5, [r3, #0]
	ptr_put = (int (*)(void volatile*,char))&usart_serial_putchar;
    1170:	4a17      	ldr	r2, [pc, #92]	; (11d0 <configure_console+0xcc>)
    1172:	4b18      	ldr	r3, [pc, #96]	; (11d4 <configure_console+0xd0>)
    1174:	601a      	str	r2, [r3, #0]
	ptr_get = (void (*)(void volatile*,char*))&usart_serial_getchar;
    1176:	4a18      	ldr	r2, [pc, #96]	; (11d8 <configure_console+0xd4>)
    1178:	4b18      	ldr	r3, [pc, #96]	; (11dc <configure_console+0xd8>)
    117a:	601a      	str	r2, [r3, #0]
	if (usart_init(module, hw, config) == STATUS_OK) {
    117c:	466a      	mov	r2, sp
    117e:	4918      	ldr	r1, [pc, #96]	; (11e0 <configure_console+0xdc>)
    1180:	0028      	movs	r0, r5
    1182:	4b18      	ldr	r3, [pc, #96]	; (11e4 <configure_console+0xe0>)
    1184:	4798      	blx	r3

	usart_serial_init(module, hw, config);
# if defined(__GNUC__)
	// Specify that stdout and stdin should not be buffered.
	setbuf(stdout, NULL);
    1186:	4f18      	ldr	r7, [pc, #96]	; (11e8 <configure_console+0xe4>)
    1188:	683b      	ldr	r3, [r7, #0]
    118a:	6898      	ldr	r0, [r3, #8]
    118c:	2100      	movs	r1, #0
    118e:	4e17      	ldr	r6, [pc, #92]	; (11ec <configure_console+0xe8>)
    1190:	47b0      	blx	r6
	setbuf(stdin, NULL);
    1192:	683b      	ldr	r3, [r7, #0]
    1194:	6858      	ldr	r0, [r3, #4]
    1196:	2100      	movs	r1, #0
    1198:	47b0      	blx	r6
	/* Sanity check arguments */
	Assert(module);
	Assert(module->hw);

	/* Get a pointer to the hardware module instance */
	SercomUsart *const usart_hw = &(module->hw->USART);
    119a:	682e      	ldr	r6, [r5, #0]

#if USART_CALLBACK_MODE == true
	/* Enable Global interrupt for module */
	system_interrupt_enable(_sercom_get_interrupt_vector(module->hw));
    119c:	0030      	movs	r0, r6
    119e:	4b14      	ldr	r3, [pc, #80]	; (11f0 <configure_console+0xec>)
    11a0:	4798      	blx	r3
    11a2:	231f      	movs	r3, #31
    11a4:	4018      	ands	r0, r3
    11a6:	4084      	lsls	r4, r0
    11a8:	4b12      	ldr	r3, [pc, #72]	; (11f4 <configure_console+0xf0>)
    11aa:	601c      	str	r4, [r3, #0]
	SercomUsart *const usart_hw = &(module->hw->USART);
    11ac:	682a      	ldr	r2, [r5, #0]
	return (usart_hw->SYNCBUSY.reg);
    11ae:	69d3      	ldr	r3, [r2, #28]
	while (usart_is_syncing(module)) {
    11b0:	2b00      	cmp	r3, #0
    11b2:	d1fc      	bne.n	11ae <configure_console+0xaa>

	/* Wait until synchronization is complete */
	_usart_wait_for_sync(module);

	/* Enable USART module */
	usart_hw->CTRLA.reg |= SERCOM_USART_CTRLA_ENABLE;
    11b4:	6833      	ldr	r3, [r6, #0]
    11b6:	2202      	movs	r2, #2
    11b8:	4313      	orrs	r3, r2
    11ba:	6033      	str	r3, [r6, #0]

	stdio_serial_init(&cdc_uart_module, EDBG_CDC_MODULE, &usart_conf);
	/* Register USART callback for receiving user input. */
	//usart_register_callback(&cdc_uart_module, (usart_callback_t)uart_callback, USART_CALLBACK_BUFFER_RECEIVED);
	usart_enable(&cdc_uart_module);
}
    11bc:	b011      	add	sp, #68	; 0x44
    11be:	bdf0      	pop	{r4, r5, r6, r7, pc}
    11c0:	002a0003 	.word	0x002a0003
    11c4:	002b0003 	.word	0x002b0003
    11c8:	20000220 	.word	0x20000220
    11cc:	200004ec 	.word	0x200004ec
    11d0:	000010ed 	.word	0x000010ed
    11d4:	200004e8 	.word	0x200004e8
    11d8:	000010c1 	.word	0x000010c1
    11dc:	200004e4 	.word	0x200004e4
    11e0:	42001800 	.word	0x42001800
    11e4:	00004b71 	.word	0x00004b71
    11e8:	20000014 	.word	0x20000014
    11ec:	00007801 	.word	0x00007801
    11f0:	00004645 	.word	0x00004645
    11f4:	e000e100 	.word	0xe000e100

000011f8 <delay_init>:
 *
 * This must be called during start up to initialize the delay routine with
 * the current used main clock. It must run any time the main CPU clock is changed.
 */
void delay_init(void)
{
    11f8:	b570      	push	{r4, r5, r6, lr}
	cycles_per_ms = system_gclk_gen_get_hz(0);
    11fa:	2000      	movs	r0, #0
    11fc:	4b08      	ldr	r3, [pc, #32]	; (1220 <delay_init+0x28>)
    11fe:	4798      	blx	r3
    1200:	0005      	movs	r5, r0
	cycles_per_ms /= 1000;
    1202:	4c08      	ldr	r4, [pc, #32]	; (1224 <delay_init+0x2c>)
    1204:	21fa      	movs	r1, #250	; 0xfa
    1206:	0089      	lsls	r1, r1, #2
    1208:	47a0      	blx	r4
    120a:	4b07      	ldr	r3, [pc, #28]	; (1228 <delay_init+0x30>)
    120c:	6018      	str	r0, [r3, #0]
	cycles_per_us = cycles_per_ms / 1000;
    120e:	4907      	ldr	r1, [pc, #28]	; (122c <delay_init+0x34>)
    1210:	0028      	movs	r0, r5
    1212:	47a0      	blx	r4
    1214:	4b06      	ldr	r3, [pc, #24]	; (1230 <delay_init+0x38>)
    1216:	6018      	str	r0, [r3, #0]

	SysTick->CTRL = SysTick_CTRL_CLKSOURCE_Msk | SysTick_CTRL_ENABLE_Msk;
    1218:	2205      	movs	r2, #5
    121a:	4b06      	ldr	r3, [pc, #24]	; (1234 <delay_init+0x3c>)
    121c:	601a      	str	r2, [r3, #0]
}
    121e:	bd70      	pop	{r4, r5, r6, pc}
    1220:	00005635 	.word	0x00005635
    1224:	00007179 	.word	0x00007179
    1228:	20000000 	.word	0x20000000
    122c:	000f4240 	.word	0x000f4240
    1230:	20000004 	.word	0x20000004
    1234:	e000e010 	.word	0xe000e010

00001238 <delay_cycles_ms>:
 *
 * \param n  Number of milliseconds to wait
 */
void delay_cycles_ms(
		uint32_t n)
{
    1238:	b530      	push	{r4, r5, lr}
	while (n--) {
		/* Devide up to blocks of 1ms */
		delay_cycles(cycles_per_ms);
    123a:	4b08      	ldr	r3, [pc, #32]	; (125c <delay_cycles_ms+0x24>)
    123c:	681c      	ldr	r4, [r3, #0]
 */
static inline void delay_cycles(
		const uint32_t n)
{
	if (n > 0) {
		SysTick->LOAD = n;
    123e:	4a08      	ldr	r2, [pc, #32]	; (1260 <delay_cycles_ms+0x28>)
		SysTick->VAL = 0;
    1240:	2500      	movs	r5, #0

		while (!(SysTick->CTRL & SysTick_CTRL_COUNTFLAG_Msk)) {
    1242:	2180      	movs	r1, #128	; 0x80
    1244:	0249      	lsls	r1, r1, #9
	while (n--) {
    1246:	3801      	subs	r0, #1
    1248:	d307      	bcc.n	125a <delay_cycles_ms+0x22>
	if (n > 0) {
    124a:	2c00      	cmp	r4, #0
    124c:	d0fb      	beq.n	1246 <delay_cycles_ms+0xe>
		SysTick->LOAD = n;
    124e:	6054      	str	r4, [r2, #4]
		SysTick->VAL = 0;
    1250:	6095      	str	r5, [r2, #8]
		while (!(SysTick->CTRL & SysTick_CTRL_COUNTFLAG_Msk)) {
    1252:	6813      	ldr	r3, [r2, #0]
    1254:	420b      	tst	r3, r1
    1256:	d0fc      	beq.n	1252 <delay_cycles_ms+0x1a>
    1258:	e7f5      	b.n	1246 <delay_cycles_ms+0xe>
	}
}
    125a:	bd30      	pop	{r4, r5, pc}
    125c:	20000000 	.word	0x20000000
    1260:	e000e010 	.word	0xe000e010

00001264 <chip_isr>:
#include "conf_winc.h"

static tpfNmBspIsr gpfIsr;

static void chip_isr(void)
{
    1264:	b510      	push	{r4, lr}
	if (gpfIsr) {
    1266:	4b03      	ldr	r3, [pc, #12]	; (1274 <chip_isr+0x10>)
    1268:	681b      	ldr	r3, [r3, #0]
    126a:	2b00      	cmp	r3, #0
    126c:	d000      	beq.n	1270 <chip_isr+0xc>
		gpfIsr();
    126e:	4798      	blx	r3
	}
}
    1270:	bd10      	pop	{r4, pc}
    1272:	46c0      	nop			; (mov r8, r8)
    1274:	20000254 	.word	0x20000254

00001278 <nm_bsp_sleep>:
 *	@brief	Sleep in units of mSec
 *	@param[IN]	u32TimeMsec
 *				Time in milliseconds
 */
void nm_bsp_sleep(uint32 u32TimeMsec)
{
    1278:	b570      	push	{r4, r5, r6, lr}
	while (u32TimeMsec--) {
    127a:	1e44      	subs	r4, r0, #1
    127c:	2800      	cmp	r0, #0
    127e:	d004      	beq.n	128a <nm_bsp_sleep+0x12>
		delay_ms(1);
    1280:	4d02      	ldr	r5, [pc, #8]	; (128c <nm_bsp_sleep+0x14>)
    1282:	2001      	movs	r0, #1
    1284:	47a8      	blx	r5
	while (u32TimeMsec--) {
    1286:	3c01      	subs	r4, #1
    1288:	d2fb      	bcs.n	1282 <nm_bsp_sleep+0xa>
	}
}
    128a:	bd70      	pop	{r4, r5, r6, pc}
    128c:	00001239 	.word	0x00001239

00001290 <nm_bsp_reset>:
{
    1290:	b5f8      	push	{r3, r4, r5, r6, r7, lr}
		port_base->OUTCLR.reg = pin_mask;
    1292:	4c08      	ldr	r4, [pc, #32]	; (12b4 <nm_bsp_reset+0x24>)
    1294:	2780      	movs	r7, #128	; 0x80
    1296:	057f      	lsls	r7, r7, #21
    1298:	6167      	str	r7, [r4, #20]
    129a:	2680      	movs	r6, #128	; 0x80
    129c:	0536      	lsls	r6, r6, #20
    129e:	6166      	str	r6, [r4, #20]
	nm_bsp_sleep(100);
    12a0:	2064      	movs	r0, #100	; 0x64
    12a2:	4d05      	ldr	r5, [pc, #20]	; (12b8 <nm_bsp_reset+0x28>)
    12a4:	47a8      	blx	r5
		port_base->OUTSET.reg = pin_mask;
    12a6:	61a7      	str	r7, [r4, #24]
	nm_bsp_sleep(10);
    12a8:	200a      	movs	r0, #10
    12aa:	47a8      	blx	r5
    12ac:	61a6      	str	r6, [r4, #24]
	nm_bsp_sleep(10);
    12ae:	200a      	movs	r0, #10
    12b0:	47a8      	blx	r5
}
    12b2:	bdf8      	pop	{r3, r4, r5, r6, r7, pc}
    12b4:	41004400 	.word	0x41004400
    12b8:	00001279 	.word	0x00001279

000012bc <nm_bsp_init>:
{
    12bc:	b570      	push	{r4, r5, r6, lr}
    12be:	b082      	sub	sp, #8
	gpfIsr = NULL;
    12c0:	2300      	movs	r3, #0
    12c2:	4a13      	ldr	r2, [pc, #76]	; (1310 <nm_bsp_init+0x54>)
    12c4:	6013      	str	r3, [r2, #0]
	config->input_pull = PORT_PIN_PULL_UP;
    12c6:	ac01      	add	r4, sp, #4
    12c8:	2501      	movs	r5, #1
    12ca:	7065      	strb	r5, [r4, #1]
	config->powersave  = false;
    12cc:	70a3      	strb	r3, [r4, #2]
	pin_conf.direction  = PORT_PIN_DIR_OUTPUT;
    12ce:	7025      	strb	r5, [r4, #0]
	port_pin_set_config(CONF_WINC_PIN_RESET, &pin_conf);
    12d0:	0021      	movs	r1, r4
    12d2:	201b      	movs	r0, #27
    12d4:	4e0f      	ldr	r6, [pc, #60]	; (1314 <nm_bsp_init+0x58>)
    12d6:	47b0      	blx	r6
	port_pin_set_config(CONF_WINC_PIN_CHIP_ENABLE, &pin_conf);
    12d8:	0021      	movs	r1, r4
    12da:	201c      	movs	r0, #28
    12dc:	47b0      	blx	r6
	port_pin_set_config(CONF_WINC_PIN_WAKE, &pin_conf);
    12de:	0021      	movs	r1, r4
    12e0:	2028      	movs	r0, #40	; 0x28
    12e2:	47b0      	blx	r6
    if (!(SysTick->CTRL & SysTick_CTRL_ENABLE_Msk && SysTick->CTRL & SysTick_CTRL_TICKINT_Msk)) {
    12e4:	4b0c      	ldr	r3, [pc, #48]	; (1318 <nm_bsp_init+0x5c>)
    12e6:	681b      	ldr	r3, [r3, #0]
    12e8:	421d      	tst	r5, r3
    12ea:	d003      	beq.n	12f4 <nm_bsp_init+0x38>
    12ec:	4b0a      	ldr	r3, [pc, #40]	; (1318 <nm_bsp_init+0x5c>)
    12ee:	681b      	ldr	r3, [r3, #0]
    12f0:	079b      	lsls	r3, r3, #30
    12f2:	d401      	bmi.n	12f8 <nm_bsp_init+0x3c>
	    delay_init();
    12f4:	4b09      	ldr	r3, [pc, #36]	; (131c <nm_bsp_init+0x60>)
    12f6:	4798      	blx	r3
	nm_bsp_reset();
    12f8:	4b09      	ldr	r3, [pc, #36]	; (1320 <nm_bsp_init+0x64>)
    12fa:	4798      	blx	r3
	cpu_irq_enable();
    12fc:	2201      	movs	r2, #1
    12fe:	4b09      	ldr	r3, [pc, #36]	; (1324 <nm_bsp_init+0x68>)
    1300:	701a      	strb	r2, [r3, #0]
    This function ensures the apparent order of the explicit memory operations before
    and after the instruction, without ensuring their completion.
 */
__attribute__( ( always_inline ) ) __STATIC_INLINE void __DMB(void)
{
  __ASM volatile ("dmb");
    1302:	f3bf 8f5f 	dmb	sy
  This function enables IRQ interrupts by clearing the I-bit in the CPSR.
  Can only be executed in Privileged modes.
 */
__attribute__( ( always_inline ) ) __STATIC_INLINE void __enable_irq(void)
{
  __ASM volatile ("cpsie i" : : : "memory");
    1306:	b662      	cpsie	i
}
    1308:	2000      	movs	r0, #0
    130a:	b002      	add	sp, #8
    130c:	bd70      	pop	{r4, r5, r6, pc}
    130e:	46c0      	nop			; (mov r8, r8)
    1310:	20000254 	.word	0x20000254
    1314:	000041ed 	.word	0x000041ed
    1318:	e000e010 	.word	0xe000e010
    131c:	000011f9 	.word	0x000011f9
    1320:	00001291 	.word	0x00001291
    1324:	20000010 	.word	0x20000010

00001328 <nm_bsp_register_isr>:
 *	@brief	Register interrupt service routine
 *	@param[IN]	pfIsr
 *				Pointer to ISR handler
 */
void nm_bsp_register_isr(tpfNmBspIsr pfIsr)
{
    1328:	b510      	push	{r4, lr}
    132a:	b084      	sub	sp, #16
	struct extint_chan_conf config_extint_chan;

	gpfIsr = pfIsr;
    132c:	4b0e      	ldr	r3, [pc, #56]	; (1368 <nm_bsp_register_isr+0x40>)
    132e:	6018      	str	r0, [r3, #0]

	extint_chan_get_config_defaults(&config_extint_chan);
    1330:	ac01      	add	r4, sp, #4
    1332:	0020      	movs	r0, r4
    1334:	4b0d      	ldr	r3, [pc, #52]	; (136c <nm_bsp_register_isr+0x44>)
    1336:	4798      	blx	r3
	config_extint_chan.gpio_pin = CONF_WINC_SPI_INT_PIN;
    1338:	2329      	movs	r3, #41	; 0x29
    133a:	9301      	str	r3, [sp, #4]
	config_extint_chan.gpio_pin_mux = CONF_WINC_SPI_INT_MUX;
    133c:	2300      	movs	r3, #0
    133e:	6063      	str	r3, [r4, #4]
	config_extint_chan.gpio_pin_pull = EXTINT_PULL_UP;
    1340:	3301      	adds	r3, #1
    1342:	7223      	strb	r3, [r4, #8]
	config_extint_chan.detection_criteria = EXTINT_DETECT_FALLING;
    1344:	3301      	adds	r3, #1
    1346:	72e3      	strb	r3, [r4, #11]

	extint_chan_set_config(CONF_WINC_SPI_INT_EIC, &config_extint_chan);
    1348:	0021      	movs	r1, r4
    134a:	2009      	movs	r0, #9
    134c:	4b08      	ldr	r3, [pc, #32]	; (1370 <nm_bsp_register_isr+0x48>)
    134e:	4798      	blx	r3
	extint_register_callback(chip_isr, CONF_WINC_SPI_INT_EIC,
    1350:	2200      	movs	r2, #0
    1352:	2109      	movs	r1, #9
    1354:	4807      	ldr	r0, [pc, #28]	; (1374 <nm_bsp_register_isr+0x4c>)
    1356:	4b08      	ldr	r3, [pc, #32]	; (1378 <nm_bsp_register_isr+0x50>)
    1358:	4798      	blx	r3
			EXTINT_CALLBACK_TYPE_DETECT);
	extint_chan_enable_callback(CONF_WINC_SPI_INT_EIC,
    135a:	2100      	movs	r1, #0
    135c:	2009      	movs	r0, #9
    135e:	4b07      	ldr	r3, [pc, #28]	; (137c <nm_bsp_register_isr+0x54>)
    1360:	4798      	blx	r3
			EXTINT_CALLBACK_TYPE_DETECT);
}
    1362:	b004      	add	sp, #16
    1364:	bd10      	pop	{r4, pc}
    1366:	46c0      	nop			; (mov r8, r8)
    1368:	20000254 	.word	0x20000254
    136c:	00004161 	.word	0x00004161
    1370:	00004175 	.word	0x00004175
    1374:	00001265 	.word	0x00001265
    1378:	0000401d 	.word	0x0000401d
    137c:	00004049 	.word	0x00004049

00001380 <nm_bsp_interrupt_ctrl>:
 *	@brief	Enable/Disable interrupts
 *	@param[IN]	u8Enable
 *				'0' disable interrupts. '1' enable interrupts
 */
void nm_bsp_interrupt_ctrl(uint8 u8Enable)
{
    1380:	b510      	push	{r4, lr}
	if (u8Enable) {
    1382:	2800      	cmp	r0, #0
    1384:	d104      	bne.n	1390 <nm_bsp_interrupt_ctrl+0x10>
		extint_chan_enable_callback(CONF_WINC_SPI_INT_EIC,
				EXTINT_CALLBACK_TYPE_DETECT);
	} else {
		extint_chan_disable_callback(CONF_WINC_SPI_INT_EIC,
    1386:	2100      	movs	r1, #0
    1388:	2009      	movs	r0, #9
    138a:	4b04      	ldr	r3, [pc, #16]	; (139c <nm_bsp_interrupt_ctrl+0x1c>)
    138c:	4798      	blx	r3
				EXTINT_CALLBACK_TYPE_DETECT);
	}
}
    138e:	bd10      	pop	{r4, pc}
		extint_chan_enable_callback(CONF_WINC_SPI_INT_EIC,
    1390:	2100      	movs	r1, #0
    1392:	2009      	movs	r0, #9
    1394:	4b02      	ldr	r3, [pc, #8]	; (13a0 <nm_bsp_interrupt_ctrl+0x20>)
    1396:	4798      	blx	r3
    1398:	e7f9      	b.n	138e <nm_bsp_interrupt_ctrl+0xe>
    139a:	46c0      	nop			; (mov r8, r8)
    139c:	00004069 	.word	0x00004069
    13a0:	00004049 	.word	0x00004049

000013a4 <nm_bus_init>:
*	@fn		nm_bus_init
*	@brief	Initialize the bus wrapper
*	@return	M2M_SUCCESS in case of success and M2M_ERR_BUS_FAIL in case of failure
*/
sint8 nm_bus_init(void *pvinit)
{
    13a4:	b530      	push	{r4, r5, lr}
    13a6:	b091      	sub	sp, #68	; 0x44
		const struct spi_slave_inst_config *const config)
{
	Assert(slave);
	Assert(config);

	slave->ss_pin          = config->ss_pin;
    13a8:	4c30      	ldr	r4, [pc, #192]	; (146c <nm_bus_init+0xc8>)
    13aa:	230e      	movs	r3, #14
    13ac:	7023      	strb	r3, [r4, #0]
	slave->address_enabled = config->address_enabled;
    13ae:	2300      	movs	r3, #0
    13b0:	7063      	strb	r3, [r4, #1]
	slave->address         = config->address;
    13b2:	70a3      	strb	r3, [r4, #2]
	config->input_pull = PORT_PIN_PULL_UP;
    13b4:	a901      	add	r1, sp, #4
    13b6:	2201      	movs	r2, #1
    13b8:	704a      	strb	r2, [r1, #1]
	config->powersave  = false;
    13ba:	708b      	strb	r3, [r1, #2]
	/* Get default config for pin */
	struct port_config pin_conf;
	port_get_config_defaults(&pin_conf);

	/* Edit config to set the pin as output */
	pin_conf.direction = PORT_PIN_DIR_OUTPUT;
    13bc:	700a      	strb	r2, [r1, #0]

	/* Set config on Slave Select pin */
	port_pin_set_config(slave->ss_pin, &pin_conf);
    13be:	200e      	movs	r0, #14
    13c0:	4b2b      	ldr	r3, [pc, #172]	; (1470 <nm_bus_init+0xcc>)
    13c2:	4798      	blx	r3
	port_pin_set_output_level(slave->ss_pin, true);
    13c4:	7822      	ldrb	r2, [r4, #0]
	uint8_t group_index = (gpio_pin / 32);

	/* Array of available ports */
	Port *const ports[PORT_INST_NUM] = PORT_INSTS;

	if (port_index < PORT_INST_NUM) {
    13c6:	09d1      	lsrs	r1, r2, #7
		return &(ports[port_index]->Group[group_index]);
	} else {
		Assert(false);
		return NULL;
    13c8:	2300      	movs	r3, #0
	if (port_index < PORT_INST_NUM) {
    13ca:	2900      	cmp	r1, #0
    13cc:	d104      	bne.n	13d8 <nm_bus_init+0x34>
		return &(ports[port_index]->Group[group_index]);
    13ce:	0953      	lsrs	r3, r2, #5
    13d0:	01db      	lsls	r3, r3, #7
    13d2:	4928      	ldr	r1, [pc, #160]	; (1474 <nm_bus_init+0xd0>)
    13d4:	468c      	mov	ip, r1
    13d6:	4463      	add	r3, ip
	uint32_t pin_mask  = (1UL << (gpio_pin % 32));
    13d8:	211f      	movs	r1, #31
    13da:	4011      	ands	r1, r2
    13dc:	2201      	movs	r2, #1
    13de:	0010      	movs	r0, r2
    13e0:	4088      	lsls	r0, r1
		port_base->OUTSET.reg = pin_mask;
    13e2:	6198      	str	r0, [r3, #24]
	config->mode             = SPI_MODE_MASTER;
    13e4:	ac02      	add	r4, sp, #8
    13e6:	7022      	strb	r2, [r4, #0]
	config->data_order       = SPI_DATA_ORDER_MSB;
    13e8:	2300      	movs	r3, #0
    13ea:	9303      	str	r3, [sp, #12]
	config->transfer_mode    = SPI_TRANSFER_MODE_0;
    13ec:	9304      	str	r3, [sp, #16]
	config->mux_setting      = SPI_SIGNAL_MUX_SETTING_D;
    13ee:	21c0      	movs	r1, #192	; 0xc0
    13f0:	0389      	lsls	r1, r1, #14
    13f2:	9105      	str	r1, [sp, #20]
	config->character_size   = SPI_CHARACTER_SIZE_8BIT;
    13f4:	7423      	strb	r3, [r4, #16]
	config->run_in_standby   = false;
    13f6:	7463      	strb	r3, [r4, #17]
	config->receiver_enable  = true;
    13f8:	74a2      	strb	r2, [r4, #18]
	config->select_slave_low_detect_enable= true;
    13fa:	74e2      	strb	r2, [r4, #19]
	config->master_slave_select_enable= false;
    13fc:	7523      	strb	r3, [r4, #20]
	config->generator_source = GCLK_GENERATOR_0;
    13fe:	3223      	adds	r2, #35	; 0x23
    1400:	54a3      	strb	r3, [r4, r2]
	memset(&(config->mode_specific), 0, sizeof(config->mode_specific));
    1402:	3a18      	subs	r2, #24
    1404:	2100      	movs	r1, #0
    1406:	a808      	add	r0, sp, #32
    1408:	4b1b      	ldr	r3, [pc, #108]	; (1478 <nm_bus_init+0xd4>)
    140a:	4798      	blx	r3
	spi_attach_slave(&slave_inst, &slave_config);

	/* Configure the SPI master. */
	spi_get_config_defaults(&config);
	config.mux_setting = CONF_WINC_SPI_SERCOM_MUX;
	config.pinmux_pad0 = CONF_WINC_SPI_PINMUX_PAD0;
    140c:	4b1b      	ldr	r3, [pc, #108]	; (147c <nm_bus_init+0xd8>)
    140e:	62a3      	str	r3, [r4, #40]	; 0x28
	config.pinmux_pad1 = CONF_WINC_SPI_PINMUX_PAD1;
    1410:	4b1b      	ldr	r3, [pc, #108]	; (1480 <nm_bus_init+0xdc>)
    1412:	62e3      	str	r3, [r4, #44]	; 0x2c
	config.pinmux_pad2 = CONF_WINC_SPI_PINMUX_PAD2;
    1414:	2301      	movs	r3, #1
    1416:	425b      	negs	r3, r3
    1418:	6323      	str	r3, [r4, #48]	; 0x30
	config.pinmux_pad3 = CONF_WINC_SPI_PINMUX_PAD3;
    141a:	4b1a      	ldr	r3, [pc, #104]	; (1484 <nm_bus_init+0xe0>)
    141c:	6363      	str	r3, [r4, #52]	; 0x34
	config.master_slave_select_enable = false;

	config.mode_specific.master.baudrate = CONF_WINC_SPI_CLOCK;
    141e:	4b1a      	ldr	r3, [pc, #104]	; (1488 <nm_bus_init+0xe4>)
    1420:	61a3      	str	r3, [r4, #24]
	if (spi_init(&master, CONF_WINC_SPI_MODULE, &config) != STATUS_OK) {
    1422:	0022      	movs	r2, r4
    1424:	4919      	ldr	r1, [pc, #100]	; (148c <nm_bus_init+0xe8>)
    1426:	481a      	ldr	r0, [pc, #104]	; (1490 <nm_bus_init+0xec>)
    1428:	4b1a      	ldr	r3, [pc, #104]	; (1494 <nm_bus_init+0xf0>)
    142a:	4798      	blx	r3
    142c:	2800      	cmp	r0, #0
    142e:	d11a      	bne.n	1466 <nm_bus_init+0xc2>
{
	/* Sanity check arguments */
	Assert(module);
	Assert(module->hw);

	SercomSpi *const spi_module = &(module->hw->SPI);
    1430:	4d17      	ldr	r5, [pc, #92]	; (1490 <nm_bus_init+0xec>)
    1432:	682c      	ldr	r4, [r5, #0]

#  if SPI_CALLBACK_MODE == true
	system_interrupt_enable(_sercom_get_interrupt_vector(module->hw));
    1434:	0020      	movs	r0, r4
    1436:	4b18      	ldr	r3, [pc, #96]	; (1498 <nm_bus_init+0xf4>)
    1438:	4798      	blx	r3
	NVIC->ISER[0] = (uint32_t)(1 << ((uint32_t)vector & 0x0000001f));
    143a:	231f      	movs	r3, #31
    143c:	4018      	ands	r0, r3
    143e:	3b1e      	subs	r3, #30
    1440:	4083      	lsls	r3, r0
    1442:	4a16      	ldr	r2, [pc, #88]	; (149c <nm_bus_init+0xf8>)
    1444:	6013      	str	r3, [r2, #0]
	SercomSpi *const spi_module = &(module->hw->SPI);
    1446:	682a      	ldr	r2, [r5, #0]
	return (spi_module->SYNCBUSY.reg);
    1448:	69d3      	ldr	r3, [r2, #28]
#  endif

	while (spi_is_syncing(module)) {
    144a:	2b00      	cmp	r3, #0
    144c:	d1fc      	bne.n	1448 <nm_bus_init+0xa4>
		/* Wait until the synchronization is complete */
	}

	/* Enable SPI */
	spi_module->CTRLA.reg |= SERCOM_SPI_CTRLA_ENABLE;
    144e:	6823      	ldr	r3, [r4, #0]
    1450:	2202      	movs	r2, #2
    1452:	4313      	orrs	r3, r2
    1454:	6023      	str	r3, [r4, #0]
	}

	/* Enable the SPI master. */
	spi_enable(&master);

	nm_bsp_reset();
    1456:	4b12      	ldr	r3, [pc, #72]	; (14a0 <nm_bus_init+0xfc>)
    1458:	4798      	blx	r3
	nm_bsp_sleep(1);
    145a:	2001      	movs	r0, #1
    145c:	4b11      	ldr	r3, [pc, #68]	; (14a4 <nm_bus_init+0x100>)
    145e:	4798      	blx	r3
#endif
	return result;
    1460:	2000      	movs	r0, #0
}
    1462:	b011      	add	sp, #68	; 0x44
    1464:	bd30      	pop	{r4, r5, pc}
		return M2M_ERR_BUS_FAIL;
    1466:	2006      	movs	r0, #6
    1468:	4240      	negs	r0, r0
    146a:	e7fa      	b.n	1462 <nm_bus_init+0xbe>
    146c:	20000378 	.word	0x20000378
    1470:	000041ed 	.word	0x000041ed
    1474:	41004400 	.word	0x41004400
    1478:	0000754b 	.word	0x0000754b
    147c:	000c0002 	.word	0x000c0002
    1480:	000d0002 	.word	0x000d0002
    1484:	000f0002 	.word	0x000f0002
    1488:	00b71b00 	.word	0x00b71b00
    148c:	42001000 	.word	0x42001000
    1490:	2000037c 	.word	0x2000037c
    1494:	000046d5 	.word	0x000046d5
    1498:	00004645 	.word	0x00004645
    149c:	e000e100 	.word	0xe000e100
    14a0:	00001291 	.word	0x00001291
    14a4:	00001279 	.word	0x00001279

000014a8 <nm_bus_ioctl>:
*					Arbitrary parameter depenging on IOCTL
*	@return	M2M_SUCCESS in case of success and M2M_ERR_BUS_FAIL in case of failure
*	@note	For SPI only, it's important to be able to send/receive at the same time
*/
sint8 nm_bus_ioctl(uint8 u8Cmd, void* pvParameter)
{
    14a8:	b5f0      	push	{r4, r5, r6, r7, lr}
    14aa:	46de      	mov	lr, fp
    14ac:	4657      	mov	r7, sl
    14ae:	464e      	mov	r6, r9
    14b0:	4645      	mov	r5, r8
    14b2:	b5e0      	push	{r5, r6, r7, lr}
    14b4:	b085      	sub	sp, #20
	sint8 s8Ret = 0;
	switch(u8Cmd)
    14b6:	2803      	cmp	r0, #3
    14b8:	d16c      	bne.n	1594 <nm_bus_ioctl+0xec>
		}
		break;
#elif defined CONF_WINC_USE_SPI
		case NM_BUS_IOCTL_RW: {
			tstrNmSpiRw *pstrParam = (tstrNmSpiRw *)pvParameter;
			s8Ret = spi_rw(pstrParam->pu8InBuf, pstrParam->pu8OutBuf, pstrParam->u16Sz);
    14ba:	680e      	ldr	r6, [r1, #0]
    14bc:	684d      	ldr	r5, [r1, #4]
    14be:	890c      	ldrh	r4, [r1, #8]
	uint8 u8Dummy = 0;
    14c0:	2200      	movs	r2, #0
    14c2:	ab02      	add	r3, sp, #8
    14c4:	71da      	strb	r2, [r3, #7]
	if (!pu8Mosi) {
    14c6:	2e00      	cmp	r6, #0
    14c8:	d028      	beq.n	151c <nm_bus_ioctl+0x74>
	else if(!pu8Miso) {
    14ca:	2d00      	cmp	r5, #0
    14cc:	d15f      	bne.n	158e <nm_bus_ioctl+0xe6>
		u8SkipMiso = 1;
    14ce:	2301      	movs	r3, #1
    14d0:	469b      	mov	fp, r3
	uint8 u8SkipMosi = 0, u8SkipMiso = 0;
    14d2:	2300      	movs	r3, #0
    14d4:	9301      	str	r3, [sp, #4]
		pu8Miso = &u8Dummy;
    14d6:	ab02      	add	r3, sp, #8
    14d8:	1ddd      	adds	r5, r3, #7
	spi_select_slave(&master, &slave_inst, true);
    14da:	2201      	movs	r2, #1
    14dc:	4935      	ldr	r1, [pc, #212]	; (15b4 <nm_bus_ioctl+0x10c>)
    14de:	4836      	ldr	r0, [pc, #216]	; (15b8 <nm_bus_ioctl+0x110>)
    14e0:	4b36      	ldr	r3, [pc, #216]	; (15bc <nm_bus_ioctl+0x114>)
    14e2:	4798      	blx	r3
	while (u16Sz) {
    14e4:	2c00      	cmp	r4, #0
    14e6:	d03f      	beq.n	1568 <nm_bus_ioctl+0xc0>
{
	/* Sanity check arguments */
	Assert(module);
	Assert(module->hw);

	SercomSpi *const spi_module = &(module->hw->SPI);
    14e8:	4b33      	ldr	r3, [pc, #204]	; (15b8 <nm_bus_ioctl+0x110>)
    14ea:	469a      	mov	sl, r3
		while (!spi_is_ready_to_write(&master))
    14ec:	2701      	movs	r7, #1
		while (!spi_is_ready_to_read(&master))
    14ee:	2204      	movs	r2, #4
		/* Clear overflow flag */
		spi_module->STATUS.reg = SERCOM_SPI_STATUS_BUFOVF;
	}

	/* Read the character from the DATA register */
	if (module->character_size == SPI_CHARACTER_SIZE_9BIT) {
    14f0:	4699      	mov	r9, r3
			pu8Miso++;
    14f2:	4659      	mov	r1, fp
    14f4:	424b      	negs	r3, r1
    14f6:	4159      	adcs	r1, r3
    14f8:	468c      	mov	ip, r1
		txd_data = *pu8Mosi;
    14fa:	7830      	ldrb	r0, [r6, #0]
	SercomSpi *const spi_module = &(module->hw->SPI);
    14fc:	4653      	mov	r3, sl
    14fe:	681b      	ldr	r3, [r3, #0]
	return (spi_module->INTFLAG.reg & SERCOM_SPI_INTFLAG_DRE);
    1500:	7e19      	ldrb	r1, [r3, #24]
		while (!spi_is_ready_to_write(&master))
    1502:	4239      	tst	r1, r7
    1504:	d0fc      	beq.n	1500 <nm_bus_ioctl+0x58>
    1506:	7e19      	ldrb	r1, [r3, #24]
	if (!spi_is_ready_to_write(module)) {
    1508:	4239      	tst	r1, r7
    150a:	d0fc      	beq.n	1506 <nm_bus_ioctl+0x5e>
	spi_module->DATA.reg = tx_data & SERCOM_SPI_DATA_MASK;
    150c:	6298      	str	r0, [r3, #40]	; 0x28
	return (spi_module->INTFLAG.reg & SERCOM_SPI_INTFLAG_RXC);
    150e:	7e19      	ldrb	r1, [r3, #24]
		while (!spi_is_ready_to_read(&master))
    1510:	4211      	tst	r1, r2
    1512:	d0fc      	beq.n	150e <nm_bus_ioctl+0x66>
	if (module->character_size == SPI_CHARACTER_SIZE_9BIT) {
    1514:	4649      	mov	r1, r9
    1516:	7989      	ldrb	r1, [r1, #6]
    1518:	4688      	mov	r8, r1
    151a:	e00d      	b.n	1538 <nm_bus_ioctl+0x90>
	uint8 u8SkipMosi = 0, u8SkipMiso = 0;
    151c:	2300      	movs	r3, #0
    151e:	469b      	mov	fp, r3
		u8SkipMosi = 1;
    1520:	3301      	adds	r3, #1
    1522:	9301      	str	r3, [sp, #4]
		pu8Mosi = &u8Dummy;
    1524:	ab02      	add	r3, sp, #8
    1526:	1dde      	adds	r6, r3, #7
    1528:	e7d7      	b.n	14da <nm_bus_ioctl+0x32>
    152a:	4640      	mov	r0, r8
    152c:	2801      	cmp	r0, #1
    152e:	d00d      	beq.n	154c <nm_bus_ioctl+0xa4>
		*rx_data = (spi_module->DATA.reg & SERCOM_SPI_DATA_MASK);
	} else {
		*rx_data = (uint8_t)spi_module->DATA.reg;
    1530:	6a98      	ldr	r0, [r3, #40]	; 0x28
    1532:	b2c0      	uxtb	r0, r0
		while (spi_read(&master, &rxd_data) != STATUS_OK)
    1534:	2900      	cmp	r1, #0
    1536:	d00d      	beq.n	1554 <nm_bus_ioctl+0xac>
	return (spi_module->INTFLAG.reg & SERCOM_SPI_INTFLAG_RXC);
    1538:	7e19      	ldrb	r1, [r3, #24]
	if (!spi_is_ready_to_read(module)) {
    153a:	4211      	tst	r1, r2
    153c:	d0fc      	beq.n	1538 <nm_bus_ioctl+0x90>
	if (spi_module->STATUS.reg & SERCOM_SPI_STATUS_BUFOVF) {
    153e:	8b58      	ldrh	r0, [r3, #26]
	enum status_code retval = STATUS_OK;
    1540:	2100      	movs	r1, #0
	if (spi_module->STATUS.reg & SERCOM_SPI_STATUS_BUFOVF) {
    1542:	4210      	tst	r0, r2
    1544:	d0f1      	beq.n	152a <nm_bus_ioctl+0x82>
		spi_module->STATUS.reg = SERCOM_SPI_STATUS_BUFOVF;
    1546:	835a      	strh	r2, [r3, #26]
		retval = STATUS_ERR_OVERFLOW;
    1548:	311e      	adds	r1, #30
    154a:	e7ee      	b.n	152a <nm_bus_ioctl+0x82>
		*rx_data = (spi_module->DATA.reg & SERCOM_SPI_DATA_MASK);
    154c:	6a98      	ldr	r0, [r3, #40]	; 0x28
    154e:	05c0      	lsls	r0, r0, #23
    1550:	0dc0      	lsrs	r0, r0, #23
    1552:	e7ef      	b.n	1534 <nm_bus_ioctl+0x8c>
		*pu8Miso = rxd_data;
    1554:	7028      	strb	r0, [r5, #0]
		u16Sz--;
    1556:	3c01      	subs	r4, #1
    1558:	b2a4      	uxth	r4, r4
			pu8Miso++;
    155a:	4465      	add	r5, ip
			pu8Mosi++;
    155c:	9b01      	ldr	r3, [sp, #4]
    155e:	4259      	negs	r1, r3
    1560:	414b      	adcs	r3, r1
    1562:	18f6      	adds	r6, r6, r3
	while (u16Sz) {
    1564:	2c00      	cmp	r4, #0
    1566:	d1c8      	bne.n	14fa <nm_bus_ioctl+0x52>
	SercomSpi *const spi_module = &(module->hw->SPI);
    1568:	4b13      	ldr	r3, [pc, #76]	; (15b8 <nm_bus_ioctl+0x110>)
    156a:	6819      	ldr	r1, [r3, #0]
	while (!spi_is_write_complete(&master))
    156c:	2202      	movs	r2, #2
	return (spi_module->INTFLAG.reg & SERCOM_SPI_INTFLAG_TXC);
    156e:	7e0b      	ldrb	r3, [r1, #24]
    1570:	4213      	tst	r3, r2
    1572:	d0fc      	beq.n	156e <nm_bus_ioctl+0xc6>
	spi_select_slave(&master, &slave_inst, false);
    1574:	2200      	movs	r2, #0
    1576:	490f      	ldr	r1, [pc, #60]	; (15b4 <nm_bus_ioctl+0x10c>)
    1578:	480f      	ldr	r0, [pc, #60]	; (15b8 <nm_bus_ioctl+0x110>)
    157a:	4b10      	ldr	r3, [pc, #64]	; (15bc <nm_bus_ioctl+0x114>)
    157c:	4798      	blx	r3
	return M2M_SUCCESS;
    157e:	2000      	movs	r0, #0
			M2M_ERR("invalide ioclt cmd\n");
			break;
	}

	return s8Ret;
}
    1580:	b005      	add	sp, #20
    1582:	bc3c      	pop	{r2, r3, r4, r5}
    1584:	4690      	mov	r8, r2
    1586:	4699      	mov	r9, r3
    1588:	46a2      	mov	sl, r4
    158a:	46ab      	mov	fp, r5
    158c:	bdf0      	pop	{r4, r5, r6, r7, pc}
		return M2M_ERR_BUS_FAIL;
    158e:	2006      	movs	r0, #6
    1590:	4240      	negs	r0, r0
		break;
    1592:	e7f5      	b.n	1580 <nm_bus_ioctl+0xd8>
			M2M_ERR("invalide ioclt cmd\n");
    1594:	2286      	movs	r2, #134	; 0x86
    1596:	0052      	lsls	r2, r2, #1
    1598:	4909      	ldr	r1, [pc, #36]	; (15c0 <nm_bus_ioctl+0x118>)
    159a:	480a      	ldr	r0, [pc, #40]	; (15c4 <nm_bus_ioctl+0x11c>)
    159c:	4b0a      	ldr	r3, [pc, #40]	; (15c8 <nm_bus_ioctl+0x120>)
    159e:	4798      	blx	r3
    15a0:	480a      	ldr	r0, [pc, #40]	; (15cc <nm_bus_ioctl+0x124>)
    15a2:	4b0b      	ldr	r3, [pc, #44]	; (15d0 <nm_bus_ioctl+0x128>)
    15a4:	4798      	blx	r3
    15a6:	200d      	movs	r0, #13
    15a8:	4b0a      	ldr	r3, [pc, #40]	; (15d4 <nm_bus_ioctl+0x12c>)
    15aa:	4798      	blx	r3
			s8Ret = -1;
    15ac:	2001      	movs	r0, #1
    15ae:	4240      	negs	r0, r0
			break;
    15b0:	e7e6      	b.n	1580 <nm_bus_ioctl+0xd8>
    15b2:	46c0      	nop			; (mov r8, r8)
    15b4:	20000378 	.word	0x20000378
    15b8:	2000037c 	.word	0x2000037c
    15bc:	000048ad 	.word	0x000048ad
    15c0:	00008d10 	.word	0x00008d10
    15c4:	00008d20 	.word	0x00008d20
    15c8:	000076ad 	.word	0x000076ad
    15cc:	00008d34 	.word	0x00008d34
    15d0:	000077c9 	.word	0x000077c9
    15d4:	000076e1 	.word	0x000076e1

000015d8 <nm_bus_deinit>:
/*
*	@fn		nm_bus_deinit
*	@brief	De-initialize the bus wrapper
*/
sint8 nm_bus_deinit(void)
{
    15d8:	b570      	push	{r4, r5, r6, lr}
	SercomSpi *const spi_module = &(module->hw->SPI);
    15da:	4d0c      	ldr	r5, [pc, #48]	; (160c <nm_bus_deinit+0x34>)
    15dc:	682c      	ldr	r4, [r5, #0]
	system_interrupt_disable(_sercom_get_interrupt_vector(module->hw));
    15de:	0020      	movs	r0, r4
    15e0:	4b0b      	ldr	r3, [pc, #44]	; (1610 <nm_bus_deinit+0x38>)
    15e2:	4798      	blx	r3
	NVIC->ICER[0] = (uint32_t)(1 << ((uint32_t)vector & 0x0000001f));
    15e4:	231f      	movs	r3, #31
    15e6:	4018      	ands	r0, r3
    15e8:	3b1e      	subs	r3, #30
    15ea:	4083      	lsls	r3, r0
    15ec:	2280      	movs	r2, #128	; 0x80
    15ee:	4909      	ldr	r1, [pc, #36]	; (1614 <nm_bus_deinit+0x3c>)
    15f0:	508b      	str	r3, [r1, r2]
	SercomSpi *const spi_module = &(module->hw->SPI);
    15f2:	682a      	ldr	r2, [r5, #0]
	return (spi_module->SYNCBUSY.reg);
    15f4:	69d3      	ldr	r3, [r2, #28]
	while (spi_is_syncing(module)) {
    15f6:	2b00      	cmp	r3, #0
    15f8:	d1fc      	bne.n	15f4 <nm_bus_deinit+0x1c>
	spi_module->INTENCLR.reg = SERCOM_SPI_INTENCLR_MASK;
    15fa:	338f      	adds	r3, #143	; 0x8f
    15fc:	7523      	strb	r3, [r4, #20]
	spi_module->INTFLAG.reg = SERCOM_SPI_INTFLAG_MASK;
    15fe:	7623      	strb	r3, [r4, #24]
	spi_module->CTRLA.reg &= ~SERCOM_SPI_CTRLA_ENABLE;
    1600:	6823      	ldr	r3, [r4, #0]
    1602:	2202      	movs	r2, #2
    1604:	4393      	bics	r3, r2
    1606:	6023      	str	r3, [r4, #0]
#ifdef CONF_WINC_USE_SPI
	spi_disable(&master);	

#endif /* CONF_WINC_USE_SPI */
	return result;
}
    1608:	2000      	movs	r0, #0
    160a:	bd70      	pop	{r4, r5, r6, pc}
    160c:	2000037c 	.word	0x2000037c
    1610:	00004645 	.word	0x00004645
    1614:	e000e100 	.word	0xe000e100

00001618 <m2m_memcpy>:
 */
#include "common/include/nm_common.h"

void m2m_memcpy(uint8* pDst,uint8* pSrc,uint32 sz)
{
	if(sz == 0) return;
    1618:	2a00      	cmp	r2, #0
    161a:	d006      	beq.n	162a <m2m_memcpy+0x12>
    161c:	1882      	adds	r2, r0, r2
	do
	{
		*pDst = *pSrc;
    161e:	780b      	ldrb	r3, [r1, #0]
    1620:	7003      	strb	r3, [r0, #0]
		pDst++;
    1622:	3001      	adds	r0, #1
		pSrc++;
    1624:	3101      	adds	r1, #1
	}while(--sz);
    1626:	4290      	cmp	r0, r2
    1628:	d1f9      	bne.n	161e <m2m_memcpy+0x6>
}
    162a:	4770      	bx	lr

0000162c <m2m_memset>:
	return cs;
}

void m2m_memset(uint8* pBuf,uint8 val,uint32 sz)
{
	if(sz == 0) return;
    162c:	2a00      	cmp	r2, #0
    162e:	d004      	beq.n	163a <m2m_memset+0xe>
    1630:	1882      	adds	r2, r0, r2
	do
	{
		*pBuf = val;
    1632:	7001      	strb	r1, [r0, #0]
		pBuf++;
    1634:	3001      	adds	r0, #1
	}while(--sz);
    1636:	4290      	cmp	r0, r2
    1638:	d1fb      	bne.n	1632 <m2m_memset+0x6>
}
    163a:	4770      	bx	lr

0000163c <m2m_strlen>:

uint16 m2m_strlen(uint8 * pcStr)
{
    163c:	0003      	movs	r3, r0
	uint16	u16StrLen = 0;
	while(*pcStr)
    163e:	7802      	ldrb	r2, [r0, #0]
    1640:	2a00      	cmp	r2, #0
    1642:	d007      	beq.n	1654 <m2m_strlen+0x18>
    1644:	2000      	movs	r0, #0
	{
		u16StrLen ++;
    1646:	3001      	adds	r0, #1
    1648:	b280      	uxth	r0, r0
		pcStr++;
    164a:	3301      	adds	r3, #1
	while(*pcStr)
    164c:	781a      	ldrb	r2, [r3, #0]
    164e:	2a00      	cmp	r2, #0
    1650:	d1f9      	bne.n	1646 <m2m_strlen+0xa>
	}
	return u16StrLen;
}
    1652:	4770      	bx	lr
	uint16	u16StrLen = 0;
    1654:	2000      	movs	r0, #0
    1656:	e7fc      	b.n	1652 <m2m_strlen+0x16>

00001658 <isr>:
tpfHifCallBack pfHifCb = NULL;
tpfHifCallBack pfCryptoCb = NULL;

static void isr(void)
{
	gu8Interrupt++;
    1658:	4a02      	ldr	r2, [pc, #8]	; (1664 <isr+0xc>)
    165a:	7813      	ldrb	r3, [r2, #0]
    165c:	3301      	adds	r3, #1
    165e:	b2db      	uxtb	r3, r3
    1660:	7013      	strb	r3, [r2, #0]
#ifdef NM_LEVEL_INTERRUPT
	nm_bsp_interrupt_ctrl(0);
#endif
}
    1662:	4770      	bx	lr
    1664:	2000025b 	.word	0x2000025b

00001668 <m2m_hif_cb>:
*/
static void m2m_hif_cb(uint8 u8OpCode, uint16 u16DataSize, uint32 u32Addr)
{


}
    1668:	4770      	bx	lr
	...

0000166c <hif_set_rx_done>:
{
    166c:	b500      	push	{lr}
    166e:	b083      	sub	sp, #12
	nm_bsp_interrupt_ctrl(1);
    1670:	2001      	movs	r0, #1
    1672:	4b09      	ldr	r3, [pc, #36]	; (1698 <hif_set_rx_done+0x2c>)
    1674:	4798      	blx	r3
	ret = nm_read_reg_with_ret(WIFI_HOST_RCV_CTRL_0,&reg);
    1676:	a901      	add	r1, sp, #4
    1678:	4808      	ldr	r0, [pc, #32]	; (169c <hif_set_rx_done+0x30>)
    167a:	4b09      	ldr	r3, [pc, #36]	; (16a0 <hif_set_rx_done+0x34>)
    167c:	4798      	blx	r3
	if(ret != M2M_SUCCESS)goto ERR1;
    167e:	2800      	cmp	r0, #0
    1680:	d001      	beq.n	1686 <hif_set_rx_done+0x1a>
}
    1682:	b003      	add	sp, #12
    1684:	bd00      	pop	{pc}
	reg |= (1<<1);
    1686:	2102      	movs	r1, #2
    1688:	9b01      	ldr	r3, [sp, #4]
    168a:	4319      	orrs	r1, r3
    168c:	9101      	str	r1, [sp, #4]
	ret = nm_write_reg(WIFI_HOST_RCV_CTRL_0,reg);
    168e:	4803      	ldr	r0, [pc, #12]	; (169c <hif_set_rx_done+0x30>)
    1690:	4b04      	ldr	r3, [pc, #16]	; (16a4 <hif_set_rx_done+0x38>)
    1692:	4798      	blx	r3
    1694:	e7f5      	b.n	1682 <hif_set_rx_done+0x16>
    1696:	46c0      	nop			; (mov r8, r8)
    1698:	00001381 	.word	0x00001381
    169c:	00001070 	.word	0x00001070
    16a0:	00002a05 	.word	0x00002a05
    16a4:	00002a11 	.word	0x00002a11

000016a8 <hif_chip_wake>:
*	@brief	To Wakeup the chip.
*    @return		The function shall return ZERO for successful operation and a negative value otherwise.
*/

sint8 hif_chip_wake(void)
{
    16a8:	b510      	push	{r4, lr}
	sint8 ret = M2M_SUCCESS;
	if(gu8ChipSleep == 0)
    16aa:	4b0f      	ldr	r3, [pc, #60]	; (16e8 <hif_chip_wake+0x40>)
    16ac:	781b      	ldrb	r3, [r3, #0]
    16ae:	2b00      	cmp	r3, #0
    16b0:	d107      	bne.n	16c2 <hif_chip_wake+0x1a>
	{
		if((gu8ChipMode == M2M_PS_DEEP_AUTOMATIC)||(gu8ChipMode == M2M_PS_MANUAL))
    16b2:	4b0e      	ldr	r3, [pc, #56]	; (16ec <hif_chip_wake+0x44>)
    16b4:	781b      	ldrb	r3, [r3, #0]
    16b6:	2b03      	cmp	r3, #3
    16b8:	d00a      	beq.n	16d0 <hif_chip_wake+0x28>
    16ba:	4b0c      	ldr	r3, [pc, #48]	; (16ec <hif_chip_wake+0x44>)
    16bc:	781b      	ldrb	r3, [r3, #0]
    16be:	2b04      	cmp	r3, #4
    16c0:	d006      	beq.n	16d0 <hif_chip_wake+0x28>
		}
		else
		{
		}
	}
	gu8ChipSleep++;
    16c2:	4a09      	ldr	r2, [pc, #36]	; (16e8 <hif_chip_wake+0x40>)
    16c4:	7813      	ldrb	r3, [r2, #0]
    16c6:	3301      	adds	r3, #1
    16c8:	b2db      	uxtb	r3, r3
    16ca:	7013      	strb	r3, [r2, #0]
    16cc:	2000      	movs	r0, #0
ERR1:
	return ret;
}
    16ce:	bd10      	pop	{r4, pc}
			ret = nm_clkless_wake();
    16d0:	4b07      	ldr	r3, [pc, #28]	; (16f0 <hif_chip_wake+0x48>)
    16d2:	4798      	blx	r3
			if(ret != M2M_SUCCESS)goto ERR1;
    16d4:	2800      	cmp	r0, #0
    16d6:	d1fa      	bne.n	16ce <hif_chip_wake+0x26>
			ret = nm_write_reg(WAKE_REG, WAKE_VALUE);
    16d8:	4906      	ldr	r1, [pc, #24]	; (16f4 <hif_chip_wake+0x4c>)
    16da:	4807      	ldr	r0, [pc, #28]	; (16f8 <hif_chip_wake+0x50>)
    16dc:	4b07      	ldr	r3, [pc, #28]	; (16fc <hif_chip_wake+0x54>)
    16de:	4798      	blx	r3
			if(ret != M2M_SUCCESS)goto ERR1;
    16e0:	2800      	cmp	r0, #0
    16e2:	d0ee      	beq.n	16c2 <hif_chip_wake+0x1a>
    16e4:	e7f3      	b.n	16ce <hif_chip_wake+0x26>
    16e6:	46c0      	nop			; (mov r8, r8)
    16e8:	20000259 	.word	0x20000259
    16ec:	20000258 	.word	0x20000258
    16f0:	00002535 	.word	0x00002535
    16f4:	00005678 	.word	0x00005678
    16f8:	00001074 	.word	0x00001074
    16fc:	00002a11 	.word	0x00002a11

00001700 <hif_chip_sleep>:
*	@brief	To make the chip sleep.
*    @return		The function shall return ZERO for successful operation and a negative value otherwise.
*/

sint8 hif_chip_sleep(void)
{
    1700:	b500      	push	{lr}
    1702:	b083      	sub	sp, #12
	sint8 ret = M2M_SUCCESS;

	if(gu8ChipSleep >= 1)
    1704:	4b17      	ldr	r3, [pc, #92]	; (1764 <hif_chip_sleep+0x64>)
    1706:	781b      	ldrb	r3, [r3, #0]
    1708:	2b00      	cmp	r3, #0
    170a:	d004      	beq.n	1716 <hif_chip_sleep+0x16>
	{
		gu8ChipSleep--;
    170c:	4a15      	ldr	r2, [pc, #84]	; (1764 <hif_chip_sleep+0x64>)
    170e:	7813      	ldrb	r3, [r2, #0]
    1710:	3b01      	subs	r3, #1
    1712:	b2db      	uxtb	r3, r3
    1714:	7013      	strb	r3, [r2, #0]
	}
	
	if(gu8ChipSleep == 0)
    1716:	4b13      	ldr	r3, [pc, #76]	; (1764 <hif_chip_sleep+0x64>)
    1718:	781b      	ldrb	r3, [r3, #0]
	sint8 ret = M2M_SUCCESS;
    171a:	2000      	movs	r0, #0
	if(gu8ChipSleep == 0)
    171c:	2b00      	cmp	r3, #0
    171e:	d107      	bne.n	1730 <hif_chip_sleep+0x30>
	{
		if((gu8ChipMode == M2M_PS_DEEP_AUTOMATIC)||(gu8ChipMode == M2M_PS_MANUAL))
    1720:	4b11      	ldr	r3, [pc, #68]	; (1768 <hif_chip_sleep+0x68>)
    1722:	781b      	ldrb	r3, [r3, #0]
    1724:	2b03      	cmp	r3, #3
    1726:	d005      	beq.n	1734 <hif_chip_sleep+0x34>
    1728:	4b0f      	ldr	r3, [pc, #60]	; (1768 <hif_chip_sleep+0x68>)
    172a:	781b      	ldrb	r3, [r3, #0]
    172c:	2b04      	cmp	r3, #4
    172e:	d001      	beq.n	1734 <hif_chip_sleep+0x34>
		{
		}
	}
ERR1:
	return ret;
}
    1730:	b003      	add	sp, #12
    1732:	bd00      	pop	{pc}
			uint32 reg = 0;
    1734:	2300      	movs	r3, #0
    1736:	9301      	str	r3, [sp, #4]
			ret = nm_write_reg(WAKE_REG, SLEEP_VALUE);
    1738:	490c      	ldr	r1, [pc, #48]	; (176c <hif_chip_sleep+0x6c>)
    173a:	480d      	ldr	r0, [pc, #52]	; (1770 <hif_chip_sleep+0x70>)
    173c:	4b0d      	ldr	r3, [pc, #52]	; (1774 <hif_chip_sleep+0x74>)
    173e:	4798      	blx	r3
			if(ret != M2M_SUCCESS)goto ERR1;
    1740:	2800      	cmp	r0, #0
    1742:	d1f5      	bne.n	1730 <hif_chip_sleep+0x30>
			ret = nm_read_reg_with_ret(0x1, &reg);
    1744:	a901      	add	r1, sp, #4
    1746:	3001      	adds	r0, #1
    1748:	4b0b      	ldr	r3, [pc, #44]	; (1778 <hif_chip_sleep+0x78>)
    174a:	4798      	blx	r3
			if(ret != M2M_SUCCESS)goto ERR1;
    174c:	2800      	cmp	r0, #0
    174e:	d1ef      	bne.n	1730 <hif_chip_sleep+0x30>
			if(reg&0x2)
    1750:	9901      	ldr	r1, [sp, #4]
    1752:	078b      	lsls	r3, r1, #30
    1754:	d5ec      	bpl.n	1730 <hif_chip_sleep+0x30>
				reg &=~(1 << 1);
    1756:	2302      	movs	r3, #2
    1758:	4399      	bics	r1, r3
    175a:	9101      	str	r1, [sp, #4]
				ret = nm_write_reg(0x1, reg);
    175c:	3001      	adds	r0, #1
    175e:	4b05      	ldr	r3, [pc, #20]	; (1774 <hif_chip_sleep+0x74>)
    1760:	4798      	blx	r3
    1762:	e7e5      	b.n	1730 <hif_chip_sleep+0x30>
    1764:	20000259 	.word	0x20000259
    1768:	20000258 	.word	0x20000258
    176c:	00004321 	.word	0x00004321
    1770:	00001074 	.word	0x00001074
    1774:	00002a11 	.word	0x00002a11
    1778:	00002a05 	.word	0x00002a05

0000177c <hif_send>:
*    @return		The function shall return ZERO for successful operation and a negative value otherwise.
*/

sint8 hif_send(uint8 u8Gid,uint8 u8Opcode,uint8 *pu8CtrlBuf,uint16 u16CtrlBufSize,
			   uint8 *pu8DataBuf,uint16 u16DataSize, uint16 u16DataOffset)
{
    177c:	b5f0      	push	{r4, r5, r6, r7, lr}
    177e:	46de      	mov	lr, fp
    1780:	4657      	mov	r7, sl
    1782:	b580      	push	{r7, lr}
    1784:	b089      	sub	sp, #36	; 0x24
    1786:	4683      	mov	fp, r0
    1788:	468a      	mov	sl, r1
    178a:	9201      	str	r2, [sp, #4]
    178c:	9300      	str	r3, [sp, #0]
    178e:	ab10      	add	r3, sp, #64	; 0x40
    1790:	cb80      	ldmia	r3!, {r7}
    1792:	881e      	ldrh	r6, [r3, #0]
    1794:	ab12      	add	r3, sp, #72	; 0x48
    1796:	881d      	ldrh	r5, [r3, #0]
	sint8		ret = M2M_ERR_SEND;
	volatile tstrHifHdr	strHif;

	strHif.u8Opcode		= u8Opcode&(~NBIT7);
    1798:	227f      	movs	r2, #127	; 0x7f
    179a:	400a      	ands	r2, r1
    179c:	ab07      	add	r3, sp, #28
    179e:	705a      	strb	r2, [r3, #1]
	strHif.u8Gid		= u8Gid;
    17a0:	7018      	strb	r0, [r3, #0]
	strHif.u16Length	= M2M_HIF_HDR_OFFSET;
    17a2:	2208      	movs	r2, #8
    17a4:	805a      	strh	r2, [r3, #2]
	if(pu8DataBuf != NULL)
    17a6:	2f00      	cmp	r7, #0
    17a8:	d100      	bne.n	17ac <hif_send+0x30>
    17aa:	e092      	b.n	18d2 <hif_send+0x156>
	{
		strHif.u16Length += u16DataOffset + u16DataSize;
    17ac:	885a      	ldrh	r2, [r3, #2]
    17ae:	1992      	adds	r2, r2, r6
    17b0:	18aa      	adds	r2, r5, r2
    17b2:	b292      	uxth	r2, r2
    17b4:	805a      	strh	r2, [r3, #2]
	}
	else
	{
		strHif.u16Length += u16CtrlBufSize;
	}
	ret = hif_chip_wake();
    17b6:	4b5a      	ldr	r3, [pc, #360]	; (1920 <hif_send+0x1a4>)
    17b8:	4798      	blx	r3
    17ba:	1e04      	subs	r4, r0, #0
	if(ret == M2M_SUCCESS)
    17bc:	d000      	beq.n	17c0 <hif_send+0x44>
    17be:	e099      	b.n	18f4 <hif_send+0x178>
	{
		volatile uint32 reg, dma_addr = 0;
    17c0:	2300      	movs	r3, #0
    17c2:	9305      	str	r3, [sp, #20]
		volatile uint16 cnt = 0;
    17c4:	aa02      	add	r2, sp, #8
    17c6:	80d3      	strh	r3, [r2, #6]

		reg = 0UL;
    17c8:	9304      	str	r3, [sp, #16]
		reg |= (uint32)u8Gid;
    17ca:	9b04      	ldr	r3, [sp, #16]
    17cc:	465a      	mov	r2, fp
    17ce:	431a      	orrs	r2, r3
    17d0:	9204      	str	r2, [sp, #16]
		reg |= ((uint32)u8Opcode<<8);
    17d2:	9a04      	ldr	r2, [sp, #16]
    17d4:	4653      	mov	r3, sl
    17d6:	021b      	lsls	r3, r3, #8
    17d8:	4313      	orrs	r3, r2
    17da:	9304      	str	r3, [sp, #16]
		reg |= ((uint32)strHif.u16Length<<16);
    17dc:	ab07      	add	r3, sp, #28
    17de:	885b      	ldrh	r3, [r3, #2]
    17e0:	9a04      	ldr	r2, [sp, #16]
    17e2:	041b      	lsls	r3, r3, #16
    17e4:	4313      	orrs	r3, r2
    17e6:	9304      	str	r3, [sp, #16]
		ret = nm_write_reg(NMI_STATE_REG,reg);
    17e8:	9904      	ldr	r1, [sp, #16]
    17ea:	484e      	ldr	r0, [pc, #312]	; (1924 <hif_send+0x1a8>)
    17ec:	4b4e      	ldr	r3, [pc, #312]	; (1928 <hif_send+0x1ac>)
    17ee:	4798      	blx	r3
    17f0:	1e04      	subs	r4, r0, #0
		if(M2M_SUCCESS != ret) goto ERR1;
    17f2:	d000      	beq.n	17f6 <hif_send+0x7a>
    17f4:	e08a      	b.n	190c <hif_send+0x190>


		reg = 0;
    17f6:	2300      	movs	r3, #0
    17f8:	9304      	str	r3, [sp, #16]
		reg |= (1<<1);
    17fa:	9b04      	ldr	r3, [sp, #16]
    17fc:	2202      	movs	r2, #2
    17fe:	4313      	orrs	r3, r2
    1800:	9304      	str	r3, [sp, #16]
		ret = nm_write_reg(WIFI_HOST_RCV_CTRL_2, reg);
    1802:	9904      	ldr	r1, [sp, #16]
    1804:	4849      	ldr	r0, [pc, #292]	; (192c <hif_send+0x1b0>)
    1806:	4b48      	ldr	r3, [pc, #288]	; (1928 <hif_send+0x1ac>)
    1808:	4798      	blx	r3
    180a:	1e04      	subs	r4, r0, #0
		if(M2M_SUCCESS != ret) goto ERR1;
    180c:	d000      	beq.n	1810 <hif_send+0x94>
    180e:	e07d      	b.n	190c <hif_send+0x190>
		dma_addr = 0;
    1810:	2200      	movs	r2, #0
    1812:	9205      	str	r2, [sp, #20]

		//nm_bsp_interrupt_ctrl(0);

		for(cnt = 0; cnt < 1000; cnt ++)
    1814:	ab02      	add	r3, sp, #8
    1816:	80da      	strh	r2, [r3, #6]
    1818:	3306      	adds	r3, #6
    181a:	881b      	ldrh	r3, [r3, #0]
    181c:	b29b      	uxth	r3, r3
    181e:	4a44      	ldr	r2, [pc, #272]	; (1930 <hif_send+0x1b4>)
    1820:	4293      	cmp	r3, r2
    1822:	d813      	bhi.n	184c <hif_send+0xd0>
		{
			ret = nm_read_reg_with_ret(WIFI_HOST_RCV_CTRL_2,(uint32 *)&reg);
    1824:	4c43      	ldr	r4, [pc, #268]	; (1934 <hif_send+0x1b8>)
    1826:	a904      	add	r1, sp, #16
    1828:	4840      	ldr	r0, [pc, #256]	; (192c <hif_send+0x1b0>)
    182a:	47a0      	blx	r4
			if(ret != M2M_SUCCESS) break;
    182c:	2800      	cmp	r0, #0
    182e:	d10d      	bne.n	184c <hif_send+0xd0>
			if (!(reg & 0x2))
    1830:	9b04      	ldr	r3, [sp, #16]
    1832:	079b      	lsls	r3, r3, #30
    1834:	d555      	bpl.n	18e2 <hif_send+0x166>
		for(cnt = 0; cnt < 1000; cnt ++)
    1836:	ab02      	add	r3, sp, #8
    1838:	88da      	ldrh	r2, [r3, #6]
    183a:	3201      	adds	r2, #1
    183c:	b292      	uxth	r2, r2
    183e:	80da      	strh	r2, [r3, #6]
    1840:	3306      	adds	r3, #6
    1842:	881b      	ldrh	r3, [r3, #0]
    1844:	b29b      	uxth	r3, r3
    1846:	4a3a      	ldr	r2, [pc, #232]	; (1930 <hif_send+0x1b4>)
    1848:	4293      	cmp	r3, r2
    184a:	d9ec      	bls.n	1826 <hif_send+0xaa>
				break;
			}
		}
		//nm_bsp_interrupt_ctrl(1);

		if (dma_addr != 0)
    184c:	9b05      	ldr	r3, [sp, #20]
    184e:	2b00      	cmp	r3, #0
    1850:	d062      	beq.n	1918 <hif_send+0x19c>
		{
			volatile uint32	u32CurrAddr;
			u32CurrAddr = dma_addr;
    1852:	9b05      	ldr	r3, [sp, #20]
    1854:	9306      	str	r3, [sp, #24]
			strHif.u16Length=NM_BSP_B_L_16(strHif.u16Length);
    1856:	a907      	add	r1, sp, #28
    1858:	884b      	ldrh	r3, [r1, #2]
    185a:	b29b      	uxth	r3, r3
    185c:	804b      	strh	r3, [r1, #2]
			ret = nm_write_block(u32CurrAddr, (uint8*)&strHif, M2M_HIF_HDR_OFFSET);
    185e:	9806      	ldr	r0, [sp, #24]
    1860:	2208      	movs	r2, #8
    1862:	4b35      	ldr	r3, [pc, #212]	; (1938 <hif_send+0x1bc>)
    1864:	4798      	blx	r3
    1866:	1e04      	subs	r4, r0, #0
		#ifdef CONF_WINC_USE_I2C
			nm_bsp_sleep(1);
		#endif
			if(M2M_SUCCESS != ret) goto ERR1;
    1868:	d150      	bne.n	190c <hif_send+0x190>
			u32CurrAddr += M2M_HIF_HDR_OFFSET;
    186a:	9b06      	ldr	r3, [sp, #24]
    186c:	3308      	adds	r3, #8
    186e:	9306      	str	r3, [sp, #24]
			if(pu8CtrlBuf != NULL)
    1870:	9b01      	ldr	r3, [sp, #4]
    1872:	2b00      	cmp	r3, #0
    1874:	d00b      	beq.n	188e <hif_send+0x112>
			{
				ret = nm_write_block(u32CurrAddr, pu8CtrlBuf, u16CtrlBufSize);
    1876:	9806      	ldr	r0, [sp, #24]
    1878:	9a00      	ldr	r2, [sp, #0]
    187a:	0019      	movs	r1, r3
    187c:	4b2e      	ldr	r3, [pc, #184]	; (1938 <hif_send+0x1bc>)
    187e:	4798      	blx	r3
    1880:	1e04      	subs	r4, r0, #0
			#ifdef CONF_WINC_USE_I2C
				nm_bsp_sleep(1);
			#endif
				if(M2M_SUCCESS != ret) goto ERR1;
    1882:	d143      	bne.n	190c <hif_send+0x190>
				u32CurrAddr += u16CtrlBufSize;
    1884:	9b06      	ldr	r3, [sp, #24]
    1886:	9a00      	ldr	r2, [sp, #0]
    1888:	4694      	mov	ip, r2
    188a:	4463      	add	r3, ip
    188c:	9306      	str	r3, [sp, #24]
			}
			if(pu8DataBuf != NULL)
    188e:	2f00      	cmp	r7, #0
    1890:	d00e      	beq.n	18b0 <hif_send+0x134>
			{
				u32CurrAddr += (u16DataOffset - u16CtrlBufSize);
    1892:	9b06      	ldr	r3, [sp, #24]
    1894:	9a00      	ldr	r2, [sp, #0]
    1896:	1aad      	subs	r5, r5, r2
    1898:	18ed      	adds	r5, r5, r3
    189a:	9506      	str	r5, [sp, #24]
				ret = nm_write_block(u32CurrAddr, pu8DataBuf, u16DataSize);
    189c:	9806      	ldr	r0, [sp, #24]
    189e:	0032      	movs	r2, r6
    18a0:	0039      	movs	r1, r7
    18a2:	4b25      	ldr	r3, [pc, #148]	; (1938 <hif_send+0x1bc>)
    18a4:	4798      	blx	r3
    18a6:	1e04      	subs	r4, r0, #0
			#ifdef CONF_WINC_USE_I2C	
				nm_bsp_sleep(1);
			#endif
				if(M2M_SUCCESS != ret) goto ERR1;
    18a8:	d130      	bne.n	190c <hif_send+0x190>
				u32CurrAddr += u16DataSize;
    18aa:	9b06      	ldr	r3, [sp, #24]
    18ac:	18f3      	adds	r3, r6, r3
    18ae:	9306      	str	r3, [sp, #24]
			}

			reg = dma_addr << 2;
    18b0:	9b05      	ldr	r3, [sp, #20]
    18b2:	009b      	lsls	r3, r3, #2
    18b4:	9304      	str	r3, [sp, #16]
			reg |= (1 << 1);
    18b6:	9b04      	ldr	r3, [sp, #16]
    18b8:	2202      	movs	r2, #2
    18ba:	4313      	orrs	r3, r2
    18bc:	9304      	str	r3, [sp, #16]
			ret = nm_write_reg(WIFI_HOST_RCV_CTRL_3, reg);
    18be:	9904      	ldr	r1, [sp, #16]
    18c0:	481e      	ldr	r0, [pc, #120]	; (193c <hif_send+0x1c0>)
    18c2:	4b19      	ldr	r3, [pc, #100]	; (1928 <hif_send+0x1ac>)
    18c4:	4798      	blx	r3
    18c6:	1e04      	subs	r4, r0, #0
			if(M2M_SUCCESS != ret) goto ERR1;
    18c8:	d120      	bne.n	190c <hif_send+0x190>
	else
	{
		M2M_ERR("(HIF)Fail to wakup the chip\n");
		goto ERR1;
	}
	ret = hif_chip_sleep();
    18ca:	4b1d      	ldr	r3, [pc, #116]	; (1940 <hif_send+0x1c4>)
    18cc:	4798      	blx	r3
    18ce:	0004      	movs	r4, r0
    18d0:	e01c      	b.n	190c <hif_send+0x190>
		strHif.u16Length += u16CtrlBufSize;
    18d2:	ab07      	add	r3, sp, #28
    18d4:	885a      	ldrh	r2, [r3, #2]
    18d6:	9900      	ldr	r1, [sp, #0]
    18d8:	468c      	mov	ip, r1
    18da:	4462      	add	r2, ip
    18dc:	b292      	uxth	r2, r2
    18de:	805a      	strh	r2, [r3, #2]
    18e0:	e769      	b.n	17b6 <hif_send+0x3a>
				ret = nm_read_reg_with_ret(0x150400,(uint32 *)&dma_addr);
    18e2:	a905      	add	r1, sp, #20
    18e4:	4817      	ldr	r0, [pc, #92]	; (1944 <hif_send+0x1c8>)
    18e6:	4b13      	ldr	r3, [pc, #76]	; (1934 <hif_send+0x1b8>)
    18e8:	4798      	blx	r3
				if(ret != M2M_SUCCESS) {
    18ea:	2800      	cmp	r0, #0
    18ec:	d0ae      	beq.n	184c <hif_send+0xd0>
					dma_addr = 0;
    18ee:	2300      	movs	r3, #0
    18f0:	9305      	str	r3, [sp, #20]
    18f2:	e7ab      	b.n	184c <hif_send+0xd0>
		M2M_ERR("(HIF)Fail to wakup the chip\n");
    18f4:	22a0      	movs	r2, #160	; 0xa0
    18f6:	32ff      	adds	r2, #255	; 0xff
    18f8:	4913      	ldr	r1, [pc, #76]	; (1948 <hif_send+0x1cc>)
    18fa:	4814      	ldr	r0, [pc, #80]	; (194c <hif_send+0x1d0>)
    18fc:	4b14      	ldr	r3, [pc, #80]	; (1950 <hif_send+0x1d4>)
    18fe:	4798      	blx	r3
    1900:	4814      	ldr	r0, [pc, #80]	; (1954 <hif_send+0x1d8>)
    1902:	4b15      	ldr	r3, [pc, #84]	; (1958 <hif_send+0x1dc>)
    1904:	4798      	blx	r3
    1906:	200d      	movs	r0, #13
    1908:	4b14      	ldr	r3, [pc, #80]	; (195c <hif_send+0x1e0>)
    190a:	4798      	blx	r3

ERR1:
	return ret;
}
    190c:	0020      	movs	r0, r4
    190e:	b009      	add	sp, #36	; 0x24
    1910:	bc0c      	pop	{r2, r3}
    1912:	4692      	mov	sl, r2
    1914:	469b      	mov	fp, r3
    1916:	bdf0      	pop	{r4, r5, r6, r7, pc}
			ret =  M2M_ERR_MEM_ALLOC;
    1918:	2403      	movs	r4, #3
    191a:	4264      	negs	r4, r4
    191c:	e7f6      	b.n	190c <hif_send+0x190>
    191e:	46c0      	nop			; (mov r8, r8)
    1920:	000016a9 	.word	0x000016a9
    1924:	0000108c 	.word	0x0000108c
    1928:	00002a11 	.word	0x00002a11
    192c:	00001078 	.word	0x00001078
    1930:	000003e7 	.word	0x000003e7
    1934:	00002a05 	.word	0x00002a05
    1938:	00002a85 	.word	0x00002a85
    193c:	0000106c 	.word	0x0000106c
    1940:	00001701 	.word	0x00001701
    1944:	00150400 	.word	0x00150400
    1948:	00008d68 	.word	0x00008d68
    194c:	00008d20 	.word	0x00008d20
    1950:	000076ad 	.word	0x000076ad
    1954:	00008fb8 	.word	0x00008fb8
    1958:	000077c9 	.word	0x000077c9
    195c:	000076e1 	.word	0x000076e1

00001960 <hif_handle_isr>:
*	@brief	Handle interrupt received from NMC1500 firmware.
*   @return     The function SHALL return 0 for success and a negative value otherwise.
*/

sint8 hif_handle_isr(void)
{
    1960:	b5f0      	push	{r4, r5, r6, r7, lr}
    1962:	46ce      	mov	lr, r9
    1964:	4647      	mov	r7, r8
    1966:	b580      	push	{r7, lr}
    1968:	b087      	sub	sp, #28
	sint8 ret = M2M_SUCCESS;

	while (gu8Interrupt) {
    196a:	4ba4      	ldr	r3, [pc, #656]	; (1bfc <hif_handle_isr+0x29c>)
    196c:	4698      	mov	r8, r3
		/*must be at that place because of the race of interrupt increment and that decrement*/
		/*when the interrupt enabled*/
		gu8Interrupt--;
    196e:	4699      	mov	r9, r3
	while (gu8Interrupt) {
    1970:	e0d7      	b.n	1b22 <hif_handle_isr+0x1c2>
					ret = nm_read_block(address, (uint8*)&strHif, sizeof(tstrHifHdr));
    1972:	ad04      	add	r5, sp, #16
    1974:	2204      	movs	r2, #4
    1976:	0029      	movs	r1, r5
    1978:	9805      	ldr	r0, [sp, #20]
    197a:	4ba1      	ldr	r3, [pc, #644]	; (1c00 <hif_handle_isr+0x2a0>)
    197c:	4798      	blx	r3
    197e:	0004      	movs	r4, r0
					strHif.u16Length = NM_BSP_B_L_16(strHif.u16Length);
    1980:	886b      	ldrh	r3, [r5, #2]
    1982:	b29b      	uxth	r3, r3
    1984:	806b      	strh	r3, [r5, #2]
					if(M2M_SUCCESS != ret)
    1986:	2800      	cmp	r0, #0
    1988:	d12c      	bne.n	19e4 <hif_handle_isr+0x84>
					if(strHif.u16Length != size)
    198a:	ab04      	add	r3, sp, #16
    198c:	885b      	ldrh	r3, [r3, #2]
    198e:	b29b      	uxth	r3, r3
    1990:	429e      	cmp	r6, r3
    1992:	d004      	beq.n	199e <hif_handle_isr+0x3e>
						if((size - strHif.u16Length) > 4)
    1994:	ab04      	add	r3, sp, #16
    1996:	885b      	ldrh	r3, [r3, #2]
    1998:	1af3      	subs	r3, r6, r3
    199a:	2b04      	cmp	r3, #4
    199c:	dc32      	bgt.n	1a04 <hif_handle_isr+0xa4>
					if(M2M_REQ_GROUP_WIFI == strHif.u8Gid)
    199e:	ab04      	add	r3, sp, #16
    19a0:	781b      	ldrb	r3, [r3, #0]
    19a2:	2b01      	cmp	r3, #1
    19a4:	d047      	beq.n	1a36 <hif_handle_isr+0xd6>
					else if(M2M_REQ_GROUP_IP == strHif.u8Gid)
    19a6:	ab04      	add	r3, sp, #16
    19a8:	781b      	ldrb	r3, [r3, #0]
    19aa:	2b02      	cmp	r3, #2
    19ac:	d062      	beq.n	1a74 <hif_handle_isr+0x114>
					else if(M2M_REQ_GROUP_OTA == strHif.u8Gid)
    19ae:	ab04      	add	r3, sp, #16
    19b0:	781b      	ldrb	r3, [r3, #0]
    19b2:	2b04      	cmp	r3, #4
    19b4:	d06c      	beq.n	1a90 <hif_handle_isr+0x130>
					else if(M2M_REQ_GROUP_CRYPTO == strHif.u8Gid)
    19b6:	ab04      	add	r3, sp, #16
    19b8:	781b      	ldrb	r3, [r3, #0]
    19ba:	2b06      	cmp	r3, #6
    19bc:	d076      	beq.n	1aac <hif_handle_isr+0x14c>
					else if(M2M_REQ_GROUP_SIGMA == strHif.u8Gid)
    19be:	ab04      	add	r3, sp, #16
    19c0:	781b      	ldrb	r3, [r3, #0]
    19c2:	2b07      	cmp	r3, #7
    19c4:	d100      	bne.n	19c8 <hif_handle_isr+0x68>
    19c6:	e07f      	b.n	1ac8 <hif_handle_isr+0x168>
						M2M_ERR("(hif) invalid group ID\n");
    19c8:	4a8e      	ldr	r2, [pc, #568]	; (1c04 <hif_handle_isr+0x2a4>)
    19ca:	498f      	ldr	r1, [pc, #572]	; (1c08 <hif_handle_isr+0x2a8>)
    19cc:	488f      	ldr	r0, [pc, #572]	; (1c0c <hif_handle_isr+0x2ac>)
    19ce:	4b90      	ldr	r3, [pc, #576]	; (1c10 <hif_handle_isr+0x2b0>)
    19d0:	4798      	blx	r3
    19d2:	4890      	ldr	r0, [pc, #576]	; (1c14 <hif_handle_isr+0x2b4>)
    19d4:	4b90      	ldr	r3, [pc, #576]	; (1c18 <hif_handle_isr+0x2b8>)
    19d6:	4798      	blx	r3
    19d8:	200d      	movs	r0, #13
    19da:	4b90      	ldr	r3, [pc, #576]	; (1c1c <hif_handle_isr+0x2bc>)
    19dc:	4798      	blx	r3
						ret = M2M_ERR_BUS_FAIL;
    19de:	2406      	movs	r4, #6
    19e0:	4264      	negs	r4, r4
    19e2:	e09c      	b.n	1b1e <hif_handle_isr+0x1be>
						M2M_ERR("(hif) address bus fail\n");
    19e4:	22eb      	movs	r2, #235	; 0xeb
    19e6:	0052      	lsls	r2, r2, #1
    19e8:	4987      	ldr	r1, [pc, #540]	; (1c08 <hif_handle_isr+0x2a8>)
    19ea:	4888      	ldr	r0, [pc, #544]	; (1c0c <hif_handle_isr+0x2ac>)
    19ec:	4b88      	ldr	r3, [pc, #544]	; (1c10 <hif_handle_isr+0x2b0>)
    19ee:	4798      	blx	r3
    19f0:	488b      	ldr	r0, [pc, #556]	; (1c20 <hif_handle_isr+0x2c0>)
    19f2:	4b89      	ldr	r3, [pc, #548]	; (1c18 <hif_handle_isr+0x2b8>)
    19f4:	4798      	blx	r3
    19f6:	200d      	movs	r0, #13
    19f8:	4b88      	ldr	r3, [pc, #544]	; (1c1c <hif_handle_isr+0x2bc>)
    19fa:	4798      	blx	r3
						nm_bsp_interrupt_ctrl(1);
    19fc:	2001      	movs	r0, #1
    19fe:	4b89      	ldr	r3, [pc, #548]	; (1c24 <hif_handle_isr+0x2c4>)
    1a00:	4798      	blx	r3
    1a02:	e08c      	b.n	1b1e <hif_handle_isr+0x1be>
							M2M_ERR("(hif) Corrupted packet Size = %u <L = %u, G = %u, OP = %02X>\n",
    1a04:	22e0      	movs	r2, #224	; 0xe0
    1a06:	32ff      	adds	r2, #255	; 0xff
    1a08:	497f      	ldr	r1, [pc, #508]	; (1c08 <hif_handle_isr+0x2a8>)
    1a0a:	4880      	ldr	r0, [pc, #512]	; (1c0c <hif_handle_isr+0x2ac>)
    1a0c:	4c80      	ldr	r4, [pc, #512]	; (1c10 <hif_handle_isr+0x2b0>)
    1a0e:	47a0      	blx	r4
    1a10:	a904      	add	r1, sp, #16
    1a12:	884a      	ldrh	r2, [r1, #2]
    1a14:	b292      	uxth	r2, r2
    1a16:	780b      	ldrb	r3, [r1, #0]
    1a18:	b2db      	uxtb	r3, r3
    1a1a:	7849      	ldrb	r1, [r1, #1]
    1a1c:	9100      	str	r1, [sp, #0]
    1a1e:	0031      	movs	r1, r6
    1a20:	4881      	ldr	r0, [pc, #516]	; (1c28 <hif_handle_isr+0x2c8>)
    1a22:	47a0      	blx	r4
    1a24:	200d      	movs	r0, #13
    1a26:	4b7d      	ldr	r3, [pc, #500]	; (1c1c <hif_handle_isr+0x2bc>)
    1a28:	4798      	blx	r3
							nm_bsp_interrupt_ctrl(1);
    1a2a:	2001      	movs	r0, #1
    1a2c:	4b7d      	ldr	r3, [pc, #500]	; (1c24 <hif_handle_isr+0x2c4>)
    1a2e:	4798      	blx	r3
							ret = M2M_ERR_BUS_FAIL;
    1a30:	2406      	movs	r4, #6
    1a32:	4264      	negs	r4, r4
    1a34:	e073      	b.n	1b1e <hif_handle_isr+0x1be>
						if(pfWifiCb)
    1a36:	4b7d      	ldr	r3, [pc, #500]	; (1c2c <hif_handle_isr+0x2cc>)
    1a38:	681b      	ldr	r3, [r3, #0]
    1a3a:	2b00      	cmp	r3, #0
    1a3c:	d008      	beq.n	1a50 <hif_handle_isr+0xf0>
							pfWifiCb(strHif.u8Opcode,strHif.u16Length - M2M_HIF_HDR_OFFSET, address + M2M_HIF_HDR_OFFSET);
    1a3e:	aa04      	add	r2, sp, #16
    1a40:	7850      	ldrb	r0, [r2, #1]
    1a42:	b2c0      	uxtb	r0, r0
    1a44:	8851      	ldrh	r1, [r2, #2]
    1a46:	9a05      	ldr	r2, [sp, #20]
    1a48:	3208      	adds	r2, #8
    1a4a:	3908      	subs	r1, #8
    1a4c:	b289      	uxth	r1, r1
    1a4e:	4798      	blx	r3
					if(!gu8HifSizeDone)
    1a50:	4b77      	ldr	r3, [pc, #476]	; (1c30 <hif_handle_isr+0x2d0>)
    1a52:	781b      	ldrb	r3, [r3, #0]
    1a54:	2b00      	cmp	r3, #0
    1a56:	d15f      	bne.n	1b18 <hif_handle_isr+0x1b8>
						M2M_ERR("(hif) host app didn't set RX Done\n");
    1a58:	4a76      	ldr	r2, [pc, #472]	; (1c34 <hif_handle_isr+0x2d4>)
    1a5a:	496b      	ldr	r1, [pc, #428]	; (1c08 <hif_handle_isr+0x2a8>)
    1a5c:	486b      	ldr	r0, [pc, #428]	; (1c0c <hif_handle_isr+0x2ac>)
    1a5e:	4b6c      	ldr	r3, [pc, #432]	; (1c10 <hif_handle_isr+0x2b0>)
    1a60:	4798      	blx	r3
    1a62:	4875      	ldr	r0, [pc, #468]	; (1c38 <hif_handle_isr+0x2d8>)
    1a64:	4b6c      	ldr	r3, [pc, #432]	; (1c18 <hif_handle_isr+0x2b8>)
    1a66:	4798      	blx	r3
    1a68:	200d      	movs	r0, #13
    1a6a:	4b6c      	ldr	r3, [pc, #432]	; (1c1c <hif_handle_isr+0x2bc>)
    1a6c:	4798      	blx	r3
						ret = hif_set_rx_done();
    1a6e:	4b73      	ldr	r3, [pc, #460]	; (1c3c <hif_handle_isr+0x2dc>)
    1a70:	4798      	blx	r3
    1a72:	e051      	b.n	1b18 <hif_handle_isr+0x1b8>
						if(pfIpCb)
    1a74:	4b72      	ldr	r3, [pc, #456]	; (1c40 <hif_handle_isr+0x2e0>)
    1a76:	681b      	ldr	r3, [r3, #0]
    1a78:	2b00      	cmp	r3, #0
    1a7a:	d0e9      	beq.n	1a50 <hif_handle_isr+0xf0>
							pfIpCb(strHif.u8Opcode,strHif.u16Length - M2M_HIF_HDR_OFFSET, address + M2M_HIF_HDR_OFFSET);
    1a7c:	aa04      	add	r2, sp, #16
    1a7e:	7850      	ldrb	r0, [r2, #1]
    1a80:	b2c0      	uxtb	r0, r0
    1a82:	8851      	ldrh	r1, [r2, #2]
    1a84:	9a05      	ldr	r2, [sp, #20]
    1a86:	3208      	adds	r2, #8
    1a88:	3908      	subs	r1, #8
    1a8a:	b289      	uxth	r1, r1
    1a8c:	4798      	blx	r3
    1a8e:	e7df      	b.n	1a50 <hif_handle_isr+0xf0>
						if(pfOtaCb)
    1a90:	4b6c      	ldr	r3, [pc, #432]	; (1c44 <hif_handle_isr+0x2e4>)
    1a92:	681b      	ldr	r3, [r3, #0]
    1a94:	2b00      	cmp	r3, #0
    1a96:	d0db      	beq.n	1a50 <hif_handle_isr+0xf0>
							pfOtaCb(strHif.u8Opcode,strHif.u16Length - M2M_HIF_HDR_OFFSET, address + M2M_HIF_HDR_OFFSET);
    1a98:	aa04      	add	r2, sp, #16
    1a9a:	7850      	ldrb	r0, [r2, #1]
    1a9c:	b2c0      	uxtb	r0, r0
    1a9e:	8851      	ldrh	r1, [r2, #2]
    1aa0:	9a05      	ldr	r2, [sp, #20]
    1aa2:	3208      	adds	r2, #8
    1aa4:	3908      	subs	r1, #8
    1aa6:	b289      	uxth	r1, r1
    1aa8:	4798      	blx	r3
    1aaa:	e7d1      	b.n	1a50 <hif_handle_isr+0xf0>
						if(pfCryptoCb)
    1aac:	4b66      	ldr	r3, [pc, #408]	; (1c48 <hif_handle_isr+0x2e8>)
    1aae:	681b      	ldr	r3, [r3, #0]
    1ab0:	2b00      	cmp	r3, #0
    1ab2:	d0cd      	beq.n	1a50 <hif_handle_isr+0xf0>
							pfCryptoCb(strHif.u8Opcode,strHif.u16Length - M2M_HIF_HDR_OFFSET, address + M2M_HIF_HDR_OFFSET);
    1ab4:	aa04      	add	r2, sp, #16
    1ab6:	7850      	ldrb	r0, [r2, #1]
    1ab8:	b2c0      	uxtb	r0, r0
    1aba:	8851      	ldrh	r1, [r2, #2]
    1abc:	9a05      	ldr	r2, [sp, #20]
    1abe:	3208      	adds	r2, #8
    1ac0:	3908      	subs	r1, #8
    1ac2:	b289      	uxth	r1, r1
    1ac4:	4798      	blx	r3
    1ac6:	e7c3      	b.n	1a50 <hif_handle_isr+0xf0>
						if(pfSigmaCb)
    1ac8:	4b60      	ldr	r3, [pc, #384]	; (1c4c <hif_handle_isr+0x2ec>)
    1aca:	681b      	ldr	r3, [r3, #0]
    1acc:	2b00      	cmp	r3, #0
    1ace:	d0bf      	beq.n	1a50 <hif_handle_isr+0xf0>
							pfSigmaCb(strHif.u8Opcode,strHif.u16Length - M2M_HIF_HDR_OFFSET, address + M2M_HIF_HDR_OFFSET);
    1ad0:	aa04      	add	r2, sp, #16
    1ad2:	7850      	ldrb	r0, [r2, #1]
    1ad4:	b2c0      	uxtb	r0, r0
    1ad6:	8851      	ldrh	r1, [r2, #2]
    1ad8:	9a05      	ldr	r2, [sp, #20]
    1ada:	3208      	adds	r2, #8
    1adc:	3908      	subs	r1, #8
    1ade:	b289      	uxth	r1, r1
    1ae0:	4798      	blx	r3
    1ae2:	e7b5      	b.n	1a50 <hif_handle_isr+0xf0>
					M2M_ERR("(hif) Wrong Size\n");
    1ae4:	4a5a      	ldr	r2, [pc, #360]	; (1c50 <hif_handle_isr+0x2f0>)
    1ae6:	4948      	ldr	r1, [pc, #288]	; (1c08 <hif_handle_isr+0x2a8>)
    1ae8:	4848      	ldr	r0, [pc, #288]	; (1c0c <hif_handle_isr+0x2ac>)
    1aea:	4b49      	ldr	r3, [pc, #292]	; (1c10 <hif_handle_isr+0x2b0>)
    1aec:	4798      	blx	r3
    1aee:	4859      	ldr	r0, [pc, #356]	; (1c54 <hif_handle_isr+0x2f4>)
    1af0:	4b49      	ldr	r3, [pc, #292]	; (1c18 <hif_handle_isr+0x2b8>)
    1af2:	4798      	blx	r3
    1af4:	200d      	movs	r0, #13
    1af6:	4b49      	ldr	r3, [pc, #292]	; (1c1c <hif_handle_isr+0x2bc>)
    1af8:	4798      	blx	r3
					ret = M2M_ERR_RCV;
    1afa:	2402      	movs	r4, #2
    1afc:	4264      	negs	r4, r4
    1afe:	e034      	b.n	1b6a <hif_handle_isr+0x20a>
				M2M_ERR("(hif) False interrupt %lx",reg);
    1b00:	2286      	movs	r2, #134	; 0x86
    1b02:	0092      	lsls	r2, r2, #2
    1b04:	4940      	ldr	r1, [pc, #256]	; (1c08 <hif_handle_isr+0x2a8>)
    1b06:	4841      	ldr	r0, [pc, #260]	; (1c0c <hif_handle_isr+0x2ac>)
    1b08:	4c41      	ldr	r4, [pc, #260]	; (1c10 <hif_handle_isr+0x2b0>)
    1b0a:	47a0      	blx	r4
    1b0c:	9903      	ldr	r1, [sp, #12]
    1b0e:	4852      	ldr	r0, [pc, #328]	; (1c58 <hif_handle_isr+0x2f8>)
    1b10:	47a0      	blx	r4
    1b12:	200d      	movs	r0, #13
    1b14:	4b41      	ldr	r3, [pc, #260]	; (1c1c <hif_handle_isr+0x2bc>)
    1b16:	4798      	blx	r3
	ret = hif_chip_sleep();
    1b18:	4b50      	ldr	r3, [pc, #320]	; (1c5c <hif_handle_isr+0x2fc>)
    1b1a:	4798      	blx	r3
    1b1c:	0004      	movs	r4, r0
		while(1)
		{
			ret = hif_isr();
			if(ret == M2M_SUCCESS) {
    1b1e:	2c00      	cmp	r4, #0
    1b20:	d123      	bne.n	1b6a <hif_handle_isr+0x20a>
	while (gu8Interrupt) {
    1b22:	4643      	mov	r3, r8
    1b24:	781b      	ldrb	r3, [r3, #0]
    1b26:	2b00      	cmp	r3, #0
    1b28:	d062      	beq.n	1bf0 <hif_handle_isr+0x290>
		gu8Interrupt--;
    1b2a:	464b      	mov	r3, r9
    1b2c:	781b      	ldrb	r3, [r3, #0]
    1b2e:	3b01      	subs	r3, #1
    1b30:	b2db      	uxtb	r3, r3
    1b32:	464a      	mov	r2, r9
    1b34:	7013      	strb	r3, [r2, #0]
	ret = hif_chip_wake();
    1b36:	4f4a      	ldr	r7, [pc, #296]	; (1c60 <hif_handle_isr+0x300>)
    1b38:	e022      	b.n	1b80 <hif_handle_isr+0x220>
			M2M_ERR("(hif) Fail to Read interrupt reg\n");
    1b3a:	4a4a      	ldr	r2, [pc, #296]	; (1c64 <hif_handle_isr+0x304>)
    1b3c:	4932      	ldr	r1, [pc, #200]	; (1c08 <hif_handle_isr+0x2a8>)
    1b3e:	4833      	ldr	r0, [pc, #204]	; (1c0c <hif_handle_isr+0x2ac>)
    1b40:	4b33      	ldr	r3, [pc, #204]	; (1c10 <hif_handle_isr+0x2b0>)
    1b42:	4798      	blx	r3
    1b44:	4848      	ldr	r0, [pc, #288]	; (1c68 <hif_handle_isr+0x308>)
    1b46:	4b34      	ldr	r3, [pc, #208]	; (1c18 <hif_handle_isr+0x2b8>)
    1b48:	4798      	blx	r3
    1b4a:	200d      	movs	r0, #13
    1b4c:	4b33      	ldr	r3, [pc, #204]	; (1c1c <hif_handle_isr+0x2bc>)
    1b4e:	4798      	blx	r3
    1b50:	e00b      	b.n	1b6a <hif_handle_isr+0x20a>
		M2M_ERR("(hif) FAIL to wakeup the chip\n");
    1b52:	2289      	movs	r2, #137	; 0x89
    1b54:	0092      	lsls	r2, r2, #2
    1b56:	492c      	ldr	r1, [pc, #176]	; (1c08 <hif_handle_isr+0x2a8>)
    1b58:	482c      	ldr	r0, [pc, #176]	; (1c0c <hif_handle_isr+0x2ac>)
    1b5a:	4b2d      	ldr	r3, [pc, #180]	; (1c10 <hif_handle_isr+0x2b0>)
    1b5c:	4798      	blx	r3
    1b5e:	4843      	ldr	r0, [pc, #268]	; (1c6c <hif_handle_isr+0x30c>)
    1b60:	4b2d      	ldr	r3, [pc, #180]	; (1c18 <hif_handle_isr+0x2b8>)
    1b62:	4798      	blx	r3
    1b64:	200d      	movs	r0, #13
    1b66:	4b2d      	ldr	r3, [pc, #180]	; (1c1c <hif_handle_isr+0x2bc>)
    1b68:	4798      	blx	r3
				/*we will try forever untill we get that interrupt*/
				/*Fail return errors here due to bus errors (reading expected values)*/
				break;
			} else {
				M2M_ERR("(HIF) Fail to handle interrupt %d try Again..\n",ret);
    1b6a:	4a41      	ldr	r2, [pc, #260]	; (1c70 <hif_handle_isr+0x310>)
    1b6c:	4941      	ldr	r1, [pc, #260]	; (1c74 <hif_handle_isr+0x314>)
    1b6e:	4827      	ldr	r0, [pc, #156]	; (1c0c <hif_handle_isr+0x2ac>)
    1b70:	4d27      	ldr	r5, [pc, #156]	; (1c10 <hif_handle_isr+0x2b0>)
    1b72:	47a8      	blx	r5
    1b74:	0021      	movs	r1, r4
    1b76:	4840      	ldr	r0, [pc, #256]	; (1c78 <hif_handle_isr+0x318>)
    1b78:	47a8      	blx	r5
    1b7a:	200d      	movs	r0, #13
    1b7c:	4b27      	ldr	r3, [pc, #156]	; (1c1c <hif_handle_isr+0x2bc>)
    1b7e:	4798      	blx	r3
	ret = hif_chip_wake();
    1b80:	47b8      	blx	r7
    1b82:	1e04      	subs	r4, r0, #0
	if(ret == M2M_SUCCESS)
    1b84:	d1e5      	bne.n	1b52 <hif_handle_isr+0x1f2>
		ret = nm_read_reg_with_ret(WIFI_HOST_RCV_CTRL_0, &reg);
    1b86:	a903      	add	r1, sp, #12
    1b88:	483c      	ldr	r0, [pc, #240]	; (1c7c <hif_handle_isr+0x31c>)
    1b8a:	4b3d      	ldr	r3, [pc, #244]	; (1c80 <hif_handle_isr+0x320>)
    1b8c:	4798      	blx	r3
    1b8e:	1e04      	subs	r4, r0, #0
		if(M2M_SUCCESS == ret)
    1b90:	d1d3      	bne.n	1b3a <hif_handle_isr+0x1da>
			if(reg & 0x1)	/* New interrupt has been received */
    1b92:	9b03      	ldr	r3, [sp, #12]
    1b94:	07db      	lsls	r3, r3, #31
    1b96:	d5b3      	bpl.n	1b00 <hif_handle_isr+0x1a0>
				nm_bsp_interrupt_ctrl(0);
    1b98:	2000      	movs	r0, #0
    1b9a:	4b22      	ldr	r3, [pc, #136]	; (1c24 <hif_handle_isr+0x2c4>)
    1b9c:	4798      	blx	r3
				reg &= ~(1<<0);
    1b9e:	2301      	movs	r3, #1
    1ba0:	9903      	ldr	r1, [sp, #12]
    1ba2:	4399      	bics	r1, r3
    1ba4:	9103      	str	r1, [sp, #12]
				ret = nm_write_reg(WIFI_HOST_RCV_CTRL_0,reg);
    1ba6:	4835      	ldr	r0, [pc, #212]	; (1c7c <hif_handle_isr+0x31c>)
    1ba8:	4b36      	ldr	r3, [pc, #216]	; (1c84 <hif_handle_isr+0x324>)
    1baa:	4798      	blx	r3
    1bac:	1e04      	subs	r4, r0, #0
				if(ret != M2M_SUCCESS)goto ERR1;
    1bae:	d1dc      	bne.n	1b6a <hif_handle_isr+0x20a>
				gu8HifSizeDone = 0;
    1bb0:	2200      	movs	r2, #0
    1bb2:	4b1f      	ldr	r3, [pc, #124]	; (1c30 <hif_handle_isr+0x2d0>)
    1bb4:	701a      	strb	r2, [r3, #0]
				size = (uint16)((reg >> 2) & 0xfff);
    1bb6:	9b03      	ldr	r3, [sp, #12]
    1bb8:	049e      	lsls	r6, r3, #18
    1bba:	0d36      	lsrs	r6, r6, #20
				if (size > 0) {
    1bbc:	d092      	beq.n	1ae4 <hif_handle_isr+0x184>
					uint32 address = 0;
    1bbe:	2300      	movs	r3, #0
    1bc0:	9305      	str	r3, [sp, #20]
					ret = nm_read_reg_with_ret(WIFI_HOST_RCV_CTRL_1, &address);
    1bc2:	a905      	add	r1, sp, #20
    1bc4:	4830      	ldr	r0, [pc, #192]	; (1c88 <hif_handle_isr+0x328>)
    1bc6:	4b2e      	ldr	r3, [pc, #184]	; (1c80 <hif_handle_isr+0x320>)
    1bc8:	4798      	blx	r3
    1bca:	1e04      	subs	r4, r0, #0
					if(M2M_SUCCESS != ret)
    1bcc:	d100      	bne.n	1bd0 <hif_handle_isr+0x270>
    1bce:	e6d0      	b.n	1972 <hif_handle_isr+0x12>
						M2M_ERR("(hif) WIFI_HOST_RCV_CTRL_1 bus fail\n");
    1bd0:	22e7      	movs	r2, #231	; 0xe7
    1bd2:	0052      	lsls	r2, r2, #1
    1bd4:	490c      	ldr	r1, [pc, #48]	; (1c08 <hif_handle_isr+0x2a8>)
    1bd6:	480d      	ldr	r0, [pc, #52]	; (1c0c <hif_handle_isr+0x2ac>)
    1bd8:	4b0d      	ldr	r3, [pc, #52]	; (1c10 <hif_handle_isr+0x2b0>)
    1bda:	4798      	blx	r3
    1bdc:	482b      	ldr	r0, [pc, #172]	; (1c8c <hif_handle_isr+0x32c>)
    1bde:	4b0e      	ldr	r3, [pc, #56]	; (1c18 <hif_handle_isr+0x2b8>)
    1be0:	4798      	blx	r3
    1be2:	200d      	movs	r0, #13
    1be4:	4b0d      	ldr	r3, [pc, #52]	; (1c1c <hif_handle_isr+0x2bc>)
    1be6:	4798      	blx	r3
						nm_bsp_interrupt_ctrl(1);
    1be8:	2001      	movs	r0, #1
    1bea:	4b0e      	ldr	r3, [pc, #56]	; (1c24 <hif_handle_isr+0x2c4>)
    1bec:	4798      	blx	r3
    1bee:	e796      	b.n	1b1e <hif_handle_isr+0x1be>
			}
		}
	}

	return ret;
}
    1bf0:	2000      	movs	r0, #0
    1bf2:	b007      	add	sp, #28
    1bf4:	bc0c      	pop	{r2, r3}
    1bf6:	4690      	mov	r8, r2
    1bf8:	4699      	mov	r9, r3
    1bfa:	bdf0      	pop	{r4, r5, r6, r7, pc}
    1bfc:	2000025b 	.word	0x2000025b
    1c00:	00002a1d 	.word	0x00002a1d
    1c04:	00000202 	.word	0x00000202
    1c08:	00008d74 	.word	0x00008d74
    1c0c:	00008d20 	.word	0x00008d20
    1c10:	000076ad 	.word	0x000076ad
    1c14:	00008e24 	.word	0x00008e24
    1c18:	000077c9 	.word	0x000077c9
    1c1c:	000076e1 	.word	0x000076e1
    1c20:	00008dcc 	.word	0x00008dcc
    1c24:	00001381 	.word	0x00001381
    1c28:	00008de4 	.word	0x00008de4
    1c2c:	20000270 	.word	0x20000270
    1c30:	2000025a 	.word	0x2000025a
    1c34:	00000209 	.word	0x00000209
    1c38:	00008e3c 	.word	0x00008e3c
    1c3c:	0000166d 	.word	0x0000166d
    1c40:	20000264 	.word	0x20000264
    1c44:	20000268 	.word	0x20000268
    1c48:	2000025c 	.word	0x2000025c
    1c4c:	2000026c 	.word	0x2000026c
    1c50:	00000211 	.word	0x00000211
    1c54:	00008e60 	.word	0x00008e60
    1c58:	00008e74 	.word	0x00008e74
    1c5c:	00001701 	.word	0x00001701
    1c60:	000016a9 	.word	0x000016a9
    1c64:	0000021e 	.word	0x0000021e
    1c68:	00008e90 	.word	0x00008e90
    1c6c:	00008eb4 	.word	0x00008eb4
    1c70:	00000243 	.word	0x00000243
    1c74:	00008d7c 	.word	0x00008d7c
    1c78:	00008ed4 	.word	0x00008ed4
    1c7c:	00001070 	.word	0x00001070
    1c80:	00002a05 	.word	0x00002a05
    1c84:	00002a11 	.word	0x00002a11
    1c88:	00001084 	.word	0x00001084
    1c8c:	00008da8 	.word	0x00008da8

00001c90 <hif_receive>:
*	@param [in]	isDone
*				If you don't need any more packets send True otherwise send false
*    @return		The function shall return ZERO for successful operation and a negative value otherwise.
*/
sint8 hif_receive(uint32 u32Addr, uint8 *pu8Buf, uint16 u16Sz, uint8 isDone)
{
    1c90:	b5f0      	push	{r4, r5, r6, r7, lr}
    1c92:	46ce      	mov	lr, r9
    1c94:	4647      	mov	r7, r8
    1c96:	b580      	push	{r7, lr}
    1c98:	b083      	sub	sp, #12
    1c9a:	0006      	movs	r6, r0
    1c9c:	000c      	movs	r4, r1
    1c9e:	0015      	movs	r5, r2
    1ca0:	001f      	movs	r7, r3
	uint32 address, reg;
	uint16 size;
	sint8 ret = M2M_SUCCESS;

	if(u32Addr == 0 ||pu8Buf == NULL || u16Sz == 0)
    1ca2:	2800      	cmp	r0, #0
    1ca4:	d003      	beq.n	1cae <hif_receive+0x1e>
    1ca6:	2900      	cmp	r1, #0
