S023000057494E43313530305F4D5154545F434841545F4558414D504C45312E737265634A
S1130000F8240020095F0000055F0000055F000080
S113001000000000000000000000000000000000DC
S1130020000000000000000000000000055F000068
S11300300000000000000000055F0000055F0000F4
S1130040055F0000055F0000055F00002503000058
S113005089400000055F0000055F0000055F0000A7
S1130060055F0000754600008546000095460000C7
S1130070A5460000B5460000C5460000D55E000058
S1130080E55E0000F55E00000104000011040000BC
S1130090210400000000000000000000055F0000D3
S11300A0055F0000055F0000055F0000055F0000BC
S11300B00000000010B5064C2378002B07D1054B37
S11300C0002B02D0044800E000BF0123237010BDC0
S11300D078000020000000004C9B0000084B10B585
S11300E0002B03D00749084800E000BF0748036815
S11300F0002B00D110BD064B002BFBD09847F9E72D
S1130100000000007C0000204C9B00004C9B000081
S11301100000000001680822054B1A600268937A07
S11301205BB2002BFBDB0B88022213430B8070476E
S113013000E100E010B50268082480230749CC5090
S113014001688B7A5BB2002BFBDBC12393711372C2
S1130150138802218B43138010BDC04600E100E0E8
S113016070B504000568074B984700232382638217
S11301702268937A5BB2002BFBDB2B8801221343AA
S11301802B8070BD3501000010B5CB88C2889A1A47
S113019092064B799B050C79640423438C782403E1
S11301A0234313430279002A05D1CA78002A02D0D6
S11301B0802252021343487880010A78104318437E
S11301C010BD10B58B0EC4881B19D3808B011B0F77
S11301D053718B02DB0E13710379002B0CD10B04CA
S11301E01B0F9370CB03DB0FD37088093F23184098
S11301F050701940117010BDCB03DB0E9370F4E7FF
S113020010B50468034B9847A37A5BB2002BFBDB61
S1130210206110BD8901000010B50A00036841790E
S1130220002906D0598849040BD519690A4B984707
S113023010BD0A4959800468A17A49B20029FBDB40
S1130240F3E75988C0242402214359800468A17A21
S113025049B20029FBDBE8E7C30100000080FFFF8F
S113026070B50D0014001723012A01D9180070BDC0
S11302700668064B9847B37A5BB2002BFBDBE400BD
S11302803419A0612B7A23770023EFE7890100005A
S113029030B583B00500140001601C4A9369202125
S11302A00B43936101A902230B700420184B984758
S11302B00420184B98472800174B984723792B7133
S11302C0E3786B71E388EB80144B1D602A68238804
S11302D02179002917D008210B43A178002901D0E6
S11302E080210B431380E378002B04D053888021B2
S11302F0C9010B4353802100083100222800084B18
S1130300984703B030BD48210B43E6E700040040A2
S11303104D570000C1560000610100000403002095
S11303206102000010B50F4B1A681468518A138AD1
S11303301940207AE379034058B2002806DBDB0732
S113034003D5CB070AD40123237210BD8B0702D433
S113035080232372F9E7D3689847F9E793689847AD
S1130360F1E7C04604030020931C9B001950022AA5
S113037009D0032A0CD0012393401A00037E1343AF
S1130380037600207047037E102213430376F8E7B8
S1130390037E202213430376F3E7000070B5800048
S11303A0164BC45823689D7B227E637E13401D40F8
S11303B0EB0706D4AB070BD4EB0610D4AB0615D46D
S11303C070BD2000A3689847012322689373F1E766
S11303D02000E3689847022322689373ECE7200027
S11303E023699847102322689373E7E72000636921
S11303F09847236820229A73E2E7C0460803002046
S113040010B50020014B984710BDC0469D03000065
S113041010B50120014B984710BDC0469D03000054
S113042010B50220014B984710BDC0469D03000043
S113043030B585B001AA0B4B32CB32C2019B984236
S11304400DD0029B984208D00023039A824202D026
S1130450180005B030BD023302E0012300E00023A0
S1130460DBB2F5E7548A0000F0B587B004000D0054
S113047016000800854B9847070005AB1B221A702D
S113048001325A709A7003AB802212011A808022C2
S113049052015A80802292019A800023A360E36073
S11304A023616361237663768200794BD45025609F
S11304B0B378082B06D023712B880520DB0705D5DC
S11304C007B0F0BD1720FA07FAD5F4E7EB7B173035
S11304D0DB06F5D42B889B07F2D4337C002B79D12F
S11304E0337F002B00D081E06A49086A7A0003ABAD
S11304F0D35A03430B62B378082B00D186E001A9D9
S113050033780B7005ABDF5D3800634B98473800D8
S1130510624B98473189B3880B43B178B279114360
S113052019437378002B02D080231B0119432268DE
S1130530D37B5BB2002BFBDB2980717B4B1E994183
S11305408900B37B002B01D0012319432268D37B9C
S11305505BB2002BFBDBFF232B71002905D0226843
S1130560D37B5BB2002BFBDB6971B17AF37A002B8E
S113057001D010231943337B002B01D020231943CE
S11305802268D37B5BB2002BFBDBA9712268D37B8F
S11305905BB2002BFBDB2379042B3FD0082B5ED00E
S11305A01720002B00D08BE7D37B5BB2002BFBDB47
S11305B0338D2B822268D37B5BB2002BFBDB738DE4
S11305C02B832268D37B5BB2002BFBDBB38D6B8365
S11305D0002075E702A901238B700022CA70327EC5
S11305E00A704B70307D2E4B984779E702A901239E
S11305F08B700022CA702432B21812780A704B70C1
S11306001F33F3181878264B98476DE7086A7A1C4D
S1130610520003ABD35A03430B6270E7D37B5BB244
S1130620002BFBDB2823F35C2B742268D37B5BB2A7
S1130630002BFBDB2923F35C2B752268D37B5BB295
S1130640002BFBDB2A23F35C2B762268D37B5BB283
S1130650002BFBDB2B23F35C6B76002030E7D37B92
S11306605BB2002BFBDBB36A2B612268D37B5BB2EA
S1130670002BFBDBF36AAB612268D37B5BB2002BFC
S1130680FBDB336BEB6100201AE7C046310400004A
S113069008030020000400404D570000C15600002C
S11306A0455800000268D37B5BB2002BFBDB037967
S11306B0042B05D0082B0BD01720002B04D0704737
S11306C0C9B211740020FAE789B211820020F6E75A
S11306D011610020F3E700000122034B1A7180220C
S11306E01204024BDA617047D80200200044004132
S11306F010B584B001AC20000C4B9847372301930C
S113070000236360013323720222E272A372210088
S11307100720074B9847002207210648064B9847B5
S113072000210720054B984704B010BD614100002B
S113073075410000D90600001D400000494000003A
S113074010B5014B984710BDC564000010B5014BAE
S1130750984710BD6570000010B582B02C2803D0F6
S113076032281CD002B010BD0B78012B11D0002B05
S1130770F8D11248124B9847FF230093114B0222E1
S113078011211148114CA04701211148114B9847E0
S1130790E8E711480A4B9847104B9847E2E78B78F3
S11307A04A780878C978009101000D480D4CA0479B
S11307B00D4907480D4B9847D4E7C046548C0000B8
S11307C0C9770000688C0000748C0000D9240000F4
S11307D018010020256D0000408C0000F524000065
S11307E0888C0000AD760000608A00001965000066
S11307F0F0B587B00500140001294BD02DDD052983
S11308005AD006295ED1106800285BD09368002B6B
S113081058D017222C492D4B9847051E52D1636896
S1130820172B08DD17262A4F2368985DB847013631
S11308306368B342F8DC2748274B9847E368002BEA
S113084007DD234EA368585DB0470135E368AB422A
S1130850F8DC2248224B984734E0002932D113684F
S1130860002B0DDB00230593049303930293019360
S11308701C4B00930023002201211B4CA04721E0C4
S11308801A4C21001A48144B984721002800194B90
S1130890984717E0117800290AD100221649174B0E
S11308A098470122164B1A7016480D4B984709E0D9
S11308B01548094B984705E00022114B1A7013485C
S11308C0074B984707B0F0BD288B0000E379000080
S11308D0E1760000408B0000AD760000488B0000FC
S11308E0C97700008C0100202D660000608A00009A
S11308F0708A000019650000A88A0000856A00005B
S113090014010020C48A0000F48A00004C8B00000B
S113091030B59FB002AC20002F4B98472F4D2100DB
S113092028002F4B984728002E4B984720002E4B29
S113093098472E4B238065602D4BE3608023236111
S113094021002C482C4B9847011E2CDB2B492948AD
S11309502B4B9847011E2ADB2A4B984740212A48F3
S11309602A4DA8472A4C5423237003336370210073
S11309702848A8472300284A284902A8284CA04709
S113098002A92848A8471822002118A8264B9847EE
S1130990264B189318A8264B9847011E0BD02548C0
S11309A01A4B9847FEE72448184B9847FEE723481C
S11309B0164B9847FEE7224B984722492248234B7F
S11309C09847FF230093224B022211212148224CF5
S11309D0A0471FB030BDC0465D6100001403002075
S11309E06961000015620000056400005B070000F7
S11309F0940000201801002029640000F107000081
S1130A00B5640000BD120000C88B0000AD76000084
S1130A108C010020F48B0000288B0000008C000067
S1130A206D790000088C00004B7500005907000028
S1130A3049210000188C0000608B0000948B00009A
S1130A40753A0000410700004D070000B93A000064
S1130A50688C0000748C0000D924000010B5024892
S1130A60024B984710BDC046140300209D6200004D
S1130A7010B582B0084C2478002C01D102B010BD0E
S1130A80002301930233009313000A00010003487A
S1130A90034CA047F2E7C0461401002018010020CF
S1130AA0DD68000010B5264BDB78002B1CD1244BED
S1130AB01B78002B1ED0234B1B899BB2952B1AD974
S1130AC0204B1B899BB2204A934218D91D4B1B898A
S1130AD09BB21E4A934222D9194B01229A705A7032
S1130AE01B481C4B984705E0154B02229A705A701C
S1130AF00022DA7010BD0122114B5A71FAE7104B33
S1130B0001229A7000225A700E4A538901339BB213
S1130B105381118989B21048104B9847EAE7084B72
S1130B2000229A7001325A70064A938901339BB2AB
S1130B309381118989B20A48084B9847DAE7C0467D
S1130B40D8020020C8020020102700002F750000E2
S1130B50008D0000C9770000E08C0000AD76000035
S1130B60F08C0000F0B5C64600B5914225D8435C30
S1130B70782B24D00B000133DBB29A4202D3C45C3D
S1130B80782CF8D1D61A15D40027531EDBB29C4614
S1130B90835C98466346614506D8C55CC418657095
S1130BA0013BDBB29942F8D9434643540137FFB2C3
S1130BB0B742EDDD04BC9046F0BD0B00E2E70B004C
S1130BC0E0E7000070B590B00CAA634B19680C9173
S1130BD0998891809B79937101A9604B0A0013CB8A
S1130BE013C213CB13C213CB13C203CB03C25C4C8B
S1130BF0E38901339BB2E3810EAE3000594B984731
S1130C00E28992B2584D29000E206844574CA047FF
S1130C103278290012206844A0477278290005A878
S1130C20A047B278290016206844A04732792900E9
S1130C3006A8A047727929001A206844A047F288C0
S1130C40290007A8A0474A4E7278D2B2290008A802
S1130C50A047B278D2B2290021206844A047737813
S1130C60022B19D03E4C208980B2FA218900414BD5
S1130C70984782B23C4D2900222068443B4EB0473D
S1130C802389228992B229002A206844B04701AD01
S1130C900CAA2C00782119E0354B9B78022BE1D16A
S1130CA02F4CA28992B2304D2900222068442F4E45
S1130CB0B047628992B229002A206844B0470023D1
S1130CC0A3816381E3E70134944204D02378002BA9
S1130CD0F9D12170F7E70D220A2101A8264EB04769
S1130CE00F220E2101A8B0471122102101A8B047FC
S1130CF01322122101A8B0471522142101A8B047DC
S1130D001722162101A8B0471B22182101A8B047B9
S1130D1025221E2101A8B0472A22262101A8B04776
S1130D20302202E00135A54204D02B78782BF9D18A
S1130D302A70F7E701AC00222B23E25421000F486C
S1130D400F4B984720000F4B9847C2B221000CA8C4
S1130D500D4B984710B070BDA48C0000B48C0000FB
S1130D60C8020020790E0000AC8C00006D790000F0
S1130D70D802002079710000650B0000B08C0000DF
S1130D80AD760000D5790000710A000010B5094B5A
S1130D909847094B5B78002B03D1074B9B78002BBA
S1130DA007D0064B9847044A002353709370044AB3
S1130DB0138110BDA50A0000D8020020C50B000055
S1130DC0C802002030B587B001ACA0231B012380EA
S1130DD00023A370E370FA22D200E2800F49104A84
S1130DE0CA8007224A71053A0A710D328A700A32A2
S1130DF04A700B7001332371113A03A8094B9847C9
S1130E0006232374084D220008492800084B9847FC
S1130E102800084B984707B030BDC0466C0300203B
S1130E20E207000015750000CC010020001400400A
S1130E30910200001501000010B50A4C0A4BE38032
S1130E400C23637112332371083BA3702133637045
S1130E5004332370054B984721000548054B9847F8
S1130E6010BDC046E0010020DC070000C50D0000F5
S1130E70CC0100200102000070B50400054D2900DA
S1130E800548064B9847082229002000044B984740
S1130E90200070BDE0010020CC01002019020000F8
S1130EA01575000010B582B00400244B1B6A1B02A8
S1130EB026D4234B01221A705A6801325A605B68A7
S1130EC0013319D01E4B5A681E4B9A422DD102226F
S1130ED01D4B1A701A4B5A6892B21A8100225A603A
S1130EE001A901234B708A700B700420174B98479B
S1130EF01022174B9A6118E00022114B5A60E1E767
S1130F000F4B1B78002B0DD000220D4B1A700E4B8B
S1130F101B78022B0FD001220B4B1A70084A53681E
S1130F209BB213810022064B5A600A4920000A4BE7
S1130F30984702B010BD044B1A70EFE7804400419B
S1130F40C802002030750000D8020020ED410000E6
S1130F50004400417F440000A506000010B50122B2
S1130F60044BDA7080221204034BDA610349044B08
S1130F70984710BDD8020020004400417FF30000D0
S1130F80A506000010B58EB001AA0023137093705B
S1130F90002193809171138151709172D1721173F8
S1130FA09173517311745361936111771362536296
S1130FB053859385354B1385354C36492000364B84
S1130FC098472268D37B5BB2002BFBDB138802219A
S1130FD00B4313802E4C002230492000304B98479D
S1130FE02068304B9847304B1A5C1F231340012074
S1130FF002009A402D4B1A60637E012213436376EC
S11310002368587301AA00230021937093711381FC
S113101000249472D17211739173517311745361DA
S1131020936111771362536253859385204B138523
S11310301070E023DB00938050701E4C1E4920008A
S1131040154B98472268D37B5BB2002BFBDB1388DC
S113105002210B431380174C002218492000104B27
S1131060984720680F4B98470F4B1A5C1F23134077
S11310700122110099400D4B1960637E01210B433D
S1131080637623685A730EB010BDC0467F440000D7
S1131090E8010020002C004269040000A50E0000B5
S11310A069030000310400000C8D000000E100E041
S11310B07FF3FFFF04020020003000425D0F0000B8
S11310C070B582B005000E0000226B46DA80064C33
S11310D06B46991D2800A0470028F9D16B460633BA
S11310E01B88337002B070BDDD4E000070B5050082
S11310F08CB2034E21002800B0470028FAD170BDFD
S1131100B14E0000F0B591B08023DB0500930023BD
S11311100193FF2269460A8100228B72CB7201245B
S1131120242168464454013144540131435401316B
S113113043540A93053143540131435405930382C4
S1131140C376027602774276132383764277C423EA
S11311509B03039301235B420C930D93184B0E9353
S1131160184B0F93E1235B020893174D174B1D6037
S1131170174A184B1A60184A184B1A606A461849DD
S11311802800184B9847184F3B6898680021174E61
S1131190B0473B6858680021B0472E683000144BB4
S11311A098471F2318408440124B1C602A68D36957
S11311B0002BFCD1336802221343336011B0F0BD1D
S11311C003002A0003002B0020020020EC0400206E
S11311D0ED100000E8040020C1100000E404002029
S11311E000180042714B0000140000200178000038
S11311F04546000000E100E070B50020084B984728
S11312000500084CFA218900A047074B18600749DC
S11312102800A047064B18600522064B1A6070BDD3
S113122035560000797100000000002040420F0094
S11312300400002010E000E030B5084B1C68084AA8
S1131240002580214902013807D3002CFBD05460CB
S1131250956013680B42FCD0F5E730BD0000002018
S113126010E000E010B5034B1B68002B00D098473A
S113127010BDC0465402002070B5441E002804D09E
S1131280024D0120A847013CFBD270BD3912000079
S1131290F8B5084C80277F056761802636056661AE
S11312A06420054DA847A7610A20A847A6610A2023
S11312B0A847F8BD004400417912000070B582B01F
S11312C00023134A136001AC01256570A3702570D7
S11312D021001B200F4EB04721001C20B0472100E5
S11312E02820B0470C4B1B681D4203D00A4B1B68D7
S11312F09B0701D4094B9847094B98470122094B96
S11313001A70BFF35F8F62B6002002B070BDC04692
S113131054020020ED41000010E000E0F91100004B
S1131320911200001000002010B584B00E4B18601C
S113133001AC20000D4B98472923019300236360DF
S1131340013323720133E37221000920084B9847CB
S1131350002209210748084B984700210920074B20
S1131360984704B010BDC0465402002061410000FB
S113137075410000651200001D4000004940000056
S113138010B5002804D100210920044B984710BD52
S113139000210920024B9847F9E7C0466940000044
S11313A04940000030B591B0304C0E232370002327
S11313B06370A37001A901224A708B700A700E2019
S11313C02B4B98472278D1090023002904D15309D3
S11313D0DB0128498C4663441F211140012210007F
S11313E08840986102AC2270002303930493C021C7
S11313F08903059123746374A274E2742375233200
S1131400A354183A002108A81B4B98471B4BA3620E
S11314101B4BE36201235B4223631A4B63631A4B46
S1131420A361220019491A481A4B984700281AD177
S1131430174D2C682000184B98471F2318401E3B5B
S11314408340164A13602A68D369002BFCD12368B1
S1131450022213432360124B98470120114B9847F3
S1131460002011B030BD06204042FAE77803002086
S1131470ED410000004400414B75000002000C00E7
S113148002000D0002000F00001BB7000010004214
S11314907C030020D54600004546000000E100E042
S11314A09112000079120000F0B5DE4657464E4610
S11314B04546E0B585B003286CD10E684D680C89AB
S11314C0002202ABDA71002E28D0002D5FD1012357
S11314D09B460023019302ABDD1D012235493648AA
S11314E0364B9847002C3FD0334B9A4601270422B1
S11314F0994659464B4259418C46307853461B68AD
S1131500197E3942FCD0197E3942FCD09862197E8A
S11315101142FCD04946897988460DE000239B4658
S11315200133019302ABDE1DD7E7404601280DD0FD
S1131530986AC0B200290DD0197E1142FCD0588B94
S113154000211042F1D05A831E31EEE7986AC0059B
S1131550C00DEFE72870013CA4B26544019B5942D9
S11315604B41F618002CC8D1134B196802220B7E8C
S11315701342FCD000220F490F48104B984700201B
S113158005B03CBC90469946A246AB46F0BD062049
S11315904042F5E78622520009490A480A4B984717
S11315A00A480B4B98470D200A4B984701204042AC
S11315B0E6E7C046780300207C030020AD48000025
S11315C0108D0000208D0000AD760000348D0000E9
S11315D0C9770000E176000070B50C4D2C6820003E
S11315E00B4B98471F2318401E3B83408022094918
S11315F08B502A68D369002BFCD18F332375237653
S11316002368022293432360002070BD7C030020E2
S11316104546000000E100E0002A06D082180B785D
S11316200370013001319042F9D17047002A04D08F
S11316308218017001309042FBD170470300027898
S1131640002A07D00020013080B201331A78002A22
S1131650F9D170470020FCE7024A13780133DBB26A
S1131660137070475B0200207047000000B583B020
S11316700120094B984701A90848094B98470028BD
S113168001D003B000BD0221019B1943019103481D
S1131690044B9847F5E7C046811300007010000022
S11316A0052A0000112A000010B50F4B1B78002BEF
S11316B007D10E4B1B78032B0AD00C4B1B78042B41
S11316C006D0094A13780133DBB21370002010BD31
S11316D0074B98470028FAD106490748074B984713
S11316E00028EED0F3E7C04659020020580200203B
S11316F0352500007856000074100000112A0000FF
S113170000B583B0174B1B78002B04D0154A13780F
S1131710013BDBB21370134B1B780020002B07D165
S1131720114B1B78032B05D00F4B1B78042B01D0D6
S113173003B000BD002301930C490D480D4B98479D
S11317400028F5D101A901300B4B98470028EFD1AF
S113175001998B07ECD50223994301910130054B84
S11317609847E5E759020020580200202143000071
S113177074100000112A0000052A0000F0B5DE46AE
S1131780574680B589B083468A460192009310ABD0
S113179080CB1E8812AB1D887F220A4007AB5A708B
S11317A0187008225A80002F00D192E05A889219AA
S11317B0AA1892B25A805A4B9847041E00D099E056
S11317C00023059302AAD3800493049B5A461A4328
S11317D00492049A53461B021343049307AB5B8899
S11317E0049A1B041343049304994E484E4B9847A0
S11317F0041E00D08AE000230493049B02221343B6
S1131800049304994948484B9847041E00D07DE04E
S11318100022059202ABDA8006331B889BB2444A4D
S1131820934213D8434C04A94048A04700280DD143
S1131830049B9B0755D502ABDA88013292B2DA8059
S113184006331B889BB23A4A9342ECD9059B002B82
S113185062D0059B069307A94B889BB24B800698E0
S11318600822354B9847041E50D1069B0833069333
S1131870019B002B0BD00698009A19002E4B984719
S1131880041E43D1069B009A944663440693002F9A
S11318900ED0069B009AAD1AED18069506983200F4
S11318A03900254B9847041E30D1069BF318069344
S11318B0059B9B000493049B022213430493049905
S11318C01E48194B9847041E20D11D4B984704000D
S11318D01CE007AB5A8800998C46624492B25A8045
S11318E069E705A91748134B98470028AED0002391
S11318F00593ABE7A022FF3213491448144B9847D1
S11319001448154B98470D20144B9847200009B0F4
S11319100CBC92469B46F0BD03246442F6E7C046E5
S1131920A91600008C100000112A00007810000095
S1131930E7030000052A0000852A00006C1000005F
S11319400117000000041500688D0000208D0000C0
S1131950AD760000B88F0000C9770000E176000082
S1131960F0B5CE46474680B587B0A44B9846994615
S1131970D7E004AD042229000598A14B9847040040
S11319806B889BB26B8000282CD104AB5B889BB224
S11319909E4204D004AB5B88F31A042B32DC04AB04
S11319A01B78012B47D004AB1B78022B62D004AB0D
S11319B01B78042B6CD004AB1B78062B76D004ABBD
S11319C01B78072B00D17FE08E4A8F498F48904BBC
S11319D098479048904B98470D20904B9847062481
S11319E064429CE0EB22520087498848884B984720
S11319F08B48894B98470D20884B98470120894B89
S1131A0098478CE0E022FF327F498048804CA04711
S1131A1004A94A8892B20B78DBB24978009131006C
S1131A208148A0470D207D4B984701207D4B984766
S1131A300624644273E07D4B1B68002B08D004AA83
S1131A405078C0B25188059A0832083989B298474B
S1131A50774B1B78002B5FD1764A6B496B486C4BF4
S1131A60984775486C4B98470D206C4B9847734BBF
S1131A70984751E0724B1B68002BE9D004AA5078B8
S1131A80C0B25188059A0832083989B29847DFE70D
S1131A906C4B1B68002BDBD004AA5078C0B2518871
S1131AA0059A0832083989B29847D1E7664B1B6812
S1131AB0002BCDD004AA5078C0B25188059A0832C0
S1131AC0083989B29847C3E7604B1B68002BBFD025
S1131AD004AA5078C0B25188059A0832083989B2EC
S1131AE09847B5E75A4A48494848494B984759489E
S1131AF0494B98470D20494B98470224644234E0EF
S1131B008622920040494148414CA04703995248DB
S1131B10A0470D20414B9847504B98470400002C98
S1131B2023D143461B78002B62D04B461B78013BE4
S1131B30DBB24A4613704A4F22E04A4A32493348DC
S1131B40334B98474848344B98470D20334B9847BC
S1131B500BE0892292002C492C482D4B984743488E
S1131B602D4B98470D202D4B9847414A4149274812
S1131B70274DA84721004048A8470D20274B9847E8
S1131B80B847041EE5D103A93C483D4B9847041EC1
S1131B90D3D1039BDB07B3D50020224B9847012305
S1131BA00399994303913548364B9847041EDCD179
S1131BB000221F4B1A70039B9E04360D92D0002303
S1131BC0059305A930482E4B9847041E00D1D0E652
S1131BD0E72252000C490D480D4B98472B480E4BF9
S1131BE098470D200D4B984701200E4B984796E7D8
S1131BF0002007B00CBC90469946F0BD5B02002063
S1131C001D2A000002020000748D0000208D0000D7
S1131C10AD760000248E0000C9770000E176000054
S1131C20CC8D000081130000E48D000070020020C0
S1131C305A020020090200003C8E00006D160000CC
S1131C4064020020680200205C0200206C02002074
S1131C5011020000608E0000748E00000117000065
S1131C60A91600001E020000908E0000B48E000031
S1131C70430200007C8D0000D48E00007010000030
S1131C80052A0000112A000084100000A88D00001D
S1131C90F0B5CE46474680B583B006000C0015006B
S1131CA01F00002803D0002901D0002A19D1002FD9
S1131CB009D00122314B1A70314B984703B00CBC48
S1131CC090469946F0BD2F4A2F493048304B9847EB
S1131CD03048314B98470D20304B98470C204042F8
S1131CE0ECE769462E482F4B98470028E6D1009B25
S1131CF0984601A92C482B4B98470028DED143462F
S1131D009B041B0D98469D421AD8019B9E4226D3E4
S1131D107219914643449A4221D82A002100300086
S1131D20224B98470028C9D1019B4344994501D0CF
S1131D30002FC3D00122114B1A70114B9847BDE7F5
S1131D401B4A11491148124CA04742462900194820
S1131D50A0470D20114B98470C204042AEE7A0222B
S1131D609200094909480A4B984713480A4B984777
S1131D700D200A4B98470C2040429FE75A0200204E
S1131D806D160000690200008C8D0000208D00009B
S1131D90AD760000048F0000C9770000E1760000F2
S1131DA070100000052A0000841000001D2A0000A5
S1131DB07A020000248F0000688F000070B50400D0
S1131DC007281BD88300144AD3589F46134B196025
S1131DD0002070BD124B19600020FAE7114B196006
S1131DE00020F6E7104B19600020F2E70F4B196052
S1131DF00020EEE70E4B19600020EAE70D4A0E4979
S1131E000E480F4DA84721000E48A8470D200E4B41
S1131E1098470C204042DCE7488D00006402002013
S1131E207002002068020020600200205C02002092
S1131E306C020020B9020000988D0000208D000083
S1131E40AD760000AC8F0000E176000010B50023F1
S1131E50094A1360094A1360094A1370094A137046
S1131E60094A137009480A4B98470A4903200A4B48
S1131E709847002010BDC046700200206402002074
S1131E8059020020580200205B020020591600006D
S1131E902913000069160000BD1D000030B59FB075
S1131EA0040015002C282FD01B283DD006284BD029
S1131EB00E2827D0322857D02F2865D0342800D1B7
S1131EC077E0112800D196E0132800D1ACE0042873
S1131ED000D1BBE0652800D1CAE0092800D1D9E0CF
S1131EE02A2800D1E8E0202800D1F7E0952252000A
S1131EF089498A488A4DA84721008A48A8470D2065
S1131F00894B98471FB030BD0023042203A9280041
S1131F10864CA0470028F5D1854B1B68002BF1D0D7
S1131F2003A92C309847EDE70023082203A92800D1
S1131F307E4CA0470028E5D17D4B1B68002BE1D0E7
S1131F4003A91B309847DDE70123302203A92800A9
S1131F50764CA0470028D5D1754B1B68002BD1D0F7
S1131F6003A906309847CDE70023102203A92800CF
S1131F706E4CA0470028C5D16D4B1B68002BC1D007
S1131F8003A932309847BDE76422002103A8694BB6
S1131F9098470023642203A92800644CA047002822
S1131FA0B0D1634B1B68002BACD003A92F309847EA
S1131FB0A8E70023042203A928005C4CA0470028BA
S1131FC0A0D15D48564DA847039C230AFF20034037
S1131FD0220C0240210E204000905848A8470D20B2
S1131FE0514B9847524B1B68002B00D18AE70021C4
S1131FF03420984786E70022514B1A70002304329C
S113200003A92800494CA047002800D07AE703AB75
S11320101A784C4B1A70464B1B68002B00D171E7A1
S113202003A9113098476DE700232C2203A9280047
S11320303E4CA047002800D064E73D4B1B68002BB2
S113204000D15FE703A9133098475BE7002304221C
S11320501CA92800354CA047002800D052E7344B77
S11320601B68002B00D14DE71CA90430984749E7B1
S1132070002304221CA928002C4CA047002800D0CF
S113208040E72B4B1B68002B00D13BE71CA96530B4
S1132090984737E70123642203A92800234CA0476B
S11320A0002800D02EE7224B1B68002B00D129E723
S11320B003A90930984725E70123042203A928002E
S11320C01A4CA047002800D01CE7194B1B68002BB2
S11320D000D117E703A92A30984713E70023082201
S11320E003A92800114CA047002800D00AE703AB3D
S11320F09A8828000830012303990C4CA047002833
S113210000D0FFE60A4B1B68002B00D1FAE603A9B6
S113211020309847F6E6C046D48F0000208D00009A
S1132120AD76000030900000E1760000911C0000C4
S1132130740200202D16000004900000109000008E
S11321407902002078020020F0B58BB001226B46A2
S1132150DA7100284DD00268274B1A600022274B01
S11321601A706B46D81D264B9847041E02D02000D7
S11321700BB0F0BD0020234B9847041E35D12249F3
S11321800120224B984702AD2800214B98470400B8
S11321902048214EB047AB796A7929791F48B04766
S11321A00D201F4FB8471B48B0476B7A2A7AE9794C
S11321B01C48B0470D20B8471648B04700230322F7
S11321C013211948B0470D20B84723000D33CED151
S11321D0D622FF32154916480F4B98471548164B1F
S11321E098470D200E4B9847C1E70020134B9847A2
S11321F0BDE70C246442BAE774020020790200208F
S1132200A12B00004D1E00009D1E0000BD1D0000FE
S1132210ED2A000004900000AD760000EC90000070
S1132220E17600000891000024910000E08F000096
S1132230208D000040910000C9770000752C00003B
S113224010B5014B984710BD61190000F0B5CE469A
S1132250474680B5A3B005900C0015001F002AABBB
S11322601B8899462BAB1B789846012A03D0002F74
S11322703DD0022A49D0631E1F2B00D975E04B467E
S11322800D2B02D9FF2B00D07DE007AE220005996B
S11322905A2002AB9C466044784B98473419463424
S11322A00023237044334A46F25243465A1E934154
S11322B06722B3544123F554032D00D171E0022D5C
S11322C000D1ABE0042D00D1C3E0012D00D0C6E065
S11322D000230293019300936C3307AA2821012061
S11322E0674CA04723B00CBC90469946F0BD654AA4
S11322F065496648664B98476648674B98470D2082
S1132300664B98470C204042ECE73800644B9847F2
S11323104028B0D13B781A00303A362A17D80A3A06
S1132320062A14D9473B192B11D97A1C380040309E
S1132330137819003039362909D80A39062906D9FB
S1132340473B192B03D901328242F1D193E7554A15
S11323504D494E484E4B984753484F4B98470D2094
S11323604E4B98470C204042BCE7504A46494748E8
S1132370474B98474E48484B98470D20474B984742
S11323800C204042AEE74B4A3F494048404B9847F7
S11323904948414B98470D20404B98470C204042F8
S11323A0A0E73B78013BDBB207AA1370032B18D8D4
S11323B07A78511E07AB59701023110099430B29E9
S11323C01ED09022920030493048314CA04707ABD0
S11323D059783A48A0470D20304B98470C2040428A
S11323E080E7374A28492948294CA04707AB197880
S11323F03448A0470D20294B98470C20404271E7F0
S1132400B91C162002AB9C4660441C4B98477B7851
S113241007AA9446634400229A7059E73800204B77
S11324209847431E9BB23F2B05D8421C390007A88E
S1132430124B98474CE7244A13491448144B9847C5
S11324402248154B98470D20144B98470C204042C6
S113245048E73E22390007A8084B984738E71C4A4A
S113246009490A480A4B98471A480B4B98470D20CC
S11324700A4B98470C20404234E7C0461916000026
S11324807D17000003020000F08F0000208D000083
S1132490AD76000044900000C9770000E1760000AA
S11324A03D1600000F0200005890000019020000C1
S11324B0649000002202000078900000A0900000C8
S11324C039020000849000004F020000BC9000001C
S11324D05F020000D890000030B583B006AC2488B9
S11324E0002501950094024CA04703B030BDC046BE
S11324F04D22000000207047F0B583B00400A525EC
S11325006D010A4E0A4F21002800B047002C09D063
S11325100023019301A92800B8470028F3D1019BA7
S11325209C42F0D1002003B0F0BDC046112A000047
S1132530052A0000F0B5D6464F4680B585B0012087
S1132540414B984703A90120404B98470190002430
S1132550002806D13E4B9A463B4B99463D4F1E0000
S113256026E072223C493D483D4B98473D483E4B4E
S113257098470D203D4B98470BE096223649374843
S1132580374B98473A48384B98470D20374B984774
S11325900195019805B00CBC91469A46F0BD022104
S11325A0039B194301202A4B9847029B5B07F0D4F5
S11325B00221039B19430120D0470120C8472D4B1A
S11325C0186802A9214B9847002802D1029B002BCE
S11325D01AD1284D0E232B6001201B4B98472868E5
S11325E002A91A4B9847002802D1029B002B0BD159
S11325F0204D13232B600120134B9847286802A910
S1132600124B9847051EB8D11A4D029B5B07C0D4E4
S1132610013403212000B8470029C0D10220B0476B
S113262002A92868094B9847029B5B07EDD4AA22AC
S113263009490A480A4B98470F480B4B98470D2005
S11326400A4B9847E1E7C04679120000052A0000CA
S1132650112A0000857200005C910000208D0000AA
S1132660AD760000C0910000C9770000E17600005B
S1132670E09100000C0000200092000000B583B03F
S113268001A91748174B984700281DD180214900FC
S1132690019B194301911248134B9847002816D106
S11326A001A9D02040010F4B9847002812D1802166
S11326B04902019B19430191D02040010A4B9847DC
S11326C000280AD103B000BD06204042FAE70620E4
S11326D04042F7E706204042F4E706204042F1E793
S11326E008140000052A0000112A000010B582B069
S11326F0284B1C68002C04D0264B1C68200002B018
S113270010BD190080204001234B9847002803D0B6
S11327100022204B1A60F1E701A920481E4B98477C
S1132720002803D000221B4B1A60E7E7194B1B68F3
S11327301B4A93420ED01B4A934212D01A4A934228
S11327401CD01449194A0B681A40A023DB02134316
S11327500B60D1E7019B012BF3D0154A0D4B1A6096
S1132760EFE7019B032BECD0042B03D0114A094B58
S11327701A60E6E7104A074B1A60E2E70549EC20C5
S11327808003054B98470028DBD00022014B1A60D8
S1132790B4E7C0467C020020052A0000F4130000C0
S11327A0A0021000B0021000F0001000FFFFF0FFC4
S11327B0A1021000B2021000B1021000F8B5070027
S11327C0244D254C254E2800A047002802DB01207B
S11327D0B047F8E72248204B9847C30709D41F4E57
S11327E0204C1D4D0120B0472000A8471E4B9842A5
S11327F0F8D1022F16D0032F1ED0043F7B425F4135
S1132800FF011A4B98470005000DE8239B009842EE
S11328101BD03800164B984716491248164B984758
S11328200020F8BD15491648134CA04780214903E0
S11328301448A0470027E4E7104911480E4CA0476C
S113284000211048A0470027DBE702203843084B4B
S11328509847E1E714100000F929000079120000FC
S1132860BC0702000C000C009ED0AD10ED26000049
S1132870F9240000612F52EF112A00007DD51C3C81
S1132880AC0702008C10000070B582B0154B0193A8
S1132890154B00930238012811D901246442002009
S11328A0124E134D009B98420ED00220B04701985F
S11328B0A847013C002CF5D10520404209E00D4B0E
S11328C001930D4B0093E8E7009A074B00209A42CE
S11328D001D002B070BD00210248084B9847002087
S11328E0F7E7C0468C100000362653027912000028
S11328F0F9290000AC070200C3C15DD7112A00000A
S1132900F0B583B00023019301A9A0204001274B17
S11329109847002824D12649019B19400191A02001
S11329204001244B984704000A25002824D11F4E57
S1132930204F01A9A0204001B047041E28D10199CD
S11329404B050AD51A4B19400191A0204001B84704
S11329500400013DEDB2002DEBD1200003B0F0BD29
S1132960154A16491648174B98471748174B984766
S11329700D20174B9847CEE7164A10491048114BC3
S113298098471548114B98470D20114B9847E4E799
S11329908F22920009490A480A4B98470F480B4B6B
S11329A098470D200A4B9847D7E7C046052A0000F0
S11329B0FFFBFFFF112A00002F0200006C910000B2
S11329C0208D0000AD76000078910000C9770000EA
S11329D0E17600003502000090910000A89100000B
S11329E010B5014B984710BDA513000010B5014B5D
S11329F0984710BDD915000010B5014B984710BD7C
S1132A009932000010B5014B984710BDAD3200005B
S1132A1010B5014B984710BDC5320000F0B5D6463D
S1132A204F464646C0B582B0804689461500134BD2
S1132A301F88083FBBB201931E0004009A421AD9B2
S1132A400F4B9A46371A4346E11A4944019A20002B
S1132A50D047002809D1AD1B3919A419B542F2D8C1
S1132A60AAB249442000064B984702B01CBC9046C9
S1132A709946A246F0BD0021F2E7C04608000020B6
S1132A8005340000F0B5D6464F464646C0B582B080
S1132A90804689461500134B1F88083FBBB201933B
S1132AA01E0004009A421AD90F4B9A46371A43461D
S1132AB0E11A4944019A2000D047002809D1AD1BEE
S1132AC03919A419B542F2D8AAB249442000064BD8
S1132AD0984702B01CBC90469946A246F0BD00211E
S1132AE0F2E7C04608000020DD34000070B582B073
S1132AF004000023019301A92248234B98470600B0
S1132B00224B019A9A4233D0019A110C8BB2180AC3
S1132B10E0711B090F252B4023722940617293B287
S1132B20190A21711B092B4063712A40A271184BA9
S1132B309847206022791202A3792B4013436279CB
S1132B401201FF210A401343E2791202607A054020
S1132B501543227A120111400E4A0D43954201D9C0
S1132B600D2676420C4A934208D9300002B070BD5B
S1132B7001A90A48044B98470600C5E70D2676428A
S1132B80F3E7C046AC070200052A0000C3C15DD7C5
S1132B90ED260000301300002F1300004810000041
S1132BA070B5002837D005786B1E032B00D901259A
S1132BB00020204B9847041E2FD11F481F4CA047CC
S1132BC01F4B984701001F48A0470D201E4B9847F4
S1132BD01E4B984728001E4B9847041E17D1280007
S1132BE01C4B9847041E12D1023D012D11D91A4BDA
S1132BF09847041E0DD0AE225200184918480F4BB6
S1132C0098471848184B98470D200F4B9847174B77
S1132C109847200070BD0125CAE7922252000F494F
S1132C200F48064B984712480F4B98470D20064B08
S1132C309847EEE7E129000004900000AD7600001B
S1132C40ED260000DC920000E1760000DD32000099
S1132C50BD270000892800007D2600002492000082
S1132C60208D0000A0920000C9770000ED2900002B
S1132C70C092000010B51C4B9847041E0BD10020D5
S1132C801A4B9847041E14D1194B9847041E1DD1A2
S1132C90184B98470BE0BA22520017491748184BB3
S1132CA098471848184B98470D20184B9847200010
S1132CB010BD7C22FF3210491048114B984714482C
S1132CC0114B98470D20114B9847F0E78222FF32B1
S1132CD009490A480A4B98470E480B4B98470D2060
S1132CE00A4B9847E3E7C046012900008D3E0000E7
S1132CF0ED2900008932000030920000208D000090
S1132D00AD76000040920000C9770000E176000033
S1132D10609200008492000000B585B001AB0022EF
S1132D2001920290198119000320024B984705B0C3
S1132D3000BDC046A9140000F0B5C64600B582B077
S1132D400700CF282BD003003B33DBB2012B26D95D
S1132D500B246B46DE1D264B984601213000C047EC
S1132D60051E25D13378BB4230D0013CE4B2002C9F
S1132D70F3D10B346B46DE1D1D4F01213000B847E3
S1132D80002825D13378002B2FD0013CE4B2002C4D
S1132D90F3D10125280002B004BC9046F0BD012106
S1132DA06B46D81D124B984700250028D0D0F1E778
S1132DB02822FF320F491048104B98471048114BF6
S1132DC098470D20104B98470025E3E70B24D1E7E3
S1132DD03622FF3207490848084B98470848094BF0
S1132DE098470D20084B9847D4E70125D2E7C04601
S1132DF0192D000030930000208D0000AD760000F6
S1132E0068970000C9770000E1760000F0B5DE465F
S1132E1057464E464546E0B587B001908946029232
S1132E2000239A4680239B019B466A46D3813D4BEF
S1132E3098462FE05822FF323B493C483C4B984788
S1132E403C483D4B98470D203C4B984700252800B3
S1132E5007B03CBC90469946A246AB46F0BD002C58
S1132E602EDD019B5344180039002E4B9847041E55
S1132E7034D1029B002B03D1314B1B78002B3AD069
S1132E805346FB181BB29A464B46DF1BBBB299460E
S1132E90002B44D04F46D94501D96B46DF89BFB2D8
S1132EA00A2404ABDE1C01213000C047051EC1D139
S1132EB033781B090F2BD2D0013C24B2631CF2D10E
S1132EC06422FF3218491948194CA04704ABD97839
S1132ED01C48A0470D20194B9847B8E7B62252006A
S1132EE011491248124B98471748134B98470D2025
S1132EF0124B9847ABE7022105A80A4B98470028D4
S1132F00BED07822FF3208490848094B98470F4839
S1132F10094B98470D20094B9847250097E7012551
S1132F2095E7C046192D00003C930000208D000059
S1132F30AD7600009C970000C9770000E1760000A0
S1132F4080020020D0970000009800003098000014
S1132F5000B585B001AB01900022029219811900DD
S1132F600320024B984705B000BDC046A9140000D9
S1132F7070B584B008AC257801AC20703F30C4B281
S1132F800E2C00D984E0A0004F4C2058874601AB9A
S1132F900A0C5A700A0A9A70D97005214B4B1B7897
S1132FA0002B77D00139C9B283E00B0ADBB2002DC4
S1132FB007D101AA537001AB99700022DA70052180
S1132FC0ECE780225242134301AA5370F3E701ABAA
S1132FD000225A709A70DA700521DFE701AB0022F3
S1132FE05A709A70DA700521D8E701ABFF225A7043
S1132FF09A70DA700521D1E701AA080C5070080A0A
S11330009070D170190A117153710721C6E701AA92
S1133010080C5070080A9070D170190C1171190ABB
S1133020517193710821B9E70B0ADBB2002D0CD161
S113303001A8437001AB9970110ED970110C19716C
S1133040110A59719A710821A8E78020404203436C
S113305001A84370EEE701AB080C5870080A987099
S1133060D970110E1971110C5971110A9971DA7113
S1133070092193E78422520015491648164B9847B4
S11330801648174B98470D20164B9847002317E016
S1133090002315E04E1E01AA95197F23124C5B00F4
S11330A010784340E35C0132AA42F8D15B0001AAE4
S11330B0935589B201A80D4B984701230028D9D113
S11330C0180004B070BDC046EC92000080020020DD
S11330D028930000208D0000AD7600003C9700008E
S11330E0C9770000E1760000A4930000512F00008E
S11330F070B582B004000A00302818D90023C9250D
S11331000093042321002800174EB047012811D052
S1133110EC22FF3215491648164DA84721001648DF
S1133120A8470D20154B9847002002B070BD01231D
S1133130C325E5E72800124B98470128F5D0F22271
S1133140FF320A490A480B4DA84721000D48A847F9
S11331500D200A4B98470023009300220021CF2022
S1133160014CA0470020E0E7712F00005C930000B1
S1133170208D0000AD760000E4980000E1760000A8
S1133180392D000010990000F0B587B004000391B8
S1133190FF2818D90027CA250097042300222100FC
S11331A028002B4EB047012810D02A4A2A492B4820
S11331B02B4DA84721002B48A8470D202A4B9847A0
S11331C0002007B0F0BD0127C425E5E72800274B00
S11331D09847012813D0264A1F492048204DA84764
S11331E021002448A8470D201F4B98470023009333
S11331F000220021CF20164CA0470020E1E73A002E
S1133200042105A81C4B984701280DD105AA537821
S11332101B02917809040B4311780B43D2781206F0
S11332201343039A1360CCE7144A0B490B480C4B25
S113323098471348134B98470D200B4B984700238E
S1133240009300220021CF20014CA0470020B8E7C2
S1133250712F0000450200007C930000208D0000C7
S1133260AD76000064980000E1760000392D00007E
S11332704B020000909800000D2E00005302000045
S1133280C4980000C97700000022024B1A70002085
S11332907047C0468002002000B583B001A9024BEC
S11332A09847019803B000BD8931000010B5044B64
S11332B098470023012801D1180010BD063BFBE705
S11332C08931000010B5044B98470023012801D12F
S11332D0180010BD063BFBE7F130000010B582B0CA
S11332E000230093364A137069463648364B984794
S11332F0002828D0324B1B78002B0DD17C33009949
S113330099432C3B194300912E48304B9847041E97
S11333103AD001222A4B1A7001A9802040012A4B7D
S1133320984700283CD0274C2000294B984770230D
S113333001009943502001432000264B9847002464
S1133340200002B010BD01221D4B1A70224A2349ED
S11333502348244B98472448244B98470D20244B5A
S1133360984769461748184B9847041EC2D1B222A1
S113337092001A491A481B4B98471E481B4B984702
S11333800D201B4B9847DBE71B4A14491448154B87
S113339098471A48154B98470D20154B9847CFE787
S11333A0B72292000D490E480E4B984714480F4B14
S11333B098470D200E4B984706246442C0E7C04648
S11333C08002002024E8000089310000F130000070
S11333D099320000C5320000C50200009893000035
S11333E0208D0000AD760000A4940000C977000091
S11333F0E1760000F4940000D20200002095000061
S113340054950000F0B583B004000E0015000023AD
S11334100093130000220100C820244FB84701285C
S11334200FD09D22920022492248234DA847210013
S11334302248A8470D20224B98470620404203B05B
S1133440F0BDC8201F4B9847012812D01E4A1849C6
S11334501848194DA84721001C48A8470D20184BAF
S113346098470023009300220021CF200F4CA0474F
S1133470E3E7002229003000154B984703000020A1
S1133480012BDCD0A122920009490A480A4B984733
S11334901048114B98470D20094B9847002300937F
S11334A000220021CF20014CA047C6E7712F000065
S11334B08C930000208D0000AD760000789500000C
S11334C0E1760000392D00007A020000A895000082
S11334D00D2E0000E0950000C9770000F0B5D64637
S11334E000B586B004008A4615000023009313003B
S11334F000220100C720534EB047012810D0524A81
S113350052495348534DA84721005348A8470D201A
S1133510524B98470620404206B004BC9246F0BD88
S1133520C7204F4B9847012812D04E4A4749484874
S1133530484DA84721004C48A8470D20474B9847C1
S11335400023009300220021CF203E4CA047E1E756
S1133550002205AB1A8000268027BF016B46DF815D
S113356021E00023AF425B4102330B2002AA9446C0
S11335706044102252421343037001213B4B98478D
S113358000281DD1534698192100384B984700282C
S113359036D1374B1B78002B3FD0A61936B22D1BE2
S11335A0ADB2002D4CD02C1CBD4201D96B46DC8938
S11335B0A4B2002ED5D10323BD42D6D9023BD4E711
S11335C0D42252002B492248224B98472A482B4B9D
S11335D098470D20214B9847294A1C491C481D4BEC
S11335E098472848254B98470D201C4B98470023A3
S11335F0009300220021CF20124CA04700208BE72B
S1133600B222FF321B491248124B98471E481B4BEB
S113361098470D20114B9847DEE7022105A8134B6C
S113362098470028B9D0BC22FF3212490848094BF8
S113363098471648114B98470D20084B9847CBE7FD
S1133640002069E7712F00000F0200006C93000056
S1133650208D0000AD76000008960000E1760000A1
S1133660392D00001502000038960000512F00008B
S1133670800200204C93000070960000C97700007F
S11336802602000014970000A8960000DC960000B3
S1133690F0B5DE4657464E464546E0B585B0029045
S11336A00E0003921F000EAB1C88002C10D00301E7
S11336B02D495B58002B0BD001012B4B5B189B88C9
S11336C09BB2002B04D0284B5B189B7A012B06D0AD
S11336D005B03CBC90469946A246AB46F0BDF4808A
S11336E08946214B4B449B46D84601970BE0250065
S11336F0012312E0641BA4B2019B9C46AC446346C4
S11337000193002CE4D05B469B88E31A1BB2002B88
S1133710EDDD43469D88ADB20023134A49468958DE
S11337202A000198114FB847002812D10E4B4A467F
S1133730D3583360B580F3885B1BF3800C4B1B6854
S1133740002BD7D00A4B1B68320003990298984784
S1133750D0E70848084DA84721000848A8470D208D
S1133760074B9847B4E7C046BC030020911C0000F7
S11337706C04002004900000AD760000489900001D
S1133780E1760000F0B5D6464F464646C0B59AB03D
S11337900D00140041283AD0422853D043286AD05F
S11337A0442800D1A5E04B2800D1A2E04A2800D14A
S11337B0C8E0462800D1DCE0482800D103E14D28C8
S11337C000D1D3E0452800D120E1472800D141E1D0
S11337D007254C2800D11AE1522800D0ACE001237F
S11337E0142209A920009C4CA047002800D0A3E083
S11337F09A4B0A9A1A601B68002B00D19CE0974BE5
S11338001C6809AB1A7C0B990998A04794E0002323
S1133810042209A92000904CA047002800D08BE086
S113382009AB5A7805AB1A708D4B1B68002B00D17D
S113383082E08B4B1B6809AA0020105605AA0121BF
S1133840984779E00023042209A92000824CA0476C
S1133850002871D109AB5A7805AB1A70804B1B68EC
S1133860002B69D07E4B1B6809AA0020105605AABC
S11338700221984760E000230C2205A92000764C21
S1133880A047002858D105AB09229A56002A1ADB12
S11338901101744B5B180021D9720131997272497C
S11338A00B8801339BB20B800B889BB2002B03D196
S11338B00B8801339BB20B806B4B198889B21001C2
S11338C0684B1B18D98009AB1A7002229A8005AA8A
S11338D05188D980069A0B92614B1B68002B2BD020
S11338E05F4B1B6805AA0820105609AA04219847B3
S11338F022E00023042209A92000574CA0470028F5
S11339001AD109AB0020185605AA10705B785BB277
S11339105370002B07D109AB5B88083B9BB20101B4
S1133920504A521813814E4B1B68002B04D04C4B49
S11339301B6805AA052198471AB01CBC90469946F5
S1133940A246F0BD0023442209A92000424CA0470E
S11339500028F1D1454B1B68002BEDD0434B1B686D
S1133960199A0392110009A89847E5E706239A4695
S113397001E006239A460023102205A92000364FB1
S1133980B8470028D8D105AA0C201056D3890701BE
S11339903449C91900270F730826975FB846578919
S11339A0B94609AF56887E81069A0C92CA8892B2AB
S11339B093420BD0102DBFD90123002200210020F7
S11339C0254CA047B8E709239A46D4E74346002B81
S11339D001DDA8450EDB09AB42469A80002309931A
S11339E01F4B1B68002BA7D01D4B1B6809AA51460F
S11339F09847A1E723004B44424669468A818A8955
S1133A000092524639001A4CA04795E70725002337
S1133A10082209A92000104CA047002800D08BE7F9
S1133A2009AB002018569A88598805AB1980010102
S1133A300C4B5B18DB889BB29A4200D07CE7084BA6
S1133A401B68002B00D177E7054B1B6805AA2900EA
S1133A50984771E70825DAE7911C000070040020FC
S1133A606C040020BC0300208202002074040020A7
S1133A709136000010B50A4B1B78002B00D010BD06
S1133A80B02200210748084B984708490220084BF8
S1133A9098470122024B1A700022064B1A80EEE767
S1133AA081020020BC0300202D1600008537000091
S1133AB0BD1D000082020020024B1860024B1960F9
S1133AC07047C0466C04002074040020F0B587B031
S1133AD01500022855D1012956D00B2707260229A3
S1133AE015D1340032012C4B9B189B7A002B4ED0FD
S1133AF00136F0B22849C6B2BE423DD204000301E9
S1133B00CB189B7A421C002B03D01000F3E7083E2D
S1133B1034E00001204BC018102200211F4B9847AD
S1133B2022011D4B9B1801229A721D4A13880133EE
S1133B309BB2138013889BB2002B03D113880133EB
S1133B409BB21380164B1A8892B22101124B5B1858
S1133B50DA8076B2EB0711D505AA16700E4B5C1805
S1133B602123E37200230293019300930433502131
S1133B7002200C4CA04701E001267642300007B039
S1133B80F0BD01267642F9E707270026A9E73301AD
S1133B90014A9818C0E7C046BC0300202D16000057
S1133BA0820200207D17000070B588B0041E30DB4F
S1133BB0002931D000011D4B1B189B7A012B2ED1FB
S1133BC0002A2FD0194B1B18DB7A4426DB0705D5B6
S1133BD0164B1B18DA7A05AB5A72073605AD2C72F0
S1133BE008222800124B98472401104B1C19E38823
S1133BF06B8100230293019300930C332A0031005C
S1133C0002200C4CA047002801D00920404208B0F3
S1133C1070BD06204042FAE706204042F7E706203E
S1133C204042F4E706204042F1E7C046BC030020CE
S1133C30191600007D17000030B589B0002836DB66
S1133C40002937D0AF23DB009A4236D804011E4B3B
S1133C501B199B7A012B33D104AB18705A802500B1
S1133C60194C6419E4889C815025062800DD0C3D1C
S1133C700401154B1B19DC7A4523E40705D5000123
S1133C80114B18180589ADB24C23802018430295B6
S1133C9001920091102304AA010002200B4CA047BA
S1133CA00023002800D00E3B180009B030BD0623C5
S1133CB05B42F9E706235B42F6E706235B42F3E740
S1133CC006235B42F0E7C046BC0300207D170000DA
S1133CD030B587B0002834DB002935D0002A36D02F
S1133CE005011E4C6419A47A012C33D11B4C2951B3
S1133CF06419A280217B002200291DD10121217396
S1133D00E27A4531D20700D50731002B17D1013BA8
S1133D10049304AA10710001104B1818C388D380AF
S1133D200023029301930093083302200C4CA04714
S1133D300022002800D00E3A100007B030BD0493D2
S1133D40E7E706225242F7E706225242F4E7062248
S1133D505242F1E706225242EEE7C046BC0300207D
S1133D607D17000030B587B0041E2ADB0201184B12
S1133D709B189B7A012B27D105A90870144B9B181B
S1133D80DA884A8000229A72DA80DB7A4921DB07DA
S1133D9000D505310023029301930093043305AA4F
S1133DA002200C4DA847051E01D009256D422401AF
S1133DB00748201810220021074B9847280007B015
S1133DC030BD06256D42F9E706256D42F6E7C0468B
S1133DD0BC0300207D1700002D16000070B582B0D2
S1133DE000230193002600210278441C05300B00B7
S1133DF009E09D005B195B009B18DBB222000134D3
S1133E00A0420AD012782E2A0AD0002A0CD0303AC6
S1133E10D2B2092AEDD9002000E0002002B070BD22
S1133E206A46B354200002E06A46B35420000136C7
S1133E30042ED9D10422694601A8024B984701985F
S1133E40ECE7C0461916000010B584B004000D4B11
S1133E509847C3B2402B12D8FF23034001330022FA
S1133E600292019200922200CA210220064CA0472D
S1133E70002801D104B010BD09204042FAE7062011
S1133E804042F7E73D1600007D17000070B582B090
S1133E9004002A4B98470005000D294B0025984241
S1133EA002D8280002B070BD01A92648264B9847C5
S1133EB0051EF6D1254B019A13402549194301915A
S1133EC02048244B9847002C20D000212248214C24
S1133ED0A047AB212148A04701212148A047002148
S1133EE02048A04781212048A047204E204C300084
S1133EF0A0470128FBD1154B019A134080214902A8
S1133F00194301910F48134B9847CAE700211248FF
S1133F10104CA047B9211148A04701211048A047DF
S1133F2000211048A04781210F48A0470F4E104C94
S1133F303000A0470128FBD1DDE7C046ED26000094
S1133F409F03000010140000052A0000FF8F88F86A
S1133F5000101101112A0000080201000C020100E6
S1133F60140201001C0201000402010018020100F5
S1133F70F92900000C4B1B68002B06D1EFF31083CA
S1133F80002B07D00022094B1A70074A136801332B
S1133F901360704772B6BFF35F8F0022044B1A7030
S1133FA00132024B1A70F0E78402002088020020DC
S1133FB010000020084B1A68013A1A601B68002B95
S1133FC009D1064B1B78002B05D00122044B1A7033
S1133FD0BFF35F8F62B6704784020020880200201E
S1133FE010000020F0B583B001AC012565700027F6
S1133FF0A770257021001720064EB04780221204B6
S1134000054B9A612770657021003720B04703B0D3
S1134010F0BDC046ED410000004400411723002AD2
S113402001D0180070478B00064A9B58002B03D020
S1134030834205D01D23F4E7890088500023F0E76C
S11340400023EEE77C0400201723002901D0180088
S1134050704700221F2800D8024A01238340D360FE
S11340600023F4E7001800401723002901D01800AA
S1134070704700221F2800D8024A0123834093601E
S11340800023F4E70018004070B50022104B1A70AA
S1134090002310491F25104E0D4C0AE00D4908E07D
S11340A023780133DBB223700F2B10D800211F2B90
S11340B0F4D9280018400122824008691042EFD048
S11340C00A619B009B59002BEAD09847E8E770BD32
S11340D078040020001800407C040020044A13786F
S11340E002210B43137053785BB2002BFBDB704748
S11340F00018004000B583B0124A936940210B4375
S1134100936101A900230B7005200F4B98470520EC
S11341100E4B98470E4A137801210B4313705378C2
S11341205BB2002BFBDB0B4B19004031002204C3B4
S11341309942FCD11022084B1A60084B984703B0EF
S113414000BDC046000400404D570000C1560000A9
S1134150001800407C04002000E100E0DD40000085
S113416000230360436001220272427283720233AD
S1134170C3727047F0B583B005000C0001A9002399
S11341804B70CB7023790B70237A8B702078154B8E
S1134190984700201F2D00D8134807222A40920078
S11341A0E77AA37A002B01D008231F43EB089B0076
S11341B0C31899690F269640B14397403A000A43C1
S11341C09A61637A002B06D143690122AA40934382
S11341D0436103B0F0BD42690123AB401343436123
S11341E0F7E7C046455800000018004000B583B00A
S11341F001AB80221A700A785A704A789A708A78C9
S1134200DA701900014B984703B000BD455800000F
S113421010B5490840230024814202D2180010BD81
S11342201C00091A631C9BB28842F9D94023FF2C55
S1134230F4D814800023F1E7F0B5DE4657464E4625
S11342404546E0B589B00C00059212AA1178050024
S11342504D434022A54207D9100009B03CBC90460A
S11342609946A246AB46F0BD002B55D1020008008A
S11342700021634DA847834626000027002300241D
S113428000930194002200233F2020218C461F39F3
S11342900296039714E06446241A0D00E540A846EC
S11342A015E0029C039D121BAB414D46009E019FED
S11342B035433C00464634430095019401381DD3F0
S11342C0202464420419E6D40D00A540A8460C003D
S11342D08440A14692185B4114001D0046465F4687
S11342E03E4203D00E00264332002B00029C039D65
S11342F09D42E3D8D5D19442E0D8D2E700220123ED
S113430000980199121A8B411900130C0A041A43DC
S1134310059B1A8000229FE70022012BF8D1630F2E
S11343200493E30098460A0000230021344CA0477C
S113433004000D0000239C46069320339B4601266F
S11343406346079348E05946C91B3000C84082467B
S113435010E000980199121A8B41029948460143D2
S11343600291013F25D3202149427918EBD4300032
S1134370884082463100B940894692185B4110005A
S1134380190044464D462C40A4465446049D2C40F6
S1134390A246644655462C4303D03400044322000D
S11343A00B00009801999942DBD8D2D19042D8D819
S11343B0CFE7009C019D0299079A8B1ADB081149EB
S11343C08B4214D9069B0133DBB219000693130008
S11343D001330793082908D0002302930022002305
S11343E03F21009401950F00BDE7402234E74022AD
S11343F00699082900D12FE74A031A4388E7C046E3
S113440065740000FF1F000010B582B004000E4B5D
S11344101B78002B07D0002905D10B4B5B78834216
S113442010D01D200CE001A90C701320074B9847F5
S11344301320074B9847044B5C7001221A7000202C
S113444002B010BD0020FBE78C0200204D57000095
S1134450C1560000404B984231D00AD93F4B984294
S11344604DD03F4B98425AD03E4B984237D0002013
S113447070473D4B98420CD03C4B9842F7D10129F0
S113448017D000295DD0022915D0032915D00020AA
S1134490EEE7012907D0002951D0022905D00329CC
S11344A005D00020E4E73248E2E73248E0E732484A
S11344B0DEE73248DCE73248DAE73248D8E7012958
S11344C007D000293FD0022905D0032905D00020B8
S11344D0CEE72D48CCE72D48CAE72D48C8E7012987
S11344E007D0002931D0022905D0032905D00020A6
S11344F0BEE72848BCE72848BAE72848B8E70129B6
S113450007D0002923D0022905D0032905D0002093
S1134510AEE72348ACE72348AAE72348A8E70129E4
S113452007D0002915D0022905D0032905D0002081
S11345309EE71E489CE71E489AE71E4898E71E48D7
S113454096E7032094E71D4892E71D4890E71D482D
S11345508EE71D488CE7C046001000420018004258
S1134560001C00420014004200080042000C0042FB
S11345700300050003000600030007000300010018
S113458003001E0003001F000300090003000A00CB
S113459003000B00030011000300120003001300CA
S11345A003000D0003000E0003000F0003001700BA
S11345B003001800030019000300040003000800AE
S11345C00300100003000C000300160030B587B090
S11345D00B4B6A4632CB32C232CB32C2009B83428F
S11345E00BD001239A0069465258824206D0013307
S11345F0062BF7D1002007B030BD0023D8B2FAE76C
S11346005C99000070470000F0B50A4B1B78002B42
S11346100CD1094F094E0A4D0024DE515A19146079
S11346200433182BF9D10122024B1A708000024B7B
S1134630C150F0BD8E02002090020020054600000B
S1134640BC04002000B583B009236A46137001330B
S11346505370013393700133D370013313710133F9
S11346605371034B98476B46185603B000BDC046C0
S1134670CD45000010B5024B1B680020984710BDC3
S11346809002002010B5024B5B680120984710BDD2
S11346909002002010B5024B9B680220984710BD81
S11346A09002002010B5024BDB680320984710BD30
S11346B09002002010B5024B1B690420984710BDDE
S11346C09002002010B5024B5B690520984710BD8D
S11346D090020020F0B58BB005000C001600296094
S11346E00B681C209B0701D50BB0F0BD0B68173875
S11346F0DB07F9D40800604B9847604A116A871CAD
S11347000123BB400B43136209A92427F35D0B70FB
S11347101430C3B201931800594B98470198594B70
S11347209847F05D0021584B98473378012B38D0D7
S11347302B000C3329002831002204C38B42FCD106
S11347400023EB62AB620024AB862B863633EC5439
S11347500133EC540133EC54353B6B722C712868F3
S1134760454B984707004949494B9847BF00494B77
S1134770FD502F6804AB80221A705C707F3A9A70E7
S1134780DC703378002B02D1002204AB9A70B36A38
S11347900593F36A0693336B0793736B08930024B2
S11347A00BE023680C2213432360C1E738003A4B23
S11347B098470AE00134042C10D0E1B2A30002AA05
S11347C00C201218D0580028F0D0431CF2D004A9B1
S11347D00870000CC0B2314B9847EBE733786B712B
S11347E0337CAB71B37CEB71337D2B72002202AB53
S11347F0DA803378012B28D07368B2681343F268E7
S11348001343317C727C002A03D1254A92789207A3
S113481001D580221343B27C002A02D08022920266
S11348201143F27C002A02D0802292001143327D8F
S1134830002A02D08022920111433A6813433B605C
S11348407B680B437B6000204EE728680A4B98473F
S11348501430C0B2134B9847010002AB9A1DB069E3
S1134860114B984703001720002B00D03CE702AB04
S113487006331B783B73BFE7CD45000000040040BE
S11348804D570000C156000009440000A149000032
S113489009460000BC0400205544000045580000AF
S11348A000200041695700001142000010B544790E
S11348B01523012C01D0180010BD047A0023002C0C
S11348C0F9D1002A58D04B78002B44D003681B7EC2
S11348D0DB0710D40A78D1090023002904D1530935
S11348E0DB012E498C4663441F21114001228A407A
S11348F09A610523DFE70A78D4090023002C04D148
S11349005309DB01254CA44663441F2414400122AF
S1134910A2405A6103681A7ED20701D58A789A6246
S1134920C2790023002AC6D102680421137E0B42F7
S1134930FCD0117E00234907BDD5538B5B0701D5FD
S1134940042353838379012B02D0936A0023B2E7B3
S1134950936A0023AFE70A78D1090023002904D120
S11349605309DB010D498C4663441F211140012288
S11349708A405A6100239EE70A78D109002300295E
S113498004D15309DB0105498C4663441F211140BE
S113499001228A409A6100238DE7C0460044004109
S11349A0F8B58000704BC45826683723E75C36227C
S11349B0A25C1740337EB57D1D40EB0702D56379B9
S11349C0012B1ED06B0711D5738B5B075AD5637A05
S11349D0012B08D01E223823E254353B6372023384
S11349E033753B074AD4B36A04237383AB0703D5F7
S11349F06379012B00D197E06DB2002D00DAA9E0B4
S1134A00F8BD637A002B22D0637A002BDAD02168B8
S1134A10E26A1378DBB2501CE062A079012827D047
S1134A209BB2DB05DB0D8B62A38E013B9BB2A3869D
S1134A30A38E9BB2002BC5D101333375637A012B4E
S1134A40C0D1E379002BBDD10233B375BAE7474B2C
S1134A501B88B362638E013B9BB26386638E9BB2F9
S1134A60002B01D1013333756379012BCCD0A9E735
S1134A705078000203430232E262D2E72000A369C5
S1134A809847B0E7637A012B28D023689B6ADB053B
S1134A90DB0DDAB2A16A0A70A26A511CA162A17983
S1134AA0012934D0238E013B9BB22386238E9BB2F3
S1134AB0002B00D09AE700223833E254343B33759C
S1134AC0637A022B29D0637A002B00D08EE7BB07D0
S1134AD000D48BE720002369984787E723689B6A03
S1134AE0638E013B9BB26386638E9BB2002B00D026
S1134AF07CE70433337500223433E254353B63726C
S1134B00FB0700D472E72000E36898476EE71B0AAE
S1134B105370A36A0133A362C4E77B0700D465E73B
S1134B2020006369984761E7637A012B00D063E74B
S1134B30E379002B00D05FE70233337501336372EE
S1134B4000223533E254FB0700D455E72000E36824
S1134B50984751E78023337533767B0600D44FE7BB
S1134B60636A200098474BE7BC040020D40400206B
S1134B70F0B5DE4657464E464546E0B591B00500D1
S1134B800C00160029600800BB4B984702002368FC
S1134B900520DB0706D511B03CBC90469946A246D9
S1134BA0AB46F0BD236817309B07F4D4B349086AB9
S1134BB0971C0123BB4003430B620FA92D27F35D10
S1134BC00B701432D3B202931800AD4B984702987D
S1134BD0AC4B9847F05D0021AB4B9847F37A6B716F
S1134BE02423F35CAB712523F35CEB71F37E2B720E
S1134BF0337F6B722B68984618009F4B984714308C
S1134C0000220E2306A98C4663441A80328A02923B
S1134C108023DB019A4200D19CE00FD9C023DB0141
S1134C20029A9A4200D190E080231B029A4200D05B
S1134C301DE1032306930023079308E080239B01CF
S1134C409A4200D013E1102306930F3B0793336875
S1134C500593F3689B4673690393337E0493262379
S1134C60F35C9A4673689946002B00D19EE080233A
S1134C705B05994500D182E0737E002B02D0B37EA0
S1134C80424693732A68029FD369002BFCD10E33EA
S1134C9006AA944663441B8842469381059B5A4660
S1134CA01343039A13434A4613431F43049B1B02B3
S1134CB01F4353465B071F432723F35C002B01D19B
S1134CC004331F43737E9B02327F52021343727F6D
S1134CD0120213432422B25C520413432522B25C11
S1134CE012041343F17A19433389FF2B00D181E075
S1134CF080225204174319432C23F35C002B03D165
S1134D00624B9B789B0701D580231F432A68D36994
S1134D10002BFCD1434659602A68D369002BFCD18F
S1134D2043461F600EAB80221A7000225A70DA705C
S1134D309A70336B0A93736B0B93B36B0C93F36B93
S1134D4002930D9300270AAE63E008230693073B02
S1134D5007937CE733680593F3689B467369039371
S1134D60337E04932623F35C9A4673689946002B9A
S1134D7018D080235B05994501D0002025E0272326
S1134D80F35C002B00D077E7336A1F00C0B2404BBE
S1134D90984701000E2206AB9C46624438003D4B06
S1134DA0984712E008230693002307932723F35C14
S1134DB0002B0ED0069B0093079B0E2206A98C465F
S1134DC06244B16A306A344FB847002800D0E2E642
S1134DD052E7336A1F00C0B22D4B98470100069B6F
S1134DE00093079B0E2206A88446624438002A4F8B
S1134DF0B847EAE7F37E002B00D17DE78023DB048C
S1134E001F4379E72000254B984707E00137042F1B
S1134E100DD0F9B2BB0098590028F3D0431CF5D04B
S1134E200EA90870000CC0B21D4B9847EEE7002392
S1134E30EB602B616B61AB61EB612B62AB626B620C
S1134E400022EB85AB853033EA540133EA54013355
S1134E50EA540133EA542868074B9847040011497F
S1134E60114B9847A400114BE550002093E6102302
S1134E70069300230793EAE6CD45000000040040B2
S1134E804D570000C15600000944000000200041B5
S1134E9069570000114200003942000055440000E7
S1134EA0455800004D4F000009460000BC04002096
S1134EB0C2791C23002A01D118007047C28D92B216
S1134EC0173B002AF8D10368DA69002AFCD1198556
S1134ED002211A7E0A42FCD00023EDE782791C23CA
S1134EE0002A01D118007047828D92B2173B002A24
S1134EF0F8D10268107E4007F4D5D369002BFCD1A9
S1134F00538BDBB298061DD0980703D50223538335
S1134F101833E7E7580703D5042353831A33E1E72B
S1134F20D80703D5012353831233DBE7D80603D50F
S1134F30102353833233D5E79B0603D520235383B1
S1134F402133CFE7138D0B800023CBE7F8B5800026
S1134F50624BC5582C68E369002BFCD1237EA67DE7
S1134F601E403023EB5C3122AF5C1F40F30722D597
S1134F70EB8D9BB2002B1CD0AA6A1378DBB2511CB8
S1134F80A962697901290ED09BB2DB05DB0D23856B
S1134F90EB8D013B9BB2EB85002B0CD101332375C8
S1134FA00133A37507E0517809020B430232AA6268
S1134FB0EBE701232375B30706D5022323750022EB
S1134FC03133EA54FB071AD4730765D5AB8D9BB212
S1134FD0002B5FD0638BDBB21A0714D43F2213403B
S1134FE0002B34D09A0711D51A223223EA54303BCD
S1134FF063837B0750D528006B6998474CE02800F1
S1135000EB689847E0E737221340E9E75A0705D5EC
S11350101E223223EA542E3B6383EAE7DA0705D5DE
S113502013223223EA54313B6383E2E7DA0605D5DF
S113503042223223EA54223B6383DAE720221A42D3
S1135040D7D021323223EA54123B6383D1E7238D34
S1135050DB05DB0DDAB2696A0A706A6A511C69629F
S11350606979012910D0AB8D013B9BB2AB85002B34
S113507012D10433237500222E33EA54BB070BD517
S113508028002B69984707E01B0A53706B6A0133A9
S11350906B62E8E704232375F30604D51023237514
S11350A02376FB060ED4B30604D52023237523767A
S11350B03B070BD4330704D5082323752376BB069B
S11350C008D4F8BD2800EB699847ECE72800AB69E1
S11350D09847EFE72B6A28009847F2E7BC040020C2
S11350E010B5082803D880001B4B1B589F4600208E
S11350F030E01A4B18692DE0194B1B6A9B059B0F76
S11351001848D84026E0154B586923E0134B1B6818
S113511000209B071ED512491022CB681A42FCD0EE
S11351200E4B1B685B0701D40F4813E000200F4BA4
S113513098470A4B9B681B041B0C58430AE05023F6
S1135140074AD35C00205B0704D5044BD86801E010
S11351508020000210BDC04674990000A8020020FF
S11351600008004000127A00006CDC02695700005D
S113517070B50C490B6A0478857840780122104098
S113518080014026B34303432A40D2018020834355
S113519013430322224012020348034013430B62C9
S11351A070BDC04600080040FFFCFFFFF0B5DE46BE
S11351B057464E464546E0B50100264B9B469B8A22
S11351C0457800784242424191468878CA789446AC
S11351D00A7990464E7B0F7B8C7B8A681E494A6114
S11351E001214A4692009146042293434A461343BE
S11351F042460A40D2009046082293434246134353
S113520062460A40120194461022934362461343B5
S1135210084040012022934303430F40BF01402034
S113522083433B430E40F601403083433343793894
S113523005402D02094803402B4321400903084837
S113524003400B435A4693823CBC90469946A2467F
S1135250AB46F0BD00080040A8020020FFF8FFFFA5
S1135260FFEFFFFF10B5037A9B061B0C42899205E2
S1135270920D134318494B608379C27913434288D2
S11352808488224313434278D20113430B6003788A
S1135290042B11D0202B0ED1037B9B06028A1343CF
S11352A0C28912040D490A4013430B4A93601168E2
S11352B00B4B0B43136010BD037B9B06028A134305
S11352C0C289120405490A401343034A93601368D0
S11352D004210B431360EEE7A80200200000FF0343
S11352E024040000082803D88000254B1B589F463F
S11352F0172044E0234A136A02210B43136200205F
S11353003DE0204A936902210B439361002036E07B
S11353101C4A138A02210B43138200202FE0194AEE
S1135320938A02210B439382002028E016490B68DC
S1135330022213430B60134B9A8419000E32CB687C
S11353401A42FCD0104A91680E4BD96252689A6294
S113535000229A8419001032CB681A42FCD00A4BFE
S11353601B689BB2074A9384002008E00549442245
S11353708B5C022003438B54002000E00020704724
S11353809899000000080040A8020020F0B5CE461D
S1135390474680B58FB0C222D200504B9A60504A23
S11353A053681E218B431A390B435360032201AB0C
S11353B01A7000244B4DE0B201A9A8470134252CF2
S11353C0F9D10AA80023037083708022120282603C
S11353D0C3700122027103738373023242704373F8
S11353E0414B98470520414B98473C490222CB68E2
S11353F01A42FCD0394A938A80210B43938205AB2D
S113540000210022598099809A71DA713F315981C3
S11354103B3919705A70364B1B689B0E3F2B5BD07F
S113542005A80372334B0382072303733833C38104
S1135430314B984704A800254570012686700570F5
S11354402E4B98470620294FB8472D4B984701AC5F
S11354500296657025726572052323702100012070
S1135460284B994698470120274B984698476570E2
S113547025726572042323701C33636021000220AB
S1135480C8470220C047267021000020154B9847CA
S113549000201E4B98470720B8471049D022CB68FC
S11354A01340D02BFBD11A4A002313725372937208
S11354B0D37201A901224A604B700B724B720733FD
S11354C00B7000200F4B984700200F4B98470FB0EC
S11354D00CBC90469946F0BD203BA1E70008004073
S11354E0004000414D570000AD510000E55200005E
S11354F024608000B905000065520000715100006D
S11355001555000039550000F1550000C156000042
S113551000040040064A936908210B439361012269
S1135520044B1A7019000B781342FCD17047C04623
S113553000040040000C004070B5060004000D7823
S11355402D0205434B78002B02D08023DB021D4340
S11355504B7A002B02D080231B031D43486801288B
S113556010D9431E184234D1022830D90223002214
S113557001325B009842FBD81202324314008023AC
S11355805B031D430B7A002B02D080239B031D4336
S1135590134A53785BB2002BFBDB124B9847124B38
S11355A01E700F4A53785BB2002BFBDB0C4B9C60E4
S11355B01A0053785BB2002BFBDB094A5368802145
S11355C049020B401D435560084B984770BD0022AB
S11355D0D2E70402344380239B021D43D2E7C04632
S11355E0000C0040753F0000080C0040B53F00006F
S11355F010B504000B4A53785BB2002BFBDB0A4B5B
S113560098470A4B1C70074A53785BB2002BFBDBAC
S1135610044A516880235B020B435360044B984750
S113562010BDC046000C0040753F0000040C004053
S1135630B53F000070B504001A4A53785BB2002BE2
S1135640FBDB194B9847194B1C70164A53785BB215
S1135650002BFBDB134E7068C004C00E144B98473C
S11356600500124B1C707668F602F60F114B1C7085
S11356700C4A53785BB2002BFBDB0A4B9C68240278
S1135680240C0D4B9847002E07D1012C07D921007B
S113569028000A4B9847050001E00134E540280042
S11356A070BDC046000C0040753F0000040C004073
S11356B0E1500000080C0040B53F00007971000083
S11356C010B50400064B9847064B1C70064A5388D5
S11356D08021C9010B435380044B984710BDC04639
S11356E0753F0000020C0040000C0040B53F000074
S11356F010B504000F4B98470F4B1C700F4A53888A
S11357001B05180F53880E490B40538053880D49CD
S11357100B40538011008022D2014B881342FCD1EC
S113572006494A8803020648024013434B80064B4D
S1135730984710BD753F0000020C0040000C00406B
S1135740FFF0FFFFFFBFFFFFB53F000010B50C786F
S113575024020443024B9847A4B2024B5C8010BD60
S1135760F1560000000C004010B50400064B9847A9
S1135770064B1C70064B5C882405240F054B984788
S11357802000054B984710BD753F0000020C0040F7
S1135790000C0040B53F00003556000030B5D3780A
S11357A0002B35D11378802B29D01B06802464026A
S11357B0234354780225AC4306D19478002C20D19D
S11357C08024A402234341605478013C012C1CD959
S11357D00D042D0CA024E4052C431C4384620D0C01
S11357E0D02424062C431C438462D478002C22D178
S11357F05B031CD59378012B1ED0416117E0002375
S1135800D7E7C024E4022343DDE70D4C2340DFE760
S113581041600C04240CA023DB05234383620C0C9D
S1135820D0231B0623438362D378002B03D1537800
S1135830013B012B02D930BD8161F8E78160FAE7B1
S1135840FFFFFBFF10B50A00C1090023002904D1A2
S11358504309DB0105498C4663441F242040012190
S113586081401800024B984710BDC04600440041D7
S11358709D5700007047000010B5054B9847054B35
S11358809847054B9847054B9847054B984710BDDB
S11358908D530000E53F000075580000F5400000FE
S11358A075580000094B98420CD0094B984207D018
S11358B0084A0023904201D018007047023302E0E6
S11358C0012300E00023DBB2F6E7C04600200042DB
S11358D0002400420028004210B5040008004F4B89
S11358E098470023236080004D4A82586260A37267
S11358F0E372237363722372E36123626362A362BC
S113590023756375A375E3752376637623746374D3
S1135910A374E3742C22A3540132A3540132A3547C
S11359200132A3540132A3540132A3540132A354CB
S11359300132A3540132A3540132A3540132A354BB
S11359400132A3540132A3540132A3540132A354AB
S11359500132A3540132A3540132A3540132A3549B
S11359600132A3540132A3540132A3540132A3548B
S11359700132A3540132A3540132A3540132A3547B
S11359800132A3540132A3540132A3540132A3546B
S11359900132A3540132A3540132A3540132A3545B
S11359A00132A3540132A3540132A3540132A3544B
S11359B00132A3540132A3540132A3540132A3543B
S11359C00132A3544132A354A365A3670132A35403
S11359D0E365E3670132A35423661A3AA3501B32EA
S11359E0A3546366173AA3501832A354A366143A17
S11359F0A3501532A354E366113AA3501232A354B0
S1135A0023670E3AA3500F32A35463670B3AA35093
S1135A1001210C32A1540132A35410BDA558000039
S1135A20D0990000F0B5DE4657464E464546E0B5EF
S1135A3091B001900C0015000800C34B9847030077
S1135A400100C248026A9E00C14FF7593A430262FC
S1135A5022681C20920706D511B03CBC904699469A
S1135A60A246AB46F0BD226801271740F4D1B948DD
S1135A70325817202E68B242EED36E68B242EBD38E
S1135A80E869824200D2B9E1286A824200D2B7E1D1
S1135A90686A824200D2B5E1A86A824200D2B3E1C8
S1135AA098229446AC4462460892002003E00130F8
S1135AB00132082808D01678002EF8D0A64E765C5D
S1135AC08642F4DC1720C7E70022029280204004BB
S1135AD0844602E00132042A0ED0A818007C012872
S1135AE0F8D19E48405C904200DA8FE160469040D5
S1135AF0029E06430296EDE79D32AA5C002A04D07A
S1135B00802212010299114302912A7A511E8A417C
S1135B10920006926A7A012A22D0904AD25C11003D
S1135B2005923522AA5C8A4200D379E12C21695C72
S1135B300F2900D974E1287B0A90E87A0B902D2074
S1135B408246AA44002004970EAE0796C02636016A
S1135B50B1468446A046280055460993824635E05E
S1135B60069911430691D8E792024F463A400A43F8
S1135B7019798B4603215F4639400A4316435A7903
S1135B80520160210A40324399790902C026B600C5
S1135B900E401643DA791203E021C9010A40164384
S1135BA03443039A14432043624607995050042A0D
S1135BB02AD09A7C0599914200D831E1597A0A3564
S1135BC004239B46DC440F2900D929E10906F0236C
S1135BD01B0519402B002E783604FF2000040640D4
S1135BE068788024002800D1049C987808270397BB
S1135BF0002801D104980390D878834610205F468A
S1135C00002FB1D10498AFE744465546099B524A48
S1135C10D25C914651465031504641300027002213
S1135C200126B2460226FF36B34680267602B046E7
S1135C30A4461C004B460FE00678002E07D0934282
S1135C4000D8E7E0022E14D056469640374301327E
S1135C5001310230082A10D00E78002EECD0934285
S1135C6000D8D5E04646964037430678002EE9D161
S1135C70EDE75E4696403743E9E7994623006446DC
S1135C806A7E120130211140287E0722024011430E
S1135C900022802040020E0002E00132042A0BD0D0
S1135CA0A918097D0029F8D00599914200DCB3E0D8
S1135CB0010091400E43F0E7B2460198020004321D
S1135CC03430002102C28242FCD100220198426396
S1135CD082639900224A88500460A022A95C643A35
S1135CE081540DA9AA7A0A701E4AD65C30001E4B54
S1135CF0984730001D4B98474B46002B3CDD2E0047
S1135D00583698339846A84401239946AB464546ED
S1135D10A046089C03E001340436AC422AD0237820
S1135D20002BF8D00CAB4A469A7000230CAAD3700F
S1135D3013002022B21812781A704A465A7030782A
S1135D4019000B4B9847E6E7A558000000040040F3
S1135D50BC990000D0990000DC990000C8990000AB
S1135D60D8040020CC9900004D570000C156000013
S1135D704558000044465D460A9B1B030B9A1202D9
S1135D801343029A134323600422A3681A42FCD1EA
S1135D90FF2323710422A3681A42FCD16B461B7EA5
S1135DA063710E9BE3600F9B2361A7611D4AA36887
S1135DB01342FCD15346E3631022A3681A42FCD178
S1135DC02B686363184AA3681342FCD16B6823648D
S1135DD00598002822DD1C350021144E32008A402B
S1135DE0A3681A42FCD104CD0B0010339B00E318C6
S1135DF05A6001318842F1DC00202DE617202BE6A1
S1135E00172029E6172027E6172025E6172023E682
S1135E10172021E617201FE617201DE600201BE6A9
S1135E20172019E640000200800004000001080069
S1135E30920083185960034BD358426B1343436356
S1135E4000207047E099000070B504000D00006860
S1135E50094B9847094B1B5C1F221A4001239340AE
S1135E60074A1360AD00074BEA58A36B1343A363BF
S1135E7023689A6270BDC046A5580000109A0000BD
S1135E8000E100E0E0990000F0B5C64600B58000EE
S1135E900E4BC7583B68DE6ABB6B7A6B13401E40DF
S1135EA000240B4B984602E00434302C0AD04346BD
S1135EB0E5583542F8D03B195B68380098473B6891
S1135EC0DD62F1E704BC9046F0BDC046D804002072
S1135ED0E099000010B50020014B984710BDC04662
S1135EE0895E000010B50120014B984710BDC046E3
S1135EF0895E000010B50220014B984710BDC046D2
S1135F00895E0000FEE70000F8B52A4A2A4B9A424F
S1135F1011D01A00294B9A420DD2294A03339B1AF5
S1135F209B0801339B000022234822498C5884504B
S1135F3004329A42FAD1234A234B9A420AD2D343D7
S1135F4021495B1803218B4304339B18002102C2AF
S1135F509342FCD11D4AFF211D4B8B439360FD39B5
S1135F6090235B001B4AD1501B4AD3780325AB43D3
S1135F7002242343D370D3780C27BB43082633432E
S1135F80D370164B987B3022904320221043987391
S1135F90997BB943314399739A7BAA4322439A73F9
S1135FA00F4A536880210B4353600E4B98470E4BA6
S1135FB09847FEE74C9B000000000020780000207A
S1135FC00400002078000020F404002000ED00E02C
S1135FD000000000007000410050004100480041F2
S1135FE000400041B9740000F9620000F0B5C646F3
S1135FF000B50C00904600280FD1002A11DD8F183F
S1136000094E0A4D306821002B6898470134BC4280
S1136010F8D1404604BC9046F0BD01235B4298464B
S1136020F7E78046F5E7C046EC040020E4040020CE
S1136030F0B5C64600B50E0015000138022810D888
S1136040002A11D000240C4B98460C4F4346186884
S1136050315D3B689847002808DB0134A542F5D13F
S113606006E00124644203E0140001E001246442D8
S1136070200004BC9046F0BDEC040020E80400209D
S11360800300064A1268002A04D0044A1068C318A0
S1136090136070470249014A1160F6E7C00200200C
S11360A0F824002001204042704780239B014B606C
S11360B00020704701207047002070470260016192
S11360C0002242608360009BC360704710B50400E7
S11360D04268002A00D110BD0169C068A3689847CE
S11360E000236360F7E7000070B504000D00036847
S11360F042689B1A002B05DD22696368591C6160A4
S1136100D55470BD014B9847F6E7C046CD600000FA
S113611070B506000C000912024DA84761B23000A8
S1136120A84770BDE9600000F8B506000C00002A1D
S113613008D08D18044F002161563000B84701344F
S1136140A542F8D1F8BDC046E9600000024A1368D0
S1136150013313607047C046C402002064234380A7
S11361600023037043707047F0B5C64600B5ACB069
S11361700D006E461D4B6A4692CB92C26B884365F6
S1136180143004002B789B00995917001000184B09
S113619098470020174B9847174B1B7ADBB2D8401F
S11361A080466988FA200002144B98470100404653
S11361B0134B984778600523FB722B789B00995901
S11361C03A0020000F4B98476A780832D2B20E4941
S11361D020000E4B984769780831C9B220000C4B57
S11361E098472CB004BC9046F0BDC046149A0000F9
S11361F0D958000035560000000400408D7200009C
S113620079710000255A00004D610000315E0000E4
S1136210495E00004269022193681942FCD1136867
S113622002210B431360704770B504000578E8073A
S113623002D50120404270BD6160290002208143E3
S11362402170A260616D1800044B9847E0602378C8
S11362500122134323700020EDE7C046797100004A
S113626070B58B005D18AD00295C022631432954BA
S11362704419416D1000034B9847034B1B68C01829
S1136280206170BD79710000C40200208B00591890
S113629089000B5C022293430B54704770B50400D1
S11362A00378DB0707D503789B0704D5114B1B68DC
S11362B00269D31A00D470BD03785B07FBD403785A
S11362C0042213430370C368826800214568A84709
S11362D0E368002B08D0074A1268D3182361237897
S11362E0042293432370E6E7237802229343237026
S11362F0F5E7C046C402002070B50B4B98470B4B22
S113630098470B4B98470B480B4B98470B4B9847B8
S11363100B4B98470B4B98470B4E0C4D0C4C0020E5
S1136320B047A847A047FAE77958000005110000D4
S1136330F1060000209A0000C9770000850F0000D4
S1136340390E000011090000412200005D0A00001E
S11363508D0D0000031C0E3000B50E2819D800F076
S113636001FF16141210181B180E0C180E0E0A1D1D
S11363700800002014E0702011E016200FE00C202B
S11363800DE079200BE0682009E00B2007E01020E5
S113639005E00020834203DA052000E002204042A9
S11363A000BD0000F8B5041C43342378051CD8074D
S11363B01CD50426334323700220285692B20023AE
S11363C00C4FB847002805DA2378B34323700A4BEF
S11363D098470DE02278142313400020042B07D1A2
S11363E0064B9847E86D064B9847F3E70120404277
S11363F0F8BDC046393C000055630000412200004E
S11364009D620000074B4022038096239B0003817A
S113641002610023202283704360C36042610376DB
S11364207047C0465B07000038B5041C0D1C0028EB
S113643030D000292ED00B69002B2BD04B68002BB9
S113644028D000217422164B9847201C154B583035
S1136450291C1C229847636E002B0BD12869124B10
S113646098476066002817D0231C43331A782021EC
S11364700A431A702A89FA235B00534368680B495C
S1136480221C0B4DA847031C20650020834205DA1B
S11364901C2002E0162000E00C20404238BDC0461B
S11364A04B7500001575000001750000316C00008B
S11364B029620000002802D04165002001E0162076
S11364C040427047F0B5061C85B00F1C00240F4BEA
S11364D0E558002D15D0E91C301C0D4B98470028B9
S11364E00FD16A46022313802B1C58331B88019753
S11364F05BBA53800220285669461022054B984700
S113650002E004341C2CE2D105B0F0BDE00200200E
S1136510B1790000A93B0000F0B5041C89B00D1C42
S1136520002851D000294FD0081C394B98474028E7
S11365304CD8211C43310B780191DB07D90F6A46F3
S1136540CEB2E01C1172002E42D10127291C314B1E
S113655027809847019A022013780199BB4383430B
S1136560E32213406A460B70127A231C4833666494
S11365701A709A7C5E80531E9A41D2B2391C264B03
S11365809847A070002825DB244B8000C4502B1CA6
S11365901F78002F26D02022391C91430A1C413A2F
S11365A0D2B20133052A0DD93A2F0BD02F2F09D09F
S11365B02E2F02D1002EEBD00FE03022174097424D
S11365C0E6D00AE00126E3E7162004E05B2002E0BF
S11365D0782000E01C20404217E0281C104B98470C
S11365E0002012E06A4602231382231C58331B88BE
S11365F0281C5BBA53820B4B984705900220205607
S113660004A91022084B9847381C09B0F0BDC046B5
S1136610D5790000C5790000CD3A0000E0020020E1
S1136620493E0000DD3D0000A93B0000F0B595B0F7
S113663002AF7B613B1C70331B78051CFB603B1C69
S113664074331B783961FA61BB60002801D11620CC
S113665029E1C36E68460733DB08DB00C01A8546B0
S113666002AC7C603C6E002CF1D02B1C43331B78B5
S1136670D80700D412E19A0700D511E11C070BD406
S11366808B4E386EB047031CB861F8690E33341C66
S1136690002813D11E1C1DE02B1C70331B78002B0B
S11366A000D0FFE02B1C43331B781A07E8D5814B3D
S11366B000209847E86D804B9847F3E7F869B047A6
S11366C0BE697B6910363618002B03D0181CA0470E
S11366D002363618786E002807D0A0470236FC6EC2
S11366E030180619002C00D1061CFC69002C06D0B9
S11366F0C024BC617C69002C03D1802400E0FC69C7
S1136700BC617C6E002C0FD0BC68002C03D0BC692B
S113671020231C43BC61FC6803232340DB00BC69C9
S1136720042213431C43BC613C69002C03D0BC69A4
S113673002231C43BC612B1C43331A7808210A43EF
S11367401A70381C0095203079685C4BEA6E5C4CFA
S1136750A047381C203010215A4B9847802E09DD61
S1136760802149423143381C49B22030554CA0475E
S1136770F611F3E7544B1E4004D58023013E5B42DF
S11367801E430136381C71B220304E4CA047381CD1
S11367904E4C20300621A047381C4D4B20304D492B
S11367A006229847381C20300321464A9047BB698B
S11367B0381C444A59B2203090472B1C60330020C7
S11367C0195E381C2030A047394E386EB04701B2EC
S11367D0381C2030A047386EB047021C381C2030CB
S11367E0396E3B4B9847786E002815D0B04701B2FC
S11367F0381C2030A047786EB047021C381C344C3B
S11368002030796EA047BC6E002C05D0381C211CAA
S11368102030FA6E2E4CA047FC69002C1FD0244E69
S1136820201CB04701B2381C2030284CA047F8691E
S1136830B047021C381C2030F969254CA047786900
S113684000280CD0B04701B2381C204A20309047B1
S11368507869B047021C381C20307969A047381C7D
S11368602C1C20301C4B4334984721788907C90FCE
S113687001290BD1EA6C002A08D16B6D002B05D0DD
S11368803420C2553A1C281C3432984723780222FB
S11368901343082293432370002005E0802002E084
S11368A0782000E00B204042BD4613B0F0BDC04646
S11368B0D5790000412200009D620000A56300001C
S11368C0BD600000E96000007F00008011610000ED
S11368D0296100008C9A0000CD600000F0B593B0EF
S11368E002AFFB603B1C58331B78041C3B613B1C10
S11368F05C331B787961BA607B60002801D116256E
S1136900A7E0C36E6A460733DB08DB00D21A7B6953
S1136910954602AE002BF2D03A69022AEFD8051C44
S113692043352B789A0700D490E01A070AD44B4BCE
S113693078699847FD683B6902352D18002B11D002
S113694002350FE0031C70331B78002B00D07FE06E
S11369502B781A07EBD5424B00209847E06D414B4A
S11369609847F5E7231C43331A7808210A431A7021
S1136970381C0094311C2C30E26E3B4B3B4EB0472C
S11369807B6801211940302319433B69381C5A00A4
S11369900623134019432C30354B9847344B802D34
S11369A008DD802149422943381C49B22C309847DC
S11369B0ED11F3E72F4A154004D58022013D5242E0
S11369C015430135381C69B22C309847234E786939
S11369D0B04701B2381C2C30274DA8477869B0471E
S11369E0021C381C2C307969244EB0473A69002ABD
S11369F006D02188381C4B1C238009B22C30A847B0
S1136A002388002B01D101232380BB68002B06D0EF
S1136A10FA68002A03D0381C2C30191CB047381CE3
S1136A20174B2C309847231C43331A7808218A4388
S1136A301A703B690025AB420CD1636DAB4209D09F
S1136A403A1C201C02211832984703E0802500E0FC
S1136A500B256D42281CBD4611B0F0BDD579000050
S1136A60412200009D620000A5630000BD6000009B
S1136A70E96000007F0000801161000029610000CE
S1136A80CD600000F0B58DB002AF041CB9607A602F
S1136A9001D1162086E0C36E6A460733DB08DB00AB
S1136AA0D21A954602AD3D60BD68002DF1D07D68D7
S1136AB0022DEED8051C43352B789A076FD51A079B
S1136AC01AD4B868394DA847251C43352B780822B9
S1136AD013432B70FD60461D0094381C1430396834
S1136AE0E26E334B334DA847381C7E2114304942A3
S1136AF0314B98472D4D0EE0031C70331B78002B4F
S1136B004FD12B781A07DCD52C4B00209847E06D29
S1136B102B4B9847F5E7284B802E08DD802149420E
S1136B203143381C49B214309847F611F3E725492C
S1136B30314004D580220139524211430131381CBD
S1136B4049B2143098472188381C4B1C238009B261
S1136B5014301D4EB0472388002B01D1012323801C
S1136B60B868A84701B2381C1430B047B868A847C1
S1136B70021C381C1430B968144B98477D68381CC3
S1136B8069B214300C4B9847381C1430104B98479A
S1136B90FD6808222B78002093432B7003E08020AB
S1136BA000E00B204042BD460BB0F0BDD57900009B
S1136BB0A5630000BD600000E96000004122000000
S1136BC09D6200007F0000801161000029610000C7
S1136BD0CD600000F7B5C02301A900250B704D70EE
S1136BE0A84219D0041C433423789A0716D51A07EF
S1136BF016D408263343237080782B1C40B202221B
S1136C00094FB8472B1CA8420CDA2378B3432370EE
S1136C10064B9847031C05E0162302E0802300E09E
S1136C200B235B42181CFEBD393C00005563000079
S1136C3070B5051C86B00E1C141C002812D0002A46
S1136C4010D0101C084B9847002804DA281C311C6B
S1136C500022064B05E0636D002B03D0201C0721A6
S1136C6001AA984706B070BDD56B000061620000B0
S1136C70F7B5022301AC00276370B8421ED0051C8F
S1136C8043352B789E071BD51E071BD40826334398
S1136C902B7080782170110AA170E270211C3B1CBA
S1136CA040B20422094CA0473B1CB8420CDA2B78B2
S1136CB0B3432B70064B9847031C05E0162302E0F0
S1136CC0802300E00B235B42181CFEBD393C00000E
S1136CD05563000030B5041C87B000281CD0022086
S1136CE00E4B20569847231C43331A78FC219507F2
S1136CF00A401A70E36CE06D01930023E364216D94
S1136D00074B9847636DED0F002B05D0002D03D082
S1136D10201C052101AA984707B030BD653D00003D
S1136D208D620000F7B5E02301AE0027051C337027
S1136D307770B84236D0041C433423789A0733D58D
S1136D40B9422BD11A0714D42378102213430827ED
S1136D503B43237002202856311C02220023154D88
S1136D60A847002814DA2378BB432370124B9847B2
S1136D701EE0031C70331B78002B17D123781A07ED
S1136D80E2D50E4B00209847E86D0D4B9847F5E788
S1136D902378022293432370002009E0094B98478B
S1136DA0381C05E0162002E0802000E00B20404261
S1136DB0FEBDC046393C000055630000412200007E
S1136DC09D620000D56C0000F0B5041C406E0F23DA
S1136DD0027887B0151C9D43502D00D198E008D847
S1136DE0302D3FD0402D00D1B3E0202D00D0C3E0A2
S1136DF00EE0702D00D1ACE003D8602D00D196E0F8
S1136E00BAE0902D00D1AAE0B02D00D1ADE0B3E0FE
S1136E1001AA0323012900D9C37813701378002B26
S1136E200DD0636D002B02D0201C012198476F23E5
S1136E305B42E364201C0021504B98479CE0231CD8
S1136E40433319788907C90F05D11A78E1640221FF
S1136E500A431A7090E0636D002B00D18CE0201C73
S1136E60012188E001AD13072A7CDB0F04269B0077
S1136E70B2431A432A7407780323D2B27F089A4391
S1136E801F40131C3B432B74431C18785A1C7F2847
S1136E9001D9131CF9E758789E7800023043033374
S1136EA00026686001931818B74204D00678437826
S1136EB036021E4302305118636DA860081AE86058
S1136EC0002B03D0201C06212A1C98472B7C9B07EF
S1136ED09B0F012B0BD1B6B2201C4021321C284B36
S1136EE09847002848D0231C483340220CE0022B4A
S1136EF042D1B6B2201C5021321C214B98470028A5
S1136F003AD0231C483350224A341A70268033E086
S1136F108578C3782D021D43201C62212A1C184B3E
S1136F209847002828D0231C483360220DE0857838
S1136F30C3782D021D43201C70212A1C104B984736
S1136F40002819D0231C483370224A341A70258033
S1136F5012E0636D002B0FD0201C02210AE0636D48
S1136F60002B09D0201C032104E0636D002B03D007
S1136F70201C042101AA984707B0F0BD256D00002C
S1136F80716C000038B5041E17D0426C836E9A42AF
S1136F9006D98B235B42C3640021084B98470CE05D
S1136FA0626C636E02209918A36E20569A1A92B2EC
S1136FB00023034DA8470028F2D138BD256D0000F9
S1136FC0D13C0000F7B5041E42D0636C676ECA184A
S1136FD001230197626400261D1CA94203DC201CC6
S1136FE01C4B984734E0019F785DDF01BC46032DBC
S1136FF001D14D230EE07F2707407B4340B201358A
S1137000F618002801DA6346E7E7A36EAF199F423A
S113701007D98B235B42E364201C00210E4B984765
S113702016E0BA4214D30D4B201C311C9847636CF4
S1137030BB4202D1002363640AE09E1B019B751BC3
S1137040D919181C2A1C064B984765640021BCE713
S1137050F7BDC046856F0000256D0000C96D0000B6
S11370602775000070B5374D8600745986B0002C22
S113707066D006292BD0072939D0052960D10120F3
S11370801056314B98470190002806DA02202F4B06
S1137090205698470023735111E0231C43331A7878
S11370A001210A431A701D331B88002B04D0E06DA4
S11370B0216D0022264B9847201C264B9847636D70
S11370C0002B3DD0201C002101AA984738E004235E
S11370D0D15E002903DD201C1F4B984703E00B1CE5
S11370E0081C0D331AD11B4B201C984728E0231C85
S11370F0433310881A78510702D408218A431A703E
S11371001A7804218A431A70D306DE0F00B2002BCA
S113711002DB002808DA01E0002802DA0A4B98476B
S1137120E064201C0D4BE0E7251C48352978002934
S113713006D0231C4A331A88201C094B98472E700A
S113714006B070BDE002002055630000653D0000FC
S113715061620000856F0000C56F0000D56C0000FF
S1137160716C000002B4714649084900095C490089
S11371708E4402BC7047C046002243088B4274D33D
S113718003098B425FD3030A8B4244D3030B8B4224
S113719028D3030C8B420DD3FF22090212BA030C2D
S11371A08B4202D31212090265D0030B8B4219D30E
S11371B000E0090AC30B8B4201D3CB03C01A52412E
S11371C0830B8B4201D38B03C01A5241430B8B4276
S11371D001D34B03C01A5241030B8B4201D30B035F
S11371E0C01A5241C30A8B4201D3CB02C01A524186
S11371F0830A8B4201D38B02C01A5241430A8B4249
S113720001D34B02C01A5241030A8B4201D30B0231
S1137210C01A5241CDD2C3098B4201D3CB01C01A4B
S1137220524183098B4201D38B01C01A5241430955
S11372308B4201D34B01C01A524103098B4201D343
S11372400B01C01A5241C3088B4201D3CB00C01AB0
S1137250524183088B4201D38B00C01A5241430828
S11372608B4201D34B00C01A5241411A00D201464D
S1137270524110467047FFE701B5002000F0F0F8D6
S113728002BDC0460029F7D076E7704703460B439A
S11372907FD4002243088B4274D303098B425FD30B
S11372A0030A8B4244D3030B8B4228D3030C8B4237
S11372B00DD3FF22090212BA030C8B4202D312121D
S11372C0090265D0030B8B4219D300E0090AC30BF2
S11372D08B4201D3CB03C01A5241830B8B4201D39F
S11372E08B03C01A5241430B8B4201D34B03C01A88
S11372F05241030B8B4201D30B03C01A5241C30A00
S11373008B4201D3CB02C01A5241830A8B4201D370
S11373108B02C01A5241430A8B4201D34B02C01A5A
S11373205241030A8B4201D30B02C01A5241CDD2FF
S1137330C3098B4201D3CB01C01A524183098B424A
S113734001D38B01C01A524143098B4201D34B0133
S1137350C01A524103098B4201D30B01C01A524196
S1137360C3088B4201D3CB00C01A524183088B421D
S113737001D38B00C01A524143088B4201D34B0006
S1137380C01A5241411A00D2014652411046704778
S11373905DE0CA0F00D04942031000D3404253407D
S11373A000229C4603098B422DD3030A8B4212D33D
S11373B0FC22890112BA030A8B420CD3890192116F
S11373C08B4208D3890192118B4204D389013AD0AC
S11373D0921100E08909C3098B4201D3CB01C01A81
S11373E0524183098B4201D38B01C01A5241430994
S11373F08B4201D34B01C01A524103098B4201D382
S11374000B01C01A5241C3088B4201D3CB00C01AEE
S1137410524183088B4201D38B00C01A5241D9D206
S113742043088B4201D34B00C01A5241411A00D287
S11374300146634652415B10104601D34042002B83
S113744000D54942704763465B1000D3404201B502
S1137450002000F005F802BD0029F8D016E77047B7
S11374607047C046F0B5CE46474615042D0C2E0095
S113747080B50704140C3F0C9946030C7E435D430E
S1137480674363437F19340CE4199C46A54203D92E
S113749080235B029846C4444B465143434336041D
S11374A0360C250C24046544A419591849192000E4
S11374B00CBC90469946F0BD70B500260C4D0D4CA1
S11374C0641BA410A64209D1002602F02FFB0A4D2A
S11374D00A4C641BA410A64205D170BDB300EB583E
S11374E098470136EEE7B300EB5898470136F2E7C8
S11374F0389B0000389B0000389B00003C9B000038
S113750010B5034B0100186800F072F810BDC046B6
S113751014000020002310B59A4200D110BDCC5CA9
S1137520C4540133F8E710B5884202D98B18984245
S113753008D300239A4207D0CC5CC4540133F9E742
S11375408B5C8354013AFBD210BD03008218934232
S113755000D1704719700133F9E7000070B50500D8
S1137560002910D00C1F2368002B00DAE41828002F
S113757000F00EFD1D4A1368002B05D163601460F2
S1137580280000F006FD70BDA34209D921686018E7
S11375908342F3D118685B6841182160EEE7130059
S11375A05A68002A01D0A242F9D919685818A04291
S11375B00BD120680918581819608242E0D110686C
S11375C05268411819605A60DAE7A04202D90C23C4
S11375D02B60D5E721686018824203D11068526895
S11375E04118216062605C60CAE7C046FC0200206A
S11375F0032370B5CD1C9D43083506000C2D1ED207
S11376000C25A9421DD8300000F0C2FC254A14689C
S11376102100002919D1244C2368002B03D1300008
S113762000F0DCF820602900300000F0D7F8431C9B
S11376302CD10C233000336000F0ABFC03E0002DB0
S1137640DFDA0C233360002070BD0B685B1B1AD497
S11376500B2B03D90B60CC18256003E08C420ED1B0
S113766063681360300000F094FC200007220B30A4
S1137670231D9043C31AE7D05A42E250E4E74B6813
S113768063600C00EEE70C004968C2E70323C41CE6
S11376909C43A042E0D0211A300000F09FF8431C24
S11376A0DAD1C6E7FC020020000300200FB40B4B24
S11376B013B51C68002C05D0A369002B02D120004F
S11376C000F064FB05AB049AA1682000019300F06C
S11376D0EFFD16BC08BC04B01847C04614000020D7
S11376E0084B70B51C680500002C05D0A369002B5D
S11376F002D1200000F04AFB2900A268200001F01A
S11377007BF870BD1400002070B505000E00002841
S113771004D08369002B01D100F038FBAB69AC685D
S1137720002B02D1280000F031FB244B9C420FD1E6
S11377306C68A3891B0702D52369002B20D1210083
S1137740280000F0B5F900281AD00120404270BD8D
S11377501B4B9C4201D1AC68EBE71A4B9C42E8D12D
S1137760EC68E6E7013B0136A360002B04DAA2696A
S1137770934216DB0A2914D023685A1C226019701C
S11377803178A3680029EDD1013BA360002B0FDA07
S113779022000A31280000F035F9431CD5D00A2014
S11377A0D5E72200280000F02DF9431CE8D1CCE7EE
S11377B00A2023685A1C22601870C8E7B89A00008F
S11377C0D89A0000989A000010B5034B010018687D
S11377D0FFF79AFF10BDC04614000020002370B5C7
S11377E0064C050008002360FEF74AFC431C03D145
S11377F02368002B00D02B6070BDC046F00400202D
S11378004A424A41802310B55200DB0000F002F8DE
S113781010BD0000F0B51D004F4B85B01E6804007C
S11378200F000092002E05D0B369002B02D1300066
S113783000F0ACFA494B9C4250D17468009B022B77
S113784005D0012B00D984E0002D00DA81E021006D
S1137850300000F02DFA616B002908D02300443376
S1137860994202D03000FFF779FE002363630023BE
S1137870A3616360A3891B0603D521693000FFF768
S11378806DFEA389364A1340A381009B022B5AD074
S113789003AB02AA2100300000F00EFBA3891843B9
S11378A0A081002D24D1029D2800FFF729FE019517
S11378B0071E42D1029B0193AB4239D101204042C1
S11378C00223A2891343A3810023A3602300473327
S11378D0236023610123636105B0F0BD214B9C4209
S11378E001D1B468AAE7204B9C42A7D1F468A5E76C
S11378F0002FD9D0B369002B02D1300000F046FA32
S1137900009B012B03D1A389009A1A43A28108206A
S1137910A389276027616561184018D001201840A9
S11379200023984211D06D42A360A5611800D3E7EB
S11379300198FFF7E5FD071EC0D08023A289019DB1
S11379401343A381D6E70020BAE7A560C4E7A0608B
S1137950C2E701204042BFE714000020B89A0000AB
S11379605CF3FFFFD89A0000989A00000EB410B59B
S11379709DB002A9029008610B4882248860486186
S1137980012040421FABC881084804CBA400006812
S113799001938C8100F060FB0023029A13701DB0E8
S11379A010BC08BC03B01847FFFFFF7F1400002081
S11379B002780B78002A03D0013001319A42F7D0C3
S11379C0D01A7047031C0A7801311A700133002A57
S11379D0F9D170470023C25C0133002AFBD1581E41
S11379E07047002330B59A420AD0013AC45CCD5C9A
S11379F0AC4204D19A4202D00133002CF6D1631B6D
S1137A00180030BDF8B505000E001400002804D09D
S1137A108369002B01D100F0B9F9224B9C422DD18E
S1137A206C68A369A360A3891B0731D52369002B64
S1137A302ED023682269F7B2981A6369F6B2984285
S1137A4005DB2100280000F033F9002826D1A368C3
S1137A500130013BA36023685A1C22601F706369D4
S1137A60984204D0A389DB071AD50A2E18D1210025
S1137A70280000F01DF9002812D00FE00A4B9C42A8
S1137A8001D1AC68CDE7094B9C42CAD1EC68C8E788
S1137A902100280000F00CF80028CAD00126764204
S1137AA03000F8BDB89A0000D89A0000989A0000F7
S1137AB0364B70B51D6806000C00002D05D0AB696F
S1137AC0002B02D1280000F061F9314B9C420FD108
S1137AD06C680C23E25E93B219072DD4D90611D435
S1137AE009230120336037331343A381404270BD1F
S1137AF0284B9C4201D1AC68EBE7274B9C42E8D170
S1137B00EC68E6E75B0713D5616B002908D0230016
S1137B104433994202D03000FFF720FD0023636311
S1137B202422A3899343A3810023636023692360F0
S1137B300823A2891343A3812369002B0BD1A0211D
S1137B408022A389890092000B40934203D0210034
S1137B50300000F0D9F90123A289134011D0002389
S1137B60A36063695B42A361002023698342BED1A1
S1137B700C23E25E1306BAD540231343A3810138D4
S1137B80B5E7920700D46369A360EDE71400002011
S1137B90B89A0000D89A0000989A0000F7B58A892C
S1137BA005000C00130760D44B68002B04DC0B6C3D
S1137BB0002B01DC0020FEBDE76A002FFAD0002371
S1137BC02E682B6080235B011A4034D0606DA3893A
S1137BD05B0706D56368C01A636B002B01D0236C66
S1137BE0C01A0200216A00232800E76AB847A18965
S1137BF0431C06D12B681D2B31D82C4ADA40D307FD
S1137C002DD50023636023692360CB0405D5431C71
S1137C1002D12B68002B00D16065616B2E600029B6
S1137C20C8D023004433994202D02800FFF796FCC1
S1137C3000206063BFE70123216A2800B847431C82
S1137C40C5D12B68002BC2D01D2B01D0162B01D11E
S1137C502E60AFE74023A2891343A381ABE74023FF
S1137C600B430120A3814042A5E70F69002FA1D057
S1137C700B680F60DB1B01930023920700D14B6953
S1137C80A360019B002B00DC94E7019B3A00216A6E
S1137C902800A66AB047002803DC4023A2891343C6
S1137CA0DFE7019B3F181B1A0193EAE7010040201C
S1137CB00B6970B505000C00002B01D1002070BDCC
S1137CC0002804D08369002B01D100F05FF80B4B2E
S1137CD09C4209D16C680C22A35E002BEED02100DB
S1137CE02800FFF75BFFEAE7054B9C4201D1AC6833
S1137CF0F1E7044B9C42EED1EC68ECE7B89A000043
S1137D00D89A0000989A000010B5024900F0B2F821
S1137D1010BDC046B17C0000002310B50400036010
S1137D204360836081814366C281036143618361EF
S1137D30190008225C30FFF708FC054B24626362DB
S1137D40044BA362044BE362044B236310BDC0469F
S1137D50658800008D880000C5880000F188000057
S1137D6070B568254A1E55430E0029007431FFF78B
S1137D703FFC041E08D000212A00016046600C303C
S1137D80A0606832FFF7E1FB200070BD836913B582
S1137D900400002B28D18364C3640365134B144A85
S1137DA01B6882620193984201D101238361200000
S1137DB000F020F86060200000F01CF8A0602000B3
S1137DC000F018F80022E06004216068FFF7A4FFC7
S1137DD001220921A068FFF79FFF02221221E06817
S1137DE0FFF79AFF0123A36113BDC046949A0000D4
S1137DF0097D0000F8B51E4B07001E68B369002B0F
S1137E0002D13000FFF7C2FF4836B4687368013B03
S1137E1004D53368002B07D03668F6E70C22A55E3C
S1137E20002D0DD06834F2E704213800FFF798FFE5
S1137E3030600028F0D10C2304003B602000F8BD22
S1137E40012320005B42E3810233A3816566256040
S1137E50A560656025616561A561082229005C3023
S1137E60FFF773FB6563A563A564E564E6E7C046B5
S1137E70949A0000F7B504000700002601914834E5
S1137E80002C01D13000FEBD6368A5680093009BFF
S1137E90013B009301D52468F2E7AB89012B08D993
S1137EA00E22AB5E013304D029003800019B9847B1
S1137EB006436835EBE7000070B50E001D000E2385
S1137EC0C95E90B01400002907DA00232B60B3893F
S1137ED01B0611D48023DB000FE001AA00F034FD5F
S1137EE00028F2DBF022029B12021340054A9B1881
S1137EF05A4253412B60EDE740230020236010B029
S1137F0070BDC04600E0FFFFF7B502268B8905006F
S1137F100C00334206D0230047332360236101233E
S1137F206361F7BD01AB6A46FFF7C6FF009907001E
S1137F302800FFF75DFB002808D10C22A35E9A05F8
S1137F40EFD4032293431E43A681E4E70F4BAB62B5
S1137F508023A28920601343A381009B2061636175
S1137F60019B002B0DD00E23E15E280000F0FEFCE7
S1137F70002806D00322A38993431A000123134344
S1137F80A381A0893843A081CBE7C046097D0000C6
S1137F9070477047F0B58E6885B007000C000392F7
S1137FA001939E4239D890238A89DB001A4234D047
S1137FB00325096923685B1A0293636902985D4388
S1137FC0EB0F5D19019B6D1001331B18AB4200D9F7
S1137FD01D00530532D529003800FFF709FB061EA2
S1137FE009D10C233B6040230120A2894042134362
S1137FF0A38105B0F0BD029A2169FFF78BFAA3892A
S1138000144A1A4080231343A381029B2661F61865
S113801026606561019EED1AA560019BB34200D202
S11380201E00320003992068FFF77DFAA368002040
S11380309B1BA36023689E192660DAE72A00380098
S113804000F0C5FC061EE0D121693800FFF786FA6E
S1138050C7E7C0467FFBFFFFF0B59FB002900593D2
S11380608B890F0016001B0611D50B69002B0ED14E
S11380704021FFF7BDFA38603861002805D10C2390
S1138080029A013813601FB0F0BD40237B610023C6
S113809006AD6B6120336B761033AB7634002378F6
S11380A0002B47D1A31B04930DD0A31B320039002E
S11380B00298FFF76FFF431C00D1B5E06A69049B87
S11380C0944663446B612378002B00D1ACE0012219
S11380D0002352426A6002A95432521801342B60C0
S11380E0EB60AB601370AB65584E0522217830000D
S11380F000F062FC621C002820D12968CB0604D55C
S1138100532302AE20309B1918700B0704D5532358
S11381102B2002AE9B19187023782A2B16D000202E
S11381200A21099B2278303A092A55D9002815D00A
S1138130099313E0252BB5D00134B0E70123801B4C
S11381408340296814000B432B60CDE7059B181D61
S11381501B680590002B39DB0993140023782E2B20
S11381600BD16378621C2A2B3ED1059B02341A1D65
S11381701B680592002B34DB0793354E21780322CC
S1138180300000F019FC002806D04023801B8340F7
S11381902A68013413432B60217806222D48661C7B
S11381A0297600F009FC002846D02B4B002B2FD158
S11381B02968059B0722C90528D59B1893430833D2
S11381C005936B69039A9B186B6167E75B42EB60ED
S11381D002230B432B60C0E74B4301349B1801205F
S11381E0A0E701235B42C7E7002314000A201A001A
S11381F06B6021783039092903D9002BBDD007924F
S1138200BBE74243013452180123F2E70733D5E7B1
S113821005AB00933A00114B2900029800E000BF1F
S11382200390039B0133CCD1BB890B985B0600D42C
S113823029E70120404226E705AB00933A00074BAB
S11382402900029800F0BEF9EAE7C046F89A000057
S1138250FE9A0000029B000000000000957F0000D1
S1138260936810B5013B9360002B05DA9469A3422F
S113827008DBCBB20A2B05D01368581C10601970A8
S1138280C8B210BDFFF7BEFBFBE7F8B506000F0050
S11382901400D518AC4201D1002007E021783A003F
S11382A03000FFF7DDFF0134431CF3D1F8BD0000BB
S11382B0F0B59FB006000F0014000593002804D009
S11382C08369002B01D1FFF761FD7F4B9F425CD195
S11382D07768BB891B0762D53B69002B5FD00023FD
S11382E006AD6B6120336B761033AB760294029C3F
S11382F02378002B5DD1029BE31A04930DD0049BD9
S1138300029A39003000FFF7C0FF431C00D1CCE0D3
S11383106A69049B944663446B612378002B00D103
S1138320C3E00122002352426A6002A95432521867
S113833001342B60EB60AB601370AB6521780522D0
S1138340624800F039FB631C9C46002835D129683B
S1138350CB0604D5532302AA20309B1818700B07B0
S113836004D553232B2002AA9B18187023782A2B98
S11383702CD000200A21099B2278303A092A00D8FF
S11383806BE000282AD0099328E0514B9F4201D189
S1138390B7689EE74F4B9F429BD1F76899E7390036
S11383A03000FFF785FB002899D0012040421FB020
S11383B0F0BD252B9FD001349AE7444B2968C01A9D
S11383C0012383400B432B606446B7E7059B181DCC
S11383D01B680590002B3ADB0993644623782E2B07
S11383E00BD16378621C2A2B3FD1059B02341A1DE2
S11383F01B680592002B35DB07932178032236484E
S113840000F0DAFA002807D0334B2A68C01A402358
S1138410834013432B6001342178631C06222F48C8
S11384200293297600F0C8FA002844D02C4B002B84
S11384302FD12968059B0722C90528D59B1893438A
S1138440083305936B69039A9B186B614FE75B4292
S1138450EB6002230B432B60BFE74B4301349B18B3
S1138460012089E701235B42C6E7002314000A20A8
S11384701A006B6021783039092903D9002BBCD04C
S11384800792BAE74243013452180123F2E7073353
S1138490D5E705AB00933A00124B2900300000E009
S11384A000BF0390039B0133CCD1BB895B0600D58D
S11384B07BE70B987BE705AB00933A00094B290057
S11384C0300000F07FF8ECE7B89A0000F89A00005A
S11384D0D89A0000989A0000FE9A0000029B0000BF
S11384E0000000008B820000F7B5150001938A6834
S11384F00B6900900C00934200DA130022002B60F9
S113850043321278002A01D001332B6023689B0682
S113851002D52B6802332B60062723681F4027D01F
S1138520230043331B785A1E93412268920630D4A9
S11385302200019943320098089EB047431C25D07D
S1138540062320682A68E16803400025042B03D130
S11385508D1AEB43DB171D40A3682269934201DDAA
S11385609B1AED180027BD4220D1002010E00137EE
S1138570E3682A689B1A9F42D2DA22000123193247
S113858001990098089EB047431CF0D10120404255
S1138590FEBD3020E1184331087021005A1C4531DA
S11385A00978A218433202331170C1E72200012373
S11385B01A3201990098089EB047431CE6D001374F
S11385C0D1E70000F0B58BB006920A00433207935E
S11385D0059004920A7E0C00109B6E2A00D18FE055
S11385E017D8632A2CD008D8002A00D199E0582A39
S11385F054D026004236327029E0642A01D0692A18
S1138600F7D121681A68080623D5111D1960156869
S113861025E0732A00D188E008D86F2A29D0702A6F
S1138620E7D1202209680A43226003E0752A20D09A
S1138630782ADED122007821453211706C4A30E06C
S11386400E001A684236111D196013683370012335
S113865079E04906D9D5111D19600023D55E002D96
S113866003DA2D23049A6D421370624B0A27039395
S11386702FE020681968050603D5081D18600D68E9
S113868005E04006F9D50D68081D1860ADB2594BD8
S1138690082703936F2A18D00A2716E045310A7079
S11386A0544A03921A682168101D18601568080658
S11386B022D5CB0702D52023194321601027002D92
S11386C003D1202322689A432260230000224333EB
S11386D01A706368A360002B5CDB04222168914359
S11386E02160002D58D1049E002B64D02600039BEA
S11386F042361B7833705EE04806DAD5ADB2D8E76F
S113870009681A68080605D5111D1960136862699D
S11387101A6006E04906F7D5111D19601368A28A8C
S11387201A800023049E236154E01A68111D196005
S1138730166800216268300000F03EF9002801D07C
S1138740801B6060636823610023049A137041E016
S11387502369320006990598079DA847431C43D016
S1138760236800259B070FD4099BE06898423DDAF3
S113877018003BE022000123193206990598079E50
S1138780B047431C30D00135E368099A9B1A9D42D7
S1138790F0DBE9E7002DA9D0049E28003900FEF79C
S11387A071FD039B013E5B5C280033703900FEF7CA
S11387B0E3FC051EF1D1082F09D12368DB0706D598
S11387C063682269934202DC3023013E3370049BC8
S11387D09B1B2361079B09AA00932100069B059814
S11387E0FFF782FE431CB3D1012040420BB0F0BD21
S11387F01A9B0000099B000070B506000D001400D0
S1138800002804D08369002B01D1FFF7BFFA124B73
S11388109C4211D17468A368013BA360002B05DA64
S1138820A269934212DBEBB20A2B0FD02368E8B2A1
S11388305A1C22601D7070BD084B9C4201D1B46863
S1138840E9E7074B9C42E6D1F468E4E722002900FB
S11388503000FFF7D7F8EEE7B89A0000D89A000086
S1138860989A000070B50C000E25495F00F0D6F808
S1138870002803DB636D1B18636570BDA389024A7E
S11388801340A381F9E7C046FFEFFFFFF8B51F00CF
S11388908B8905000C001600DB0505D50E23C95E87
S11388A00022022300F074F8A389054A280013402B
S11388B0A38132000E23E15E3B0000F01FF8F8BDF7
S11388C0FFEFFFFF70B50C000E25495F00F060F864
S11388D0A389421C03D1054A1340A38170BD8022A1
S11388E052011343A3816065F8E7C046FFEFFFFF21
S11388F010B50E23C95E00F015F810BD70B5050063
S1138900080011000022064C22601A00FDF790FBBB
S1138910431C03D12368002B00D02B6070BDC046DC
S1138920F0040020002370B5064C05000800236005
S1138930FDF7B8FB431C03D12368002B00D02B6048
S113894070BDC046F0040020002370B5064C05003D
S1138950080011002360FDF7A8FB431C03D1236822
S1138960002B00D02B6070BDF0040020002370B5F4
S1138970064C050008002360FDF79CFB431C03D153
S11389802368002B00D02B6070BDC046F00400208B
S113899070B50500080011000022064C22601A0080
S11389A0FDF78AFB431C03D12368002B00D02B6006
S11389B070BDC046F0040020C9B28218904201D1B3
S11389C00020704703788B42FBD00130F6E7F8B5FE
S11389D007000D001600002905D11100FEF708FE5E
S11389E004002000F8BD002A03D1FEF7B7FD3400CF
S11389F0F7E700F027F82C008642F2D9310038005E
S1138A00FEF7F6FD041EECD029003200FEF782FDCD
S1138A1029003800FEF7A2FDE3E7000070B5050069
S1138A20080011000022064C22601A00FDF7DEFA4D
S1138A30431C03D12368002B00D02B6070BDC046BB
S1138A40F00400200B1F1B68181F002B01DA0B58C1
S1138A50C0187047002C004200300042003400422D
S1138A606D326D2E65636C697073652E6F7267006D
S1138A70436F6E6E656374206661696C20746F2049
S1138A807365727665722825732921207265747264
S1138A9079206974206175746F6D61746963616CA8
S1138AA06C792E0D0A00000061746D656C2F736182
S1138AB06D706C652F636861745F64656D6F2F23DF
S1138AC0000000005072657061726174696F6E20FD
S1138AD06F66207468652063686174206861732020
S1138AE06265656E20636F6D706C657465642E0DD0
S1138AF0000000004D5154542062726F6B65722067
S1138B006465636C696E6520796F75722061636357
S1138B1065737321206572726F7220636F646520C0
S1138B2025640D0A0000000061746D656C2F73618B
S1138B306D706C652F636861745F64656D6F2F0081
S1138B40203E3E20000000000D0000004D51545412
S1138B5020646973636F6E6E65637465640D0000F1
S1138B604D51545420696E697469616C697A6174F9
S1138B70696F6E206661696C65642E204572726F40
S1138B807220636F646520697320282564290D0AA7
S1138B90000000004D515454207265676973746578
S1138BA0722063616C6C6261636B206661696C65E1
S1138BB0642E204572726F7220636F64652069733E
S1138BC020282564290D0A00456E74657220746896
S1138BD0652075736572206E616D6520284D61781E
S1138BE02025642063686172616374657273290D62
S1138BF00A00000055736572203A2025730D0A009F
S1138C002573257300000000746F706963203A2097
S1138C1025730D0A000000006D61696E3A206D3203
S1138C206D5F776966695F696E69742063616C6CF6
S1138C30206572726F7221282564290D0A000000D4
S1138C4057692D466920636F6E6E65637465640DA4
S1138C500000000057692D466920646973636F6ED4
S1138C606E65637465640D003131313131313131F8
S1138C700000000046696C65487562506C75732D80
S1138C80453132450000000057692D46692049509E
S1138C902069732025752E25752E25752E25750DB5
S1138CA00A00000053656E7365726100257500004B
S1138CB02573000053656E736572613030317878C6
S1138CC07878787878787878787878787878787820
S1138CD07878787878787878787878787878780088
S1138CE04C65616B2C202564206D730D0A00000017
S1138CF0466C7573682C202564206D730D0A000082
S1138D004F766572666C6F77210D000012131400A4
S1138D106E6D5F6275735F696F63746C0000000051
S1138D20284150502928455252295B25735D5B2503
S1138D30645D0000696E76616C69646520696F63C7
S1138D406C7420636D640000FC1D0000D41D0000E1
S1138D50CC1D0000E41D0000DC1D0000FC1D000013
S1138D60EC1D0000F41D00006869665F73656E64A5
S1138D70000000006869665F697372006869665F75
S1138D8068616E646C655F69737200006869665F30
S1138D9072656365697665006869665F72656769AF
S1138DA0737465725F636200286869662920574995
S1138DB046495F484F53545F5243565F4354524CA5
S1138DC05F3120627573206661696C00286869668A
S1138DD0292061646472657373206275732066610F
S1138DE0696C0000286869662920436F7272757087
S1138DF0746564207061636B65742053697A6520BF
S1138E003D202575203C4C203D2025752C204720F5
S1138E103D2025752C204F50203D20253032583ED2
S1138E200A000000286869662920696E76616C6909
S1138E30642067726F757020494400002868696671
S1138E402920686F737420617070206469646E27D0
S1138E50742073657420525820446F6E65000000BE
S1138E6028686966292057726F6E672053697A658E
S1138E700000000028686966292046616C7365203B
S1138E80696E7465727275707420256C78000000C8
S1138E902868696629204661696C20746F205265D0
S1138EA0616420696E74657272757074207265678E
S1138EB0000000002868696629204641494C207456
S1138EC06F2077616B6575702074686520636869CD
S1138ED0700000002848494629204661696C2074C6
S1138EE06F2068616E646C6520696E74657272755A
S1138EF070742025642074727920416761696E2E34
S1138F002E0A0000206869665F726563656976658C
S1138F103A20496E76616C696420617267756D658B
S1138F206E7400004150502052657175657374650C
S1138F30642053697A65206973206C617267657275
S1138F40207468616E207468652072656369766553
S1138F5064206275666665722073697A65203C25B3
S1138F60643E3C25643E0A004150502052657175B0
S1138F70657374656420416464726573732062650B
S1138F80796F6E64207468652072656369766564C0
S1138F90206275666665722061646472657373200D
S1138FA0616E64206C656E677468000047527020BF
S1138FB03F2025640A000000284849462946616983
S1138FC06C20746F2077616B757020746865206302
S1138FD0686970006D326D5F776966695F6362000E
S1138FE06D326D5F776966695F696E697400000050
S1138FF06D326D5F776966695F636F6E6E6563740A
S11390005F736300284150502928494E464F290078
S1139010436F6E666C696374656420495020222036
S113902025752E25752E25752E25752022200A00DE
S1139030524551204E6F7420646566696E656420E4
S113904025640A004B6579206973206E6F7420765D
S1139050616C696400000000496E76616C6964208B
S11390604B65790053534944204C454E20494E5694
S1139070414C494400000000434820494E56414CAD
S113908049440000496E76616C696420576570201C
S11390906B657920696E6465782025640A00000098
S11390A0496E76616C696420576570206B65792020
S11390B06C656E6774682025640A0000496E636FEE
S11390C072726563742050534B206B6579206C6514
S11390D06E67746800000000756E646566696E658D
S11390E06420736563207479706500004669726D4D
S11390F077617265207665722020203A2025752ECE
S113910025752E25750A00004D696E2064726976F6
S1139110657220766572203A2025752E25752E25D8
S1139120750A000043757272206472697665722054
S11391307665723A2025752E25752E25750A000050
S11391404D69736D61746368204669726D617772ED
S1139150652056657273696F6E0000006E6D5F6303
S11391606C6B6C6573735F77616B650063686970C2
S11391705F6465696E6974006661696C6564207416
S11391806F2064652D696E697469616C697A650024
S11391904572726F72207768696C652077726974A2
S11391A0696E6720726567004572726F7220776816
S11391B0696C652072656164696E67207265670019
S11391C0427573206572726F72202831292E2057E0
S11391D0616B65207570206661696C6564000000D0
S11391E0427573206572726F72202832292E2057BF
S11391F0616B65207570206661696C6564000000B0
S1139200636C6F636B73207374696C6C204F464698
S11392102E2057616B65207570206661696C6564EA
S1139220000000006E6D5F6472765F696E697400A1
S11392306E6D5F6472765F6465696E6974000000C8
S11392405B6E6D692073746F705D3A20636869703A
S11392505F6465696E6974206661696C0000000072
S11392605B6E6D692073746F705D3A2053504920B2
S1139270666C6173682064697361626C6520666101
S1139280696C00005B6E6D692073746F705D3A20C9
S11392906661696C20696E697420627573000000F0
S11392A06661696C656420746F20656E61626C65CB
S11392B020696E74657272757074732E2E000000CE
S11392C05B6E6D692073746172745D3A20666169C6
S11392D06C20696E6974206275730000436869705C
S11392E020494420256C780A00000000F82F000073
S11392F0F82F000028300000AA2F0000CE2F000015
S1139300DC2F00000E3000000E300000563000004C
S11393108E2F00009030000090300000903000004C
S113932090300000EA2F00007370695F636D640081
S11393307370695F636D645F727370007370695FEB
S1139340646174615F726561640000007370695FD9
S1139350646174615F777269746500007370695F3A
S113936077726974655F7265670000006E6D5F7384
S113937070695F7772697465000000007370695FDB
S1139380726561645F726567000000006E6D5F73F3
S113939070695F72656164006E6D5F7370695F69A7
S11393A06E6974000009121B242D363F48415A533C
S11393B06C657E7719100B023D342F265158434AB1
S11393C0757C676E323B2029161F040D7A73686121
S11393D05E574C452B2239300F061D14636A717891
S11393E0474E555C646D767F4049525B2C253E3771
S11393F008011A137D746F6659504B42353C272E71
S11394001118030A565F444D727B60691E170C05E0
S11394103A3328214F465D546B627970070E151C50
S1139420232A31384148535A656C777E09001B1250
S11394302D243F3658514A437C756E671019020B30
S1139440343D262F737A6168575E454C3B322920A0
S11394501F160D046A6378714E475C55222B303910
S1139460060F141D252C373E0108131A6D647F76F0
S113947049405B523C352E2718110A03747D666FF0
S11394805059424B171E050C333A21285F564D4460
S11394907B7269600E071C152A233831464F545DD0
S11394A0626B70795B6E6D69207370695D3A2046FA
S11394B061696C656420696E7465726E616C20729A
S11394C06561642070726F746F636F6C2077697468
S11394D06820435243206F6E2C2072657479726940
S11394E06E67207769746820435243206F66662E46
S11394F02E2E00005B6E6D69207370695D3A204604
S113950061696C656420696E7465726E616C207249
S11395106561642070726F746F636F6C2E2E2E0001
S11395205B6E6D69207370695D3A204661696C6594
S11395306420696E7465726E616C207772697465FB
S11395402070726F746F636F6C207265672E2E2E9D
S1139550000000005B6E6D69207370695D3A2046FF
S113956061696C20636D642072656164206368695D
S1139570702069642E2E2E005B6E6D6920737069F5
S11395805D3A204661696C656420636D642C2072C9
S113959065616420626C6F636B20282530387829FC
S11395A02E2E2E0A000000005B6E6D692073706918
S11395B05D3A204661696C656420636D6420726560
S11395C073706F6E73652C207265616420626C6FBA
S11395D0636B202825303878292E2E2E0A000000AF
S11395E05B6E6D69207370695D3A204661696C65D4
S11395F06420626C6F636B206461746120726561C6
S1139600642E2E2E000000005B6E6D69207370695D
S11396105D3A204661696C656420636D642C207733
S11396207269746520626C6F636B2028253038780A
S1139630292E2E2E0A0000005B6E6D69207370695E
S1139640205D3A204661696C656420636D64207214
S11396506573706F6E73652C207772697465206210
S11396606C6F636B202825303878292E2E2E0A0043
S11396705B6E6D69207370695D3A204661696C6543
S113968064206461746120626C6F636B20636D6439
S11396902077726974652C20627573206572726F0D
S11396A0722E2E2E000000005B6E6D6920737069AF
S11396B05D3A204661696C6564206461746120626E
S11396C06C6F636B2077726974652C2062757320EC
S11396D06572726F722E2E2E000000005B6E6D6933
S11396E0207370695D3A204661696C656420646129
S11396F0746120626C6F636B20637263207772699C
S113970074652C20627573206572726F722E2E2E12
S1139710000000005B6E6D69207370695D3A20463D
S113972061696C656420626C6F636B206461746151
S11397302077726974652E2E2E0000005B6E6D69B1
S1139740207370695D3A204661696C656420636DBD
S1139750642077726974652C206275732065727257
S11397606F722E2E2E0000005B6E6D69207370697F
S11397705D3A204661696C656420636D642072659E
S113978073706F6E736520726561642C20627573EB
S1139790206572726F722E2E2E0000005B6E6D6952
S11397A0207370695D3A204661696C656420646168
S11397B0746120726573706F6E7365207265616485
S11397C02C20627573206572726F722E2E2E00002B
S11397D05B6E6D69207370695D3A204661696C65E2
S11397E064206461746120726573706F6E736520A8
S11397F0726561642E2E2E2825303278290A0000E5
S11398005B6E6D69207370695D3A204661696C65B1
S113981064206461746120626C6F636B20726561A3
S1139820642C20627573206572726F722E2E2E0066
S11398305B6E6D69207370695D3A204661696C6581
S113984064206461746120626C6F636B2063726373
S113985020726561642C20627573206572726F7268
S11398602E2E2E005B6E6D69207370695D3A204662
S113987061696C656420636D642C20726561642089
S1139880726567202825303878292E2E2E0A00008C
S11398905B6E6D69207370695D3A204661696C6521
S11398A06420636D6420726573706F6E73652C2021
S11398B07265616420726567202825303878292E06
S11398C02E2E0A005B6E6D69207370695D3A204626
S11398D061696C6564206461746120726561642EE1
S11398E02E2E00005B6E6D69207370695D3A204610
S11398F061696C656420636D642C2077726974659A
S113990020726567202825303878292E2E2E0A00EB
S11399105B6E6D69207370695D3A204661696C65A0
S11399206420636D6420726573706F6E73652C20A0
S11399307772697465207265672028253038782924
S11399402E2E2E0A0000000028455252522943753B
S11399507272656E74203C25643E0A000008004261
S1139960000C0042001000420014004200180042A3
S1139970001C0042F2500000EE500000EE500000C7
S1139980505100005051000006510000F8500000F2
S11399900C5100003E51000010530000F052000032
S11399A0F05200007C530000025300001E530000DC
S11399B0F45200002C5300006C530000000100001E
S11399C00002000000040000040202001A1A1B0036
S11399D0FFFFFF00FFFFFF00FFFF0000080402007D
S11399E00100000002000000040000000800000064
S11399F00010000000200000004000000080000073
S1139A000000010000000200000004000000080043
S1139A100F101100002000420024004200280042E0
S1139A202D2D2057494E43313530302057692D466E
S1139A3069204D5154542063686174206578616DC8
S1139A40706C65202D2D0D0A2D2D2053414D57325C
S1139A50355F58504C41494E45445F50524F202D7C
S1139A602D0D0A2D2D20436F6D70696C65643A20AD
S1139A7046656220323620323031392031363A3070
S1139A80333A3139202D2D0D000000004D5149731A
S1139A9064700000180000200000000000000000B6
S1139AA000000000000000000000000000000000B2
S1139AB000000000000000000000000000000000A2
S1139AC00000000000000000000000000000000092
S1139AD00000000000000000000000000000000082
S1139AE00000000000000000000000000000000072
S1139AF00000000000000000232D302B2000686CC3
S1139B004C0065666745464700303132333435369C
S1139B1037383941424344454600303132333435D5
S1139B20363738396162636465660000F8B5C0464B
S1139B30F8BC08BC9E467047DD000000F8B5C0467E
S10F9B40F8BC08BC9E467047B50000004D
S1139B4C401F000008000000000100000F0000008E
S1139B5C010000001800002000000000B89A00006A
S1139B6CD89A0000989A0000000000000000000041
S1139B7C00000000000000000000000000000000D5
S1139B8C00000000000000000000000000000000C5
S1139B9C00000000000000000000000000000000B5
S1139BAC00000000000000000000000000000000A5
S10B9BBC00000000000000009D
S9035F0994
